:020000040000fa
:080000000001040000000000f3
:020000040000fa
:10020000ef5d21000079220000018800000000005d
:100210000c000700c0512100010020001100070060
:10022000000020000000e000020032000000020098
:100230000000000096160200000000000040da00f6
:100240000000fe004440a900000020000000e00083
:100250000300320000002000a00188004440a800f4
:100260000000060091018800800078000000eb008b
:1002700015003700e280400032a0b4009101ba00be
:10028000e280400032a0b4009102ba00e280400057
:1002900032a0b4000002eb00472bde00f507b200ed
:1002a000602ce10004003a000059eb008301e900f2
:1002b000fdff3e00040037006128e100010032002c
:1002c0000082eb00040007001101ba000200e00008
:1002d000e8ff3a00000006003159ba008301e90046
:1002e0000c0032002159ba008301e90008003200f5
:1002f0000400e00003003a00e280400032a0b400b5
:10030000f5ff370011d9ba008301e900faff3a007e
:100310008100e800e180400032a0b4000000060047
:10032000839f68000100e00002003d0060001000b3
:10033000e08018000300e00002003d0060011100b1
:10034000e0811900050007004f00e00002003b00bb
:1003500060001000e0801800000006006022b80075
:10036000060220000000d0008180d2000482d2006a
:100370008582d2000000a0000202520083825a004f
:10038000030031000202420083824a000000a10003
:0c0390000603e900f3ff3a00000006003d
:020000040000fa
:0200000401f009
:04000000e6ff000017
:020000040000fa
:0200000401f009
:04000400ff7f00007a
:020000040000fa
:0200000401f009
:040008007fff000076
:020000040000fa
:0200000401f009
:04001400ffff0000ea
:020000040000fa
:10000800ee180000ee180000ee180000ee180000d0
:10001800ee180000ee180000ee180000ee180000c0
:10002800ee180000ee180000ee180000ee180000b0
:10003800ee180000ee180000ee180000ee180000a0
:10004800ee1800004c180000ec170000ee18000035
:10005800ee180000ee18000050110000ee18000025
:10006800ee180000ee180000ee180000ee18000070
:10007800ee1800008818000014140000ee180000a4
:10008800ee180000ee180000ee180000ee18000050
:10009800ee180000ee180000ee180000ee18000040
:1000a800ee180000ee180000ee180000ee18000030
:1000b800ee180000ee180000ee180000ee18000020
:1000c800ee180000ee180000ee180000ee18000010
:1000d800ee180000ee180000ee180000ee18000000
:1000e800ee180000ee180000ee180000ee180000f0
:0800f800ee180000ee180000f4
:020000040000fa
:10010800ee180000ee180000ee180000ee180000cf
:10011800ee180000ee180000ee180000ee180000bf
:10012800ee180000ee180000ee180000ee180000af
:10013800ee180000ee180000ee180000ee1800009f
:10014800ee1800004c180000ec170000ee18000034
:10015800ee180000ee18000050110000ee18000024
:10016800ee180000ee180000ee180000ee1800006f
:10017800ee1800008818000014140000ee180000a3
:10018800ee180000ee180000ee180000ee1800004f
:10019800ee180000ee180000ee180000ee1800003f
:1001a800ee180000ee180000ee180000ee1800002f
:1001b800ee180000ee180000ee180000ee1800001f
:1001c800ee180000ee180000ee180000ee1800000f
:1001d800ee180000ee180000ee180000ee180000ff
:1001e800ee180000ee180000ee180000ee180000ef
:0801f800ee180000ee180000f3
:020000040000fa
:10039c000200fa007e0a07000000eb00000f780054
:1003ac000d0037009e00e800402b2100008040002b
:1003bc0010407800004178009e007800402b21000e
:1003cc00008040001040780080407800c0cdb30021
:1003dc009b0a07001e8fe8009e007800700d20001d
:1003ec00808f5000efff36006d0a07000080fa0086
:1003fc00000006000200fa00881f7800640a07005b
:10040c000000eb00000f78000d0037001e04e80020
:10041c009e007800402b21000080400010407800a6
:10042c0080407800c0cdb300610a0700804078009e
:10043c00402b210000004400014878001e8fe8008a
:10044c009e007800700d2000808f5000efff36006a
:10045c00530a07004f0478000080fa0000000600e1
:10046c000600fa00000f78001e00780020079800a4
:10047c002e009000e10f50000a0032002e00900078
:10048c00e20f50000a0032002e0090000000e00045
:10049c000100320009003700c0c0b300f7f2b7000a
:1004ac000900370080c0b300f7f2b7000600370030
:1004bc0020c0b300f7f2b700030037000080eb0058
:1004cc0010079800020037000000eb00100798009e
:1004dc001e0090000080fa00000006000400fa00e4
:1004ec00000f7800400420009e0f10000600320020
:1004fc00100120009e0f100003003200300320007a
:10050c009e0f100005003a001e007800e7f2b700bd
:10051c000000eb0010079800020037000080eb0091
:10052c00100798001e0090000080fa0000000600e2
:10053c000400fa00000f78001e00e00015003200e5
:10054c00000220009e0f1000120032000003200059
:10055c009e0f10000f003200000420009e0f1000b0
:10056c000c003200000520009e0f10000900320024
:10057c00000620009e0f100006003200000620002e
:10058c009e0f100003003200000120009e0f10008f
:10059c0005003a001e007800e1f2b7000000eb0005
:1005ac0010079800020037000080eb00100798003d
:1005bc001e0090000080fa00000006000a00fa00fd
:1005cc002007980031079800ae0090003e00900084
:1005dc00808f5000030039000080eb00400798002a
:1005ec001e003700be00900030382000808f500075
:1005fc00030036000080eb0040079800170037001e
:10060c002e0090000000e900200798002e009000ba
:10061c00204798002e0090004800de0030479800dc
:10062c003e009000004f78003e0090004800de0035
:10063c00104798003e409000bdf2b7002e4090004d
:10064c00bff2b7001e409000c5f2b7001e40780004
:10065c00c7f2b7000000eb00400798004e00900076
:10066c000080fa00000006000a00fa00200798003b
:10067c0031079800ae0090003e009000808f500033
:10068c00030039000080eb00400798001b00370086
:10069c00be009000301f2000808f500003003600f9
:1006ac000080eb0040079800140037002e009000eb
:1006bc00204798002e0090004800de00304798003c
:1006cc003e009000004f78003e0090004800de0095
:1006dc00104798003e409000c1f2b7002e409000a9
:1006ec00c3f2b7001e409000c9f2b7001e4078005c
:1006fc00cbf2b7000000eb00400798004e009000d2
:10070c000080fa00000006000e00fa003007980086
:10071c004107980052079800be0090004e009000d0
:10072c00808f5000030039000080eb0060079800b8
:10073c002b003700ce009000301f2000808f50001f
:10074c00030036000080eb0060079800240037009f
:10075c00de00900030382000808f500003003600ff
:10076c000080eb00600798001d0037003e009000f1
:10077c00404798003e0090004800de00504798002b
:10078c004e009000204798004e0090004800de007c
:10079c00304798005e009000104798005e00900073
:1007ac004800de00004f78005e40900045f3b70033
:1007bc004e40900047f3b7003e40900049f3b7001d
:1007cc002e4090004bf3b7001e4078004df3b7005d
:1007dc001e4090004ff3b7000000eb00600798003c
:1007ec006e0090000080fa00000006000600fa007f
:1007fc0010079800210798001e0090000000e000f0
:10080c00060032002e0090000000e00003003200d1
:10081c00a0ccb300004f78000e0037001e009000f3
:10082c000000e00003003200a0c4b300004f7800c9
:10083c00080037002e0090000000e000030032009a
:10084c00a0c8b300004f780002003700a0c0b3006e
:10085c00004f78001e407800e3f2b7000080fa00e9
:10086c00000006000600fa00204798003147980067
:10087c000000eb00000f7800100037009e0078009d
:10088c00402b210000804000904078002e409000ca
:10089c0080cf500008003a001e00e800412b2100d8
:1008ac0001004000be409000014878000000eb00c1
:1008bc0020079800070037001e8fe8009e00780084
:1008cc00700d2000808f5000ecff36008080eb0014
:1008dc00210798002e0090000080fa00000006000e
:1008ec000800fa0020479800210798000000eb0050
:1008fc00000f7800110037009e007800402b21007b
:10090c0000804000904078002e40900080cf500036
:10091c0009003a009e00e800402b210000804000b6
:10092c00904078002e009000014878000000eb0009
:10093c0030079800070037001e8fe8009e007800f3
:10094c00700d2000808f5000ebff36000080eb0014
:10095c00300798003e0090000080fa00000006006e
:10096c000200fa00004f7800114798001e409000da
:10097c00cdf2b7001e407800cff2b7000080fa002d
:10098c00000006000800fa00004f7800114798009c
:10099c00224798003347980044479800f0c4b300ae
:1009ac009e4f1000030036000080eb0030079800cb
:1009bc000c0037001e407800d1f2b7001e409000aa
:1009cc00d3f2b7002e409000d5f2b7004e40900005
:1009dc00d7f2b7003e409000d9f2b7000000eb0010
:1009ec00300798003e0090000080fa0000000600de
:1009fc000400fa00008fbe001e00be004a09dd0094
:100a0c004600de0000007100c608de00ddf2b70013
:100a1c001e00be004209dd004e00de000000710029
:100a2c00ce08de00dbf2b7000040eb00dff2b700cf
:100a3c000080fa00000006000200fa00004f780067
:100a4c001e407800e9f2b7000080fa0000000600b2
:100a5c000200fa00000f78001e00e00005003200d2
:100a6c00f9d2bf0001c8b30001407000f9f2b70021
:100a7c0003003700f9d2bf000074a100f9f2b700ef
:100a8c000080fa00000006000400fa00004f780015
:100a9c0011479800224798001e407800fdf2b700dd
:100aac001e409000fff2b7002e40900001f3b700fb
:100abc000080fa00000006000200fa00004f7800e7
:100acc00114798001e4078007f4060000045b00040
:100adc0003f3b7001e40900005f3b7000080fa0046
:100aec00000006000600fa00100798004147980025
:100afc004e4090000000fb00630060004500dd00ec
:100b0c008040780000c8b30000c040008bf3b700f1
:100b1c000000eb00000f78000d0037001e0078007d
:100b2c000000400032052000000141001e0078004a
:100b3c00800078001e0090000080400090407800fb
:100b4c00402b210000004100014878001e0fe800f6
:100b5c001e007800e10f5000f0ff36000080fa0014
:100b6c00000006000000fa00890807008bd3bf00c4
:100b7c00004178008ad3bf0080407800c0cdb3001c
:100b8c00af08070086080700c131210091407800aa
:100b9c0006d3bf00020007000080fa000000060028
:100bac000600fa0040479800514798000000eb00ff
:100bbc00000f7800760807000000eb001007980083
:100bcc001f0037009e009000402b21000080400049
:100bdc00904078004e40900080cf500015003900b6
:100bec009e009000402b2100008040009040780037
:100bfc005e40900080cf50000e003e001e00900022
:100c0c008000e800402b210000804000104078005c
:100c1c00004178009e009000402b21000080400095
:100c2c001040780080407800c0cdb30084080700e5
:100c3c001e0fe8001e0090000080e80010079800ce
:100c4c009e009000700d2000808f5000ddff36005c
:100c5c00530807001e0078000080fa000000060010
:100c6c000400fa00100798000000eb00000f780059
:100c7c000d0037001e00780000004000b206200076
:100c8c00000141001e007800800078001e009000da
:100c9c000080400090407800402b21000000410073
:100cac00014878001e0fe8001e007800e10f50008c
:100cbc00f0ff36000080fa00000006000200fa0087
:100ccc00004f7800114798001e40780031f3b700b0
:100cdc001e40900033f3b7000080fa0000000600bd
:100cec000200fa00004f7800114798001e4078006f
:100cfc0035f3b7001e40900037f3b7000080fa00c0
:100d0c00000006000200fa00004f7800114798001e
:100d1c001e40780039f3b7001e4090003bf3b7003b
:100d2c000080fa00000006000200fa00004f780074
:100d3c001e80fb004400dd006f40400051f3b70003
:100d4c000080fa00000006000200fa00004f780054
:100d5c00114798001e80fb004400dd0080407800a5
:100d6c001e4090006f40600000c0400053f3b7007d
:100d7c000080fa00000006000200fa00004f780024
:100d8c00114798001e4090000080fb004400dd00dd
:100d9c00804078001e4078006f40600000c040002a
:100dac0055f3b7000080fa00000006000400fa00ba
:100dbc00008fbe001e00be004088de00cf80de002b
:100dcc0057f3b7001e00be004809dd004800de00e6
:100ddc0000007100c888de0059f3b7001e007800cf
:100dec005bf3b7000080fa00000006000200fa0076
:100dfc00004f78001e4078005df3b7000080fa00c9
:100e0c00000006000400fa00000f7800110798009b
:100e1c001e0078004800de0063f3b7001e00780067
:100e2c0065f3b7001e0090004800de0067f3b700c2
:100e3c001e00900069f3b7000080fa000000060065
:100e4c000600fa00004f78001147980022479800de
:100e5c003347980044479800554798002e4090001f
:100e6c006bf3b7003e4090006df3b7001e40780066
:100e7c006ff3b7001e40900071f3b7004e40900026
:100e8c0073f3b7005e40900075f3b7000080fa0072
:100e9c00000006000a00fa00000f78001107980005
:100eac002207980033079800200d20001e0f4000e9
:100ebc001e009000200db000100798002e0090002e
:100ecc0067004000200798003e009000670040003b
:100edc00300798009e00900020352000808f500035
:100eec00030036000080eb00400798003900370003
:100efc00be009000701e2000808f50000300360052
:100f0c000080eb0040079800320037001e00900074
:100f1c009e0f100004003100ae0090003e009000c7
:100f2c00808f5000030039000080eb0040079800d0
:100f3c0028003700501a20009e0f10000c003600bd
:100f4c009e00900090272000808f500008003e00eb
:100f5c00ae009000700a2000808f50000400360014
:100f6c00be00900060142000808f500003003600fb
:100f7c000080eb0040079800160037001e00780038
:100f8c004800de0077f3b7001e00780079f3b70055
:100f9c001e0090004800de007bf3b7001e0090009e
:100fac007df3b7002e0090004800de007ff3b70001
:100fbc002e00900081f3b7003e0090004800de0048
:100fcc0083f3b7003e00900085f3b7000000eb0000
:100fdc00400798004e0090000080fa0000000600c8
:100fec000600fa0010079800210798001e009000d8
:100ffc000000e000060032002e0090000000e0002f
:10100c0003003200c0c3b300004f78000e0037005d
:10101c001e0090000000e00003003200c0c2b300cc
:10102c00004f7800080037002e0090000000e00010
:10103c0003003200c0c1b300004f7800020037003b
:10104c00c0c0b300004f78001e40780087f3b70093
:10105c000080fa00000006000200fa00000f780081
:10106c001e00e00005003200ebd2bf00f1c7b30058
:10107c0001406000ebf2b70004003700ebd2bf0078
:10108c0001c8b30001407000ebf2b7000080fa0019
:10109c00000006000400fa00000f78001107980009
:1010ac001e00e00005003200ebd2bf00f1cbb30014
:1010bc0001406000ebf2b70004003700ebd2bf0038
:1010cc0001c4b30001407000ebf2b7001e009000a9
:1010dc000000e00005003200ebd2bf00f1cdb30000
:1010ec0001406000ebf2b70004003700ebd2bf0008
:1010fc0001c2b30001407000ebf2b7000080fa00af
:10110c00000006000a00fa00e1d2bf000080fb00dc
:10111c004007980000032000ce009000808f500004
:10112c003100320000032000ce009000808f500070
:10113c000b003c004e009000f00f500022003200db
:10114c0000022000ce009000808f50002200320060
:10115c004e0090000000e00017003200360037000f
:10116c0000052000ce009000808f50002600320039
:10117c0000052000ce009000808f500005003c0040
:10118c0000042000ce009000808f50001a00320026
:10119c002900370000062000ce009000808f500000
:1011ac001d00320000072000ce009000808f500000
:1011bc001d0032002000370000002800010720002d
:1011cc00008fbe00200037000000200061092000c5
:1011dc00008fbe001c00370000002400810320009b
:1011ec00008fbe001800370000002200c101200053
:1011fc00008fbe001400370000002100e100200029
:10120c00008fbe001000370000802000710020000d
:10121c00008fbe000c003700004028003100200079
:10122c00008fbe000800370000202c0011002000a9
:10123c00008fbe00040037006000b8002007980043
:10124c00310798000a003700f7d2bf00ec4f50006e
:10125c0004003a001e00be000000400081804800df
:10126c00008fbe001e00be002007980031079800ba
:10127c002e009000be0090000080fa0000000600d6
:10128c001000fa00200798003107980042079800d8
:10129c0053079800640798005e0090000000e0007f
:1012ac00030035005e009000e30f50000300340093
:1012bc000080eb00700798004e0037006e00900025
:1012cc000000e000030035006e009000e30f5000ba
:1012dc00030034000080eb007007980045003700d5
:1012ec0088ff07000002be0084007800606a2000be
:1012fc00000bb8006020b900070178000001410024
:10130c00606a200000a8b900000141008203780047
:10131c002e0090006101b9000600be00fdfb070025
:10132c001007980077ff07000002be0084007800c9
:10133c00606a2000000bb8006020b900070178003b
:10134c0000014100606a200000a8b90000014100c2
:10135c00820378003e0090006101b9000600be00d7
:10136c00ecfb0700000f78001e0090004800de0028
:10137c00eff2b7001e009000f1f2b7001e007800eb
:10138c004800de00f3f2b7001e007800f5f2b7005b
:10139c004e0090000000e00004003200ebd2bf00d1
:1013ac000044a000ebf2b70004003700ebd2bf0002
:1013bc00f1ceb30001406000ebf2b7006e0090007c
:1013cc00e34060005e009000630060004200dd00be
:1013dc0000c14000ebd2bf008040780000cfb300ca
:1013ec0000c0600000404100ebf2b7000000eb00d1
:1013fc00700798007e0090000080fa000000060044
:10140c000600fa00000f7800110798001e00780003
:10141c00200798002e009000e30f50006700320068
:10142c002e009000e30f500007003e002e009000ad
:10143c00e10f50002e0032002e009000e10f500002
:10144c0041003e000d0037002e009000e50f5000cb
:10145c00940032002e009000e50f5000740039000b
:10146c002e009000e60f5000ab0032002e009000d2
:10147c00e70f5000c5003200da0037001e00900064
:10148c00e10f50000f003600c4c2bf000080fb000b
:10149c004600de00614060000004a2006140600074
:1014ac00614060004601dd00412c20009140780035
:1014bc00f0cbb30000c0600002407000c4e2b70083
:1014cc008a0137001e00900061406000614060009e
:1014dc004601dd00412c200091407800f0cbb30098
:1014ec0000c0600002407000c4e2b7007f0137000a
:1014fc001e009000e10f50000b003600c4c2bf006c
:10150c000080fb004700de000004a2006140600088
:10151c00c700dd00c4c2bf000074a1000140700010
:10152c00c4e2b700710137001e00900061406000fa
:10153c00c700dd00c4c2bf000074a10001407000f0
:10154c00c4e2b700690137001e009000e10f5000a3
:10155c000f003600c5c2bf000080fb000000d100a8
:10156c00614060000004a2006140600061406000c6
:10157c0000414000512c200091407800d0cfb300a6
:10158c0000c0600002407000c5e2b7005701370090
:10159c001e0090006140600061406000004140000e
:1015ac00512c200091407800d0cfb30000c06000d7
:1015bc0002407000c5e2b7004c0137001e009000dd
:1015cc00e10f50000f003600c5c2bf000080fb00c9
:1015dc004400de00614060000004a2006140600035
:1015ec00614060004401dd00512c200091407800e6
:1015fc00f0ceb30000c0600002407000c5e2b7003e
:10160c003a0137001e0090006140600061406000ac
:10161c004401dd00512c200091407800f0ceb30045
:10162c0000c0600002407000c5e2b7002f01370017
:10163c001e009000e10f50000f003600c5c2bf0025
:10164c000080fb004200de00614060000004a2004c
:10165c0061406000614060004201dd00512c2000bf
:10166c0091407800b0cfb30000c060000240700021
:10167c00c5e2b7001d0137001e00900061406000fc
:10168c00614060004201dd00512c20009140780047
:10169c00b0cfb30000c0600002407000c5e2b700dc
:1016ac00120137001e009000e10f50000f003600b1
:1016bc00c5c2bf000080fb004500de006140600039
:1016cc000004a20061406000614060004501dd0043
:1016dc00512c200091407800f0cdb30000c0600088
:1016ec0002407000c5e2b700000137001e009000f8
:1016fc0061406000614060004501dd00512c20001c
:10170c0091407800f0cdb30000c060000240700042
:10171c00c5e2b700f50037001e009000e10f500045
:10172c000f003600c5c2bf000080fb004600de0083
:10173c00614060000004a2006140600061406000f4
:10174c004601dd00512c200091407800f0cbb30015
:10175c0000c0600002407000c5e2b700e300370033
:10176c001e00900061406000614060004601dd0099
:10177c00512c200091407800f0cbb30000c06000e9
:10178c0002407000c5e2b700d80037001e00900080
:10179c00e10f50000b003600c5c2bf000080fb00fb
:1017ac004700de000004a20061406000c700dd00bd
:1017bc00c5c2bf000074a10001407000c5e2b700b3
:1017cc00ca0037001e00900061406000c700dd00b9
:1017dc00c5c2bf000074a10001407000c5e2b70093
:1017ec00c20037001e009000e10f50006900360067
:1017fc00c4c2bf000080fb004600de0061406000f8
:10180c000004a20061406000614060004601dd0000
:10181c00412c200091407800f0cbb30000c0600058
:10182c0002407000c4e2b700c4c2bf000080fb00dd
:10183c004700de000004a20061406000c700dd002c
:10184c00c4c2bf000074a10001407000c4e2b70024
:10185c00c5c2bf000080fb000000d10061406000e9
:10186c000004a20061406000614060000041400043
:10187c00512c200091407800d0cfb30000c0600004
:10188c0002407000c5e2b700c5c2bf000080fb007b
:10189c004400de00614060000004a2006140600072
:1018ac00614060004401dd00512c20009140780023
:1018bc00f0ceb30000c0600002407000c5e2b7007b
:1018cc00c5c2bf000080fb004200de00614060002a
:1018dc000004a20061406000614060004201dd0034
:1018ec00512c200091407800b0cfb30000c06000b4
:1018fc0002407000c5e2b700c5c2bf000080fb000b
:10190c004500de00614060000004a2006140600000
:10191c00614060004501dd00512c200091407800b1
:10192c00f0cdb30000c0600002407000c5e2b7000b
:10193c00c5c2bf000080fb004600de0061406000b5
:10194c000004a20061406000614060004601dd00bf
:10195c00512c200091407800f0cbb30000c0600007
:10196c0002407000c5e2b700c5c2bf000080fb009a
:10197c004700de000004a20061406000c700dd00eb
:10198c00c5c2bf000074a10001407000c5e2b700e1
:10199c00560037001e00900061406000c700dd005b
:1019ac00c5c2bf000074a10001407000c5e2b700c1
:1019bc00c5c2bf000080fb004700de006140600034
:1019cc004601dd00512c200091407800f0cbb30093
:1019dc0000c0600002407000c5e2b700c5c2bf0085
:1019ec000080fb004600de0061406000614060004a
:1019fc004501dd00512c200091407800f0cdb30062
:101a0c0000c0600002407000c5e2b700c5c2bf0054
:101a1c000080fb004500de0061406000614060001a
:101a2c004201dd00512c200091407800b0cfb30072
:101a3c0000c0600002407000c5e2b700c5c2bf0024
:101a4c000080fb004200de006140600061406000ed
:101a5c004401dd00512c200091407800f0ceb30001
:101a6c0000c0600002407000c5e2b700c5c2bf00f4
:101a7c000080fb004400de006140600061406000bb
:101a8c0000414000512c200091407800d0cfb30091
:101a9c0000c0600002407000c5e2b700c5c2bf00c4
:101aac000080fb000000d10061406000c700dd0039
:101abc00c4c2bf000074a10001407000c4e2b700b2
:101acc00c4c2bf000080fb004700de006140600024
:101adc004601dd00412c200091407800f0cbb30092
:101aec0000c0600002407000c4e2b7000080fa0041
:101afc00000006000200fa00000f78001000200021
:101b0c009e0f10000f003600d0c2bf000080fb00fb
:101b1c004200de00614060000004a20061406000f1
:101b2c00614060004201dd00012d200091407800f1
:101b3c00b0cfb30000c0600002407000d0e2b7002c
:101b4c000a0037001e0078006140600061406000b0
:101b5c004201dd00012d200091407800b0cfb30090
:101b6c0000c0600002407000d0e2b7000080fa00b4
:101b7c00000006000200fa00000f780010002000a0
:101b8c009e0f10000f003600d0c2bf000080fb007b
:101b9c000000d100614060000004a20061406000c0
:101bac006140600000414000012d20009140780010
:101bbc00d0cfb30000c0600002407000d0e2b7008c
:101bcc000a0037001e007800614060006140600030
:101bdc0000414000012d200091407800d0cfb3008f
:101bec0000c0600002407000d0e2b7000080fa0034
:101bfc00000006000000fa00c4c2a900c4e2a9005b
:101c0c00c522a900c582a900c542a900c5a2a90088
:101c1c00c5c2a900c5e2a9000080fa0000000600b8
:101c2c000000fa000000370006c2bf0061406000ef
:101c3c000004e000fcff3a0006c2bf0064406000f4
:101c4c000004e000f8ff3a0006c2bf0068406000e4
:101c5c000004e000f4ff3a0006c2bf0070406000d0
:101c6c000004e000f0ff3a0009c2bf000044b200db
:101c7c000004e000ecff3a000080fa0000000600cf
:101c8c000400fa00600920002010880007e2a90077
:101c9c0007e2a80085c0a90085a0a900b109200011
:101cac009140780080cfb30000c060005040b3007a
:101cbc009be0b7008da0a90000712200010020005c
:101ccc00008fbe00040037000080eb008080eb002a
:101cdc001e0f40005e9748001e00be00e00f500033
:101cec00e08f5800f8ff3a00100020000080fa0046
:101cfc00000006000400fa006000b800008fbe006f
:101d0c0007e2a90085c0a90085a0a9008da0a900a3
:101d1c000071220001002000008fbe00040037007b
:101d2c000080eb008080eb001e0f40005e974800a7
:101d3c001e00be00e00f5000e08f5800f8ff3a0084
:101d4c00cfff07000f0007000071220001002000e8
:101d5c00008fbe00040037000080eb008080eb0099
:101d6c001e0f40005e9748001e00be00e00f5000a2
:101d7c00e08f5800f8ff3a00100020000080fa00b5
:101d8c00000006000000fa0085c0a9008dc0a80064
:101d9c00100020000080fa00000006000000fa008d
:101dac0085c0a9008dc0a900100020000080fa0099
:101dbc00000006000600fa0010c0b300d0f3b70014
:101dcc0008c2bf00704060000004e0001600320042
:101ddc000602a8000071220001002000008fbe0046
:101dec000a003700d0d3bf000004e00003003a0023
:101dfc0010002000200798000d0037000080eb0039
:101e0c008080eb001e0f40005e9748001e00be0055
:101e1c00e00f5000e08f5800f2ff3a008000eb001a
:101e2c0021079800020037000000eb002007980003
:101e3c002e0090000080fa00000006000600fa0058
:101e4c0060c0b300d0f3b70008c2bf0068406000a8
:101e5c000004e000160032000622a80000712200e7
:101e6c0001002000008fbe000a003700d0d3bf0055
:101e7c000004e00003003a00100020002007980046
:101e8c000d0037000080eb008080eb001e0f40003f
:101e9c005e9748001e00be00e00f5000e08f580017
:101eac00f2ff3a008000eb00210798000200370097
:101ebc000000eb00200798002e0090000080fa0034
:101ecc00000006000600fa0050c0b300d0f3b700c3
:101edc000642a8000071220001002000008fbe0005
:101eec000a003700d0d3bf000004e00003003a0022
:101efc0010002000200798000a0037000080eb003b
:101f0c008080eb001e0f40005e9748001e00be0054
:101f1c00e00f5000e08f5800f2ff3a008000eb0019
:101f2c00210798002e0090000080fa0000000600a7
:101f3c000600fa0030c0b300d0f3b70006c2bf00f1
:101f4c00614060000004e00010003a0006c2bf00cf
:101f5c00644060000004e0000c003a0006c2bf00c0
:101f6c00684060000004e00008003a0006c2bf00b0
:101f7c00704060000004e00004003a0006c2bf009c
:101f8c00624060000004e000030032000000eb003f
:101f9c00200798001600370006a2a9000682a800a8
:101fac000071220001002000008fbe000a003700e3
:101fbc00d0d3bf000004e00003003a001100200061
:101fcc00210798000a0037000080eb008080eb00ae
:101fdc001e0f40005e9748001e00be00e00f500030
:101fec00e08f5800f2ff3a008000eb0021079800c8
:101ffc002e0090000080fa00000006000600fa0097
:10200c0030c0b300d0f3b70006c2bf00614060001f
:10201c000004e00010003a0006c2bf0064406000fb
:10202c000004e0000c003a0006c2bf0068406000eb
:10203c000004e00008003a0006c2bf0070406000d7
:10204c000004e00004003a0006c2bf0062406000d9
:10205c000004e000030032000000eb0020079800b1
:10206c001600370006a2a8000682a8000071220004
:10207c0001002000008fbe000a003700d0d3bf0043
:10208c000004e00003003a00110020002107980032
:10209c000a0037000080eb008080eb001e0f400030
:1020ac005e9748001e00be00e00f5000e08f580005
:1020bc00f2ff3a008000eb00210798002e00900000
:1020cc000080fa00000006000a00fa0030079800b1
:1020dc0000712200010020001007980021079800d1
:1020ec000040eb00004f780040c0b300d0f3b700c5
:1020fc0000712200010020001007980021079800b1
:10210c001d00370006c2bf00614060000004e00003
:10211c0013003a0006c2bf00644060000004e000f7
:10212c000f003a0006c2bf00684060000004e000e7
:10213c000b003a0006c2bf00704060000004e000d3
:10214c0007003a0009c2bf000044b2000004e000de
:10215c0003003a0010c0b300004f78000b003700aa
:10216c001e009000ae00900061005000e08058000e
:10217c0010079800210798001e009000ae009000f8
:10218c00e00f5000e08f5800deff3a001e04e00024
:10219c0003003a000000eb00400798001d003700d8
:1021ac000662a800006a28001100200010079800a1
:1021bc002107980010003700d0d3bf000004e000c6
:1021cc0007003a0000c2bf00804078003e0090003b
:1021dc000148780010002000400798000d003700df
:1021ec001e009000ae00900061005000e08058008e
:1021fc0010079800210798001e009000ae00900078
:10220c00e00f5000e08f5800ebff3a000000eb00ad
:10221c00400798004e0090000080fa000000060075
:10222c000800fa004047980020c0b300d0f3b70074
:10223c004e40900002e2b700007122000100200025
:10224c00008fbe000a003700d0d3bf000004e000ae
:10225c0003003a0010002000300798000a003700f5
:10226c000080eb008080eb001e0f40005e97480062
:10227c001e00be00e00f5000e08f5800f2ff3a0045
:10228c008000eb00310798003e0090000080fa00bf
:10229c0000000600801f78003400f80000c0b30076
:1022ac00a00188000000fa0085c0a9000040eb00e6
:1022bc00d0f3b7000080fa003400f9004f0078002a
:1022cc00004006002200fa0070079800010f9800e9
:1022dc00120f9800230f9800340f9800450f9800a8
:1022ec00560f98007e009000200db00070079800eb
:1022fc000e08900067004000000f98004e089000f8
:10230c000000e000030032003e0890000000e000f6
:10231c0003003a000080eb00600f980004013700c6
:10232c00fe0090001e0890008080400020352000a8
:10233c00808f5000030036008080eb00610f980006
:10234c00fb0037008e0890002e0890008080400023
:10235c00701e2000808f5000030036000080eb00c0
:10236c00600f9800f20037001e0890003e099000a4
:10237c00110009000280d8008000fd000000e00080
:10238c00030032008080eb00610f9800e8003700fa
:10239c002e0890004e099000110009000280d80010
:1023ac008000fd000000e000030032000080eb0024
:1023bc00600f9800de0037004e089000630060004c
:1023cc000000e00033003a003e089000630060001b
:1023dc000000e0000f003a0030032000000f7800ee
:1023ec004e0890004200de00200798003e08900046
:1023fc004200de00100798000e08900064005000a8
:10240c00000f98007e009000640050007007980048
:10241c00500037003e089000610060000000e000b2
:10242c000f003a0010012000000f78004e089000b9
:10243c000000d100200798003e0890000000d10059
:10244c00100798000e0890000080e900000f98001b
:10245c007e0090000080e900700798003d00370076
:10246c0040042000000f7800ce089000210798004f
:10247c003e089000100798000e0890000000e9003c
:10248c00000f98007e0090000000e9007007980093
:10249c00300037004e089000610060000000e00042
:1024ac0020003a003e089000610060000000e0004f
:1024bc000f003a0010012000000f78004e08900029
:1024cc000000d100200798003e0890000000d100c9
:1024dc00100798000e0890000080e900000f98008b
:1024ec007e0090000080e90070079800190037000a
:1024fc0040042000000f7800ce08900021079800bf
:10250c003e089000100798000e0890000000e900ab
:10251c00000f98007e0090000000e9007007980002
:10252c000c00370040042000000f7800be0890001b
:10253c00110798004e089000200798000e08900094
:10254c000000e900000f98007e0090000000e900f8
:10255c00700798001e0090000000e90050079800da
:10256c002e0090000000e900600798001e08900003
:10257c003e099000110009000280d8004007980025
:10258c002e0890004e099000110009000280d8001e
:10259c00300798005e089000b1f707000000e000db
:1025ac00030032008080eb00610f98006000370060
:1025bc001e007800c9f707000000e000030032009d
:1025cc000080eb00600f9800590037005e08900007
:1025dc000000e00017003a009e007800710f980090
:1025ec0030032000fe089000808f50000e00320057
:1025fc0040042000fe089000808f50000400320040
:10260c007e089000f10f5000040032001f003700cc
:10261c0000032000c6f707001c0037000002200052
:10262c00c3f70700190037000000eb00c0f70700e4
:10263c00160037009e007800011798003003200028
:10264c008e109000808f50000e003200400420004d
:10265c008e109000808f5000040032000e109000fd
:10266c00f10f500004003200080037000004200075
:10267c00aff707000500370000032000acf7070098
:10268c000200370000022000a9f7070031352000b6
:10269c007e009000c9f707000000e0000300320044
:1026ac008080eb00610f980021003700811e200014
:1026bc000e089000ecf707000000e0000300320069
:1026cc000080eb00600f9800190037007e0090002e
:1026dc000001e800711e20000e0890000af80700a7
:1026ec000000e000030032008080eb00610f9800d6
:1026fc000f0037005e089000100007000001780002
:10270c006e029000de019000ce0090003e00900022
:10271c00730007000000e000030032000080eb00b3
:10272c00600f9800020037008000eb00610f9800ea
:10273c006e0890000080fa00000006000600fa0007
:10274c00000f78001e007800200798002e009000e3
:10275c00e10f50000a0032002e009000e20f5000f2
:10276c000a0032002e0090000000e0000100320050
:10277c0009003700100020001007980008003700ef
:10278c0020002000100798000500370020002000d2
:10279c001007980002003700100020001007980066
:1027ac001e0090000080fa00000006000200fa00f3
:1027bc00c101070072010700d1a2a9004006200048
:1027cc00000f780002003700000000001e0fe90027
:1027dc001e00e000fcff3a00d1a2a8004006200039
:1027ec00000f780002003700000000001e0fe90007
:1027fc001e00e000fcff3a0081e0a900f10480001b
:10280c00f0002f00808060000066200000804000f7
:10281c00f00488000080fa00000006003400f80084
:10282c00881f780008002000a80188004f04780059
:10283c000000fa0086c0a9001fe1a80021e1a90050
:10284c000080fa003400f900004006000000fa0095
:10285c0020002000000988000000eb00c008880060
:10286c0010002000e008880086c0a9008ec0a800d7
:10287c0021e1a8000080fa00000006000000fa0028
:10288c0020002000f0088800008b8000a008880041
:10289c00008b80000000e800d008880086a0a9000a
:1028ac001fe1a9008ea0a8000080fa00000006001d
:1028bc000200fa00000f78000000eb00308b88005b
:1028cc001e007800108b88000000eb00208b880025
:1028dc00eaff0700ddff07000080fa000000060099
:1028ec001200fa0030079800410798005207980030
:1028fc0063079800740798000000eb00100798001d
:10290c00ce0090005e0090000088b9008000780036
:10291c006e0090000000e8000088b9000000e8009c
:10292c0080007800a0142000808f50000300360037
:10293c000080eb00000f9800350037000000eb0022
:10294c0020079800230037000000eb00000f7800f0
:10295c00090037009e009000a016210080804000e6
:10296c0010c0b300804878001e0090000000e80002
:10297c00100798001e0fe8005e0090009e0f1000dc
:10298c00f4ff35000000eb00000f78000900370061
:10299c009e009000a0162100808040000040eb00bb
:1029ac00804878001e0090000000e8001007980096
:1029bc001e0fe800ee0090005e0090000088b90049
:1029cc009e0f5000f2ff3c002e0090000000e8002b
:1029dc0020079800ae0090004e009000808f5000b1
:1029ec00d9ff35009e009000a01621008080400089
:1029fc0020c0b300804878007e009000008b8800d7
:102a0c003e009000408b88000000eb00000f980007
:102a1c000e0890000080fa00000006000000fa008a
:0c2a2c00208b80000080fa0000000600f3
:020000040000fa
:102a380000080000600900000000000060110000ac
:102a48005401000000000000b4120000d80000008b
:102a580002000000040305005306030007530800a2
:102a68000009d1000a000b00070c03000d510e00ed
:102a7800010fe7001202130002151000164017009c
:102a88004018400019401a00031be6001c001d00f6
:102a9800701e0a001f1b2000443b000046804800af
:102aa800604996004a004b007d4c00004e084f00dc
:102ab8000a50700059005a00005b00005cac5d00d1
:102ac80002760000771a78002a7937007a427b006c
:102ad800567c68007d877e00a37fbc0080d481007f
:102ae800ea8e38008fa590000d919300922d9300e7
:102af8000694830095aa96004d97250098259b007b
:102b0800009c96009f80a00080a1b600a29da30013
:102b1800aba48000a500a60007a70100a8e7a900ac
:102b280000aa0100ad9fae0022af8c00b007b10033
:102b3800ccb20000b370b90003bae600bb07bc0012
:102b4800ccbd0000be0cc10010c2e000c310c40020
:102b5800e0c58000c680c70001c8a500c902ca0038
:102b68007acb0000cca7cd0001ce4700d43cd500dd
:102b780001d88000d0130000080000000000000009
:102b88008c13000044000000020000000000000058
:102b9800000000000000000000000000000000002d
:102ba800000000000000000000000000000000001d
:102bb800000000000000000000000000000000000d
:102bc80000000000000000000000000000000000fd
:102bd80000000000000000000000000000000000ed
:102be8000000000000000000d813000006000000ec
:102bf80002000000000000000000000000000000cb
:020000040000fa
:102c08000000fa00eafe0700160020004500200038
:102c180014002000031e2000a20020008000eb000a
:102c2800b0132000a8fd0700daf507000080fa00bd
:102c3800000006000800fa0000122a0071002000b7
:102c4800008fbe000000eb0030079800110037002d
:102c58003e00900011002000eaf907000000eb0098
:102c680020079800030037002e0090000000e800bd
:102c7800200798002e009000cf80de00be0f500085
:102c8800ae8f5800f8ff39003e0090000000e800c1
:102c9800300798003e009000e70f5000ecff34002a
:102ca8000000eb0030079800110037003e0090004c
:102cb8008000eb00d3f907000000eb002007980024
:102cc800030037002e0090000000e800200798005d
:102cd8002e009000cf80de00be0f5000ae8f58004f
:102ce800f8ff39003e0090000000e8003007980027
:102cf8003e009000e70f5000ecff34000080fa001f
:102d0800000006000000fa0000802000e9fe07002d
:102d180043ff07000000e000fdff32000080fa00da
:102d2800000006000200fa00640007001201070014
:102d3800b3ff070005003700e10007000000e000ce
:102d4800020032000e007800e10007009e40780083
:102d580080c7b30080cf5000f7ff3a00e9ff0700b3
:102d6800b4ff07000196200000802000ba00070089
:102d7800c50007000000e000fdff3a00adff0700b6
:102d8800f2ff37000000fa00befb07000080fa00df
:102d9800000006000000fa00fbfb07000080fa00b4
:102da800000006000000fa00fdfb07000080fa00a2
:102db800000006000400fa002047980031479800f8
:102dc8000040eb00004f78001800370010c0b30037
:102dd800004f7800f8fb07001e4f60002e4090005f
:102de80010fd07001e4f60003e4090000dfd0700db
:102df8001e4f600012fc07001e4f60002e4090001e
:102e08000040e80007fd07001e4f60000e00e800c4
:102e1800aefc07001e4f600079fc07002afc070083
:102e28001e04e00003003a00b3fb07001e04e000a4
:102e3800e6ff32001e4090000000fb000080fa0010
:102e4800000006000600fa00204798003147980065
:102e5800424798000040eb00004f7800120037000e
:102e680010c0b300004f7800d3fb07001e4f60006e
:102e78002e409000ebfc07001e4f60003e40900083
:102e8800e8fc07001e4f60004e409000e5fc07007c
:102e98001e4f60000cfc07001e4f60001e04e0007f
:102ea80003003a0094fb07001e04e000ecff320028
:102eb8001e00fb000080fa00000006000000fa0077
:102ec800c4c2a900c4e2a900c522a900c582a900fc
:102ed800c542a900c5a2a900c5c2a900c5e2a900aa
:102ee800c0c2a900c0e2a900c122a900c182a900ec
:102ef800c142a900c1a2a900c1c2a900c1e2a9009a
:102f0800d022a900cc22a900d042a900cc42a90015
:102f1800e2e2a900e302a900e802a900e822a90068
:102f2800dee2a900df02a900e402a900e422a90068
:102f3800e202a900de02a900d602a900d622a90051
:102f4800d642a900d662a900d682a900d6a2a900b5
:102f5800d6c2a900d6e2a900d202a900d222a900ad
:102f6800d242a900d262a900d282a900d2a2a900a5
:102f7800d2c2a900d2e2a900d1a2a900cda2a9007b
:102f8800e842a900e862a900e442a900e462a900b5
:102f9800de22a800dec2a800e4c2a800e4e2a8007d
:102fa800e502a800e522a800d302a800d322a800c1
:102fb800d342a800d362a800d382a800d3a2a80055
:102fc800d3c2a800d3e2a8000080fa0000000600df
:102fd8008540a900809fbe00821f7800dc13e200b4
:102fe80015003200d813e20016003200da13e200ae
:102ff80014003200c19e8000420020000f22af0062
:10300800feff3700d09e80000000e000070032007d
:103018000000e900dab3b7003140780010e2b700e9
:103028000201e900f5ff3a0002003700d833ef004b
:1030380001003700c19e88004f0178004f00be0094
:103048000040060000002000e09e88004f01780044
:103058004f00be0000400600dc13e200feff3a000d
:103068008d40a9008100e900d19e8800b040780019
:1030780081108800c09e880011002000e19e880011
:103088008d40a80000000600e09e800000000600b9
:10309800809fbe008520a900609e8000f003b200da
:1030a800c1382100810040000000eb0012c2bf00bf
:1030b80080487800cc33ec004f00be00004006008a
:1030c800609e8000719e8000010050000000060094
:1030d800619e8000729e80000208e10008003200b4
:1030e800f203b200c138210002814000924078000a
:1030f80001487800ce33ec001000200000000600e4
:103108000000eb000000060000a0fe0086a0a90059
:103118001421ef0000000000118b8000a21621008e
:1031280013002000321ce1000500320008003500c1
:10313800000000000000000000000000f9ff370058
:10314800a01680004800de0080587800f5ff3700a0
:10315800118b88006631ec00308b80006811e30029
:1031680003003a0010002000208b88001fe1a9000e
:103178000080fe00004006000c22ef000e22ef0047
:103188000ee2a9000ec2a9008520a9008d20a80082
:103198000de2a80070002000a01088008540a9005a
:1031a8008d40a80081e0a900c0048000f1002f0034
:1031b800008060000155200000804000c0048800a5
:1031c8000fe2a8000f42a800cc33ef00ce33ef0087
:0431d80000000600ed
:020000040000fa
:0431dc000000fe00f1
:00000001FF
