:020000040000fa
:080000000001040000000000f3
:020000040000fa
:100200000f9021000079220000018800000000000a
:100210000c000700a052210001002000110007007f
:10022000000020000000e000020032000000020098
:10023000000000009a160200000000000040da00f2
:100240000000fe004440a900e00020000000e000a3
:100250000300320000002000a00188004440a800f4
:100260000000060091018800800078000000eb008b
:1002700015003700e280400032a0b4009101ba00be
:10028000e280400032a0b4009102ba00e280400057
:1002900032a0b4000002eb00472bde00f507b200ed
:1002a000602ce10004003a000059eb008301e900f2
:1002b000fdff3e00040037006128e100010032002c
:1002c0000082eb00040007001101ba000200e00008
:1002d000e8ff3a00000006003159ba008301e90046
:1002e0000c0032002159ba008301e90008003200f5
:1002f0000400e00003003a00e280400032a0b400b5
:10030000f5ff370011d9ba008301e900faff3a007e
:100310008100e800e180400032a0b4000000060047
:10032000839f68000100e00002003d0060001000b3
:10033000e08018000300e00002003d0060011100b1
:10034000e0811900050007004f00e00002003b00bb
:1003500060001000e0801800000006006022b80075
:10036000060220000000d0008180d2000482d2006a
:100370008582d2000000a0000202520083825a004f
:10038000030031000202420083824a000000a10003
:0c0390000603e900f3ff3a00000006003d
:020000040000fa
:0200000401f009
:04000000e6ff000017
:020000040000fa
:0200000401f009
:04000400ff7f00007a
:020000040000fa
:0200000401f009
:040008007fff000076
:020000040000fa
:0200000401f009
:04001400ffff0000ea
:020000040000fa
:100008000a1900000a1900000a1900000a1900005c
:100018000a1900000a1900000a1900000a1900004c
:100028000a1900000a1900000a1900000a1900003c
:100038000a1900000a1900000a1900000a1900002c
:100048000a19000068180000081800000a190000c2
:100058000a1900000a1900005e1100000a190000c0
:100068000a1900000a1900000a1900000a190000fc
:100078000a190000a4180000221400000a19000040
:100088000a1900000a1900000a1900000a190000dc
:100098000a1900000a1900000a1900000a190000cc
:1000a8000a1900000a1900000a1900000a190000bc
:1000b8000a1900000a1900000a1900000a190000ac
:1000c8000a1900000a1900000a1900000a1900009c
:1000d8000a1900000a1900000a1900000a1900008c
:1000e8000a1900000a1900000a1900000a1900007c
:0800f8000a1900000a190000ba
:020000040000fa
:100108000a1900000a1900000a1900000a1900005b
:100118000a1900000a1900000a1900000a1900004b
:100128000a1900000a1900000a1900000a1900003b
:100138000a1900000a1900000a1900000a1900002b
:100148000a19000068180000081800000a190000c1
:100158000a1900000a1900005e1100000a190000bf
:100168000a1900000a1900000a1900000a190000fb
:100178000a190000a4180000221400000a1900003f
:100188000a1900000a1900000a1900000a190000db
:100198000a1900000a1900000a1900000a190000cb
:1001a8000a1900000a1900000a1900000a190000bb
:1001b8000a1900000a1900000a1900000a190000ab
:1001c8000a1900000a1900000a1900000a1900009b
:1001d8000a1900000a1900000a1900000a1900008b
:1001e8000a1900000a1900000a1900000a1900007b
:0801f8000a1900000a190000b9
:020000040000fa
:10039c00746100006b6900006e6700002070000043
:0c03ac00686f0000746f00003200000059
:020000040000fa
:1003b8000200fa00850a07000000eb00000f780031
:1003c8000d0037009e00e800405d210000804000dd
:1003d80010407800004178009e007800405d2100c0
:1003e800008040001040780080407800c0cdb30005
:1003f800a20a07001e8fe8009e007800700d2000fa
:10040800808f5000efff3600740a07000080fa0062
:10041800000006000200fa00881f78006b0a070037
:100428000000eb00000f78000d0037001e04e80004
:100438009e007800405d2100008040001040780058
:1004480080407800c0cdb300680a0700804078007b
:10045800405d210000004400014878001e8fe8003c
:100468009e007800700d2000808f5000efff36004e
:100478005a0a07004f0478000080fa0000000600be
:100488000600fa00000f78001e0078002007980088
:100498002e009000e10f50000a0032002e0090005c
:1004a800e20f50000a0032002e0090000000e00029
:1004b8000100320009003700c0c0b30017f6b700ca
:1004c8000900370080c0b30017f6b70006003700f0
:1004d80020c0b30017f6b700030037000080eb0018
:1004e80010079800020037000000eb001007980082
:1004f8001e0090000080fa00000006000400fa00c8
:10050800000f7800400420009e0f10000600320003
:10051800100120009e0f100003003200300320005d
:100528009e0f100005003a001e00780007f6b7007d
:100538000000eb0010079800020037000080eb0075
:10054800100798001e0090000080fa0000000600c6
:100558000400fa00000f78001e00e00015003200c9
:10056800000220009e0f100012003200000320003d
:100578009e0f10000f003200000420009e0f100094
:100588000c003200000520009e0f10000900320008
:10059800000620009e0f1000060032000006200012
:1005a8009e0f100003003200000120009e0f100073
:1005b80005003a001e00780001f6b7000000eb00c5
:1005c80010079800020037000080eb001007980021
:1005d8001e0090000080fa00000006000a00fa00e1
:1005e8002007980031079800ae0090003e00900068
:1005f800808f5000030039000080eb00400798000e
:100608001e003700be00900030382000808f500058
:10061800030036000080eb00400798001700370001
:100628002e0090000000e900200798002e0090009e
:10063800204798002e0090004800de0030479800c0
:100648003e009000004f78003e0090004800de0019
:10065800104798003e409000ddf5b7002e4090000e
:10066800dff5b7001e409000e5f5b7001e407800a2
:10067800e7f5b7000000eb00400798004e00900037
:100688000080fa00000006000a00fa00200798001f
:1006980031079800ae0090003e009000808f500017
:1006a800030039000080eb00400798001b0037006a
:1006b800be009000301f2000808f500003003600dd
:1006c8000080eb0040079800140037002e009000cf
:1006d800204798002e0090004800de003047980020
:1006e8003e009000004f78003e0090004800de0079
:1006f800104798003e409000e1f5b7002e4090006a
:10070800e3f5b7001e409000e9f5b7001e407800f9
:10071800ebf5b7000000eb00400798004e00900092
:100728000080fa00000006000e00fa00300798006a
:100738004107980052079800be0090004e009000b4
:10074800808f5000030039000080eb00600798009c
:100758002b003700ce009000301f2000808f500003
:10076800030036000080eb00600798002400370083
:10077800de00900030382000808f500003003600e3
:100788000080eb00600798001d0037003e009000d5
:10079800404798003e0090004800de00504798000f
:1007a8004e009000204798004e0090004800de0060
:1007b800304798005e009000104798005e00900057
:1007c8004800de00004f78005e40900065f6b700f4
:1007d8004e40900067f6b7003e40900069f6b700bb
:1007e8002e4090006bf6b7001e4078006df6b700fb
:1007f8001e4090006ff6b7000000eb0060079800fd
:100808006e0090000080fa00000006000600fa0062
:1008180010079800210798001e0090000000e000d3
:10082800060032002e0090000000e00003003200b5
:10083800a0ccb300004f78000e0037001e009000d7
:100848000000e00003003200a0c4b300004f7800ad
:10085800080037002e0090000000e000030032007e
:10086800a0c8b300004f780002003700a0c0b30052
:10087800004f78001e40780003f6b7000080fa00a9
:10088800000006000600fa0020479800314798004b
:100898000000eb00000f7800100037009e00780081
:1008a800405d210000804000904078002e4090007c
:1008b80080cf500008003a001e00e800415d21008a
:1008c80001004000be409000014878000000eb00a5
:1008d80020079800070037001e8fe8009e00780068
:1008e800700d2000808f5000ecff36008080eb00f8
:1008f800210798002e0090000080fa0000000600f2
:100908000800fa0020479800210798000000eb0033
:10091800000f7800110037009e007800405d21002c
:1009280000804000904078002e40900080cf50001a
:1009380009003a009e00e800405d21000080400068
:10094800904078002e009000014878000000eb00ed
:1009580030079800070037001e8fe8009e007800d7
:10096800700d2000808f5000ebff36000080eb00f8
:10097800300798003e0090000080fa000000060052
:100988000200fa00004f7800114798001e409000be
:10099800edf5b7001e407800eff5b7000080fa00cb
:1009a800000006000800fa00004f78001147980080
:1009b800224798003347980044479800f0c4b30092
:1009c8009e4f1000030036000080eb0030079800af
:1009d8000c0037001e407800f1f5b7001e4090006b
:1009e800f3f5b7002e409000f5f5b7004e409000a3
:1009f800f7f5b7003e409000f9f5b7000000eb00ae
:100a0800300798003e0090000080fa0000000600c1
:100a18000400fa00008fbe001e00be004a09dd0077
:100a28004600de0000007100c608de00fdf5b700d4
:100a38001e00be004209dd004e00de00000071000d
:100a4800ce08de00fbf5b7000040eb00fff5b7006d
:100a58000080fa00000006000200fa00004f78004b
:100a68001e40780009f6b7000080fa000000060072
:100a78000200fa00000f78001e00e00005003200b6
:100a880019d6bf0001c8b3000140700019f6b700bd
:100a98000300370019d6bf000074a10019f6b7008b
:100aa8000080fa00000006000400fa00004f7800f9
:100ab80011479800224798001e4078001df6b7009d
:100ac8001e4090001ff6b7002e40900021f6b70098
:100ad8000080fa00000006000200fa00004f7800cb
:100ae800114798001e4078007f4060000045b00024
:100af80023f6b7001e40900025f6b7000080fa00e4
:100b0800000006000600fa00100798004147980008
:100b18004e4090000000fb00630060004500dd00cf
:100b28008040780000c8b30000c04000abf6b700b2
:100b38000000eb00000f78000d0037001e00780061
:100b48000000400032052000000141001e0078002e
:100b5800800078001e0090000080400090407800df
:100b6800405d210000004100014878001e0fe800a8
:100b78001e007800e10f5000f0ff36000080fa00f8
:100b8800000006000000fa0090080700abd6bf007e
:100b980000417800aad6bf0080407800c0cdb300dd
:100ba800b60807008d080700c1632100914078004e
:100bb80026d6bf00020007000080fa0000000600e9
:100bc8000600fa0040479800514798000000eb00e3
:100bd800000f78007d0807000000eb001007980060
:100be8001f0037009e009000405d210000804000fb
:100bf800904078004e40900080cf5000150039009a
:100c08009e009000405d21000080400090407800e8
:100c18005e40900080cf50000e003e001e00900005
:100c28008000e800405d210000804000104078000e
:100c3800004178009e009000405d21000080400047
:100c48001040780080407800c0cdb3008b080700c2
:100c58001e0fe8001e0090000080e80010079800b2
:100c68009e009000700d2000808f5000ddff360040
:100c78005a0807001e0078000080fa0000000600ed
:100c88000400fa00100798000000eb00000f78003d
:100c98000d0037001e00780000004000b20620005a
:100ca800000141001e007800800078001e009000be
:100cb8000080400090407800405d21000000410025
:100cc800014878001e0fe8001e007800e10f500070
:100cd800f0ff36000080fa00000006000200fa006b
:100ce800004f7800114798001e40780051f6b70071
:100cf8001e40900053f6b7000080fa00000006007e
:100d08000200fa00004f7800114798001e40780052
:100d180055f6b7001e40900057f6b7000080fa005d
:100d2800000006000200fa00004f78001147980002
:100d38001e40780059f6b7001e4090005bf6b700d9
:100d48000080fa00000006000200fa00004f780058
:100d58001e80fb004400dd006f40400071f6b700c4
:100d68000080fa00000006000200fa00004f780038
:100d7800114798001e80fb004400dd008040780089
:100d88001e4090006f40600000c0400073f6b7003e
:100d98000080fa00000006000200fa00004f780008
:100da800114798001e4090000080fb004400dd00c1
:100db800804078001e4078006f40600000c040000e
:100dc80075f6b7000080fa00000006000400fa007b
:100dd800008fbe001e00be004088de00cf80de000f
:100de80077f6b7001e00be004809dd004800de00a7
:100df80000007100c888de0079f6b7001e00780090
:100e08007bf6b7000080fa00000006000200fa0036
:100e1800004f78001e4078007df6b7000080fa0089
:100e2800000006000400fa00000f7800110798007f
:100e38001e0078004800de0083f6b7001e00780028
:100e480085f6b7001e0090004800de0087f6b70060
:100e58001e00900089f6b7000080fa000000060026
:100e68000600fa00004f78001147980022479800c2
:100e78003347980044479800554798002e40900003
:100e88008bf6b7003e4090008df6b7001e40780004
:100e98008ff6b7001e40900091f6b7004e409000c4
:100ea80093f6b7005e40900095f6b7000080fa0010
:100eb800000006000a00fa00000f780011079800e9
:100ec8002207980033079800200d20001e0f4000cd
:100ed8001e009000200db000100798002e00900012
:100ee80067004000200798003e009000670040001f
:100ef800300798009e00900020352000808f500019
:100f0800030036000080eb004007980039003700e6
:100f1800be009000701e2000808f50000300360035
:100f28000080eb0040079800320037001e00900058
:100f38009e0f100004003100ae0090003e009000ab
:100f4800808f5000030039000080eb0040079800b4
:100f580028003700501a20009e0f10000c003600a1
:100f68009e00900090272000808f500008003e00cf
:100f7800ae009000700a2000808f500004003600f8
:100f8800be00900060142000808f500003003600df
:100f98000080eb0040079800160037001e0078001c
:100fa8004800de0097f6b7001e00780099f6b700f3
:100fb8001e0090004800de009bf6b7001e0090005f
:100fc8009df6b7002e0090004800de009ff6b7009f
:100fd8002e009000a1f6b7003e0090004800de0009
:100fe800a3f6b7003e009000a5f6b7000000eb009e
:100ff800400798004e0090000080fa0000000600ac
:101008000600fa0010079800210798001e009000bb
:101018000000e000060032002e0090000000e00012
:1010280003003200c0c3b300004f78000e00370041
:101038001e0090000000e00003003200c0c2b300b0
:10104800004f7800080037002e0090000000e000f4
:1010580003003200c0c1b300004f7800020037001f
:10106800c0c0b300004f78001e407800a7f6b70054
:101078000080fa00000006000200fa00000f780065
:101088001e00e000050032000bd6bf00f1c7b30018
:10109800014060000bf6b700040037000bd6bf0014
:1010a80001c8b300014070000bf6b7000080fa00d9
:1010b800000006000400fa00000f780011079800ed
:1010c8001e00e000050032000bd6bf00f1cbb300d4
:1010d800014060000bf6b700040037000bd6bf00d4
:1010e80001c4b300014070000bf6b7001e00900069
:1010f8000000e000050032000bd6bf00f1cdb300c0
:10110800014060000bf6b700040037000bd6bf00a3
:1011180001c2b300014070000bf6b7000080fa006e
:10112800000006000a00fa0001d6bf000080fb009c
:101138004007980000032000ce009000808f5000e8
:101148003100320000032000ce009000808f500054
:101158000b003c004e009000f00f500022003200bf
:1011680000022000ce009000808f50002200320044
:101178004e0090000000e0001700320036003700f3
:1011880000052000ce009000808f5000260032001d
:1011980000052000ce009000808f500005003c0024
:1011a80000042000ce009000808f50001a0032000a
:1011b8002900370000062000ce009000808f5000e4
:1011c8001d00320000072000ce009000808f5000e4
:1011d8001d00320020003700000028000107200011
:1011e800008fbe00200037000000200061092000a9
:1011f800008fbe001c00370000002400810320007f
:10120800008fbe001800370000002200c101200036
:10121800008fbe001400370000002100e10020000c
:10122800008fbe00100037000080200071002000f1
:10123800008fbe000c00370000402800310020005d
:10124800008fbe000800370000202c00110020008d
:10125800008fbe00040037006000b8002007980027
:10126800310798000a00370017d6bf00ec4f50002e
:1012780004003a001e00be000000400081804800c3
:10128800008fbe001e00be0020079800310798009e
:101298002e009000be0090000080fa0000000600ba
:1012a8001000fa00200798003107980042079800bc
:1012b80053079800640798005e0090000000e00063
:1012c800030035005e009000e30f50000300340077
:1012d8000080eb00700798004e0037006e00900009
:1012e8000000e000030035006e009000e30f50009e
:1012f800030034000080eb007007980045003700b9
:1013080088ff07000002be0084007800606a2000a1
:10131800000bb8006020b900070178000001410007
:10132800606a200000a8b90000014100820378002b
:101338002e0090006101b9000600be00f6fb070010
:101348001007980077ff07000002be0084007800ad
:10135800606a2000000bb8006020b900070178001f
:1013680000014100606a200000a8b90000014100a6
:10137800820378003e0090006101b9000600be00bb
:10138800e5fb0700000f78001e0090004800de0013
:101398000ff6b7001e00900011f6b7001e00780087
:1013a8004800de0013f6b7001e00780015f6b700f7
:1013b8004e0090000000e000040032000bd6bf0091
:1013c8000044a0000bf6b700040037000bd6bf009e
:1013d800f1ceb300014060000bf6b7006e0090003c
:1013e800e34060005e009000630060004200dd00a2
:1013f80000c140000bd6bf008040780000cfb3008a
:1014080000c06000004041000bf6b7000000eb0090
:10141800700798007e0090000080fa000000060027
:101428000600fa00000f7800110798001e007800e7
:10143800200798002e009000e30f5000670032004c
:101448002e009000e30f500007003e002e00900091
:10145800e10f50002e0032002e009000e10f5000e6
:1014680041003e000d0037002e009000e50f5000af
:10147800940032002e009000e50f500074003900ef
:101488002e009000e60f5000ab0032002e009000b6
:10149800e70f5000c5003200da0037001e00900048
:1014a800e10f50000f003600c4c2bf000080fb00ef
:1014b8004600de00614060000004a2006140600058
:1014c800614060004601dd00412c20009140780019
:1014d800f0cbb30000c0600002407000c4e2b70067
:1014e8008a0137001e009000614060006140600082
:1014f8004601dd00412c200091407800f0cbb3007c
:1015080000c0600002407000c4e2b7007f013700ed
:101518001e009000e10f50000b003600c4c2bf004f
:101528000080fb004700de000004a200614060006c
:10153800c700dd00c4c2bf000074a10001407000f4
:10154800c4e2b700710137001e00900061406000de
:10155800c700dd00c4c2bf000074a10001407000d4
:10156800c4e2b700690137001e009000e10f500087
:101578000f003600c5c2bf000080fb000000d1008c
:10158800614060000004a2006140600061406000aa
:1015980000414000512c200091407800d0cfb3008a
:1015a80000c0600002407000c5e2b7005701370074
:1015b8001e009000614060006140600000414000f2
:1015c800512c200091407800d0cfb30000c06000bb
:1015d80002407000c5e2b7004c0137001e009000c1
:1015e800e10f50000f003600c5c2bf000080fb00ad
:1015f8004400de00614060000004a2006140600019
:10160800614060004401dd00512c200091407800c9
:10161800f0ceb30000c0600002407000c5e2b70021
:101628003a0137001e009000614060006140600090
:101638004401dd00512c200091407800f0ceb30029
:1016480000c0600002407000c5e2b7002f013700fb
:101658001e009000e10f50000f003600c5c2bf0009
:101668000080fb004200de00614060000004a20030
:1016780061406000614060004201dd00512c2000a3
:1016880091407800b0cfb30000c060000240700005
:10169800c5e2b7001d0137001e00900061406000e0
:1016a800614060004201dd00512c2000914078002b
:1016b800b0cfb30000c0600002407000c5e2b700c0
:1016c800120137001e009000e10f50000f00360095
:1016d800c5c2bf000080fb004500de00614060001d
:1016e8000004a20061406000614060004501dd0027
:1016f800512c200091407800f0cdb30000c060006c
:1017080002407000c5e2b700000137001e009000db
:1017180061406000614060004501dd00512c2000ff
:1017280091407800f0cdb30000c060000240700026
:10173800c5e2b700f50037001e009000e10f500029
:101748000f003600c5c2bf000080fb004600de0067
:10175800614060000004a2006140600061406000d8
:101768004601dd00512c200091407800f0cbb300f9
:1017780000c0600002407000c5e2b700e300370017
:101788001e00900061406000614060004601dd007d
:10179800512c200091407800f0cbb30000c06000cd
:1017a80002407000c5e2b700d80037001e00900064
:1017b800e10f50000b003600c5c2bf000080fb00df
:1017c8004700de000004a20061406000c700dd00a1
:1017d800c5c2bf000074a10001407000c5e2b70097
:1017e800ca0037001e00900061406000c700dd009d
:1017f800c5c2bf000074a10001407000c5e2b70077
:10180800c20037001e009000e10f5000690036004a
:10181800c4c2bf000080fb004600de0061406000db
:101828000004a20061406000614060004601dd00e4
:10183800412c200091407800f0cbb30000c060003c
:1018480002407000c4e2b700c4c2bf000080fb00c1
:101858004700de000004a20061406000c700dd0010
:10186800c4c2bf000074a10001407000c4e2b70008
:10187800c5c2bf000080fb000000d10061406000cd
:101888000004a20061406000614060000041400027
:10189800512c200091407800d0cfb30000c06000e8
:1018a80002407000c5e2b700c5c2bf000080fb005f
:1018b8004400de00614060000004a2006140600056
:1018c800614060004401dd00512c20009140780007
:1018d800f0ceb30000c0600002407000c5e2b7005f
:1018e800c5c2bf000080fb004200de00614060000e
:1018f8000004a20061406000614060004201dd0018
:10190800512c200091407800b0cfb30000c0600097
:1019180002407000c5e2b700c5c2bf000080fb00ee
:101928004500de00614060000004a20061406000e4
:10193800614060004501dd00512c20009140780095
:10194800f0cdb30000c0600002407000c5e2b700ef
:10195800c5c2bf000080fb004600de006140600099
:101968000004a20061406000614060004601dd00a3
:10197800512c200091407800f0cbb30000c06000eb
:1019880002407000c5e2b700c5c2bf000080fb007e
:101998004700de000004a20061406000c700dd00cf
:1019a800c5c2bf000074a10001407000c5e2b700c5
:1019b800560037001e00900061406000c700dd003f
:1019c800c5c2bf000074a10001407000c5e2b700a5
:1019d800c5c2bf000080fb004700de006140600018
:1019e8004601dd00512c200091407800f0cbb30077
:1019f80000c0600002407000c5e2b700c5c2bf0069
:101a08000080fb004600de0061406000614060002d
:101a18004501dd00512c200091407800f0cdb30045
:101a280000c0600002407000c5e2b700c5c2bf0038
:101a38000080fb004500de006140600061406000fe
:101a48004201dd00512c200091407800b0cfb30056
:101a580000c0600002407000c5e2b700c5c2bf0008
:101a68000080fb004200de006140600061406000d1
:101a78004401dd00512c200091407800f0ceb300e5
:101a880000c0600002407000c5e2b700c5c2bf00d8
:101a98000080fb004400de0061406000614060009f
:101aa80000414000512c200091407800d0cfb30075
:101ab80000c0600002407000c5e2b700c5c2bf00a8
:101ac8000080fb000000d10061406000c700dd001d
:101ad800c4c2bf000074a10001407000c4e2b70096
:101ae800c4c2bf000080fb004700de006140600008
:101af8004601dd00412c200091407800f0cbb30076
:101b080000c0600002407000c4e2b7000080fa0024
:101b1800000006000200fa00000f78001000200004
:101b28009e0f10000f003600d0c2bf000080fb00df
:101b38004200de00614060000004a20061406000d5
:101b4800614060004201dd00012d200091407800d5
:101b5800b0cfb30000c0600002407000d0e2b70010
:101b68000a0037001e007800614060006140600094
:101b78004201dd00012d200091407800b0cfb30074
:101b880000c0600002407000d0e2b7000080fa0098
:101b9800000006000200fa00000f78001000200084
:101ba8009e0f10000f003600d0c2bf000080fb005f
:101bb8000000d100614060000004a20061406000a4
:101bc8006140600000414000012d200091407800f4
:101bd800d0cfb30000c0600002407000d0e2b70070
:101be8000a0037001e007800614060006140600014
:101bf80000414000012d200091407800d0cfb30073
:101c080000c0600002407000d0e2b7000080fa0017
:101c1800000006000000fa00c4c2a900c4e2a9003e
:101c2800c522a900c582a900c542a900c5a2a9006c
:101c3800c5c2a900c5e2a9000080fa00000006009c
:101c48000000fa000000370006c2bf0061406000d3
:101c58000004e000fcff3a0006c2bf0064406000d8
:101c68000004e000f8ff3a0006c2bf0068406000c8
:101c78000004e000f4ff3a0006c2bf0070406000b4
:101c88000004e000f0ff3a0009c2bf000044b200bf
:101c98000004e000ecff3a000080fa0000000600b3
:101ca8000400fa00600920002010880007e2a9005b
:101cb80007e2a80085c0a90085a0a900b1092000f5
:101cc8009140780080cfb30000c060005040b3005e
:101cd8009be0b7008da0a900007122000100200040
:101ce800008fbe00040037000080eb008080eb000e
:101cf8001e0f40005e9748001e00be00e00f500017
:101d0800e08f5800f8ff3a00100020000080fa0029
:101d1800000006000400fa006000b800008fbe0052
:101d280007e2a90085c0a90085a0a9008da0a90087
:101d38000071220001002000008fbe00040037005f
:101d48000080eb008080eb001e0f40005e9748008b
:101d58001e00be00e00f5000e08f5800f8ff3a0068
:101d6800cfff07000f0007000071220001002000cc
:101d7800008fbe00040037000080eb008080eb007d
:101d88001e0f40005e9748001e00be00e00f500086
:101d9800e08f5800f8ff3a00100020000080fa0099
:101da800000006000000fa0085c0a9008dc0a80048
:101db800100020000080fa00000006000000fa0071
:101dc80085c0a9008dc0a900100020000080fa007d
:101dd800000006000600fa0010c0b300f0f6b700d5
:101de80008c2bf00704060000004e0001600320026
:101df8000602a8000071220001002000008fbe002a
:101e08000a003700f0d6bf000004e00003003a00e3
:101e180010002000200798000d0037000080eb001c
:101e28008080eb001e0f40005e9748001e00be0039
:101e3800e00f5000e08f5800f2ff3a008000eb00fe
:101e480021079800020037000000eb0020079800e7
:101e58002e0090000080fa00000006000600fa003c
:101e680060c0b300f0f6b70008c2bf006840600069
:101e78000004e000160032000622a80000712200cb
:101e880001002000008fbe000a003700f0d6bf0016
:101e98000004e00003003a0010002000200798002a
:101ea8000d0037000080eb008080eb001e0f400023
:101eb8005e9748001e00be00e00f5000e08f5800fb
:101ec800f2ff3a008000eb0021079800020037007b
:101ed8000000eb00200798002e0090000080fa0018
:101ee800000006000600fa0050c0b300f0f6b70084
:101ef8000642a8000071220001002000008fbe00e9
:101f08000a003700f0d6bf000004e00003003a00e2
:101f180010002000200798000a0037000080eb001e
:101f28008080eb001e0f40005e9748001e00be0038
:101f3800e00f5000e08f5800f2ff3a008000eb00fd
:101f4800210798002e0090000080fa00000006008b
:101f58000600fa0030c0b300f0f6b70006c2bf00b2
:101f6800614060000004e00010003a0006c2bf00b3
:101f7800644060000004e0000c003a0006c2bf00a4
:101f8800684060000004e00008003a0006c2bf0094
:101f9800704060000004e00004003a0006c2bf0080
:101fa800624060000004e000030032000000eb0023
:101fb800200798001600370006a2a9000682a8008c
:101fc8000071220001002000008fbe000a003700c7
:101fd800f0d6bf000004e00003003a001100200022
:101fe800210798000a0037000080eb008080eb0092
:101ff8001e0f40005e9748001e00be00e00f500014
:10200800e08f5800f2ff3a008000eb0021079800ab
:102018002e0090000080fa00000006000600fa007a
:1020280030c0b300f0f6b70006c2bf0061406000e0
:102038000004e00010003a0006c2bf0064406000df
:102048000004e0000c003a0006c2bf0068406000cf
:102058000004e00008003a0006c2bf0070406000bb
:102068000004e00004003a0006c2bf0062406000bd
:102078000004e000030032000000eb002007980095
:102088001600370006a2a8000682a80000712200e8
:1020980001002000008fbe000a003700f0d6bf0004
:1020a8000004e00003003a00110020002107980016
:1020b8000a0037000080eb008080eb001e0f400014
:1020c8005e9748001e00be00e00f5000e08f5800e9
:1020d800f2ff3a008000eb00210798002e009000e4
:1020e8000080fa00000006000a00fa003007980095
:1020f80000712200010020001007980021079800b5
:102108000040eb00004f780040c0b300f0f6b70085
:102118000071220001002000100798002107980094
:102128001d00370006c2bf00614060000004e000e7
:1021380013003a0006c2bf00644060000004e000db
:102148000f003a0006c2bf00684060000004e000cb
:102158000b003a0006c2bf00704060000004e000b7
:1021680007003a0009c2bf000044b2000004e000c2
:1021780003003a0010c0b300004f78000b0037008e
:102188001e009000ae00900061005000e0805800f2
:1021980010079800210798001e009000ae009000dc
:1021a800e00f5000e08f5800deff3a001e04e00008
:1021b80003003a000000eb00400798001d003700bc
:1021c8000662a800006a2800110020001007980085
:1021d8002107980010003700f0d6bf000004e00087
:1021e80007003a0000c2bf00804078003e0090001f
:1021f8000148780010002000400798000d003700c3
:102208001e009000ae00900061005000e080580071
:1022180010079800210798001e009000ae0090005b
:10222800e00f5000e08f5800ebff3a000000eb0091
:10223800400798004e0090000080fa000000060059
:102248000800fa004047980020c0b300f0f6b70035
:102258004e40900002e2b700007122000100200009
:10226800008fbe000a003700f0d6bf000004e0006f
:1022780003003a0010002000300798000a003700d9
:102288000080eb008080eb001e0f40005e97480046
:102298001e00be00e00f5000e08f5800f2ff3a0029
:1022a8008000eb00310798003e0090000080fa00a3
:1022b80000000600801f78003400f80000c0b3005a
:1022c800a00188000000fa0085c0a9000040eb00ca
:1022d800f0f6b7000080fa003400f9004f007800eb
:1022e800004006002200fa0070079800010f9800cd
:1022f800120f9800230f9800340f9800450f98008c
:10230800560f98007e009000200db00070079800ce
:102318000e08900067004000000f98004e089000db
:102328000000e000030032003e0890000000e000da
:1023380003003a000080eb00600f980004013700aa
:10234800fe0090001e08900080804000203520008c
:10235800808f5000030036008080eb00610f9800ea
:10236800fb0037008e0890002e0890008080400007
:10237800701e2000808f5000030036000080eb00a4
:10238800600f9800f20037001e0890003e09900088
:10239800110009000280d8008000fd000000e00064
:1023a800030032008080eb00610f9800e8003700de
:1023b8002e0890004e099000110009000280d800f4
:1023c8008000fd000000e000030032000080eb0008
:1023d800600f9800de0037004e0890006300600030
:1023e8000000e00033003a003e08900063006000ff
:1023f8000000e0000f003a0030032000000f7800d2
:102408004e0890004200de00200798003e08900029
:102418004200de00100798000e089000640050008b
:10242800000f98007e00900064005000700798002c
:10243800500037003e089000610060000000e00096
:102448000f003a0010012000000f78004e0890009d
:102458000000d100200798003e0890000000d1003d
:10246800100798000e0890000080e900000f9800ff
:102478007e0090000080e900700798003d0037005a
:1024880040042000000f7800ce0890002107980033
:102498003e089000100798000e0890000000e90020
:1024a800000f98007e0090000000e9007007980077
:1024b800300037004e089000610060000000e00026
:1024c80020003a003e089000610060000000e00033
:1024d8000f003a0010012000000f78004e0890000d
:1024e8000000d100200798003e0890000000d100ad
:1024f800100798000e0890000080e900000f98006f
:102508007e0090000080e9007007980019003700ed
:1025180040042000000f7800ce08900021079800a2
:102528003e089000100798000e0890000000e9008f
:10253800000f98007e0090000000e90070079800e6
:102548000c00370040042000000f7800be089000ff
:10255800110798004e089000200798000e08900078
:102568000000e900000f98007e0090000000e900dc
:10257800700798001e0090000000e90050079800be
:102588002e0090000000e900600798001e089000e7
:102598003e099000110009000280d8004007980009
:1025a8002e0890004e099000110009000280d80002
:1025b800300798005e089000b1f707000000e000bf
:1025c800030032008080eb00610f98006000370044
:1025d8001e007800c9f707000000e0000300320081
:1025e8000080eb00600f9800590037005e089000eb
:1025f8000000e00017003a009e007800710f980074
:1026080030032000fe089000808f50000e0032003a
:1026180040042000fe089000808f50000400320023
:102628007e089000f10f5000040032001f003700b0
:1026380000032000c6f707001c0037000002200036
:10264800c3f70700190037000000eb00c0f70700c8
:10265800160037009e00780001179800300320000c
:102668008e109000808f50000e0032004004200031
:102678008e109000808f5000040032000e109000e1
:10268800f10f500004003200080037000004200059
:10269800aff707000500370000032000acf707007c
:1026a8000200370000022000a9f70700313520009a
:1026b8007e009000c9f707000000e0000300320028
:1026c8008080eb00610f980021003700811e2000f8
:1026d8000e089000ecf707000000e000030032004d
:1026e8000080eb00600f9800190037007e00900012
:1026f8000001e800711e20000e0890000af807008b
:102708000000e000030032008080eb00610f9800b9
:102718000f0037005e0890001000070000017800e5
:102728006e029000de019000ce0090003e00900006
:10273800730007000000e000030032000080eb0097
:10274800600f9800020037008000eb00610f9800ce
:102758006e0890000080fa00000006000600fa00eb
:10276800000f78001e007800200798002e009000c7
:10277800e10f50000a0032002e009000e20f5000d6
:102788000a0032002e0090000000e0000100320034
:1027980009003700100020001007980008003700d3
:1027a80020002000100798000500370020002000b6
:1027b800100798000200370010002000100798004a
:1027c8001e0090000080fa00000006000200fa00d7
:1027d800c801070079010700d1a2a900400620001e
:1027e800000f780002003700000000001e0fe9000b
:1027f8001e00e000fcff3a00d1a2a800400620001d
:10280800000f780002003700000000001e0fe900ea
:102818001e00e000fcff3a0081e0a900f1048000fe
:10282800f0002f00808060000066200000804000db
:10283800f00488000080fa00000006003400f80068
:10284800881f780008002000a80188004f0478003d
:102858000000fa0086c0a9001fe1a80021e1a90034
:102868000080fa003400f900004006000000fa0079
:1028780020002000000988000000eb00c008880044
:1028880010002000e008880086c0a9008ec0a800bb
:1028980021e1a8000080fa00000006000000fa000c
:1028a80020002000f008880000a48000a00888000c
:1028b80000a480000000e800d008880086a0a900d5
:1028c8001fe1a9008ea0a8000080fa000000060001
:1028d8000200fa00000f78000000eb0030a4880026
:1028e8001e00780010a488000000eb0020a48800d7
:1028f800eaff0700ddff07000080fa00000006007d
:102908001200fa0030079800410798005207980013
:1029180063079800740798000000eb001007980000
:10292800ce0090005e0090000088b900800078001a
:102938006e0090000000e8000088b9000000e80080
:1029480080007800a0142000808f5000030036001b
:102958000080eb00000f9800350037000000eb0006
:1029680020079800230037000000eb00000f7800d4
:10297800090037009e009000a04821008080400098
:1029880010c0b300804878001e0090000000e800e6
:10299800100798001e0fe8005e0090009e0f1000c0
:1029a800f4ff35000000eb00000f78000900370045
:1029b8009e009000a0482100808040000040eb006d
:1029c800804878001e0090000000e800100798007a
:1029d8001e0fe800ee0090005e0090000088b9002d
:1029e8009e0f5000f2ff3c002e0090000000e8000f
:1029f80020079800ae0090004e009000808f500095
:102a0800d9ff35009e009000a0482100808040003a
:102a180020c0b300804878007e00900000a48800a1
:102a28003e00900040a488000000eb00000f9800d2
:102a38000e0890000080fa00000006000000fa006e
:0c2a480020a480000080fa0000000600be
:020000040000fa
:102a5400fe1600000200000002000000800c0000ce
:102a640000080000800c000000000000801400003a
:102a74005401000000000000d4150000d80000003c
:102a84000200000004030500530603000753080076
:102a94000009d1000a000b00070c03000d510e00c1
:102aa400010fe70012021300021510001640170070
:102ab4004018400019401a00031be6001c001d00ca
:102ac400701e0a001f1b2000443b00004680480083
:102ad400604996004a004b007d4c00004e084f00b0
:102ae4000a50700059005a00005b00005cac5d00a5
:102af40002760000771a78002a7937007a427b0040
:102b0400567c68007d877e00a37fbc0080d4810052
:102b1400ea8e38008fa590000d919300922d9300ba
:102b24000694830095aa96004d97250098259b004e
:102b3400009c96009f80a00080a1b600a29da300e7
:102b4400aba48000a500a60007a70100a8e7a90080
:102b540000aa0100ad9fae0022af8c00b007b10007
:102b6400ccb20000b370b90003bae600bb07bc00e6
:102b7400ccbd0000be0cc10010c2e000c310c400f4
:102b8400e0c58000c680c70001c8a500c902ca000c
:102b94007acb0000cca7cd0001ce4700d43cd500b1
:102ba40001d88000f01600000800000000000000ba
:102bb400f8160000060000000200000000000000fb
:102bc40000000000ac1600004400000002000000f9
:102bd40000000000000000000000000000000000f1
:102be40000000000000000000000000000000000e1
:102bf40000000000000000000000000000000000d1
:102c040000000000000000000000000000000000c0
:102c140000000000000000000000000000000000b0
:102c240000000000000000000000000000000000a0
:020000040000fa
:102c34000800fa0000d4200031002000008fbe00fc
:102c44000000eb0030079800110037003e009000b0
:102c540011002000f3f907000000eb0020079800a2
:102c6400030037002e0090000000e80020079800c1
:102c74002e009000cf80de00be0f5000ae8f5800b3
:102c8400f8ff39003e0090000000e800300798008b
:102c94003e009000e70f5000ecff34000000eb0012
:102ca40030079800110037003e0090008000eb00d0
:102cb400dcf907000000eb00200798000300370050
:102cc4002e0090000000e800200798002e009000dd
:102cd400cf80de00be0f5000ae8f5800f8ff3900e1
:102ce4003e0090000000e800300798003e0090008d
:102cf400e70f5000ecff34000080fa0000000600eb
:102d04000000fa00e1002000e01c2800e1000700b8
:102d140000802000effe070049ff07000000e000ec
:102d2400fdff3200c2ff07000080fa000000060029
:102d34000200fa00700007001e010700a4fe07004d
:102d4400160020004500200044002000030a200053
:102d5400020a2000010a2000000f200062fd070083
:102d640094f5070008003700e40007000000e000c5
:102d7400050032000e007800e40007001100200076
:102d84000e007800c30007009e40780080c7b3009f
:102d940080cf5000f4ff3a00d9ff0700f1b780005c
:102da40000802000bb000700c60007000000e00010
:102db400fdff3a000000eb000080fa00000006006e
:102dc4000000fa00b7fb07000080fa0000000600cc
:102dd4000000fa00f4fb07000080fa00000006007f
:102de4000000fa00f6fb07000080fa00000006006d
:102df4000400fa0020479800314798000040eb0097
:102e0400004f78001800370010c0b300004f78005e
:102e1400f1fb07001e4f60002e40900009fd0700e3
:102e24001e4f60003e40900006fd07001e4f6000ec
:102e34000bfc07001e4f60002e4090000040e8008d
:102e440000fd07001e4f60000e00e800a7fc07000d
:102e54001e4f600072fc070023fc07001e04e00004
:102e640003003a00acfb07001e04e000e6ff32005a
:102e74001e4090000000fb000080fa0000000600e5
:102e84000600fa002047980031479800424798000e
:102e94000040eb00004f78001200370010c0b30070
:102ea400004f7800ccfb07001e4f60002e409000be
:102eb400e4fc07001e4f60003e409000e1fc070068
:102ec4001e4f60004e409000defc07001e4f600065
:102ed40005fc07001e4f60001e04e00003003a00da
:102ee4008dfb07001e04e000ecff32001e00fb0017
:102ef4000080fa00000006000000fa00c4c2a90025
:102f0400c4e2a900c522a900c582a900c542a9003e
:102f1400c5a2a900c5c2a900c5e2a900c0c2a900f2
:102f2400c0e2a900c122a900c182a900c142a9002e
:102f3400c1a2a900c1c2a900c1e2a900d022a9006e
:102f4400cc22a900d042a900cc42a900e2e2a90007
:102f5400e302a900e802a900e822a900dee2a90030
:102f6400df02a900e402a900e422a900e202a90008
:102f7400de02a900d602a900d622a900d642a900e1
:102f8400d662a900d682a900d6a2a900d6c2a900f9
:102f9400d6e2a900d202a900d222a900d242a900f5
:102fa400d262a900d282a900d2a2a900d2c2a900e9
:102fb400d2e2a900d1a2a900cda2a900e842a900a9
:102fc400e862a900e442a900e462a900de22a800a4
:102fd400dec2a800e4c2a800e4e2a800e502a8005a
:102fe400e522a800d302a800d322a800d342a80057
:102ff400d362a800d382a800d3a2a800d3c2a80099
:10300400d3e2a8000080fa00000006008540a90071
:10301400809fbe00821f7800fc16e200150032007b
:10302400f816e20016003200fa16e200140032002c
:10303400c1b78000420020000f22af00feff37001e
:10304400d0b780000000e000070032000000e90073
:10305400fab6b7003140780010e2b7000201e90087
:10306400f5ff3a0002003700f836ef0001003700a0
:10307400c1b788004f0178004f00be000040060031
:1030840000002000e0b788004f0178004f00be0028
:1030940000400600fc16e200feff3a008d40a90045
:1030a4008100e900d1b78800b04078008110880021
:1030b400c0b7880011002000e1b788008d40a80047
:1030c40000000600e0b7800000000600809fbe00fc
:1030d4008520a90060b78000f003b200c16a210016
:1030e400810040000000eb0012c2bf00804878005d
:1030f400ec36ec004f00be000040060060b78000d4
:1031040071b78000010050000000060061b7800024
:1031140072b780000208e10008003200f203b20036
:10312400c16a210002814000924078000148780081
:10313400ee36ec0010002000000006000000eb005a
:103144000000060000a0fe0086a0a9001421ef00e4
:103154000000000011a48000a248210013002000f8
:10316400321ce100050032000800350000000000b8
:103174000000000000000000f9ff3700a0168000e6
:103184004800de0080587800f5ff370011a488005d
:103194008634ec0030a480008814e30003003a0075
:1031a4001000200020a488001fe1a9000080fe0078
:1031b400004006000c22ef000e22ef000ee2a900f0
:1031c4000ec2a9008520a9008d20a8000de2a80048
:1031d40070002000a01088008540a9008d40a80040
:1031e40081e0a900c0048000f1002f00008060008d
:1031f4000155200000804000c00488000fe2a800b0
:103204000f42a800ec36ef00ee36ef000000060097
:020000040000fa
:043214000000fe00b8
:00000001FF
