:020000040000fa
:080000000001040000000000f3
:020000040000fa
:100200006f29210000792200000188000000000011
:100210000c0007000032220001002000110007003e
:10022000000020000000e000020032000000020098
:1002300000000000281e0200000000000040da005c
:100240000000fe004440a900400020000000e00043
:100250000300320000002000a00188004440a800f4
:100260000000060091018800800078000000eb008b
:1002700015003700e280400032a0b4009101ba00be
:10028000e280400032a0b4009102ba00e280400057
:1002900032a0b4000002eb00472bde00f507b200ed
:1002a000602ce10004003a000059eb008301e900f2
:1002b000fdff3e00040037006128e100010032002c
:1002c0000082eb00040007001101ba000200e00008
:1002d000e8ff3a00000006003159ba008301e90046
:1002e0000c0032002159ba008301e90008003200f5
:1002f0000400e00003003a00e280400032a0b400b5
:10030000f5ff370011d9ba008301e900faff3a007e
:100310008100e800e180400032a0b4000000060047
:100320004c18040000000000301904000000000018
:10033000d810040000000000889fbe0080047800f0
:10034000908480000000e00003003a006100070094
:100350000000e0000a003500908480000900e00001
:1003600002003a000004780006003700000478001c
:1003700009004000570007000000e00001003d00b8
:100380000084eb00080078004f04be000000060067
:100390000c02e20004003d000f42ab0002003200fc
:1003a0000f02ab00feff32000040da00feff370014
:1003b0000a00fa0011002000b1bf9f00c0bf9f00db
:1003c0006a80570000c0da004fb897000080fa003a
:1003d000000006000a00fa0051002000b1bf9f0093
:1003e000c0bf9f006a80570000c0da005fb8970066
:1003f0000080fa00000006000a00fa008001780080
:10040000e20f500028003e00a0848000e10f500061
:1004100008003200e02120000000e000050032006a
:100420006421200085212000a62120008001780081
:1004300004003700c4202000e52020000621200011
:1004400043212000144090000004e0000400350027
:100450008009eb00144090000074a0001042980046
:10046000154090000028a30003003a0015409000ba
:100470000024a000904298008001eb0007003700a4
:10048000154090000008a300fdff320063c0780013
:100490000000fb00000b78008301e800828f510010
:1004a000f7ff3a000800370030002000b0bf9f007f
:1004b000c3bf9f00d1bf9f00e2bf9f006a8057006b
:1004c00000c0da006fb99700020078000080fa00df
:1004d00000000600800078000000e00004003a0000
:1004e000600921009084880001017800060037002f
:1004f0000081eb0060292100808f500002003e0047
:10050000918488000001eb000200780000000600e2
:10051000839f68000100e00002003d0060001000c1
:10052000e08018000300e00002003d0060011100bf
:10053000e0811900050007004f00e00002003b00c9
:1005400060001000e0801800000006006022b80083
:10055000060220000000d0008180d2000482d20078
:100560008582d2000000a0000202520083825a005d
:10057000030031000202420083824a000000a10011
:100580000603e900f3ff3a0000000600889fbe0062
:100590008a9fbe008c9fbe000001780021082100c8
:1005a0001100e0000b003a00600821001084880070
:1005b000f083880031848800018488002140900005
:1005c0000004a000a0409800614090000004a0003a
:1005d000e0409800e7004100c208de00c20cdd00e8
:1005e000038480006d092100602921000d05500061
:1005f00022002000811f7800110009000205d800a8
:1006000000067800cf007800c308dd00e4854000d4
:10061000f58380008000eb00670921002608210097
:100620000100370080017800234090000008a300fb
:10063000020032000a0037009409780013027800a3
:10064000244090000008a300fbff32000981410014
:10065000820f520002003900830f51004300310025
:1006600013007800830f5000eeff3e00870f50000c
:1006700002003900860f5000eaff3900858f5100d3
:100680004b003a00860f500049003a008100e80014
:10069000e18f5000e3ff36008c8f540004003600d9
:1006a0008a8f5400020031000b04780012003700da
:1006b000614ab8006151b900b0ff2f00010020006d
:1006c0000200500083805800800f5200818f5a0032
:1006d0000200350009047800070037000d8054003f
:1006e0009229210002004000110009000a80d80070
:1006f0000a80b90000047800080078000eff0700a7
:1007000080017800e10f400029003200f283800070
:100710000009780064004100a2409000808f5100e1
:10072000020032000104a000010037000104a10012
:100730002141980088804100e480500081097800c0
:10074000f18388002208210082087800214090006f
:100750000004a000a0409800234090000004a100e5
:10076000a041980082017800a9ff37000284880028
:10077000820f52000800360012007800c1072100e5
:10078000a242900085487800d08388000409780050
:100790000040eb002041980082097800234090003f
:1007a0000004a000a04198006480410001003700cf
:1007b0000000eb004f06be004f05be004f04be0018
:1007c000000006006400500000848800a0409000f3
:1007d0000104a1002140980000000600889fbe008f
:1007e0008a9fbe0000057800e4015000130010004d
:1007f000c285de00234090000008a3000400320000
:1008000003848800234090000004a100a0419800c8
:10081000010078005dff0700000478000000e000a0
:10082000170032008a0f50001500320060b89700a0
:1008300008005000c284de00898f55000100360098
:10084000890578004259dd008a00780008007800a8
:10085000130007008a0f5400090031004248dd00f0
:10086000000044008a0f5000050036000a005000c6
:1008700000004400d2838000e38380000288be0031
:10088000080078004f05be004f04be0000000600bf
:10089000000478000900070008007800bcfe07008b
:1008a0008001eb000200370061f079008301e8006d
:1008b000828f5100fcff3a0000000600881f78007c
:1008c000b08080000000e000010032000000010064
:1008d000a801210008007800060007006c0444000d
:1008e000a0072100800f5400faff3a004f0478005f
:1008f00000000600889fbe008a1f78000004780070
:10090000300090006300600024003200080078008e
:10091000300007003805900080ef2f0000006500d0
:1009200030049800280090000000e000040032002d
:10093000e804650002003a005f00070029049800ff
:10094000480090009afe0700e10f400013003200bb
:10095000b80090000102b20010003a000ac8a300db
:1009600018003200708480000000e00015003200a2
:100970000001780081047800012a200012289000ec
:10098000880f5000070032004205b0004905b00052
:10099000818f54000b003200f8ff37000080eb001d
:1009a00009003700020078008afe0700708480008a
:1009b000090040008000eb00112898000100780039
:1009c000010037000000eb004f0578004f04be0027
:1009d00000000600881f78000004780030009000b6
:1009e0000008a30007003200800078000120b20058
:1009f00004003a0011049800a8009000010c78004f
:100a0000170037000018a300190032000098a30057
:100a100017003200a80090000100e000140032002e
:100a2000180190000200e000110032004800900020
:100a300071fe070098009000810f50000300320003
:100a4000380090000003b300300498000000eb0071
:100a50001004980028009000000c780038009000e6
:100a60000058a300020032000080eb0001003700b4
:100a70000000eb004f047800000006006184800055
:100a80000100e0000300320011007800608488005b
:100a9000030037000020200027fe070080007800b8
:100aa000e18f400002003a00906e260080848800aa
:100ab00001007800000006006184800001087800d1
:080ac0006084880000000600bc
:020000040000fa
:0200000401f009
:04000000e6ff000017
:020000040000fa
:0200000401f009
:04000400ff7f00007a
:020000040000fa
:0200000401f009
:040008007fff000076
:020000040000fa
:0200000401f009
:04001400ffff0000ea
:020000040000fa
:10000800d4270000d4270000d4270000d4270000fc
:10001800d4270000d4270000d4270000d4270000ec
:10002800d4270000d4270000d4270000d4270000dc
:10003800d4270000d4270000b6220000d4270000ef
:10004800d427000032270000d2260000d427000061
:10005800d4270000d427000034180000d42700005b
:10006800d4270000d4270000d4270000d42700009c
:10007800d42700006e270000a4240000d427000025
:10008800d4270000d4270000d4270000d42700007c
:10009800d4270000d4270000d4270000d42700006c
:1000a800d4270000d4270000d4270000d42700005c
:1000b800d4270000d4270000d4270000d42700004c
:1000c800d4270000d4270000d4270000d42700003c
:1000d800d4270000d4270000d4270000d42700002c
:1000e800d4270000d4270000d4270000d42700001c
:0800f800d4270000d42700000a
:020000040000fa
:10010800d4270000d4270000d4270000d4270000fb
:10011800d4270000d4270000d4270000d4270000eb
:10012800d4270000d4270000d4270000d4270000db
:10013800d4270000d4270000b6220000d4270000ee
:10014800d427000032270000d2260000d427000060
:10015800d4270000d427000034180000d42700005a
:10016800d4270000d4270000d4270000d42700009b
:10017800d42700006e270000a4240000d427000024
:10018800d4270000d4270000d4270000d42700007b
:10019800d4270000d4270000d4270000d42700006b
:1001a800d4270000d4270000d4270000d42700005b
:1001b800d4270000d4270000d4270000d42700004b
:1001c800d4270000d4270000d4270000d42700003b
:1001d800d4270000d4270000d4270000d42700002b
:1001e800d4270000d4270000d4270000d42700001b
:0801f800d4270000d427000009
:020000040000fa
:080ac8000c0700000000000013
:020000040000fa
:100ad0000200fa00241007000000eb00000f78006d
:100ae0000d0037009e00e80000ad200000804000af
:100af00010407800004178009e00780000ad200092
:100b0000008040001040780080407800c0cdb300e5
:100b1000411007001e8fe8009e007800700d200035
:100b2000808f5000efff3600131007000080fa009e
:100b3000000006000200fa00881f78000a10070073
:100b40000000eb00000f78000d0037001e04e800e5
:100b50009e00780000ad200000804000104078002a
:100b600080407800c0cdb3000710070080407800b7
:100b700000ad200000004400014878001e8fe8000e
:100b80009e007800700d2000808f5000efff36002f
:100b9000f90f07004f0478000080fa0000000600fb
:100ba0000600fa00000f78001e0078002007980069
:100bb0002e009000e10f50000a0032002e0090003d
:100bc000e20f50000a0032002e0090000000e0000a
:100bd0000100320009003700c0c0b30013ebb700ba
:100be0000900370080c0b30013ebb70006003700e0
:100bf00020c0b30013ebb700030037000080eb0008
:100c000010079800020037000000eb001007980062
:100c10001e0090000080fa00000006000400fa00a8
:100c2000000f7800400420009e0f100006003200e4
:100c3000100120009e0f100003003200300320003e
:100c40009e0f100005003a001e00780003ebb7006d
:100c50000000eb0010079800020037000080eb0056
:100c6000100798001e0090000080fa0000000600a7
:100c70000400fa00000f78001e00e00015003200aa
:100c8000000220009e0f100012003200000320001e
:100c90009e0f10000f003200000420009e0f100075
:100ca0000c003200000520009e0f100009003200e9
:100cb000000620009e0f10000600320000062000f3
:100cc0009e0f100003003200000120009e0f100054
:100cd00005003a001e007800fdeab7000000eb00b6
:100ce00010079800020037000080eb001007980002
:100cf0001e0090000080fa00000006000a00fa00c2
:100d00002007980031079800ae0090003e00900048
:100d1000808f5000030039000080eb0040079800ee
:100d20001e003700be00900030382000808f500039
:100d3000030036000080eb004007980017003700e2
:100d40002e0090000000e900200798002e0090007f
:100d5000204798002e0090004800de0030479800a1
:100d60003e009000004f78003e0090004800de00fa
:100d7000104798003e409000d9eab7002e409000fe
:100d8000dbeab7001e409000e1eab7001e407800a1
:100d9000e3eab7000000eb00400798004e00900027
:100da0000080fa00000006000a00fa002007980000
:100db00031079800ae0090003e009000808f5000f8
:100dc000030039000080eb00400798001b0037004b
:100dd000be009000301f2000808f500003003600be
:100de0000080eb0040079800140037002e009000b0
:100df000204798002e0090004800de003047980001
:100e00003e009000004f78003e0090004800de0059
:100e1000104798003e409000ddeab7002e40900059
:100e2000dfeab7001e409000e5eab7001e407800f8
:100e3000e7eab7000000eb00400798004e00900082
:100e40000080fa00000006000e00fa00300798004b
:100e50004107980052079800be0090004e00900095
:100e6000808f5000030039000080eb00600798007d
:100e70002b003700ce009000301f2000808f5000e4
:100e8000030036000080eb00600798002400370064
:100e9000de00900030382000808f500003003600c4
:100ea0000080eb00600798001d0037003e009000b6
:100eb000404798003e0090004800de0050479800f0
:100ec0004e009000204798004e0090004800de0041
:100ed000304798005e009000104798005e00900038
:100ee0004800de00004f78005e40900061ebb700e4
:100ef0004e40900063ebb7003e40900065ebb700ba
:100f00002e40900067ebb7001e40780069ebb700f9
:100f10001e4090006bebb7000000eb0060079800ec
:100f20006e0090000080fa00000006000600fa0043
:100f300010079800210798001e0090000000e000b4
:100f4000060032002e0090000000e0000300320096
:100f5000a0ccb300004f78000e0037001e009000b8
:100f60000000e00003003200a0c4b300004f78008e
:100f7000080037002e0090000000e000030032005f
:100f8000a0c8b300004f780002003700a0c0b30033
:100f9000004f78001e407800ffeab7000080fa009a
:100fa000000006000600fa0020479800314798002c
:100fb0000000eb00000f7800100037009e00780062
:100fc00000ad200000804000904078002e4090004e
:100fd00080cf500008003a001e00e80001ad20005c
:100fe00001004000be409000014878000000eb0086
:100ff00020079800070037001e8fe8009e00780049
:10100000700d2000808f5000ecff36008080eb00d8
:10101000210798002e0090000080fa0000000600d2
:101020000800fa0020479800210798000000eb0014
:10103000000f7800110037009e00780000ad2000fe
:1010400000804000904078002e40900080cf5000fb
:1010500009003a009e00e80000ad2000008040003a
:10106000904078002e009000014878000000eb00ce
:1010700030079800070037001e8fe8009e007800b8
:10108000700d2000808f5000ebff36000080eb00d9
:10109000300798003e0090000080fa000000060033
:1010a0000200fa00004f7800114798001e4090009f
:1010b000e9eab7001e407800ebeab7000080fa00ca
:1010c000000006000800fa00004f78001147980061
:1010d000224798003347980044479800f0c4b30073
:1010e0009e4f1000030036000080eb003007980090
:1010f0000c0037001e407800edeab7001e4090005b
:10110000efeab7002e409000f1eab7004e409000a1
:10111000f3eab7003e409000f5eab7000000eb00ac
:10112000300798003e0090000080fa0000000600a2
:101130000400fa00008fbe001e00be004a09dd0058
:101140004600de0000007100c608de00f9eab700c4
:101150001e00be004209dd004e00de0000007100ee
:10116000ce08de00f7eab7000040eb00fbeab7006c
:101170000080fa00000006000200fa00004f78002c
:101180001e40780005ebb7000080fa000000060062
:101190000200fa00000f78001e00e0000500320097
:1011a00015cbbf0001c8b3000140700015ebb700bc
:1011b0000300370015cbbf000074a10015ebb7008a
:1011c0000080fa00000006000400fa00004f7800da
:1011d00011479800224798001e40780019ebb7008d
:1011e0001e4090001bebb7002e4090001debb70097
:1011f0000080fa00000006000200fa00004f7800ac
:10120000114798001e4078007f4060000045b00004
:101210001febb7001e40900021ebb7000080fa00e2
:10122000000006000600fa001007980041479800e9
:101230004e4090000000fb00630060004500dd00b0
:101240008040780000c8b30000c04000a7ebb700a2
:101250000000eb00000f78000d0037001e00780042
:101260000000400032052000000141001e0078000f
:10127000800078001e0090000080400090407800c0
:1012800000ad200000004100014878001e0fe8007a
:101290001e007800e10f5000f0ff36000080fa00d9
:1012a000000006000000fa002f0e0700a7cbbf00c9
:1012b00000417800a6cbbf0080407800c0cdb300cd
:1012c000550e07002c0e070081b3200091407800d6
:1012d00022cbbf00020007000080fa0000000600d9
:1012e0000600fa0040479800514798000000eb00c4
:1012f000000f78001c0e07000000eb00100798009c
:101300001f0037009e00900000ad200000804000cc
:10131000904078004e40900080cf5000150039007a
:101320009e00900000ad20000080400090407800ba
:101330005e40900080cf50000e003e001e009000e6
:101340008000e80000ad20000080400010407800e0
:10135000004178009e00900000ad20000080400019
:101360001040780080407800c0cdb3002a0e0700fe
:101370001e0fe8001e0090000080e8001007980093
:101380009e009000700d2000808f5000ddff360021
:10139000f90d07001e0078000080fa00000006002a
:1013a0000400fa00100798000000eb00000f78001e
:1013b0000d0037001e00780000004000b20620003b
:1013c000000141001e007800800078001e0090009f
:1013d000008040009040780000ad200000004100f7
:1013e000014878001e0fe8001e007800e10f500051
:1013f000f0ff36000080fa00000006000200fa004c
:10140000004f7800114798001e4078004debb70060
:101410001e4090004febb7000080fa00000006006d
:101420000200fa00004f7800114798001e40780033
:1014300051ebb7001e40900053ebb7000080fa005c
:10144000000006000200fa00004f780011479800e3
:101450001e40780055ebb7001e40900057ebb700d8
:101460000080fa00000006000200fa00004f780039
:101470001e80fb004400dd006f4040006debb700b4
:101480000080fa00000006000200fa00004f780019
:10149000114798001e80fb004400dd00804078006a
:1014a0001e4090006f40600000c040006febb7002e
:1014b0000080fa00000006000200fa00004f7800e9
:1014c000114798001e4090000080fb004400dd00a2
:1014d000804078001e4078006f40600000c04000ef
:1014e00071ebb7000080fa00000006000400fa006b
:1014f000008fbe001e00be004088de00cf80de00f0
:1015000073ebb7001e00be004809dd004800de0096
:1015100000007100c888de0075ebb7001e0078007f
:1015200077ebb7000080fa00000006000200fa0026
:10153000004f78001e40780079ebb7000080fa0079
:10154000000006000400fa00000f78001107980060
:101550001e0078004800de007febb7001e00780018
:1015600081ebb7001e0090004800de0083ebb7005f
:101570001e00900085ebb7000080fa000000060016
:101580000600fa00004f78001147980022479800a3
:101590003347980044479800554798002e409000e4
:1015a00087ebb7003e40900089ebb7001e40780003
:1015b0008bebb7001e4090008debb7004e409000c3
:1015c0008febb7005e40900091ebb7000080fa000f
:1015d000000006000a00fa00000f780011079800ca
:1015e0002207980033079800200d20001e0f4000ae
:1015f0001e009000200db000100798002e009000f3
:1016000067004000200798003e00900067004000ff
:10161000300798009e00900020352000808f5000f9
:10162000030036000080eb004007980039003700c7
:10163000be009000701e2000808f50000300360016
:101640000080eb0040079800320037001e00900039
:101650009e0f100004003100ae0090003e0090008c
:10166000808f5000030039000080eb004007980095
:1016700028003700501a20009e0f10000c00360082
:101680009e00900090272000808f500008003e00b0
:10169000ae009000700a2000808f500004003600d9
:1016a000be00900060142000808f500003003600c0
:1016b0000080eb0040079800160037001e007800fd
:1016c0004800de0093ebb7001e00780095ebb700f2
:1016d0001e0090004800de0097ebb7001e0090004f
:1016e00099ebb7002e0090004800de009bebb7009e
:1016f0002e0090009debb7003e0090004800de00f9
:101700009febb7003e009000a1ebb7000000eb009c
:10171000400798004e0090000080fa00000006008c
:101720000600fa0010079800210798001e0090009c
:101730000000e000060032002e0090000000e000f3
:1017400003003200c0c3b300004f78000e00370022
:101750001e0090000000e00003003200c0c2b30091
:10176000004f7800080037002e0090000000e000d5
:1017700003003200c0c1b300004f78000200370000
:10178000c0c0b300004f78001e407800a3ebb70044
:101790000080fa00000006000200fa00000f780046
:1017a0001e00e0000500320007cbbf00f1c7b30008
:1017b0000140600007ebb7000400370007cbbf0013
:1017c00001c8b3000140700007ebb7000080fa00c9
:1017d000000006000400fa00000f780011079800ce
:1017e0001e00e0000500320007cbbf00f1cbb300c4
:1017f0000140600007ebb7000400370007cbbf00d3
:1018000001c4b3000140700007ebb7001e00900058
:101810000000e0000500320007cbbf00f1cdb300af
:101820000140600007ebb7000400370007cbbf00a2
:1018300001c2b3000140700007ebb7000080fa005e
:10184000000006000a00fa00fdcabf000080fb008d
:101850004007980000032000ce009000808f5000c9
:101860003100320000032000ce009000808f500035
:101870000b003c004e009000f00f500022003200a0
:1018800000022000ce009000808f50002200320025
:101890004e0090000000e0001700320036003700d4
:1018a00000052000ce009000808f500026003200fe
:1018b00000052000ce009000808f500005003c0005
:1018c00000042000ce009000808f50001a003200eb
:1018d0002900370000062000ce009000808f5000c5
:1018e0001d00320000072000ce009000808f5000c5
:1018f0001d003200200037000000280001072000f2
:10190000008fbe0020003700000020006109200089
:10191000008fbe001c00370000002400810320005f
:10192000008fbe001800370000002200c101200017
:10193000008fbe001400370000002100e1002000ed
:10194000008fbe00100037000080200071002000d2
:10195000008fbe000c00370000402800310020003e
:10196000008fbe000800370000202c00110020006e
:10197000008fbe00040037006000b8002007980008
:10198000310798000a00370013cbbf00ec4f50001e
:1019900004003a001e00be000000400081804800a4
:1019a000008fbe001e00be0020079800310798007f
:1019b0002e009000be0090000080fa00000006009b
:1019c0001000fa002007980031079800420798009d
:1019d00053079800640798005e0090000000e00044
:1019e000030035005e009000e30f50000300340058
:1019f0000080eb00700798004e0037006e009000ea
:101a00000000e000030035006e009000e30f50007e
:101a1000030034000080eb00700798004500370099
:101a200088ff07000002be0084007800606a200082
:101a3000000bb8006020b9000701780000014100e8
:101a4000606a200000a8b90000014100820378000c
:101a50002e0090006101b9000600be00acfa07003c
:101a60001007980077ff07000002be00840078008e
:101a7000606a2000000bb8006020b9000701780000
:101a800000014100606a200000a8b9000001410087
:101a9000820378003e0090006101b9000600be009c
:101aa0009bfa0700000f78001e0090004800de003f
:101ab0000bebb7001e0090000debb7001e00780086
:101ac0004800de000febb7001e00780011ebb700f6
:101ad0004e0090000000e0000400320007cbbf0081
:101ae0000044a00007ebb7000400370007cbbf009d
:101af000f1ceb3000140600007ebb7006e0090002c
:101b0000e34060005e009000630060004200dd0082
:101b100000c1400007cbbf008040780000cfb30079
:101b200000c060000040410007ebb7000000eb0080
:101b3000700798007e0090000080fa000000060008
:101b40000600fa00000f7800110798001e007800c8
:101b5000200798002e009000e30f5000670032002d
:101b60002e009000e30f500007003e002e00900072
:101b7000e10f50002e0032002e009000e10f5000c7
:101b800041003e000d0037002e009000e50f500090
:101b9000940032002e009000e50f500074003900d0
:101ba0002e009000e60f5000ab0032002e00900097
:101bb000e70f5000c5003200da0037001e00900029
:101bc000e10f50000f003600c4c2bf000080fb00d0
:101bd0004600de00614060000004a2006140600039
:101be000614060004601dd00412c200091407800fa
:101bf000f0cbb30000c0600002407000c4e2b70048
:101c00001e0137001e0090006140600061406000ce
:101c10004601dd00412c200091407800f0cbb3005c
:101c200000c0600002407000c4e2b700130137003a
:101c30001e009000e10f50000b003600c4c2bf0030
:101c40000080fb004700de000004a200614060004d
:101c5000c700dd00c4c2bf000074a10001407000d5
:101c6000c4e2b700050137001e009000614060002b
:101c7000c700dd00c4c2bf000074a10001407000b5
:101c8000c4e2b700fd0037001e009000e10f5000d5
:101c90000f003600c5c2bf000080fb000000d1006d
:101ca000614060000004a20061406000614060008b
:101cb00000414000512c200091407800d0cfb3006b
:101cc00000c0600002407000c5e2b700eb003700c2
:101cd0001e009000614060006140600000414000d3
:101ce000512c200091407800d0cfb30000c060009c
:101cf00002407000c5e2b700e00037001e0090000f
:101d0000e10f50000f003600c5c2bf000080fb008d
:101d10004400de00614060000004a20061406000f9
:101d2000614060004401dd00512c200091407800aa
:101d3000f0ceb30000c0600002407000c5e2b70002
:101d4000ce0037001e0090006140600061406000de
:101d50004401dd00512c200091407800f0ceb3000a
:101d600000c0600002407000c5e2b700c300370049
:101d70001e009000e10f50000f003600c5c2bf00ea
:101d80000080fb004200de00614060000004a20011
:101d900061406000614060004201dd00512c200084
:101da00091407800b0cfb30000c0600002407000e6
:101db000c5e2b700b10037001e009000614060002e
:101dc000614060004201dd00512c2000914078000c
:101dd000b0cfb30000c0600002407000c5e2b700a1
:101de000a60037001e009000e10f50000f003600e3
:101df000c5c2bf000080fb004500de0061406000fe
:101e00000004a20061406000614060004501dd0007
:101e1000512c200091407800f0cdb30000c060004c
:101e200002407000c5e2b700940037001e00900029
:101e300061406000614060004501dd00512c2000e0
:101e400091407800f0cdb30000c060000240700007
:101e5000c5e2b700890037001e009000e10f500076
:101e60000f003600c5c2bf000080fb004600de0048
:101e7000614060000004a2006140600061406000b9
:101e80004601dd00512c200091407800f0cbb300da
:101e900000c0600002407000c5e2b7007700370064
:101ea0001e00900061406000614060004601dd005e
:101eb000512c200091407800f0cbb30000c06000ae
:101ec00002407000c5e2b7006c0037001e009000b1
:101ed000e10f50000b003600c5c2bf000080fb00c0
:101ee0004700de000004a20061406000c700dd0082
:101ef000c5c2bf000074a10001407000c5e2b70078
:101f00005e0037001e00900061406000c700dd00e9
:101f1000c5c2bf000074a10001407000c5e2b70057
:101f2000560037001e00900061406000c700dd00d1
:101f3000c5c2bf000074a10001407000c5e2b70037
:101f4000c5c2bf000080fb004700de0061406000aa
:101f50004601dd00512c200091407800f0cbb30009
:101f600000c0600002407000c5e2b700c5c2bf00fb
:101f70000080fb004600de006140600061406000c0
:101f80004501dd00512c200091407800f0cdb300d8
:101f900000c0600002407000c5e2b700c5c2bf00cb
:101fa0000080fb004500de00614060006140600091
:101fb0004201dd00512c200091407800b0cfb300e9
:101fc00000c0600002407000c5e2b700c5c2bf009b
:101fd0000080fb004200de00614060006140600064
:101fe0004401dd00512c200091407800f0ceb30078
:101ff00000c0600002407000c5e2b700c5c2bf006b
:102000000080fb004400de00614060006140600031
:1020100000414000512c200091407800d0cfb30007
:1020200000c0600002407000c5e2b700c5c2bf003a
:102030000080fb000000d10061406000c700dd00af
:10204000c4c2bf000074a10001407000c4e2b70028
:10205000c4c2bf000080fb004700de00614060009a
:102060004601dd00412c200091407800f0cbb30008
:1020700000c0600002407000c4e2b7000080fa00b7
:10208000000006000000fa00c4c2a900c4e2a900d2
:10209000c522a900c582a900c542a900c5a2a90000
:1020a000c5c2a900c5e2a9000080fa000000060030
:1020b0000200fa00000f7800100020009e0f1000b0
:1020c0000f003600d0c2bf000080fb004200de00df
:1020d000614060000004a200614060006140600057
:1020e0004201dd00012d200091407800b0cfb30007
:1020f00000c0600002407000d0e2b7000a00370064
:102100001e00780061406000614060004201dd0017
:10211000012d200091407800b0cfb30000c06000d6
:1021200002407000d0e2b7000080fa000000060014
:102130000200fa00000f7800100020009e0f10002f
:102140000f003600d0c2bf000080fb000000d100ad
:10215000614060000004a2006140600061406000d6
:1021600000414000012d200091407800d0cfb30005
:1021700000c0600002407000d0e2b7000a003700e3
:102180001e00780061406000614060000041400036
:10219000012d200091407800d0cfb30000c0600036
:1021a00002407000d0e2b7000080fa000000060094
:1021b0000000fa00c4c2bf000080fb004600de0041
:1021c0006140600000c0ea00614060006140600062
:1021d0004601dd00412c200091407800f0cbb30097
:1021e00000c0600002407000c4e2b700c4c2bf007b
:1021f0000080fb004700de0000c0ea006140600094
:10220000c700dd00c4c2bf000074a100014070001f
:10221000c4e2b700c5c2bf000080fb000000d100cf
:102220006140600000c0ea00614060006140600001
:1022300000414000512c200091407800d0cfb300e5
:1022400000c0600002407000c5e2b700c5c2bf0018
:102250000080fb004400de006140600000c0ea0036
:1022600061406000614060004401dd00512c2000ad
:1022700091407800f0ceb30000c0600002407000d2
:10228000c5e2b700c5c2bf000080fb004200de000f
:102290006140600000c0ea00614060006140600091
:1022a0004201dd00512c200091407800b0cfb300f6
:1022b00000c0600002407000c5e2b700c5c2bf00a8
:1022c0000080fb004500de006140600000c0ea00c5
:1022d00061406000614060004501dd00512c20003c
:1022e00091407800f0cdb30000c060000240700063
:1022f000c5e2b700c5c2bf000080fb004600de009b
:102300006140600000c0ea00614060006140600020
:102310004601dd00512c200091407800f0cbb30045
:1023200000c0600002407000c5e2b700c5c2bf0037
:102330000080fb004700de0000c0ea006140600052
:10234000c700dd00c5c2bf000074a10001407000dd
:10235000c5e2b7000080fa00000006000000fa00a5
:10236000c4c2bf000080fb004600de006140600088
:1023700000c0ea0061406000614060004601dd008d
:10238000412c200091407800f0cbb30000c06000e9
:1023900002407000c4e2b7000080fa0000000600ae
:1023a0000000fa00c4c2bf000080fb004700de004e
:1023b00000c0ea0061406000c700dd00c4c2bf0089
:1023c0000074a10001407000c4e2b7000080fa0070
:1023d000000006000000fa00c5c2bf000080fb003c
:1023e0000000d1006140600000c0ea006140600070
:1023f0006140600000414000512c20009140780075
:10240000d0cfb30000c0600002407000c5e2b7004a
:102410000080fa00000006000000fa00c5c2bf00fc
:102420000080fb004400de006140600000c0ea0064
:1024300061406000614060004401dd00512c2000db
:1024400091407800f0ceb30000c060000240700000
:10245000c5e2b7000080fa00000006000000fa00a4
:10246000c5c2bf000080fb004200de00614060008a
:1024700000c0ea0061406000614060004201dd0090
:10248000512c200091407800b0cfb30000c0600014
:1024900002407000c5e2b7000080fa0000000600ac
:1024a0000000fa00c5c2bf000080fb004500de004e
:1024b0006140600000c0ea0061406000614060006f
:1024c0004501dd00512c200091407800f0cdb30093
:1024d00000c0600002407000c5e2b7000080fa0052
:1024e000000006000000fa00c5c2bf000080fb002b
:1024f0004600de006140600000c0ea00614060000c
:10250000614060004601dd00512c200091407800c0
:10251000f0cbb30000c0600002407000c5e2b7001d
:102520000080fa00000006000000fa00c5c2bf00eb
:102530000080fb004700de0000c0ea006140600050
:10254000c700dd00c5c2bf000074a10001407000db
:10255000c5e2b7000080fa00000006000200fa00a1
:10256000000f78009e007800800d21003e070700d4
:102570000080fa00000006000000fa00800d210033
:10258000690707000080fa00000006000200fa0058
:10259000000f78001e00e000030035009e00780068
:1025a000800d2100880707000080fa000000060067
:1025b0000000fa0004ccbf000004e0000b003a0069
:1025c0008000eb00700020005dfd070004ccbf0020
:1025d0000080fb001100200059fd070004ccbf0063
:1025e0000040e80004ecb7001b00370004ccbf003b
:1025f000e74f50000c003a0004ccbf000080fb0005
:102600000000e9008000eb004dfd070004ccbf0096
:102610000080fb001100200049fd07000040eb0096
:1026200004ecb7000c00370004ccbf000080fb00b6
:102630000000e9008000eb0041fd070004ccbf0072
:102640000080fb00110020003dfd070004ccbf000e
:102650000040e80004ecb7000080fa00000006002b
:102660000200fa0005ccbf000080fb00000f7800dc
:102670001e007800e20f50001c0032001e0078009f
:10268000e20f500007003c001e0078000000e00050
:102690000b0032001e007800e10f50000c003200e9
:1026a000230037001e007800e30f500016003200b0
:1026b0001e007800e40f50001a0032001c003700a2
:1026c000210020000000eb001dfd0700180037006e
:1026d000210020001000200019fd0700210020002b
:1026e0007000200016fd07001100370021002000b7
:1026f0002000200012fd07002100200060002000c3
:102700000ffd07000a0037002100200030002000e4
:102710000bfd0700210020005000200008fd0700ed
:1027200003003700210020004000200004fd0700c6
:1027300005ccbf00e34f500004003e0005ccbf00b5
:102740000040e80005ecb700020037000040eb0055
:1027500005ecb7000080fa00000006000000fa0057
:1027600006ccbf000004e0000f003a0014ccbf000c
:102770000004e0000c00320010c0b30006ecb7000b
:102780008000eb000000eb00edfc070006ccbf0072
:102790000080fb0011002000e9fc07000040eb0076
:1027a00014ecb7002b00370006ccbf000004e0009b
:1027b0000f003a0014ccbf000004e0000c003a0007
:1027c00070c0b30006ecb7008000eb000000eb0027
:1027d000dbfc070006ccbf000080fb0011002000de
:1027e000d7fc070010c0b30014ecb7001900370085
:1027f00006ccbf00e74f50000a003a000040eb0053
:1028000006ecb7008000eb0070002000ccfc070055
:1028100006ccbf000080fb0011002000c8fc0700b0
:102820000c00370006ccbf00e14f500009003a0011
:102830000040eb0006ecb7008000eb001000200029
:10284000bffc070006ccbf000080fb001100200089
:10285000bbfc07000080fa00000006000200fa003e
:1028600007ccbf000080fb00000f78001e0078003e
:10287000e10f5000150032001e007800e10f5000fb
:1028800004003c001e0078000000e0000800320058
:102890001a0037001e007800e20f500012003200cc
:1028a0001e007800e30f50001300320013003700c1
:1028b000210020000000eb00a1fc07002100200007
:1028c000400020009efc07000c0037002100200083
:1028d000100020009afc070021002000300020009a
:1028e00097fc070005003700210020002000200091
:1028f00093fc070001003700e2fd070007ccbf0092
:10290000e24f500004003e0007ccbf000040e8004a
:1029100007ecb700020037000040eb0007ecb700ff
:102920000080fa00000006000200fa0008ccbf0098
:102930000080fb00000f78001e007800e10f5000bf
:10294000150032001e007800e10f500004003c002a
:102950001e0078000000e000080032001a00370076
:102960001e007800e20f5000120032001e007800b6
:10297000e30f500013003200130037002100200045
:102980000000eb006efc070021002000400020004a
:102990006bfc07000c0037002100200070002000b5
:1029a00067fc0700210020005000200064fc0700a5
:1029b00005003700210020006000200060fc0700b7
:1029c00001003700affd070008ccbf00e24f500008
:1029d00004003e0008ccbf000040e80008ecb7004f
:1029e000020037000040eb0008ecb7000080fa005e
:1029f000000006000000fa000000370006c2bf0019
:102a0000614060000004e000fcff3a0006c2bf0025
:102a1000644060000004e000f8ff3a0006c2bf0016
:102a2000684060000004e000f4ff3a0006c2bf0006
:102a3000704060000004e000f0ff3a0009c2bf00ef
:102a40000044b2000004e000ecff3a000080fa000d
:102a5000000006000400fa00600920002010880031
:102a600007e2a90007e2a80085c0a90085a0a90087
:102a7000b10920009140780080cfb30000c0600011
:102a80005040b3009be0b7008da0a9000071220068
:102a900001002000008fbe00040037000080eb0022
:102aa0008080eb001e0f40005e9748001e00be00b5
:102ab000e00f5000e08f5800f8ff3a0010002000af
:102ac0000080fa00000006000400fa006000b80070
:102ad000008fbe0007e2a90085c0a90085a0a9005b
:102ae0008da0a9000071220001002000008fbe000f
:102af000040037000080eb008080eb001e0f4000d8
:102b00005e9748001e00be00e00f5000e08f5800a6
:102b1000f8ff3a00cfff07000f0007000071220006
:102b200001002000008fbe00040037000080eb0091
:102b30008080eb001e0f40005e9748001e00be0024
:102b4000e00f5000e08f5800f8ff3a00100020001e
:102b50000080fa00000006000000fa0085c0a9000d
:102b60008dc0a800100020000080fa0000000600c0
:102b70000000fa0085c0a9008dc0a9001000200047
:102b80000080fa00000006000600fa0010c0b30042
:102b9000fcebb70008c2bf00704060000004e0001a
:102ba000160032000602a800007122000100200079
:102bb000008fbe000a003700fccbbf000004e0001d
:102bc00003003a0010002000200798000d00370095
:102bd0000080eb008080eb001e0f40005e974800f5
:102be0001e00be00e00f5000e08f5800f2ff3a00d8
:102bf0008000eb0021079800020037000000eb0086
:102c0000200798002e0090000080fa0000000600c7
:102c10000600fa0060c0b300fcebb70008c2bf00ba
:102c2000684060000004e000160032000622a800a0
:102c30000071220001002000008fbe000a00370052
:102c4000fccbbf000004e00003003a0010002000ad
:102c5000200798000d0037000080eb008080eb001b
:102c60001e0f40005e9748001e00be00e00f50009f
:102c7000e08f5800f2ff3a008000eb002107980037
:102c8000020037000000eb00200798002e009000a3
:102c90000080fa00000006000600fa0050c0b300f1
:102ca000fcebb7000642a8000071220001002000e2
:102cb000008fbe000a003700fccbbf000004e0001c
:102cc00003003a0010002000200798000a00370097
:102cd0000080eb008080eb001e0f40005e974800f4
:102ce0001e00be00e00f5000e08f5800f2ff3a00d7
:102cf0008000eb00210798002e0090000080fa0071
:102d0000000006000600fa0030c0b300fcebb7007c
:102d100006c2bf00614060000004e00010003a00fd
:102d200006c2bf00644060000004e0000c003a00ee
:102d300006c2bf00684060000004e00008003a00de
:102d400006c2bf00704060000004e00004003a00ca
:102d500006c2bf00624060000004e00003003200d1
:102d60000000eb00200798001600370006a2a9001b
:102d70000682a8000071220001002000008fbe0022
:102d80000a003700fccbbf000004e00003003a005b
:102d900011002000210798000a0037000080eb0096
:102da0008080eb001e0f40005e9748001e00be00b2
:102db000e00f5000e08f5800f2ff3a008000eb0077
:102dc000210798002e0090000080fa000000060005
:102dd0000600fa0030c0b300fcebb70006c2bf002b
:102de000614060000004e00010003a0006c2bf002d
:102df000644060000004e0000c003a0006c2bf001e
:102e0000684060000004e00008003a0006c2bf000d
:102e1000704060000004e00004003a0006c2bf00f9
:102e2000624060000004e000030032000000eb009c
:102e3000200798001600370006a2a8000682a80006
:102e40000071220001002000008fbe000a00370040
:102e5000fccbbf000004e00003003a00110020009a
:102e6000210798000a0037000080eb008080eb000b
:102e70001e0f40005e9748001e00be00e00f50008d
:102e8000e08f5800f2ff3a008000eb002107980025
:102e90002e0090000080fa00000006000a00fa00f0
:102ea00030079800007122000100200010079800f0
:102eb000210798000040eb00004f780040c0b300ad
:102ec000fcebb70000712200010020001007980001
:102ed000210798001d00370006c2bf006140600056
:102ee0000004e00013003a0006c2bf006440600026
:102ef0000004e0000f003a0006c2bf006840600016
:102f00000004e0000b003a0006c2bf007040600001
:102f10000004e00007003a0009c2bf000044b2000c
:102f20000004e00003003a0010c0b300004f780036
:102f30000b0037001e009000ae00900061005000b2
:102f4000e080580010079800210798001e009000ac
:102f5000ae009000e00f5000e08f5800deff3a0016
:102f60001e04e00003003a000000eb004007980058
:102f70001d0037000662a800006a2800110020002a
:102f8000100798002107980010003700fccbbf0005
:102f90000004e00007003a0000c2bf008040780053
:102fa0003e00900001487800100020004007980083
:102fb0000d0037001e009000ae0090006100500030
:102fc000e080580010079800210798001e0090002c
:102fd000ae009000e00f5000e08f5800ebff3a0089
:102fe0000000eb00400798004e0090000080fa00bf
:102ff000000006000800fa004047980020c0b30017
:10300000fcebb7004e40900002e2b70000712200d6
:1030100001002000008fbe000a003700fccbbf007b
:103020000004e00003003a00100020003007980080
:103030000a0037000080eb008080eb001e0f40008c
:103040005e9748001e00be00e00f5000e08f580061
:10305000f2ff3a008000eb00310798003e0090003c
:103060000080fa0000000600801f78003400f8009d
:1030700000002000a00188000000fa0085c0a9001f
:103080000040eb00fcebb7000080fa003400f900d0
:103090004f007800004006000400fa00c05f800086
:1030a0000000e0001f003200615f800080da2f0026
:1030b000808f50001b003500615f8000802520005c
:1030c000808f500017003c00d602a900d622a9002c
:1030d000d642a900d662a9000000eb00c05f8800bc
:1030e000605f800000017800120798001e019000c8
:1030f0000200e00003003d001e0190000201ea0012
:1031000012079800007122001e01900011000900b2
:103110000200d800ef005000c0842100aa0407007c
:103120004d003700605f80000000e0000c003400bc
:10313000a05f80000000e800a05f8800805f800042
:103140000000e900805f8800805f80000000e000f0
:103150000e003d0030002000805f88000b0037002b
:10316000a05f80000000e900a05f8800805f800011
:103170000000e800805f8800805f8000e30f50005f
:10318000020034000000eb00805f8800805f800058
:10319000000f78001e017800e10f5100130032008b
:1031a0001e007800e10f500004003c001e01780072
:1031b0000200e000080032001a0037001e0078000c
:1031c000e20f50000e0032001e017800e30f5100a4
:1031d0001000320013003700d602a900d622a80042
:1031e000d642a900d662a8000e003700d602a90078
:1031f000d622a800d642a800d662a900090037004e
:10320000d602a800d622a900d642a800d662a900fc
:1032100004003700d602a800d622a900d642a90091
:10322000d662a800615f800080da2f00808f500096
:1032300009003500615f800080252000808f5000ec
:1032400005003c0010002000c05f8800f100200055
:10325000c08421005c0407000080fa000000060022
:103260000400fa00d05f80000000e0001f00320080
:10327000715f800080da2f00808f50001b003500c6
:10328000715f800080252000808f500017003c0077
:10329000d682a900d6a2a900d6c2a900d6e2a9006a
:1032a0000000eb00d05f8800705f800000017800b4
:1032b000120798001e0190000200e00003003d008c
:1032c0001e0190000201ea0012079800007122001e
:1032d0001e019000110009000200d800ef0050000c
:1032e00000932100380407004d003700705f800014
:1032f0000000e0000c003d00b05f80000000e9002d
:10330000b05f8800905f80000000e900905f880057
:10331000905f80000000e0000e003d0030002000c3
:10332000905f88000b003700b05f80000000e8006d
:10333000b05f8800905f80000000e800905f880028
:10334000905f8000e30f5000020034000000eb00ab
:10335000905f8800905f8000000f78001e01780069
:10336000e10f5100130032001e007800e10f500001
:1033700004003c001e0178000200e000080032005a
:103380001a0037001e007800e20f50000e003200d5
:103390001e017800e30f51001000320013003700c7
:1033a000d682a900d6a2a800d6c2a900d6e2a8005b
:1033b0000e003700d682a900d6a2a800d6c2a80067
:1033c000d6e2a90009003700d682a800d6a2a9003b
:1033d000d6c2a800d6e2a90004003700d682a80011
:1033e000d6a2a900d6c2a900d6e2a800715f8000cb
:1033f00080da2f00808f500009003500715f800057
:1034000080252000808f500005003c001000200027
:10341000d05f8800f100200000932100ea0307003c
:103420000080fa00000006000000fa008000eb00b7
:10343000c08421008c0307008000eb000093210072
:10344000890307000080fa00000006000200fa006d
:10345000000f78001e00e0000a003a000000eb00b8
:10346000605f88008000eb00c0842100d603070065
:10347000d602a900d622a900d642a900d662a90088
:103480002d00370080c12f009e0f10000a003d0064
:1034900080c12f00605f8800625f8000008f2d0078
:1034a000110009000200d80080007800c0842100cb
:1034b000c503070020003700803e20009e0f10004b
:1034c0000a003400803e2000605f8800625f800058
:1034d00000712200110009000200d800800078006d
:1034e000c0842100b8030700130037001e007800d5
:1034f000605f88001e00e00008003d00008f2d0086
:103500001e017800110009000200d8008000780038
:10351000c0842100ac0307000700370000712200bf
:103520001e017800110009000200d8008000780018
:10353000c0842100a40307000080fa0000000600f8
:103540000200fa00000f78001e00e0000a003a00b6
:103550000000eb00705f88008000eb00009321000a
:1035600099030700d682a900d6a2a900d6c2a90055
:10357000d6e2a9002d00370080c12f009e0f100059
:103580000a003d0080c12f00705f8800725f8000dc
:10359000008f2d00110009000200d8008000780083
:1035a000009321008803070020003700803e2000a0
:1035b0009e0f10000a003400803e2000705f8800db
:1035c000725f800000712200110009000200d80023
:1035d00080007800009321007b0307001300370070
:1035e0001e007800705f88001e00e00008003d00ab
:1035f000008f2d001e017800110009000200d80084
:1036000080007800009321006f0307000700370057
:10361000007122001e017800110009000200d8008c
:103620008000780000932100670307000080fa0003
:10363000000006000800fa00000f7800110798004b
:103640001e007800300798003e0190000200e00064
:1036500003003d003e0090000000ea0030079800a3
:103660001e019000220798002e0090000000e0004c
:1036700003003d002e0190000201ea00220798009d
:103680003e0090002e01900082004000803e20000d
:10369000808f500006003c001e0090001e001000ad
:1036a0006aff07001e0090001e004000a4ff0700f4
:1036b0000080fa00000006000000fa00a05f800011
:1036c0000080fa00000006000200fa00000f7800f7
:1036d0001e007800a05f88000080fa00000006004d
:1036e0000000fa00b05f80000080fa0000000600d1
:1036f0000200fa00000f78001e007800b05f88001a
:103700000080fa00000006000000fa00a502070091
:103710001600200045002000440020004300200047
:1037200002282000810720000000eb006301070051
:10373000e7f407000080fa00000006000800fa0025
:1037400000122a0071002000008fbe000000eb0074
:1037500030079800110037003e0090001100200053
:10376000f7f807000000eb0020079800030037007f
:103770002e0090000000e800200798002e00900026
:10378000cf80de00be0f5000ae8f5800f8ff39002a
:103790003e0090000000e800300798003e009000d6
:1037a000e70f5000ecff34000000eb0030079800fa
:1037b000110037003e0090008000eb00e0f80700a9
:1037c0000000eb0020079800030037002e00900057
:1037d0000000e800200798002e009000cf80de0057
:1037e000be0f5000ae8f5800f8ff39003e00900029
:1037f0000000e800300798003e009000e70f5000fe
:10380000ecff34000080fa00000006000200fa001d
:10381000000f78000e0078002100200083050700cb
:103820008e0507000000e000fdff3a0011002000b7
:10383000000220007d050700880507000000e00069
:10384000fdff3a000080fa00000006000000fa00c8
:103850004081200061040700bb0407000000e00075
:10386000fdff32000080fa00000006000600fa00aa
:103870000000eb00000f78004b0037001e007800be
:10388000000040008000780040812000008040005f
:103890009040780080cfb30000c0600020479800bf
:1038a0001e007800000040008000e80040812000f9
:1038b00000804000104078000000fb007f006000a6
:1038c0004300dd00404798001e00780000004000e3
:1038d0008000780040812000008040001040780087
:1038e0000000fb00670060004500dd00004178003b
:1038f0001e007800000040008000e80040812000a9
:1039000000804000104078008000fb00000e200086
:10391000008060004380de00004071003047980066
:103920001e017800ae4090003e40900080c05000e4
:103930004e40900080c050004090200000004100a8
:10394000014878000e80e8001100200037050700cc
:10395000420507000000e000fdff3a006300470059
:1039600011002000310507003c0507000000e000c1
:10397000fdff3a0064004700110020002b050700fe
:10398000360507000000e000fdff3a0011002000ae
:103990000002200025050700300507000000e000b8
:1039a000fdff3a001e0fe800700720009e0f100078
:1039b000b2ff34000080fa00000006001400fa0094
:1039c000000f9800110f98001e089000e50f50009e
:1039d0009d003a008007200020079800e60047007d
:1039e0000000eb0080087800e60047000000eb00d4
:1039f00090009800e60047000000eb00a00098004f
:103a0000e60047000000eb00b0009800e600470029
:103a10000000eb00c00098008cff070093ff070038
:103a20000000eb0010079800420037000000eb0098
:103a3000000f7800150037009e0190001e009000d6
:103a4000e600470000004000608278009e00900081
:103a50002e0090000088b9005200200011000900db
:103a60000200d8009e0040004090200000804000ee
:103a7000104078000000fb0000014200e600470013
:103a80000380410002b078001e0fe8002e00900075
:103a900052002000110009000200d8009e0f5000c3
:103aa000e5ff3c009e0190001e0090008000400059
:103ab000a08020000080400090007800806080009e
:103ac0000088b900000178001e009000e600470061
:103ad00000004000608078000001410083804100c8
:103ae000a080200000804000020878009e01900025
:103af0001e00900080004000a08020000080400058
:103b000090007800806080000001e800110009004a
:103b10008200d8000001780083804100a08020004e
:103b200000804000020878001e0090000000e800bd
:103b3000100798001e009000e40f5000bbff3400f7
:103b4000806080000000e800806088000000eb00da
:103b500010079800390037001e009000e60047006b
:103b600000004000608178001e009000800040004e
:103b7000a08020000080400010007800800f5100dd
:103b8000130034001e0090008000400000802000e0
:103b90000080400010007800e10f500006003a005d
:103ba0001e00900066014700800040000000eb000e
:103bb000803079000b0037001e009000660147003e
:103bc00080004000100020008030790005003700a0
:103bd0001e00900066014700800040000000eb00de
:103be000803079001e0190001e009000e600470022
:103bf00000004000e0817800820041000080200049
:103c000000804000030878001e0090000000400083
:103c1000800078000e089000008140001e00900097
:103c2000e60047000000400060807800000978004e
:103c30001e0090000000e800100798001e00900091
:103c4000e40f5000c4ff34000080fa0000000600ba
:103c50001400fa0000242400f1002000200798003e
:103c6000310798000a040700b8040700a6fe070001
:103c700021002000405628006c0407006a0047001d
:103c8000510020004dff07006000b800008fbe000b
:103c90000400370010002000010020001e0f40002b
:103ca0005e9748002e009000be009000be0f1000ee
:103cb000ae8f1800f7ff3500f0ff37002200fa0042
:103cc00070079800010f9800120f9800230f9800ba
:103cd000340f9800450f9800560f98007e00900012
:103ce000200db000700798000e089000670040009b
:103cf000000f98004e0890000000e0000300320022
:103d00003e0890000000e00003003a000080eb0055
:103d1000600f980004013700fe0090001e0890001c
:103d20008080400020352000808f50000300360046
:103d30008080eb00610f9800fb0037008e08900038
:103d40002e08900080804000701e2000808f500060
:103d5000030036000080eb00600f9800f20037008f
:103d60001e0890003e099000110009000280d80052
:103d70008000fd000000e000030032008080eb00c6
:103d8000610f9800e80037002e0890004e0990005f
:103d9000110009000280d8008000fd000000e00052
:103da000030032000080eb00600f9800de00370057
:103db0004e089000630060000000e00033003a000d
:103dc0003e089000630060000000e0000f003a0031
:103dd00030032000000f78004e0890004200de0003
:103de000200798003e0890004200de00100798006f
:103df0000e08900064005000000f98007e009000b4
:103e00006400500070079800500037003e08900092
:103e1000610060000000e0000f003a001001200087
:103e2000000f78004e0890000000d1002007980095
:103e30003e0890000000d100100798000e08900086
:103e40000080e900000f98007e0090000080e900eb
:103e5000700798003d00370040042000000f7800f4
:103e6000ce089000210798003e08900010079800a7
:103e70000e0890000000e900000f98007e009000fe
:103e80000000e90070079800300037004e089000ed
:103e9000610060000000e00020003a003e08900051
:103ea000610060000000e0000f003a0010012000f7
:103eb000000f78004e0890000000d1002007980005
:103ec0003e0890000000d100100798000e089000f6
:103ed0000080e900000f98007e0090000080e9005b
:103ee000700798001900370040042000000f780088
:103ef000ce089000210798003e0890001007980017
:103f00000e0890000000e900000f98007e0090006d
:103f10000000e900700798000c0037004004200002
:103f2000000f7800be089000110798004e0890001e
:103f3000200798000e0890000000e900000f98008c
:103f40007e0090000000e900700798001e009000bd
:103f50000000e900500798002e0090000000e900e2
:103f6000600798001e0890003e09900011000900ab
:103f70000280d800400798002e0890004e0990005b
:103f8000110009000280d800300798005e089000f8
:103f900003f307000000e000030032008080eb0024
:103fa000610f9800600037001e0078001bf30700c7
:103fb0000000e000030032000080eb00600f98007a
:103fc000590037005e0890000000e00017003a003a
:103fd0009e007800710f980030032000fe089000ca
:103fe000808f50000e00320040042000fe08900038
:103ff000808f5000040032007e089000f10f5000c6
:10400000040032001f0037000003200018f30700ef
:104010001c0037000002200015f3070019003700cc
:104020000000eb0012f30700160037009e00780036
:1040300001179800300320008e109000808f5000f0
:104040000e003200400420008e109000808f50003f
:10405000040032000e109000f10f500004003200f6
:10406000080037000004200001f3070005003700b6
:1040700000032000fef207000200370000022000cb
:10408000fbf20700313520007e0090001bf3070093
:104090000000e000030032008080eb00610f980018
:1040a00021003700811e20000e0890003ef307001b
:1040b0000000e000030032000080eb00600f980079
:1040c000190037007e0090000001e800711e2000fa
:1040d0000e0890005cf307000000e00003003200cf
:1040e0008080eb00610f98000f0037005e089000a1
:1040f00010000700000178006e029000de019000c1
:10410000ce0090003e009000400207000000e0005a
:10411000030032000080eb00600f980002003700bf
:104120008000eb00610f98006e0890000080fa009c
:10413000000006000600fa00000f78001e0078005c
:10414000200798002e009000e10f50000a00320076
:104150002e009000e20f50000a0032002e00900066
:104160000000e000010032000900370010002000cc
:104170001007980008003700200020001007980062
:1041800005003700200020001007980002003700cb
:1041900010002000100798001e0090000080fa0018
:1041a000000006000200fa00b90207006a020700d8
:1041b000d1a2a90040062000000f780002003700bd
:1041c000000000001e0fe9001e00e000fcff3a00a6
:1041d000d1a2a80040062000000f7800020037009e
:1041e000000000001e0fe9001e00e000fcff3a0086
:1041f00081e0a900f1048000f0002f0080806000c1
:104200000066200000804000f00488000080fa0072
:10421000000006000000fa000000eb0080088800a3
:104220000111200091407800f0ccb30000c0600084
:1042300010e1b7000000eb0030088800205c20008f
:104240006008880084c0a9008cc0a80011e1a80003
:104250000080fa00000006000000fa0011e1a90049
:104260000080fa00000006000800fa00100798001d
:104270002107980090608000000f78000b00370045
:104280001e007800b00090001e009000808f50004b
:1042900003003a0011002000310798001f0037008a
:1042a0001e007800c0009000010f78001e00e000a2
:1042b000f3ff3a00a0002000b4f00700000f7800e0
:1042c0001e00e00002003a001000200070f107001c
:1042d000ae0090001e007800010878009e00780073
:1042e0000000eb00900098009e00780010c0b30022
:1042f000c04098001e0078009e0090003100980099
:10430000916080001e007800410098001e00780037
:104310009060880011002000310798003e00900056
:104320000080fa00000006000800fa00200798004c
:104330000000eb001007980090608000000f7800ec
:104340001a0037001e007800b00090002e00900088
:10435000808f500010003a001e0090000000e00026
:10436000050032001e007800c00090001e00900082
:1043700041009800030037001e00780040009000c4
:10438000906088001e0078000ef1070011002000e8
:1043900031079800090037001e00780010079800c8
:1043a0001e007800c0009000010f78001e00e000a1
:1043b000e4ff3a0020002000300798003e00900003
:1043c0000080fa00000006000800fa0010079800bc
:1043d0002107980090608000000f78000e003700e1
:1043e0001e007800b00090001e009000808f5000ea
:1043f00006003a00ae0090001e0078000108780028
:104400001100200031079800070037001e007800d7
:10441000c0009000010f78001e00e000f0ff3a009d
:1044200020002000300798003e0090000080fa0035
:10443000000006000600fa00100798009060800057
:10444000000f78000e0037001e007800b0009000ca
:104450001e009000808f500006003a009e007800f9
:104460000000eb0090009800110020002107980048
:10447000070037001e007800c0009000010f780090
:104480001e00e000f0ff3a00200020002007980006
:104490002e0090000080fa00000006000600fa00de
:1044a0001007980090608000000f78000e00370021
:1044b0001e007800b00090001e009000808f500019
:1044c00006003a009e0078000040eb00c0409800d3
:1044d0001100200021079800070037001e00780017
:1044e000c0009000010f78001e00e000f0ff3a00cd
:1044f00020002000200798002e0090000080fa0085
:10450000000006000600fa00100798009060800086
:10451000000f78000e0037001e007800b0009000f9
:104520001e009000808f500006003a009e00780028
:1045300010c0b300c040980011002000210798006f
:10454000070037001e007800c0009000010f7800bf
:104550001e00e000f0ff3a00200020002007980035
:104560002e0090000080fa00000006003600f800df
:10457000809fbe00829fbe00849fbe00869fbe00bb
:104580003400f80000002000a00188000200fa00ba
:1045900090608000000f780084c0a9001e003700e2
:1045a0001e00780040409000e14f500017003a0094
:1045b0001e007800100078000000e00013003200b8
:1045c0001e007800100090008000e8001e007800b7
:1045d000110098001e007800100090008000780004
:1045e0001e007800100078000000e900808f500065
:1045f000060036001e007800300090000000010028
:104600009e0078000000eb00900098001e007800eb
:10461000c0009000010f78001e00e000e0ff3a00ab
:104620000080fa003400f9004f03be004f02be00c4
:104630004f01be004f00be003600f90000400600ea
:020000040000fa
:10464000000800007c01000000000000100c0000c9
:104650000200000002000000010000007c090000d0
:104660005401000000000000d00a0000d800000043
:10467000020000000403050053060300075308006e
:104680000009d1000a000b00070c03000d510e00b9
:10469000010fe70012021300021510001640170068
:1046a0004018400019401a00031be6001c001d00c2
:1046b000701e0a001f1b2000443b0000468048007b
:1046c000604996004a004b007d4c00004e084f00a8
:1046d0000a50700059005a00005b00005cac5d009d
:1046e00002760000771a78002a7937007a427b0038
:1046f000567c68007d877e00a37fbc0080d481004b
:10470000ea8e38008fa590000d919300922d9300b2
:104710000694830095aa96004d97250098259b0046
:10472000009c96009f80a00080a1b600a29da300df
:10473000aba48000a500a60007a70100a8e7a90078
:1047400000aa0100ad9fae0022af8c00b007b100ff
:10475000ccb20000b370b90003bae600bb07bc00de
:10476000ccbd0000be0cc10010c2e000c310c400ec
:10477000e0c58000c680c70001c8a500c902ca0004
:104780007acb0000cca7cd0001ce4700d43cd500a9
:1047900001d88000fc0b00000800000000000000b1
:1047a000120c00000200000000000000ec0b0000f2
:1047b0001000000000000000040c000006000000d3
:1047c00000000000140c00000200000002000000c5
:1047d000010000000a0c00000600000002000000ba
:1047e0000000000000000000a80b000044000000d2
:1047f00002000000000000000000000000000000b7
:1048000000000000000000000000000000000000a8
:104810000000000000000000000000000000000098
:104820000000000000000000000000000000000088
:104830000000000000000000000000000000000078
:104840000000000000000000000000000000000068
:104850007a10000010000000000000001810000096
:1048600062000000020000001a1016000e00000096
:10487000160e090000000000000216000c000000e7
:10488000160c0a00030100000002000000000000f6
:10489000000006000202000000000000000000000e
:1048a0000000000000000000000000000000000008
:1048b00000000000000000000000000000000000f8
:1048c00000000000000000000000000000000000e8
:1048d00000000000000000000000000000000000d8
:1048e000000000000000000000000000160c0000a6
:1048f00002040000000000008a1000000200000016
:10490000000000008c100000020000000000000009
:104910008e10000002000000000000009010000057
:1049200002000000000000009210000002000000e1
:1049300000000000941000000200000002000000cf
:0849400001000000000000006e
:020000040000fa
:104948003400f800881f780008002000a8018800bb
:104958004f0478000000fa0086c0a9001fe1a800f3
:1049680021e1a9000080fa003400f90000400600a7
:104978000000fa0020002000000988000000eb0079
:10498800c008880010002000e008880086c0a90040
:104998008ec0a80021e1a8000080fa0000000600ef
:1049a8000000fa0020002000f0088800e04b80009a
:1049b800a0088800e04b80000000e800d0088800cc
:1049c80086a0a9001fe1a9008ea0a8000080fa0017
:1049d800000006000200fa00000f78000000eb005b
:1049e800104c88001e007800f04b88000000eb0097
:1049f800004c8800eaff0700ddff07000080fa008e
:104a0800000006001200fa003007980041079800dd
:104a18005207980063079800740798000000eb009d
:104a280010079800ce0090005e0090000088b90042
:104a3800800078006e0090000000e8000088b9004f
:104a48000000e80080007800a0142000808f50004b
:104a5800030036000080eb00000f98003500370097
:104a68000000eb0020079800230037000000eb004f
:104a7800000f7800090037009e0090006098200021
:104a88008080400010c0b300804878001e0090006d
:104a98000000e800100798001e0fe8005e00900074
:104aa8009e0f1000f4ff35000000eb00000f7800a7
:104ab800090037009e009000609820008080400028
:104ac8000040eb00804878001e0090000000e800dd
:104ad800100798001e0fe800ee0090005e0090009e
:104ae8000088b9009e0f5000f2ff3c002e00900095
:104af8000000e80020079800ae0090004e009000eb
:104b0800808f5000d9ff35009e00900060982000eb
:104b18008080400020c0b300804878007e0090006c
:104b2800e04b88003e009000204c88000000eb001d
:104b3800000f98000e0890000080fa0000000600a0
:104b48000000fa00004c80000080fa000000060017
:104b58000000fa00bdf707000080fa000000060018
:104b68000000fa00faf707000080fa0000000600cb
:104b78000000fa00fcf707000080fa0000000600b9
:104b88000400fa0020479800314798000040eb00e5
:104b9800004f78001800370010c0b300004f7800ad
:104ba800f7f707001e4f60002e4090000ff907002e
:104bb8001e4f60003e4090000cf907001e4f600039
:104bc80011f807001e4f60002e4090000040e800da
:104bd80006f907001e4f60000e00e800adf8070058
:104be8001e4f600078f8070029f807001e04e0004f
:104bf80003003a00b2f707001e04e000e6ff3200a7
:104c08001e4090000000fb000080fa000000060033
:104c18000600fa002047980031479800424798005c
:104c28000040eb00004f78001200370010c0b300be
:104c3800004f7800d2f707001e4f60002e4090000a
:104c4800eaf807001e4f60003e409000e7f80700b2
:104c58001e4f60004e409000e4f807001e4f6000b1
:104c68000bf807001e4f60001e04e00003003a0026
:104c780093f707001e04e000ecff32001e00fb0063
:104c88000080fa00000006000000fa00c4c2a90073
:104c9800c4e2a900c522a900c582a900c542a9008d
:104ca800c5a2a900c5c2a900c5e2a900c0c2a90041
:104cb800c0e2a900c122a900c182a900c142a9007d
:104cc800c1a2a900c1c2a900c1e2a900d022a900bd
:104cd800cc22a900d042a900cc42a900e2e2a90056
:104ce800e302a900e802a900e822a900dee2a9007f
:104cf800df02a900e402a900e422a900e202a90057
:104d0800de02a900d602a900d622a900d642a9002f
:104d1800d662a900d682a900d6a2a900d6c2a90047
:104d2800d6e2a900d202a900d222a900d242a90043
:104d3800d262a900d282a900d2a2a900d2c2a90037
:104d4800d2e2a900d1a2a900cda2a900e842a900f7
:104d5800e862a900e442a900e462a900de22a800f2
:104d6800dec2a800e4c2a800e4e2a800e502a800a8
:104d7800e522a800d302a800d322a800d342a800a5
:104d8800d362a800d382a800d3a2a800d3c2a800e7
:104d9800d3e2a8000080fa00000006008540a900c0
:104da800809fbe00821f78000e0ce20015003200c2
:104db8000a0ce200160032000c0ce200140032006b
:104dc80051608000420020000f22af00feff370034
:104dd800606080000000e000070032000000e90089
:104de8000cacb7003140780010e2b7000201e900ce
:104df800f5ff3a00020037000a2cef0001003700e7
:104e0800516088004f0178004f00be000040060046
:104e180000002000706088004f0178004f00be003d
:104e2800004006000e0ce200feff3a008d40a9008b
:104e38008100e90061608800b04078008110880036
:104e48005060880011002000716088008d40a80023
:104e5800000006007060800000000600809fbe0011
:104e68008520a900405f8000f003b20081ba2000cd
:104e7800810040000000eb0012c2bf0080487800ab
:104e8800e82bec004f00be0000400600405f8000a9
:104e9800515f80000100500000000600415f800063
:104ea800525f80000208e10008003200f203b200fd
:104eb80081ba2000028140009240780001487800c1
:104ec800ea2bec0010002000000006000000eb00b8
:104ed8000000060000a0fe0086a0a9001421ef0033
:104ee80000000000f14b80006298200013002000b1
:104ef800321ce10005003200080035000000000007
:104f08000000000000000000f9ff3700a016800034
:104f18004800de0080587800f5ff3700f14b880024
:104f28008229ec00104c80008409e30003003a0059
:104f380010002000004c88001fe1a9000080fe003e
:104f4800004006000c22ef000e22ef000ee2a9003e
:104f58000ec2a9008520a9008d20a8000de2a80096
:104f680070002000a01088008540a9008d40a8008e
:104f780081e0a900c0048000f1002f0000806000db
:104f88000155200000804000c00488000fe2a800fe
:104f98000f42a800e82bef00ea2bef000000060004
:020000040000fa
:044fa8000000fe0007
:00000001FF
