:020000040000fa
:080000000001040000000000f3
:020000040000fa
:100200008fd021000079220000018800000000004a
:100210000c000700c02a2300010020001100070085
:10022000000020000000e000020032000000020098
:10023000000000003a280200000000000040da0040
:100240000000fe004440a900800420000000e000ff
:100250000300320000002000a00188004440a800f4
:100260000000060091018800800078000000eb008b
:1002700015003700e280400032a0b4009101ba00be
:10028000e280400032a0b4009102ba00e280400057
:1002900032a0b4000002eb00472bde00f507b200ed
:1002a000602ce10004003a000059eb008301e900f2
:1002b000fdff3e00040037006128e100010032002c
:1002c0000082eb00040007001101ba000200e00008
:1002d000e8ff3a00000006003159ba008301e90046
:1002e0000c0032002159ba008301e90008003200f5
:1002f0000400e00003003a00e280400032a0b400b5
:10030000f5ff370011d9ba008301e900faff3a007e
:100310008100e800e180400032a0b4000000060047
:10032000742f04000000000058300400000000009a
:10033000961e0400000000000024040000000000dd
:10034000889fbe008004780020d880000000e00074
:1003500003003a006e0007000000e0000a003500cc
:1003600020d880000900e00002003a000004780074
:100370000600370000047800090040006400070010
:100380000000e00001003d000084eb000800780060
:100390004f04be00000006000c02e20004003d0015
:1003a0000f42ab00020032000f02ab00feff320032
:1003b0000040da00feff37000a00fa0011002000ba
:1003c000b1bf9f00c0bf9f006a80570000c0da0025
:1003d0004fb897000080fa00000006000a00fa00fb
:1003e00051002000b1bf9f00c0bf9f006a8057002e
:1003f00000c0da005fb897000080fa000000060035
:100400000a00fa0080017800e20f500028003e0048
:1004100030d88000e10f500008003200e0212000b9
:100420000000e0000500320064212000852120004a
:10043000a62120008001780004003700c42020009d
:10044000e5202000062120004321200014409000d8
:100450000004e000040035008009eb001440900027
:100460000074a00010429800154090000028a300de
:1004700003003a00154090000024a000904298002c
:100480008001eb0007003700154090000008a30032
:10049000fdff320063c078000000fb00000b780015
:1004a0008301e800828f5100f7ff3a00080037000f
:1004b00030002000b0bf9f00c3bf9f00d1bf9f008e
:1004c000e2bf9f006a80570000c0da006fb9970052
:1004d000020078000080fa00000006000a00fa001e
:1004e00044002000b4bf9f00c0bf9f00d2bf9f0048
:1004f000e3bf9f00f1bf9f006a80570000c0da0091
:100500005fb89700efb897000080fa00000006007f
:10051000800078000000e00004003a0080b0210074
:1005200020d8880001017800060037000081eb0028
:1005300080d02100808f500002003e0021d888002a
:100540000001eb000200780000000600020ab9007a
:10055000001bb9000200b800810042008100430086
:1005600000000600839f68000100e00002003d00db
:1005700060001000e08018000300e00002003d0071
:1005800060011100e0811900e70007004f00e00062
:1005900002003b0060001000e08018000000060030
:1005a000889fbe008a9fbe00010578000100e00020
:1005b0000400350008003c000000e000200032008c
:1005c0000500370060001000e080180002003b00ca
:1005d00001f02c001a0037000004be006011b800c2
:1005e0006b0920000982cf00020039000882cf0089
:1005f0000441b000694252000e00320008003b0086
:1006000082817100610164008904d1000884d300f3
:100610008b05e8000442e800f9ff3a0005003700c6
:100620000804440089844c008b05e9000442e90079
:10063000fbff3a00cc0007000af0a70001f0a00081
:100640004f05be004f04be0000000600889fbe009c
:100650008a9fbe008c1f7800e9000700f00033007d
:1006600003866c006450e100240032006420e10045
:10067000270032006150e100220032006120e100d9
:10068000210032008b854200eb07b1000134b80035
:10069000003ab8000804420089844a00013ab800d0
:1006a0000030b8008880400009014a00040033008f
:1006b0000000400081804800020149008b05e900ec
:1006c000c909dd0083017000010032001300200021
:1006d000c814de004814dd004709de001200b20035
:1006e000c808de00088470009f00070001f0a10028
:1006f0000cf0a70001f0a000d20037006120e1005b
:10070000d40032000801be000200be00f7ff37002f
:100710006150e100fcff3a00ce003700f4ff2f00eb
:10072000cf00370003f0a200889fbe008a9fbe0062
:100730008c1f7800b2000700b90033006450e1005c
:100740004f0032006420e1005200320003826c004e
:1007500007003b000905d0000306d000820f5400bb
:100760000c065d00020039000200320089017800a9
:10077000030678008582550004003d000003fd005b
:100780008103fd008502ea008b854200840f720020
:1007900002003b0060001000e08018006011b8000b
:1007a0000005eb007a28e1000a0039000600780015
:1007b000c75ddd00f707b200878075002d003700a8
:1007c000828171000a017800610560008180d1009a
:1007d0000080d3008502e900f9ff3b0006044000d9
:1007e0008784480002003b0060041400e0841c0081
:1007f0000988a300070032008a817100828171009c
:10080000610164008904d1000884d3008b05e800ed
:10081000170037000978a30013003a000b00e0002e
:10082000130034008b05e9000804440089844c005f
:100830000a4474000978a3000d003a000b00e000a0
:10084000070034008b05e9000804440089844c004b
:1008500001003a000b0020000978a300f7ff3200e6
:100860000001eb0002003700828171000a0178006c
:100870003d0007000cf0a70001f0a0007100370058
:100880006420e10002003a00838f6c0071003300a5
:100890000801be000200be006a00370014002000fc
:1008a0006f0037000001be00880007000470a70039
:1008b00003f0a1006509b100160032000d003500fb
:1008c0006828e10006003500f0ff2f00f1ff270047
:1008d0000300e00013003b000100280000000500b9
:1008e00000004000818048008502e900fcff3a00da
:1008f00008003700f88f420002003c008000eb0047
:10090000000005008100d1000080d3008502e800ce
:10091000fcff3a000300e00002003b006000100012
:10092000e0801800000006006022b80006022000e7
:100930000000d0008180d2000482d2008582d200e3
:100940000000a0000202520083825a00030031001e
:100950000202420083824a000000a1000603e9006f
:10096000f3ff3a000000060081002000618055007e
:100970000b003d000b00200061fe2f000100e10094
:100980001d00340082817100610164008904d1007e
:100990000884d3000000e800faff3a00710020004c
:1009a0006100640003007000020060000900320072
:1009b00061044400e0844c000988a5000500320071
:1009c0008b05e8006808e10002003a008904d100c4
:1009d0000884d300f20f20000258e10005003d001a
:1009e000c75ddd00f907b200898075000800780056
:1009f000000006000bf827008b00780000000500bf
:100a00000004be00310007000003be000405be0064
:100a10000200be002d000700844f75000000060094
:100a20000200be006450e100050036006420e100d1
:100a3000020036000968a30001003a000800be0069
:100a40000160a0004f0678004f05be004f04be00b5
:100a500000000600f0ff2f00f1ff2700f9ff37002c
:100a6000889fbe008a9fbe00841f7800e4ff0700b5
:100a70004f00780011003300f0ff2f00838f6c00cf
:100a800006003b00040565000a00a70008003700c7
:100a900009f0a6001000200008003700820f540063
:100aa000838f5c00030039001000200001003e002d
:100ab0000000200009f0a7000000ea004f05be007a
:100ac0004f04be000000e00000000600c70ade0080
:100ad000f107b200f50fb20008003200e1cf42008a
:100ae000020032000170a00024000500810f700098
:100af000010032000408050044000500810f700069
:100b000002003a00140005008502e90000004000e0
:100b100081c04800fcff3b000170a00024000500dc
:100b2000881f7800000478005001be004000be001d
:100b30000400400085804800060149008781490083
:100b4000009cbe000294be000400e1000588e100a4
:100b50000690e1000798e1000200310068004400bf
:100b60001008e8004f04780000000600f4874700f2
:100b7000889fbe008a9fbe008c9fbe008e1f78009b
:100b80000205be000004be00d4b79f00e5b79f0079
:100b9000f6b79f0087bf9f000000eb00c0b79f0023
:100ba000b0b79f00a0b79f0090b79f0080b79f008d
:100bb0000d042000bfb097004fb097000001400027
:100bc0000000e0000f003d004f08de000000710053
:100bd000c0b79f009e00070001003d0012002000ea
:100be000a100070001003d0012002000a600070040
:100bf000b1000700b60007000f004000c8ff070063
:100c0000220037004f08de0000067100ccb79f00bd
:100c10008f00070001003d00120020009200070035
:100c200001003d001200200097000700a20007000d
:100c30000fb297009fb297002fb39700bfb39700f2
:100c4000a90007000000520081805a0002015b00e9
:100c500083815b0080b79f0091b79f00a2b79f0080
:100c6000b3b79f000007eb009f0007000020e100e2
:100c700001a8e10002b0e10003b8e1000100310089
:100c80001e0020000e005600c0b79f004fb2970014
:100c90000400e000070035001000200001002000e3
:100ca0006011b80008047000898470000a057100a2
:100cb0008b8571008d06e900beff3a000400e0005c
:100cc00003003d00820007000f00400094ff070072
:100cd0004fa897000000e00004003a000fb497000e
:100ce0009fb497002fb59700bfb5970094000700f9
:100cf0004f0778004f06be004f05be004f04be00f0
:100d00004f01b10000000600881f78001800200085
:100d1000881f780095ff07008f87e9004f0478004f
:100d200000000600801feb0090ff07008f87e9009e
:100d300000000600889fbe008a9fbe008c1f7800be
:100d40006e00070007003d0073000700e00f5b0026
:100d5000e08f5b0007003d00320007000006eb005b
:100d6000040037003400070002003d002a0007009d
:100d70001c00200072000700e3ff07000203be0012
:100d80000002be000c00e00001003200220007005b
:100d90000400be000601be004f0678004f05be00ed
:100da0004f04be0000000600889fbe008a9fbe0060
:100db0008c1f78005100070005003d005600070019
:100dc000e00f5b00e08f5b0006003d000400370091
:100dd0001900070003003d006000b8006011b80072
:100de0001000070056000700ceff07000203be00f8
:100df0000002be000c00e000010032000600070007
:100e00000400be000601be004f0678004f05be007c
:100e10004f04be00000006006000b8006011b8007a
:100e20000000370004025000858258000603590074
:100e300087835900000006000006eb00e00f520017
:100e4000e08f5a00e00f5b00e08f5b0000000600bf
:100e50000180400090b79f000001eb008fb0970029
:100e60000100e000000006000200700090b79f0043
:100e70000180400080b79f000001eb00ffa89700b1
:100e80000100e000000006000200700080b79f0033
:100e9000018040006faa9700cf20de0001007000a3
:100ea000f0af9f0004024200250007004f18de004b
:100eb0000002720000000600e4af9f000804440036
:100ec00089844c000a054d008b854d00000006000a
:100ed0003fb29700cfb297005fb39700efb3970090
:100ee00000fe2f00000006003fb09700cfb0970033
:100ef0005fb19700efb19700000006000205be0049
:100f00000004be00e00f5000e08f5800e00f5900d1
:100f1000e08f5900000006006000b8006011b800c2
:100f200008045000898458000a0559008b8559002f
:100f30001c002000e00f5200e08f5a000000060065
:100f40000800be000a01be0000000600889fbe0027
:100f50008a9fbe008c9fbe0000017800e1ae210098
:100f60001100e0000b003a0020af210070d788008c
:100f700050d7880091d7880061d788002140900021
:100f80000004a000a0409800614090000004a00070
:100f9000e0409800e7004100c208de00c20cdd001e
:100fa00063d780008db0210080d021000d05500056
:100fb00022002000811f7800110009000205d800de
:100fc00000067800cf007800c308dd00e48540000b
:100fd00055d780008000eb0087b02100e6ae2100ed
:100fe0000100370080017800234090000008a30032
:100ff000020032000a0037009409780013027800da
:10100000244090000008a300fbff3200098141004a
:10101000820f520002003900830f5100430031005b
:1010200013007800830f5000eeff3e00870f500042
:1010300002003900860f5000eaff3900858f510009
:101040004b003a00860f500049003a008100e8004a
:10105000e18f5000e3ff36008c8f5400040036000f
:101060008a8f5400020031000b0478001200370010
:10107000614ab8006151b900b0ff2f0001002000a3
:101080000200500083805800800f5200818f5a0068
:101090000200350009047800070037000d80540075
:1010a000b2d0210002004000110009000a80d800df
:1010b0000a80b9000004780008007800a0fc07004e
:1010c00080017800e10f40002900320052d78000f3
:1010d0000009780064004100a2409000808f510018
:1010e000020032000104a000010037000104a10049
:1010f0002141980088804100e480500081097800f7
:1011000051d78800e2ae210082087800214090008b
:101110000004a000a0409800234090000004a1001b
:10112000a041980082017800a9ff370062d78800ab
:10113000820f5200080036001200780081ae2100b4
:10114000a24290008548780030d7880004097800d2
:101150000040eb0020419800820978002340900075
:101160000004a000a0419800648041000100370005
:101170000000eb004f06be004f05be004f04be004e
:10118000000006006400500060d78800a040900076
:101190000104a1002140980000000600889fbe00c5
:1011a0008a9fbe0000057800e40150001300100083
:1011b000c285de00234090000008a3000400320036
:1011c00063d78800234090000004a100a04198004c
:1011d000010078005dff0700000478000000e000d7
:1011e000170032008a0f50001500320060b89700d7
:1011f00008005000c284de00898f550001003600cf
:10120000890578004259dd008a00780008007800de
:101210004a0007008a0f5400090031004248dd00ef
:10122000000044008a0f5000050036000a005000fc
:101230000000440032d7800043d780000288be00ff
:10124000080078004f05be004f04be0000000600f5
:101250000004780040000700080078004efc0700fa
:101260000c00fa00889fbe0000047800cfb0970001
:10127000f0ff2700d0bf9f008004eb0099bf9f00c4
:1012800088bf9f00a8bf9f00200c2000b0bf9f0018
:1012900078815700708057003d0007000fb8970015
:1012a000094878000fb8970008045000080078003b
:1012b0004f04be000080fa0000000600010020007c
:1012c000c0d78800d1d7880011c0b30060af21001b
:1012d000014878000000060062af21001204e0001f
:1012e00006003a001000200001002000c0d788004e
:1012f000d1d7880010c0b30000497800d2e624009e
:10130000631c2400c0d78000d1d780008ffc070069
:101310000001be00900323000100200002004000f5
:1013200083804800c0d78800d1d788004088de007d
:10133000cf80de0000f0a100000006008001eb007d
:101340000200370061f079008301e800828f5100cc
:10135000fcff3a0000000600881f780040c48000af
:101360000000e0000100320000000100c8a52100db
:1013700008007800020307006c044400c0ab2100a1
:10138000800f5400faff3a004f0478000000060076
:10139000fe874700889fbe008a9fbe008c9fbe00cc
:1013a0008e1f7800f0b79f000107780082bf9f0072
:1013b0000000eb00b0b79f00e60237008006eb00ac
:1013c00050c2b30080cf5000090032000100fb0082
:1013d000ffb0970022030700e10f4000dd0232005a
:1013e000bfb097008100e800b1b79f00d902370075
:1013f0009e407800b0c2b30080cf5000130032008e
:1014000007003c006b40500080cf50000d003200c0
:101410006340400080cf500013003a000d003700b9
:10142000d0c2b30080cf50000400320063404000bf
:1014300080cf50000c003a00080037000d30a000ab
:10144000070037000d00a000050037000d10a000b8
:10145000030037000db0a000010037000d20a000f0
:101460000e07e800e2ff37000d18a300010032006c
:101470000d00a1000d38a300010032000d20a100d5
:101480000100fb0002fd2f0002004000e90f5000a8
:101490000e003e000002eb00d4af9f0082017800f6
:1014a0005fae97006a60b9001e01fb0000014100b9
:1014b00003014100d2af9f005e00fb00030040002b
:1014c000e90f50000b003e00f5ff37000000eb0075
:1014d000d0af9f00a0c2b30080cf500005003a00fb
:1014e0008fb897004101780081bf9f00d2af9f0065
:1014f0000e07e8000002eb00c4b79f00e0c2b30093
:101500009e4f100018003a000de0a0008e00e80089
:1015100064405000914f1000020032000107780033
:101520000c0037000fbe97004c0078008cbf9f0066
:10153000c0b79f000e87e8000b0037004fb297003e
:101540006a20b9000000410003004000c0b79f00be
:101550000e07e8001e01fb0003fd2f000300410001
:10156000e90f5000f5ff3600be407800e1d79f003c
:10157000c0c6b30080cf5000220032000f003c00f4
:101580006940500080cf50007700320004003c00da
:101590000104e000730232006b4050000f0037007e
:1015a00040c6b30080cf5000930032006540400039
:1015b00080cf50008b003a008f00370030c7b30057
:1015c00080cf50001a00320007003c0064405000f9
:1015d00080cf5000110032000040e80080cf500062
:1015e00080003a000f00370050c7b30080cf500092
:1015f000800032006340400080cf500079003a0004
:1016000009003700000028000d48a30001003a003f
:101610000001200080867600d3ff37000d60a00017
:10162000750037000d50a0000d70a000720037004b
:101630000fbe97004c0078008cbf9f00000478001c
:101640000000e00001003a00c8ab21008004eb007c
:10165000010037008104e800890078000880440018
:101660001004e000fbff3a004fb097000000e000dc
:1016700003003200890f500001003100800478001f
:101680008000eb00e1af9f005fa99700890f510038
:101690000200360009005100e0af9f004368de0001
:1016a000e10660001b003a000d06780009003700d3
:1016b000ffb097000002200069020700e10f400020
:1016c000030032003fb297000402e800b4b79f0065
:1016d0000c06e8006fa89700800f5600f4ff3a0050
:1016e0008080eb00e1af9f000a003700880078009f
:1016f0003100fb0001047800ffb09700580207009a
:10170000e10f4000030032003fb197000201e80002
:10171000b2b79f000900e90080047800e10f4000a3
:10172000f2ff3a000006eb000d00e0000a003a006c
:1017300008023700ffb097000002200048020700af
:10174000e10f4000030032003fb297000402e800be
:10175000b4b79f000c06e8006fa89700800f5600f2
:10176000f4ff3a00fb0137008fb897004100780082
:1017700081bf9f00cf80de000101780082017800e8
:101780000205be000004be000203be000002be004f
:101790004822de00482edd0004027600e4d79f00d8
:1017a0000d48a3000a0032000404e00008003200e3
:1017b000e14f42000600320071fd2f000f80400013
:1017c00004487800184098002900200002003700e3
:1017d000f0d79f001900200072fd2f000f04410078
:1017e000a1ff370064fd2f000f0442001900200004
:1017f0009dff37000d0cb3000d007800000cb20007
:1018000028003a000d00e00005003d000fbe9700e3
:101810004c05be004c04be008cbf9f001400370076
:101820000d48a3000b0032000fb997004200be0024
:1018300082bf9f004f89de00cf91de000002be0014
:1018400002037800820378000605be000404be008f
:10185000070037000fba97004400780084bf9f004c
:1018600000047800cfc4de00090578008a057800fe
:10187000e00f5400e08f5c00e00f5d00e08f5d0042
:101880001f003d003d00b3006000b8006011b800cb
:1018900008045000898458000a0559008b855900b6
:1018a000170037000d00e00005003d000fbe970057
:1018b0004c05be004c04be008cbf9f0010003700da
:1018c0000d48a300070032000fba97004400be0085
:1018d00084bf9f006011b8000205be000004be0076
:1018e000070037000fbe97004c0078008cbf9f00a8
:1018f00000047800090020000a0020000b002000ee
:101900004fb097000000e00007003a00e00f5400dd
:10191000e08f5c00e00f5d00e08f5d0002003a00a8
:1019200011002000c1b79f000d017800020cb20029
:10193000e2b79f0000042000800f51002d0032000c
:1019400003003c000200e000080032003a003700cb
:10195000000820006fb29700800f52001400320080
:10196000000c2000800f520033003a0014c0b30076
:10197000a59b21000b0037000400fb004300dd00a5
:10198000050040005001be004000be000040e100e4
:1019900001c8e10002d0e10003d8e10025003900d0
:1019a0000442e800f44f5200f3ff3a0021003700f0
:1019b00014c0b300a59321000b0037000400fb0006
:1019c0004300dd00050040005001be004000be00a5
:1019d0000040e10001c8e10002d0e10003d8e100cd
:1019e000140039000442e800f04f5200f3ff3a00bf
:1019f0001000370014c0b300a58821000b00370089
:101a00000400fb004300dd00050040005001be0063
:101a10004000be000040e10001c8e10002d0e1004a
:101a200003d8e100030039000442e800f64f5200f9
:101a3000f3ff3a00e4d79f006fd697000c00fb003d
:101a4000cfb09700810f500002003d00e1d79f000a
:101a5000040037004fb19700800f510001003d0096
:101a6000c0b79f005faa97000400e00004003200a6
:101a700063806600020032000402e900d4af9f00d8
:101a80000de8a3000b0032005fae97004fb0970047
:101a9000800f560003003c008000eb00d1af9f0098
:101aa000040037005fa997004fb29700040151006e
:101ab000d2af9f00408c200000806600018420008f
:101ac000810f500006003a005fae97000c00e00066
:101ad000110032000c06e900dcaf9f000e00370059
:101ae000008c20000080660001882000810f5000db
:101af00009003a005fa89700e20f500003003c0085
:101b00008000eb00d1af9f00030037005fa9970072
:101b10000281e900d2af9f006fd297000400fb0062
:101b20000006eb00dcb79f00dfa89700808f500015
:101b30000200340000805000d0b79f000d28a300a1
:101b400053003200e18066000d18a3000c00320043
:101b5000d00220000100e00001003a000080e9000e
:101b6000ffb097003e010700e10f40002700320060
:101b70003fb197000201e800b2b79f002300370091
:101b80000100e00009003200ffb0970000022000d1
:101b900033010700e10f40001c0032003fb2970004
:101ba0000402e800b4b79f0018003700008c200042
:101bb0000080660001882000810f500013003a0069
:101bc000ffb097000003200025010700e10f40004f
:101bd000030032003fb697000c06e800bcb79f0038
:101be000800520000d58a30001003a008007200066
:101bf000ffb097001a010700e10f40000300320018
:101c00003fb097000000e800b0b79f00dfb097003a
:101c10000100e0000f0032000006eb00ffb097006b
:101c2000000320000e010700e10f40000300320016
:101c30003fb197000201e800b2b79f000c06e80030
:101c40005fb29700840f5600f4ff3a000006eb00e5
:101c5000dcb79f004fb097008000e900c308dd00ab
:101c6000a09b21000080400090b79f00a09321001e
:101c70000080400080b79f00a08821008080400045
:101c8000f1af9f008000eb00a1b79f009b003700e1
:101c90005fb197000200e00011003200688066002a
:101ca0000f003a0000067800ffb097000002200005
:101cb000eb000700e10f4000030032003fb2970045
:101cc0000402e800b4b79f000c06e8005fb097007c
:101cd000800f5600f4ff3a008000eb00d1b79f0060
:101ce000e18066000d18a3000c003200d002200035
:101cf0000100e00001003a000080e900ffb0970019
:101d0000d7000700e10f40000e0032003fb19700fe
:101d10000201e800b2b79f000a0037000100e000ae
:101d200008003200ffb0970000022000cc0007003e
:101d3000e10f4000030032003fb297000402e800c8
:101d4000b4b79f00008c20008080660000842000d3
:101d5000808f500009003a00ffb097000003200078
:101d6000bf000700e10f4000baff32003fb6970006
:101d70000c06e800bcb79f00b6ff370000882000c3
:101d8000808f5000b3ff3a00ffb09700000320009f
:101d9000b3000700e10f4000030032003fb097009e
:101da0000000e800b0b79f00800520000d58a30098
:101db00001003a0080072000ffb09700a80007004c
:101dc000e10f4000a3ff3200bfb097008100e800a0
:101dd000b1b79f009fff3700000420006fb197004c
:101de000800f51002700320003003c000200e00099
:101df000080032002c003700000820006fb2970066
:101e0000800f520011003200000c2000800f5200a1
:101e100025003a001fb697003c02be002c03be000e
:101e20000800be000a01be00b7fb0700a4002000a6
:101e3000050020006033b800bafb070004c3b300fc
:101e400004424000e4d79f00170037003cac21005b
:101e50000d58a30001003a004cad21000fb09700cf
:101e60003002be002003be000800be000a01be0012
:101e7000a5fb07006f0060006c467800ecd79f0060
:101e800009003700ffa897003102be002103be0001
:101e90000800be000a01be009bfb0700674060000f
:101ea0000043b000e0d79f006fd197000200fb0015
:101eb000ffb097006a000700e10f40000300320006
:101ec0003fb297000402e800b4b79f002fb6970016
:101ed0000c06e800acb79f001fb0970068005000e8
:101ee00090b79f008fb09700e880500081b79f00a7
:101ef0007fa9970068015100f2af9f002fb29700b1
:101f00004fb697008c0f5200b3ff3a000d38a30074
:101f1000100032005fb097000000e0000d003400b8
:101f20000006eb00ffb09700000220004c00070005
:101f3000e10f400003003200bfb097008100e800cd
:101f4000b1b79f000c06e8005fb19700820f560002
:101f5000f4ff3a00be407800e1d79f000104e000a2
:101f600016fd3a003fb097004f0778004f06be00bd
:101f70004f05be004f04be00ef01b1000000060097
:101f8000889fbe008a1f780000047800300090000f
:101f90006300600024003200080078007900070028
:101fa0003805900080ef2f00000065003004980095
:101fb000280090000000e00004003200e804650002
:101fc00002003a00a8000700290498004800900089
:101fd000f9f80700e10f400013003200b80090004c
:101fe0000102b20010003a000ac8a3001800320033
:101ff00000d880000000e0001500320000017800e9
:1020000081047800012a200012289000880f5000d7
:10201000070032004205b0004905b000818f54002e
:102020000b003200f8ff37000080eb00090037009a
:1020300002007800e9f8070000d88000090040009d
:102040008000eb00112898000100780001003700a3
:102050000000eb004f0578004f04be0000000600b2
:10206000889fbe000001780001047800b100900054
:102070000118a3003d0032000198a30003003a00bc
:10208000180090000000e00038003a000190a00025
:102090003104980082047800f90fb2001800900013
:1020a0000000e00002003a0028009000000c7800d8
:1020b0003800900000b8a3000600320000a8a3007a
:1020c00004003200210020006011b80008007800f0
:1020d00086000700b80090000100780000b0a10061
:1020e00030049800ea8f540005003a000178a300fc
:1020f00003003a0088007800d0002000d8ff0700d5
:102100009800900058009000808f50000b00320023
:102110000100e800100498001800780009587800c1
:10212000000c780011c0b300c0af21000148780056
:10213000ea8f5400060032000f0037008800780054
:1021400009407800d9000700800478000a003700b1
:10215000380090000088a3000600320008007800d4
:1021600008000700e10f400002003a008084eb0005
:1021700001003700a9002000090078004f04be00cc
:1021800000000600881f78000004780030009000ee
:102190000008a30007003200800078000120b20090
:1021a00004003a0011049800a8009000010c780087
:1021b000170037000018a300190032000098a30090
:1021c00017003200a80090000100e0001400320067
:1021d000180190000200e000110032004800900059
:1021e00087f8070098009000810f5000030032002c
:1021f000380090000003b300300498000000eb00aa
:102200001004980028009000000c7800380090001e
:102210000058a300020032000080eb0001003700ec
:102220000000eb004f04780000000600f1d78000aa
:102230000100e0000300320011007800f0d78800b0
:1022400003003700002020003df8070080007800e0
:10225000e18f400002003a00906e260010d88800fe
:102260000100780000000600f1d780000108780026
:10227000f0d7880000000600881f7800000478006e
:1022800040009000110020006011b80093f8070092
:102290000001be00180090000000e00002003d00b8
:1022a0000000eb0010049800280090000000e000ff
:1022b00008003200380090000098a30005003200aa
:1022c00018009000cf80de000200400083804800ac
:1022d0000400370018009000cf80de00000051009d
:1022e000818059004f047800000006000400fa00c5
:1022f000889fbe008a9fbe008c1f78000006780071
:1023000092bf9f00a3bf9f0001047800300090009f
:102310000040a100300698002c0090000000e00072
:1023200006003a004c0090006cf80700e10f4000f6
:10233000e08f480057003a0054003700e18f50000a
:1023400005003200e28f50000c0032000100e00076
:10235000200032004d0037000c007800c6ff070057
:102360001fb99700afb99700020140008381480070
:1023700092bf9f00a3bf9f00160037000c0078009b
:1023800080ff07004c009000110020006011b80091
:1023900052f807000005be004c009000880078004d
:1023a0006011b8004df807000004be004c0090001a
:1023b0008000eb000a01be0048f807001fba970032
:1023c000afba97000402440085824c0094bf9f007e
:1023d000a5bf9f000c007800a7ff07001fba970059
:1023e000afba97000001520081815a000300320009
:1023f0003c00900000b0a000300698003c02900025
:102400000408a3000f003200620362000d003a00ce
:10241000e00f5100e08f59000a0035009c02900047
:102420006128b900800f5100818f590005003c00e0
:1024300002805200100698001c0e41000600780031
:10244000150037000498a300050032001c0090001e
:102450000000e000020032000c00780049ff070095
:102460008000eb0011069800ac029000050e780089
:102470004c0090001fb99700afb9970017f80700fc
:10248000e00f5000e08f580002003d000080eb009c
:10249000010037000000eb004f0678004f05be003a
:1024a0004f04be000080fa00000006000200fa009f
:1024b000889fbe00a0ff9f000104780031009000bb
:1024c000e200600004003a000003b300300498000a
:1024d0001104980018003700d80490000900e000ab
:1024e0001a003a006c00600004003a004fff070039
:1024f00020049800e10f400011003a0029049800e0
:1025000059049800380090000020a0003004980082
:10251000190498004800900012002000e68057003f
:10252000b7f70700e10f50001f003200380090009d
:102530000003b300300498000080eb001c0037005b
:1025400000202000500498000a0037001801900075
:10255000a800900048009000a9f70700980090009c
:10256000810f500003003200380090000003b300d8
:1025700030049800100020001004980028009000fb
:10258000aff897000148780028009000000ce800a0
:10259000b80090000080eb000158a30004003a004e
:1025a0000190a00031049800aff897000180fb0073
:0c25b0004f04be000080fa00000006008e
:020000040000fa
:0200000401f009
:04000000e6ff000017
:020000040000fa
:0200000401f009
:04000400ff7f00007a
:020000040000fa
:0200000401f009
:040008007fff000076
:020000040000fa
:0200000401f009
:04001400ffff0000ea
:020000040000fa
:100008009e4400009e4400009e4400009e44000060
:100018009e4400009e4400009e4400009e44000050
:100028009e4400009e4400009e440000223b0000c5
:100038009e4400009e440000cc3e00009e44000008
:100048009e44000092430000324300009e4400009a
:100058009e4400009e4400001a2c00009e440000ac
:100068009e4400009e4400009e4400009e44000000
:100078009e4400000a440000363f00009e440000f1
:10008800ce430000d24200009e4400009e4400007f
:100098009e4400009e4400009e4400009e440000d0
:1000a8009e4400009e4400009e4400009e440000c0
:1000b8009e4400009e4400009e4400009e440000b0
:1000c8009e4400009e4400009e4400009e440000a0
:1000d8009e4400009e4400009e4400009e44000090
:1000e8009e4400009e4400009e4400009e44000080
:0800f8009e4400009e4400003c
:020000040000fa
:100108009e4400009e4400009e4400009e4400005f
:100118009e4400009e4400009e4400009e4400004f
:100128009e4400009e4400009e440000223b0000c4
:100138009e4400009e440000cc3e00009e44000007
:100148009e44000092430000324300009e44000099
:100158009e4400009e4400001a2c00009e440000ab
:100168009e4400009e4400009e4400009e440000ff
:100178009e4400000a440000363f00009e440000f0
:10018800ce430000d24200009e4400009e4400007e
:100198009e4400009e4400009e4400009e440000cf
:1001a8009e4400009e4400009e4400009e440000bf
:1001b8009e4400009e4400009e4400009e440000af
:1001c8009e4400009e4400009e4400009e4400009f
:1001d8009e4400009e4400009e4400009e4400008f
:1001e8009e4400009e4400009e4400009e4400007f
:0801f8009e4400009e4400003b
:020000040000fa
:1025bc0025640000002d000025640000006100006f
:1025cc006865000061640000200000006c6500007c
:1025dc00667400002000000072690000676800004b
:1025ec007420000000000000fcff0000fdff000054
:1025fc00feff0000ffff00000000000001000000d3
:10260c0002000000030000000400000005000000b0
:10261c006669000072650000666c000079000000bd
:10262c00666c0000617300006820000064650000a7
:10263c007465000063740000656400000000000015
:020000040000fa
:10264c000200fa000a1707000000eb00000f7800e8
:10265c000d0037009e00e800e02b210000804000b8
:10266c0010407800004178009e007800e02b21009b
:10267c00008040001040780080407800c0cdb3004e
:10268c00271707001e8fe8009e007800700d2000b1
:10269c00808f5000efff3600f91607000080fa001b
:1026ac00000006000200fa00881f7800f0160700f0
:1026bc000000eb00000f78000d0037001e04e8004e
:1026cc009e007800e02b2100008040001040780034
:1026dc0080407800c0cdb300ed1607008040780034
:1026ec00e02b210000004400014878001e8fe80018
:1026fc009e007800700d2000808f5000efff360098
:10270c00df1607004f0478000080fa000000060076
:10271c000600fa00000f78001e00780020079800d1
:10272c002e009000e10f50000a0032002e009000a5
:10273c00e20f50000a0032002e0090000000e00072
:10274c000100320009003700c0c0b30001f3b7002c
:10275c000900370080c0b30001f3b7000600370052
:10276c0020c0b30001f3b700030037000080eb007a
:10277c0010079800020037000000eb0010079800cb
:10278c001e0090000080fa00000006000400fa0011
:10279c00000f7800400420009e0f1000060032004d
:1027ac00100120009e0f10000300320030032000a7
:1027bc009e0f100005003a001e007800f1f2b700e1
:1027cc000000eb0010079800020037000080eb00bf
:1027dc00100798001e0090000080fa000000060010
:1027ec000400fa00000f78001e00e0001500320013
:1027fc00000220009e0f1000120032000003200087
:10280c009e0f10000f003200000420009e0f1000dd
:10281c000c003200000520009e0f10000900320051
:10282c00000620009e0f100006003200000620005b
:10283c009e0f100003003200000120009e0f1000bc
:10284c0005003a001e007800ebf2b7000000eb0028
:10285c0010079800020037000080eb00100798006a
:10286c001e0090000080fa00000006000a00fa002a
:10287c002007980031079800ae0090003e009000b1
:10288c00808f5000030039000080eb004007980057
:10289c001e003700be00900030382000808f5000a2
:1028ac00030036000080eb0040079800170037004b
:1028bc002e0090000000e900200798002e009000e8
:1028cc00204798002e0090004800de00304798000a
:1028dc003e009000004f78003e0090004800de0063
:1028ec00104798003e409000c7f2b7002e40900071
:1028fc00c9f2b7001e409000cff2b7001e4078001e
:10290c00d1f2b7000000eb00400798004e00900099
:10291c000080fa00000006000a00fa002007980068
:10292c0031079800ae0090003e009000808f500060
:10293c00030039000080eb00400798001b003700b3
:10294c00be009000301f2000808f50000300360026
:10295c000080eb0040079800140037002e00900018
:10296c00204798002e0090004800de003047980069
:10297c003e009000004f78003e0090004800de00c2
:10298c00104798003e409000cbf2b7002e409000cc
:10299c00cdf2b7001e409000d3f2b7001e40780075
:1029ac00d5f2b7000000eb00400798004e009000f5
:1029bc000080fa00000006000e00fa0030079800b4
:1029cc004107980052079800be0090004e009000fe
:1029dc00808f5000030039000080eb0060079800e6
:1029ec002b003700ce009000301f2000808f50004d
:1029fc00030036000080eb006007980024003700cd
:102a0c00de00900030382000808f5000030036002c
:102a1c000080eb00600798001d0037003e0090001e
:102a2c00404798003e0090004800de005047980058
:102a3c004e009000204798004e0090004800de00a9
:102a4c00304798005e009000104798005e009000a0
:102a5c004800de00004f78005e4090004ff3b70056
:102a6c004e40900051f3b7003e40900053f3b70036
:102a7c002e40900055f3b7001e40780057f3b70076
:102a8c001e40900059f3b7000000eb00600798005f
:102a9c006e0090000080fa00000006000600fa00ac
:102aac0010079800210798001e0090000000e0001d
:102abc00060032002e0090000000e00003003200ff
:102acc00a0ccb300004f78000e0037001e00900021
:102adc000000e00003003200a0c4b300004f7800f7
:102aec00080037002e0090000000e00003003200c8
:102afc00a0c8b300004f780002003700a0c0b3009c
:102b0c00004f78001e407800edf2b7000080fa000c
:102b1c00000006000600fa00204798003147980094
:102b2c000000eb00000f7800100037009e007800ca
:102b3c00e02b210000804000904078002e40900057
:102b4c0080cf500008003a001e00e800e12b210065
:102b5c0001004000be409000014878000000eb00ee
:102b6c0020079800070037001e8fe8009e007800b1
:102b7c00700d2000808f5000ecff36008080eb0041
:102b8c00210798002e0090000080fa00000006003b
:102b9c000800fa0020479800210798000000eb007d
:102bac00000f7800110037009e007800e02b210008
:102bbc0000804000904078002e40900080cf500064
:102bcc0009003a009e00e800e02b21000080400044
:102bdc00904078002e009000014878000000eb0037
:102bec0030079800070037001e8fe8009e00780021
:102bfc00700d2000808f5000ebff36000080eb0042
:102c0c00300798003e0090000080fa00000006009b
:102c1c000200fa00004f7800114798001e40900007
:102c2c00d7f2b7001e407800d9f2b7000080fa0046
:102c3c00000006000800fa00004f780011479800c9
:102c4c00224798003347980044479800f0c4b300db
:102c5c009e4f1000030036000080eb0030079800f8
:102c6c000c0037001e407800dbf2b7001e409000cd
:102c7c00ddf2b7002e409000dff2b7004e4090001e
:102c8c00e1f2b7003e409000e3f2b7000000eb0029
:102c9c00300798003e0090000080fa00000006000b
:102cac000400fa00008fbe001e00be004a09dd00c1
:102cbc004600de0000007100c608de00e7f2b70037
:102ccc001e00be004209dd004e00de000000710057
:102cdc00ce08de00e5f2b7000040eb00e9f2b700e9
:102cec000080fa00000006000200fa00004f780095
:102cfc001e407800f3f2b7000080fa0000000600d6
:102d0c000200fa00000f78001e00e00005003200ff
:102d1c0003d3bf0001c8b3000140700003f3b70038
:102d2c000300370003d3bf000074a10003f3b70006
:102d3c000080fa00000006000400fa00004f780042
:102d4c0011479800224798001e40780007f3b700ff
:102d5c001e40900009f3b7002e4090000bf3b70013
:102d6c000080fa00000006000200fa00004f780014
:102d7c00114798001e4078007f4060000045b0006d
:102d8c000df3b7001e4090000ff3b7000080fa005f
:102d9c00000006000600fa00100798004147980052
:102dac004e4090000000fb00630060004500dd0019
:102dbc008040780000c8b30000c0400095f3b70015
:102dcc000000eb00000f78000d0037001e007800ab
:102ddc000000400032052000000141001e00780078
:102dec00800078001e009000008040009040780029
:102dfc00e02b210000004100014878001e0fe80084
:102e0c001e007800e10f5000f0ff36000080fa0041
:102e1c00000006000000fa001515070095d3bf004e
:102e2c000041780094d3bf0080407800c0cdb3003f
:102e3c003b15070012150700613221009140780004
:102e4c0010d3bf00020007000080fa00000006004b
:102e5c000600fa0040479800514798000000eb002c
:102e6c00000f7800021507000000eb001007980017
:102e7c001f0037009e009000e02b210000804000d6
:102e8c00904078004e40900080cf500015003900e3
:102e9c009e009000e02b21000080400090407800c4
:102eac005e40900080cf50000e003e001e0090004f
:102ebc008000e800e02b21000080400010407800ea
:102ecc00004178009e009000e02b21000080400023
:102edc001040780080407800c0cdb300101507007a
:102eec001e0fe8001e0090000080e80010079800fc
:102efc009e009000700d2000808f5000ddff36008a
:102f0c00df1407001e0078000080fa0000000600a5
:102f1c000400fa00100798000000eb00000f780086
:102f2c000d0037001e00780000004000b2062000a3
:102f3c00000141001e007800800078001e00900007
:102f4c000080400090407800e02b21000000410000
:102f5c00014878001e0fe8001e007800e10f5000b9
:102f6c00f0ff36000080fa00000006000200fa00b4
:102f7c00004f7800114798001e4078003bf3b700d3
:102f8c001e4090003df3b7000080fa0000000600e0
:102f9c000200fa00004f7800114798001e4078009c
:102fac003ff3b7001e40900041f3b7000080fa00d9
:102fbc00000006000200fa00004f7800114798004c
:102fcc001e40780043f3b7001e40900045f3b70055
:102fdc000080fa00000006000200fa00004f7800a2
:102fec001e80fb004400dd006f4040005bf3b70027
:102ffc000080fa00000006000200fa00004f780082
:10300c00114798001e80fb004400dd0080407800d2
:10301c001e4090006f40600000c040005df3b700a0
:10302c000080fa00000006000200fa00004f780051
:10303c00114798001e4090000080fb004400dd000a
:10304c00804078001e4078006f40600000c0400057
:10305c005ff3b7000080fa00000006000400fa00dd
:10306c00008fbe001e00be004088de00cf80de0058
:10307c0061f3b7001e00be004809dd004800de0009
:10308c0000007100c888de0063f3b7001e007800f2
:10309c0065f3b7000080fa00000006000200fa0099
:1030ac00004f78001e40780067f3b7000080fa00ec
:1030bc00000006000400fa00000f780011079800c9
:1030cc001e0078004800de006df3b7001e0078008b
:1030dc006ff3b7001e0090004800de0071f3b700dc
:1030ec001e00900073f3b7000080fa000000060089
:1030fc000600fa00004f780011479800224798000c
:10310c003347980044479800554798002e4090004c
:10311c0075f3b7003e40900077f3b7001e4078007f
:10312c0079f3b7001e4090007bf3b7004e4090003f
:10313c007df3b7005e4090007ff3b7000080fa008b
:10314c00000006000a00fa00000f78001107980032
:10315c002207980033079800200d20001e0f400016
:10316c001e009000200db000100798002e0090005b
:10317c0067004000200798003e0090006700400068
:10318c00300798009e00900020352000808f500062
:10319c00030036000080eb00400798003900370030
:1031ac00be009000701e2000808f5000030036007f
:1031bc000080eb0040079800320037001e009000a2
:1031cc009e0f100004003100ae0090003e009000f5
:1031dc00808f5000030039000080eb0040079800fe
:1031ec0028003700501a20009e0f10000c003600eb
:1031fc009e00900090272000808f500008003e0019
:10320c00ae009000700a2000808f50000400360041
:10321c00be00900060142000808f50000300360028
:10322c000080eb0040079800160037001e00780065
:10323c004800de0081f3b7001e00780083f3b7006e
:10324c001e0090004800de0085f3b7001e009000c1
:10325c0087f3b7002e0090004800de0089f3b7001a
:10326c002e0090008bf3b7003e0090004800de006b
:10327c008df3b7003e0090008ff3b7000000eb0019
:10328c00400798004e0090000080fa0000000600f5
:10329c000600fa0010079800210798001e00900005
:1032ac000000e000060032002e0090000000e0005c
:1032bc0003003200c0c3b300004f78000e0037008b
:1032cc001e0090000000e00003003200c0c2b300fa
:1032dc00004f7800080037002e0090000000e0003e
:1032ec0003003200c0c1b300004f78000200370069
:1032fc00c0c0b300004f78001e40780091f3b700b7
:10330c000080fa00000006000200fa00000f7800ae
:10331c001e00e00005003200f5d2bf00f1c7b3007b
:10332c0001406000f5f2b70004003700f5d2bf0091
:10333c0001c8b30001407000f5f2b7000080fa003c
:10334c00000006000400fa00000f78001107980036
:10335c001e00e00005003200f5d2bf00f1cbb30037
:10336c0001406000f5f2b70004003700f5d2bf0051
:10337c0001c4b30001407000f5f2b7001e009000cc
:10338c000000e00005003200f5d2bf00f1cdb30023
:10339c0001406000f5f2b70004003700f5d2bf0021
:1033ac0001c2b30001407000f5f2b7000080fa00d2
:1033bc00000006000a00fa00ebd2bf000080fb0000
:1033cc004007980000032000ce009000808f500032
:1033dc003100320000032000ce009000808f50009e
:1033ec000b003c004e009000f00f50002200320009
:1033fc0000022000ce009000808f5000220032008e
:10340c004e0090000000e00017003200360037003c
:10341c0000052000ce009000808f50002600320066
:10342c0000052000ce009000808f500005003c006d
:10343c0000042000ce009000808f50001a00320053
:10344c002900370000062000ce009000808f50002d
:10345c001d00320000072000ce009000808f50002d
:10346c001d0032002000370000002800010720005a
:10347c00008fbe00200037000000200061092000f2
:10348c00008fbe001c0037000000240081032000c8
:10349c00008fbe001800370000002200c101200080
:1034ac00008fbe001400370000002100e100200056
:1034bc00008fbe001000370000802000710020003b
:1034cc00008fbe000c0037000040280031002000a7
:1034dc00008fbe000800370000202c0011002000d7
:1034ec00008fbe00040037006000b8002007980071
:1034fc00310798000a00370001d3bf00ec4f500091
:10350c0004003a001e00be0000004000818048000c
:10351c00008fbe001e00be002007980031079800e7
:10352c002e009000be0090000080fa000000060003
:10353c001000fa0020079800310798004207980005
:10354c0053079800640798005e0090000000e000ac
:10355c00030035005e009000e30f500003003400c0
:10356c000080eb00700798004e0037006e00900052
:10357c000000e000030035006e009000e30f5000e7
:10358c00030034000080eb00700798004500370002
:10359c0088ff07000002be0084007800606a2000eb
:1035ac00000bb8006020b900070178000001410051
:1035bc00606a200000a8b900000141008203780075
:1035cc002e0090006101b9000600be00e2f3070076
:1035dc001007980077ff07000002be0084007800f7
:1035ec00606a2000000bb8006020b9000701780069
:1035fc0000014100606a200000a8b90000014100f0
:10360c00820378003e0090006101b9000600be0004
:10361c00d1f30700000f78001e0090004800de0078
:10362c00f9f2b7001e009000fbf2b7001e00780004
:10363c004800de00fdf2b7001e007800fff2b70074
:10364c004e0090000000e00004003200f5d2bf00f4
:10365c000044a000f5f2b70004003700f5d2bf001b
:10366c00f1ceb30001406000f5f2b7006e0090009f
:10367c00e34060005e009000630060004200dd00eb
:10368c0000c14000f5d2bf008040780000cfb300ed
:10369c0000c0600000404100f5f2b7000000eb00f4
:1036ac00700798007e0090000080fa000000060071
:1036bc000600fa00000f7800110798001e00780031
:1036cc00200798002e009000e30f50006700320096
:1036dc002e009000e30f500007003e002e009000db
:1036ec00e10f50002e0032002e009000e10f500030
:1036fc0041003e000d0037002e009000e50f5000f9
:10370c00940032002e009000e50f50007400390038
:10371c002e009000e60f5000ab0032002e009000ff
:10372c00e70f5000c5003200da0037001e00900091
:10373c00e10f50000f003600c4c2bf000080fb0038
:10374c004600de00614060000004a20061406000a1
:10375c00614060004601dd00412c20009140780062
:10376c00f0cbb30000c0600002407000c4e2b700b0
:10377c001e0137001e009000614060006140600037
:10378c004601dd00412c200091407800f0cbb300c5
:10379c0000c0600002407000c4e2b70013013700a3
:1037ac001e009000e10f50000b003600c4c2bf0099
:1037bc000080fb004700de000004a20061406000b6
:1037cc00c700dd00c4c2bf000074a100014070003e
:1037dc00c4e2b700050137001e0090006140600094
:1037ec00c700dd00c4c2bf000074a100014070001e
:1037fc00c4e2b700fd0037001e009000e10f50003e
:10380c000f003600c5c2bf000080fb000000d100d5
:10381c00614060000004a2006140600061406000f3
:10382c0000414000512c200091407800d0cfb300d3
:10383c0000c0600002407000c5e2b700eb0037002a
:10384c001e0090006140600061406000004140003b
:10385c00512c200091407800d0cfb30000c0600004
:10386c0002407000c5e2b700e00037001e00900077
:10387c00e10f50000f003600c5c2bf000080fb00f6
:10388c004400de00614060000004a2006140600062
:10389c00614060004401dd00512c20009140780013
:1038ac00f0ceb30000c0600002407000c5e2b7006b
:1038bc00ce0037001e009000614060006140600047
:1038cc004401dd00512c200091407800f0ceb30073
:1038dc0000c0600002407000c5e2b700c3003700b2
:1038ec001e009000e10f50000f003600c5c2bf0053
:1038fc000080fb004200de00614060000004a2007a
:10390c0061406000614060004201dd00512c2000ec
:10391c0091407800b0cfb30000c06000024070004e
:10392c00c5e2b700b10037001e0090006140600096
:10393c00614060004201dd00512c20009140780074
:10394c00b0cfb30000c0600002407000c5e2b70009
:10395c00a60037001e009000e10f50000f0036004b
:10396c00c5c2bf000080fb004500de006140600066
:10397c000004a20061406000614060004501dd0070
:10398c00512c200091407800f0cdb30000c06000b5
:10399c0002407000c5e2b700940037001e00900092
:1039ac0061406000614060004501dd00512c200049
:1039bc0091407800f0cdb30000c060000240700070
:1039cc00c5e2b700890037001e009000e10f5000df
:1039dc000f003600c5c2bf000080fb004600de00b1
:1039ec00614060000004a200614060006140600022
:1039fc004601dd00512c200091407800f0cbb30043
:103a0c0000c0600002407000c5e2b70077003700cc
:103a1c001e00900061406000614060004601dd00c6
:103a2c00512c200091407800f0cbb30000c0600016
:103a3c0002407000c5e2b7006c0037001e00900019
:103a4c00e10f50000b003600c5c2bf000080fb0028
:103a5c004700de000004a20061406000c700dd00ea
:103a6c00c5c2bf000074a10001407000c5e2b700e0
:103a7c005e0037001e00900061406000c700dd0052
:103a8c00c5c2bf000074a10001407000c5e2b700c0
:103a9c00560037001e00900061406000c700dd003a
:103aac00c5c2bf000074a10001407000c5e2b700a0
:103abc00c5c2bf000080fb004700de006140600013
:103acc004601dd00512c200091407800f0cbb30072
:103adc0000c0600002407000c5e2b700c5c2bf0064
:103aec000080fb004600de00614060006140600029
:103afc004501dd00512c200091407800f0cdb30041
:103b0c0000c0600002407000c5e2b700c5c2bf0033
:103b1c000080fb004500de006140600061406000f9
:103b2c004201dd00512c200091407800b0cfb30051
:103b3c0000c0600002407000c5e2b700c5c2bf0003
:103b4c000080fb004200de006140600061406000cc
:103b5c004401dd00512c200091407800f0ceb300e0
:103b6c0000c0600002407000c5e2b700c5c2bf00d3
:103b7c000080fb004400de0061406000614060009a
:103b8c0000414000512c200091407800d0cfb30070
:103b9c0000c0600002407000c5e2b700c5c2bf00a3
:103bac000080fb000000d10061406000c700dd0018
:103bbc00c4c2bf000074a10001407000c4e2b70091
:103bcc00c4c2bf000080fb004700de006140600003
:103bdc004601dd00412c200091407800f0cbb30071
:103bec0000c0600002407000c4e2b7000080fa0020
:103bfc00000006000000fa00c4c2a900c4e2a9003b
:103c0c00c522a900c582a900c542a900c5a2a90068
:103c1c00c5c2a900c5e2a9000080fa000000060098
:103c2c000200fa00000f7800100020009e0f100018
:103c3c000f003600d0c2bf000080fb004200de0047
:103c4c00614060000004a2006140600061406000bf
:103c5c004201dd00012d200091407800b0cfb3006f
:103c6c0000c0600002407000d0e2b7000a003700cc
:103c7c001e00780061406000614060004201dd0080
:103c8c00012d200091407800b0cfb30000c060003f
:103c9c0002407000d0e2b7000080fa00000006007d
:103cac000200fa00000f7800100020009e0f100098
:103cbc000f003600d0c2bf000080fb000000d10016
:103ccc00614060000004a20061406000614060003f
:103cdc0000414000012d200091407800d0cfb3006e
:103cec0000c0600002407000d0e2b7000a0037004c
:103cfc001e0078006140600061406000004140009f
:103d0c00012d200091407800d0cfb30000c060009e
:103d1c0002407000d0e2b7000080fa0000000600fc
:103d2c000000fa00c4c2bf000080fb004600de00a9
:103d3c006140600000c0ea006140600061406000ca
:103d4c004601dd00412c200091407800f0cbb300ff
:103d5c0000c0600002407000c4e2b700c4c2bf00e3
:103d6c000080fb004700de0000c0ea0061406000fc
:103d7c00c700dd00c4c2bf000074a1000140700088
:103d8c00c4e2b700c5c2bf000080fb000000d10038
:103d9c006140600000c0ea0061406000614060006a
:103dac0000414000512c200091407800d0cfb3004e
:103dbc0000c0600002407000c5e2b700c5c2bf0081
:103dcc000080fb004400de006140600000c0ea009f
:103ddc0061406000614060004401dd00512c200016
:103dec0091407800f0ceb30000c06000024070003b
:103dfc00c5e2b700c5c2bf000080fb004200de0078
:103e0c006140600000c0ea006140600061406000f9
:103e1c004201dd00512c200091407800b0cfb3005e
:103e2c0000c0600002407000c5e2b700c5c2bf0010
:103e3c000080fb004500de006140600000c0ea002d
:103e4c0061406000614060004501dd00512c2000a4
:103e5c0091407800f0cdb30000c0600002407000cb
:103e6c00c5e2b700c5c2bf000080fb004600de0003
:103e7c006140600000c0ea00614060006140600089
:103e8c004601dd00512c200091407800f0cbb300ae
:103e9c0000c0600002407000c5e2b700c5c2bf00a0
:103eac000080fb004700de0000c0ea0061406000bb
:103ebc00c700dd00c5c2bf000074a1000140700046
:103ecc00c5e2b7000080fa00000006000000fa000e
:103edc00c4c2bf000080fb004600de0061406000f1
:103eec0000c0ea0061406000614060004601dd00f6
:103efc00412c200091407800f0cbb30000c0600052
:103f0c0002407000c4e2b7000080fa000000060016
:103f1c000000fa00c4c2bf000080fb004700de00b6
:103f2c0000c0ea0061406000c700dd00c4c2bf00f1
:103f3c000074a10001407000c4e2b7000080fa00d8
:103f4c00000006000000fa00c5c2bf000080fb00a4
:103f5c000000d1006140600000c0ea0061406000d8
:103f6c006140600000414000512c200091407800dd
:103f7c00d0cfb30000c0600002407000c5e2b700b3
:103f8c000080fa00000006000000fa00c5c2bf0065
:103f9c000080fb004400de006140600000c0ea00cd
:103fac0061406000614060004401dd00512c200044
:103fbc0091407800f0ceb30000c060000240700069
:103fcc00c5e2b7000080fa00000006000000fa000d
:103fdc00c5c2bf000080fb004200de0061406000f3
:103fec0000c0ea0061406000614060004201dd00f9
:103ffc00512c200091407800b0cfb30000c060007d
:10400c0002407000c5e2b7000080fa000000060014
:10401c000000fa00c5c2bf000080fb004500de00b6
:10402c006140600000c0ea006140600061406000d7
:10403c004501dd00512c200091407800f0cdb300fb
:10404c0000c0600002407000c5e2b7000080fa00ba
:10405c00000006000000fa00c5c2bf000080fb0093
:10406c004600de006140600000c0ea006140600074
:10407c00614060004601dd00512c20009140780029
:10408c00f0cbb30000c0600002407000c5e2b70086
:10409c000080fa00000006000000fa00c5c2bf0054
:1040ac000080fb004700de0000c0ea0061406000b9
:1040bc00c700dd00c5c2bf000074a1000140700044
:1040cc00c5e2b7000080fa00000006000200fa000a
:1040dc00000f78009e00780060e921006a0e07004e
:1040ec000080fa00000006000000fa0060e92100e0
:1040fc00950e07000080fa00000006000200fa008e
:10410c00000f78001e00e000030035009e007800d0
:10411c0060e92100b40e07000080fa0000000600e0
:10412c000000fa0076d4bf000004e0000b003a0057
:10413c008000eb00700020005dfd070076d4bf000e
:10414c000080fb001100200059fd070076d4bf0051
:10415c000040e80076f4b7001b00370076d4bf00af
:10416c00e74f50000c003a0076d4bf000080fb00f3
:10417c000000e9008000eb004dfd070076d4bf0085
:10418c000080fb001100200049fd07000040eb00ff
:10419c0076f4b7000c00370076d4bf000080fb002b
:1041ac000000e9008000eb0041fd070076d4bf0061
:1041bc000080fb00110020003dfd070076d4bf00fd
:1041cc000040e80076f4b7000080fa00000006001a
:1041dc000200fa0077d4bf000080fb00000f7800cb
:1041ec001e007800e20f50001c0032001e00780008
:1041fc00e20f500007003c001e0078000000e000b9
:10420c000b0032001e007800e10f50000c00320051
:10421c00230037001e007800e30f50001600320018
:10422c001e007800e40f50001a0032001c0037000a
:10423c00210020000000eb001dfd070018003700d6
:10424c00210020001000200019fd07002100200093
:10425c007000200016fd070011003700210020001f
:10426c002000200012fd070021002000600020002b
:10427c000ffd07000a00370021002000300020004d
:10428c000bfd0700210020005000200008fd070056
:10429c0003003700210020004000200004fd07002f
:1042ac0077d4bf00e34f500004003e0077d4bf002a
:1042bc000040e80077f4b700020037000040eb0044
:1042cc0077f4b7000080fa00000006000000fa0046
:1042dc0078d4bf000004e0000f003a0084d4bf0083
:1042ec000004e0000c00320010c0b30078f4b700fa
:1042fc008000eb000000eb00edfc070078d4bf0061
:10430c000080fb0011002000e9fc07000040eb00de
:10431c0084f4b7002b00370078d4bf000004e00011
:10432c000f003a0084d4bf000004e0000c003a00f7
:10433c0070c0b30078f4b7008000eb000000eb0015
:10434c00dbfc070078d4bf000080fb0011002000cc
:10435c00d7fc070010c0b30084f4b7001900370075
:10436c0078d4bf00e74f50000a003a000040eb0041
:10437c0078f4b7008000eb0070002000ccfc070044
:10438c0078d4bf000080fb0011002000c8fc07009f
:10439c000c00370078d4bf00e14f500009003a0000
:1043ac000040eb0078f4b7008000eb001000200018
:1043bc00bffc070078d4bf000080fb001100200078
:1043cc00bbfc07000080fa00000006000200fa00a7
:1043dc0079d4bf000080fb00000f78001e0078002d
:1043ec00e10f5000150032001e007800e10f500064
:1043fc0004003c001e0078000000e00008003200c1
:10440c001a0037001e007800e20f50001200320034
:10441c001e007800e30f5000130032001300370029
:10442c00210020000000eb00a1fc0700210020006f
:10443c00400020009efc07000c00370021002000eb
:10444c00100020009afc0700210020003000200002
:10445c0097fc0700050037002100200020002000f9
:10446c0093fc070001003700e2fd070079d4bf0080
:10447c00e24f500004003e0079d4bf000040e80039
:10448c0079f4b700020037000040eb0079f4b70074
:10449c000080fa00000006000200fa007ad4bf0087
:1044ac000080fb00000f78001e007800e10f500028
:1044bc00150032001e007800e10f500004003c0093
:1044cc001e0078000000e000080032001a003700df
:1044dc001e007800e20f5000120032001e0078001f
:1044ec00e30f5000130032001300370021002000ae
:1044fc000000eb006efc07002100200040002000b3
:10450c006bfc07000c00370021002000700020001d
:10451c0067fc0700210020005000200064fc07000d
:10452c0005003700210020006000200060fc07001f
:10453c0001003700affd07007ad4bf00e24f5000f6
:10454c0004003e007ad4bf000040e8007af4b700c3
:10455c00020037000040eb007af4b7000080fa004c
:10456c00000006000000fa00e6c2bf000080fb005d
:10457c004600de00614060000081fb00e7c2bf0026
:10458c000080fb000000d100614060000080fb0057
:10459c000000400080007800e7c2bf00614060006e
:1045ac000080fb000080400000004000800078008c
:1045bc00e6c2bf000080fb004700de000080fb006d
:1045cc000080400000004000000041000080fa0024
:1045dc00000006000000fa006f0f070040c7bf0084
:1045ec00614060000004e000020032004007a900b6
:1045fc000000fe000f0d07001c070700c60c07008b
:10460c00b4100700e60e070016002000050120007c
:10461c0084002000030f2000022820008000eb0003
:10462c000000eb00920e070011002000100020008b
:10463c00bb0e0700d10e07000080fa000000060038
:10464c000200fa00004f7800110020000e007800e4
:10465c00231007002e1007000000e000fdff3a00b9
:10466c000080fa00000006001400fa0040079800d1
:10467c000f007800100f98000000eb001007980056
:10468c00ce009000010f78004e009000e10f40002a
:10469c00280034000f007800700798001e0090006e
:1046ac000000e800100798001e007800a20020000f
:1046bc00110009000200d800000f78001e00e00075
:1046cc00f6ff3c001e0090000000e8000000e8002f
:1046dc000000d100000040008f007800010f98000e
:1046ec00808747008e0890000100e8000000d10090
:1046fc0000004000000f98000e0890003007980052
:10470c00be0090004e009000801f7800e02d290024
:10471c00801f780001007800cef20700e487570074
:10472c003e0090009e009000ed0f0700fe079000e9
:10473c002a0037000f007800500798001e009000e8
:10474c000000e800100798001e007800a20020006e
:10475c00110009000200d800000f78001e00e000d4
:10476c00f6ff3c001e0090000000e80010079800c7
:10477c001e0090000000e8000000e8000000d100de
:10478c00000040008f007800610798008087470088
:10479c00ee0090000100e8000000d1000000400095
:1047ac00600798006e00900020079800ae00900003
:1047bc004e009000801f7800102e2900801f78007a
:1047cc0001007800a3f20700e48757002e00900048
:1047dc009e009000c20f0700de079000cc0f070070
:1047ec000000e000fdff3a009e0f90000080fa00f0
:1047fc00000006000000fa008000eb00a000200082
:10480c00abfb07000000eb00f0a388000040eb00be
:10481c0080f4b70000402200cb0c07000080fa00a7
:10482c00000006000000fa0080d4bf000004e00085
:10483c0008003a0011002000a00020009cfb07009b
:10484c0001532700004022008f0c070010c0b3005a
:10485c0080f4b7000080fa00000006000000fa00a7
:10486c00a0802000a30d0700fd0d07000000e00054
:10487c00fdff32000080fa00000006000c00fa0078
:10488c00889fbe000000eb00400798005f003700d7
:10489c003033230031f32300008fbe004e00900014
:1048ac000000400080007800a080200000804000c4
:1048bc00104078008000fb00800f2000008060001a
:1048cc00300798004e0090000000400080007800f7
:1048dc00a080200000804000104078000000fb0009
:1048ec00670060004501dd004e00900000004000b4
:1048fc008000e800a080200000804000104078007c
:10490c008000fb00000e2000008060004380de0071
:10491c0000007100200798003e009000cf80de0060
:10492c001cef07000004be0002002000f337240037
:10493c001e00be0042ef07000001be000040eb006d
:10494c00304f98000800be0071ef07000000e00037
:10495c0001003c000200370010c0b300304f98003b
:10496c003e4890000004a2000004e0001f003a0042
:10497c002e009000cf80de0006ef07000004be0082
:10498c001e01be000000200001f8230062ef0700aa
:10499c0002002000f337240029ef07000001be00bd
:1049ac000040eb00204f98000800be00b8ef070055
:1049bc000000e000010035000200370010c0b30019
:1049cc00204f98002e4890000004a2000004e00044
:1049dc0006003a00ce009000a080200080804000ad
:1049ec00a0c0b3008048780005003700ce009000ce
:1049fc00a0802000808040000040eb0080487800c0
:104a0c004e0090000000e80040079800ce00900097
:104a1c00f04a2000808f50009dff34004f04be00f0
:104a2c000080fa00000006001600fa00881f7800cb
:104a3c00004b200040079800300020003007980001
:104a4c000000eb00500798000000eb006007980096
:104a5c000000eb00000f780080ff070087ff0700c5
:104a6c000000eb0020079800ab0037000000eb00c3
:104a7c0010079800160037002e0190002e009000b1
:104a8c00000040000e004000e0019000ae009000dd
:104a9c004e0090000088b900800078001e00900045
:104aac0080804000a08020000080400010407800f2
:104abc000000fb0080804100020041000e0040001d
:104acc00610098001e0090000000e800100798009c
:104adc009e0090004e009000808f5000e6ff350045
:104aec002e009000000040008e0040000000eb0003
:104afc00d00098000000eb0010079800140037005d
:104b0c00ae0190002e009000000040000e0040000e
:104b1c00500290002e0090001e0190006300b9001e
:104b2c0002004000800040002080200000804000f7
:104b3c001000780080004200038041000e0040000d
:104b4c00510098001e0090000000e800100798002b
:104b5c009e0090003e009000808f5000e8ff3500d2
:104b6c00ae0190002e009000000040000e004000ae
:104b7c00500090003e019000110009000280d80006
:104b8c0080007800038041000e0040005100980026
:104b9c002e009000000040000e00400060049000c9
:104bac006140b9007bee0700100f9800210f9800b0
:104bbc000800e00007003d000200200003782400fc
:104bcc001e089000ae089000d4ee0700100f98005d
:104bdc00210f98002e009000000040000e004000b5
:104bec00500490006140b9006aee0700700798000d
:104bfc00010f98000800e00007003d0002002000b3
:104c0c00037824007e0090008e089000c3ee07000d
:104c1c0070079800010f9800020020000302240086
:104c2c007e0090008e08900085ee07000001be000b
:104c3c001e089000ae089000b5ee07000000e000e2
:104c4c0001003c000b003700004080000000e00039
:104c5c00060034002e009000000040008e00400042
:104c6c000000eb00e0009800040037001e0fe80085
:104c7c00020037000000eb00000f78003e009000af
:104c8c001007980014003700ae0190001e0290002f
:104c9c00ae0090001e0090000001e9006308b9000e
:104cac000200400080004000208020000080400076
:104cbc00100178006318b900040040008000400027
:104ccc002080200000804000020878001e00900028
:104cdc000000e900100798001e0090000000e000a2
:104cec00e9ff3c00ae0090002e0090000000400058
:104cfc000e004000600190006608b900800078004a
:104d0c002080200000804000020878002e009000d7
:104d1c000000e800200798002e0090000000e00042
:104d2c0052ff34001e0078004f0478000080fa0017
:104d3c00000006000000fa000000eb0091050700df
:104d4c000000eb00520507000000eb00f90507001e
:104d5c000000eb00ed0507000080fa0000000600e3
:104d6c000a00fa00889fbe0030079800410798009f
:104d7c00500020000d0b0700cf80de0005ee070071
:104d8c00a299290093e923002dee07000004be0030
:104d9c0060002000050b0700cf80de00fded070052
:104dac003233230033f3230025ee07000001be004d
:104dbc000800be0059ee07000004be007000200081
:104dcc00fa0a0700cf80de00f2ed07000001be00fa
:104ddc000800be0051ee0700afee07002007980058
:104dec0020002000f10a0700cf80de00e9ed07006b
:104dfc00a299290093e9230011ee07000004be00dc
:104e0c0010002000e90a0700cf80de00e1ed07006a
:104e1c003233230033f3230009ee07000001be00f8
:104e2c000800be003dee07000004be000000eb00d1
:104e3c00de0a0700cf80de00d6ed07000001be00c1
:104e4c000800be0035ee070093ee0700100798002f
:104e5c0060092000000f7800ae0090004038200060
:104e6c00808f5000100034009e00900040382000cd
:104e7c00808f50000c0034001e00ea00be00900031
:104e8c00800878004e0090001e0878006100200019
:104e9c00502e2900120e07001d0e07000000e00026
:104eac00fdff3a001f003700ae0090004038200094
:104ebc00808f50000c0034003e0090001e087800db
:104ecc009e00ea004e00900001087800510020007e
:104edc00c02e2900020e07000d0e07000000e00096
:104eec00fdff3a000f0037009e0090004038200074
:104efc00808f50000b0034001e00ea00be009000b2
:104f0c00800878004e0090001e0878006100200098
:104f1c00202f2900f20d0700fd0d07000000e00016
:104f2c00fdff3a004f04be000080fa0000000600ae
:104f3c000800fa0020079800310798005000200064
:104f4c001007980030002000000f780040408000cf
:104f5c000000e800404088007cd4bf000004e00062
:104f6c000e003200404080009e0f50000b003600b7
:104f7c00ae0090000019200080087800be00900060
:104f8c0000192000800878000040eb007cf4b7008a
:104f9c000000eb0040408800310037007cd4bf009b
:104fac000004e00025003a00414080001e00900003
:104fbc00808f500021003600c4f00700a2002000b2
:104fcc00110009000200d8008000fd0080004000a4
:104fdc00a02f29000080400090007800400620009f
:104fec000088b900800078002e009000010878003d
:104ffc00b6f00700a2002000110009000200d80042
:10500c008000fd0080004000a02f2900008040009f
:10501c0090007800400620000088b90080007800dd
:10502c003e0090000108780010c0b3007cf4b7007b
:10503c000000eb0040408800090037007cd4bf0022
:10504c000004e00006003a00ae00900000192000b9
:10505c0080087800be0090000019200080087800bd
:10506c000080fa00000006001200fa0000092d0072
:10507c00310020005007980061079800e0012000e3
:10508c0020079800500020001007980051fd0700e1
:10509c004006200086f0070071002000e030290057
:1050ac008f0d07009a0d07000000e000fdff3a008d
:1050bc00802520007007980080252000000f9800a4
:1050cc00f00047006e00470099ff0700f000470012
:1050dc006e00470022ff070053fe07000000e000af
:1050ec000a003400f0a380009e00900001004000f4
:1050fc00f0a38800e100200060312900780d070042
:10510c00830d07000000e000fdff3a00f1a38000d2
:10511c002e009000808f5000030034000000eb0044
:10512c00f0a38800bffd07000efd0700000f7800fc
:10513c001e00e00005003a007e00900054040700b9
:10514c000e0890008f04070001003700f9fe0700dd
:10515c00f0a380000000e800f0a388006000b80015
:10516c003007980041079800060037003e00900079
:10517c00ce00900061004000e080480030079800ad
:10518c00410798003e019000ce0190005e00900017
:10519c00ee009000800f5100818f5900f3ff350015
:1051ac00f0a3800030fd070000c2b30024fd07000f
:1051bc00c3ff37000000fa000000370006c2bf0032
:1051cc00614060000004e000fcff3a0006c2bf0032
:1051dc00644060000004e000f8ff3a0006c2bf0023
:1051ec00684060000004e000f4ff3a0006c2bf0013
:1051fc00704060000004e000f0ff3a0009c2bf00fc
:10520c000044b2000004e000ecff3a000080fa0019
:10521c00000006000400fa0060092000201088003d
:10522c0007e2a90007e2a80085c0a90085a0a90093
:10523c00b10920009140780080cfb30000c060001d
:10524c005040b3009be0b7008da0a9000071220074
:10525c0001002000008fbe00040037000080eb002e
:10526c008080eb001e0f40005e9748001e00be00c1
:10527c00e00f5000e08f5800f8ff3a0010002000bb
:10528c000080fa00000006000400fa006000b8007c
:10529c00008fbe0007e2a90085c0a90085a0a90067
:1052ac008da0a9000071220001002000008fbe001b
:1052bc00040037000080eb008080eb001e0f4000e4
:1052cc005e9748001e00be00e00f5000e08f5800b3
:1052dc00f8ff3a00cfff07000f0007000071220013
:1052ec0001002000008fbe00040037000080eb009e
:1052fc008080eb001e0f40005e9748001e00be0031
:10530c00e00f5000e08f5800f8ff3a00100020002a
:10531c000080fa00000006000000fa0085c0a90019
:10532c008dc0a800100020000080fa0000000600cc
:10533c000000fa0085c0a9008dc0a9001000200053
:10534c000080fa00000006000600fa0010c0b3004e
:10535c0062f4b70008c2bf00704060000004e000b7
:10536c00160032000602a800007122000100200085
:10537c00008fbe000a00370062d4bf000004e000ba
:10538c0003003a0010002000200798000d003700a1
:10539c000080eb008080eb001e0f40005e97480001
:1053ac001e00be00e00f5000e08f5800f2ff3a00e4
:1053bc008000eb0021079800020037000000eb0092
:1053cc00200798002e0090000080fa0000000600d4
:1053dc000600fa0060c0b30062f4b70008c2bf0058
:1053ec00684060000004e000160032000622a800ad
:1053fc000071220001002000008fbe000a0037005f
:10540c0062d4bf000004e00003003a00100020004a
:10541c00200798000d0037000080eb008080eb0027
:10542c001e0f40005e9748001e00be00e00f5000ab
:10543c00e08f5800f2ff3a008000eb002107980043
:10544c00020037000000eb00200798002e009000af
:10545c000080fa00000006000600fa0050c0b300fd
:10546c0062f4b7000642a80000712200010020007f
:10547c00008fbe000a00370062d4bf000004e000b9
:10548c0003003a0010002000200798000a003700a3
:10549c000080eb008080eb001e0f40005e97480000
:1054ac001e00be00e00f5000e08f5800f2ff3a00e3
:1054bc008000eb00210798002e0090000080fa007d
:1054cc00000006000600fa0030c0b30062f4b7001a
:1054dc0006c2bf00614060000004e00010003a000a
:1054ec0006c2bf00644060000004e0000c003a00fb
:1054fc0006c2bf00684060000004e00008003a00eb
:10550c0006c2bf00704060000004e00004003a00d6
:10551c0006c2bf00624060000004e00003003200dd
:10552c000000eb00200798001600370006a2a90027
:10553c000682a8000071220001002000008fbe002e
:10554c000a00370062d4bf000004e00003003a00f8
:10555c0011002000210798000a0037000080eb00a2
:10556c008080eb001e0f40005e9748001e00be00be
:10557c00e00f5000e08f5800f2ff3a008000eb0083
:10558c00210798002e0090000080fa000000060011
:10559c000600fa0030c0b30062f4b70006c2bf00c8
:1055ac00614060000004e00010003a0006c2bf0039
:1055bc00644060000004e0000c003a0006c2bf002a
:1055cc00684060000004e00008003a0006c2bf001a
:1055dc00704060000004e00004003a0006c2bf0006
:1055ec00624060000004e000030032000000eb00a9
:1055fc00200798001600370006a2a8000682a80013
:10560c000071220001002000008fbe000a0037004c
:10561c0062d4bf000004e00003003a001100200037
:10562c00210798000a0037000080eb008080eb0017
:10563c001e0f40005e9748001e00be00e00f500099
:10564c00e08f5800f2ff3a008000eb002107980031
:10565c002e0090000080fa00000006000a00fa00fc
:10566c0030079800007122000100200010079800fc
:10567c00210798000040eb00004f780040c0b300b9
:10568c0062f4b7000071220001002000100798009e
:10569c00210798001d00370006c2bf006140600062
:1056ac000004e00013003a0006c2bf006440600032
:1056bc000004e0000f003a0006c2bf006840600022
:1056cc000004e0000b003a0006c2bf00704060000e
:1056dc000004e00007003a0009c2bf000044b20019
:1056ec000004e00003003a0010c0b300004f780043
:1056fc000b0037001e009000ae00900061005000bf
:10570c00e080580010079800210798001e009000b8
:10571c00ae009000e00f5000e08f5800deff3a0022
:10572c001e04e00003003a000000eb004007980064
:10573c001d0037000662a800006a28001100200036
:10574c0010079800210798001000370062d4bf00a2
:10575c000004e00007003a0000c2bf00804078005f
:10576c003e0090000148780010002000400798008f
:10577c000d0037001e009000ae009000610050003c
:10578c00e080580010079800210798001e00900038
:10579c00ae009000e00f5000e08f5800ebff3a0095
:1057ac000000eb00400798004e0090000080fa00cb
:1057bc00000006000800fa004047980020c0b30023
:1057cc0062f4b7004e40900002e2b7000071220074
:1057dc0001002000008fbe000a00370062d4bf0019
:1057ec000004e00003003a0010002000300798008d
:1057fc000a0037000080eb008080eb001e0f400099
:10580c005e9748001e00be00e00f5000e08f58006d
:10581c00f2ff3a008000eb00310798003e00900048
:10582c000080fa0000000600801f78003400f800a9
:10583c0000002000a00188000000fa0085c0a9002b
:10584c000040eb0062f4b7000080fa003400f9006d
:10585c004f007800004006000200fa00004f78006c
:10586c00830a07001e41780031c0b300c0cdb300dd
:10587c00ab0a0700820a07000080fa00000006004d
:10588c000400fa00004f7800114798002247980056
:10589c001e407800f0ff0700750a07002e419000ab
:1058ac009e409000c0cdb3009d0a0700740a07000b
:1058bc000080fa00000006000400fa00204798005f
:1058cc00314798002e409000e3ff0700680a07005c
:1058dc00be409000c0cdb3006d0a0700004f7800a9
:1058ec00670a07001e80fb000080fa00000006001b
:1058fc000200fa00004f78001e41780011c9b30075
:10590c000040eb00deff07000080fa0000000600fc
:10591c000200fa00004f78001e41780081c6b300e7
:10592c0010c0b300d6ff07000080fa00000006008c
:10593c000600fa00004f78001e80fb00200798003c
:10594c0000042000ae009000808f50001a0032003e
:10595c0000082000ae009000808f5000270032001d
:10596c0000022000ae009000808f50000100320039
:10597c003300370010c0b300e5ff07001e4178006c
:10598c0001c8b30010c0b300bdff07001e41780072
:10599c0011c8b30010c0b300b9ff070012c0b300a8
:1059ac0021c8b30010c0b300b5ff07000000eb0026
:1059bc00100798002400370030c0b300d4ff070054
:1059cc001e41780001c8b30010c0b300acff070043
:1059dc001e41780011c8b30010c0b300a8ff070027
:1059ec0012c0b30021c8b30010c0b300a4ff07005d
:1059fc008000eb00110798001300370070c0b30053
:105a0c00c3ff07001e41780001c8b30010c0b300eb
:105a1c009bff07001e41780011c8b30010c0b300f3
:105a2c0097ff070012c0b30021c8b30010c0b30029
:105a3c0093ff07000000eb001007980002003700ee
:105a4c008080eb00110798001e0090000080fa0087
:105a5c00000006000600fa00004f78001e80fb00d4
