:020000040000fa
:080000000001040000000000f3
:020000040000fa
:100200002f67220000792200000188000000000012
:100210000c00070060c3220001002000110007004d
:10022000000020000000e000020032000000020098
:100230000000000078280200000000000040da0002
:100240000000fe004440a900400220000000e00041
:100250000300320000002000a00188004440a800f4
:100260000000060091018800800078000000eb008b
:1002700015003700e280400032a0b4009101ba00be
:10028000e280400032a0b4009102ba00e280400057
:1002900032a0b4000002eb00472bde00f507b200ed
:1002a000602ce10004003a000059eb008301e900f2
:1002b000fdff3e00040037006128e100010032002c
:1002c0000082eb00040007001101ba000200e00008
:1002d000e8ff3a00000006003159ba008301e90046
:1002e0000c0032002159ba008301e90008003200f5
:1002f0000400e00003003a00e280400032a0b400b5
:10030000f5ff370011d9ba008301e900faff3a007e
:100310008100e800e180400032a0b4000000060047
:10032000702f0400000000005430040000000000a2
:10033000301e040000000000889fbe00800478008a
:10034000702381000000e00003003a006e00070007
:100350000000e0000a003500702381000900e00081
:1003600002003a000004780006003700000478001c
:1003700009004000640007000000e00001003d00ab
:100380000084eb00080078004f04be000000060067
:100390000c02e20004003d000f42ab0002003200fc
:1003a0000f02ab00feff32000040da00feff370014
:1003b0000a00fa0011002000b1bf9f00c0bf9f00db
:1003c0006a80570000c0da004fb897000080fa003a
:1003d000000006000a00fa0051002000b1bf9f0093
:1003e000c0bf9f006a80570000c0da005fb8970066
:1003f0000080fa00000006000a00fa004400200015
:10040000b4bf9f00c0bf9f00d2bf9f00e3bf9f004b
:10041000f1bf9f006a80570000c0da005fb8970004
:10042000efb897000080fa00000006000a00fa000a
:1004300080017800e20f500028003e0080238100f8
:10044000e10f500008003200e02120000000e00031
:10045000050032006421200085212000a621200013
:100460008001780004003700c4202000e52020002f
:100470000621200043212000144090000004e000e9
:10048000040035008009eb00144090000074a000c7
:1004900010429800154090000028a30003003a0085
:1004a000154090000024a000904298008001eb00cd
:1004b00007003700154090000008a300fdff320040
:1004c00063c078000000fb00000b78008301e800a7
:1004d000828f5100f7ff3a000800370030002000fb
:1004e000b0bf9f00c3bf9f00d1bf9f00e2bf9f006e
:1004f0006a80570000c0da006fb9970002007800e8
:100500000080fa0000000600800078000000e00093
:1005100004003a002047220070238900010178007e
:10052000060037000081eb0020672200808f50001a
:1005300002003e00712389000001eb0002007800f8
:1005400000000600020ab900001bb9000200b80052
:10055000810042008100430000000600839f680084
:100560000100e00002003d0060001000e080180083
:100570000300e00002003d0060011100e08119006d
:10058000e30007004f00e00002003b0060001000a5
:10059000e080180000000600889fbe008a9fbe0011
:1005a000010578000100e0000400350008003c006f
:1005b0000000e0002000320005003700600010005d
:1005c000e080180002003b0001f02c001a00370008
:1005d0000004be006011b8006b0920000982cf0042
:1005e000020039000882cf000441b0006942520085
:1005f0000e00320008003b0082817100610164003e
:100600008904d1000884d3008b05e8000442e80087
:10061000f9ff3a00050037000804440089844c00c3
:100620008b05e9000442e900fbff3a00c80007001f
:100630000af0a70001f0a0004f05be004f04be0065
:1006400000000600889fbe008a9fbe008c1f7800b5
:10065000e5000700ec00330003866c006450e10005
:10066000240032006420e100270032006150e100e4
:10067000220032006120e100210032008b8542001f
:10068000eb07b1000134b800003ab800080442009a
:1006900089844a00013ab8000030b80088804000e0
:1006a00009014a0004003300000040008180480036
:1006b000020149008b05e900c909dd0083017000d2
:1006c0000100320013002000c814de004814dd00d1
:1006d0004709de001200b200c808de00088470007e
:1006e0009b00070001f0a1000cf0a70001f0a000a2
:1006f000ce0037006120e100d00032000801be00ca
:100700000200be00f7ff37006150e100fcff3a0035
:10071000ca00370003f0a200889fbe008a9fbe0077
:100720008c1f7800b0000700b70033006450e10070
:100730004f0032006420e1005200320003826c005e
:1007400007003b000905d0000306d000820f5400cb
:100750000c065d00020039000200320089017800b9
:10076000030678008582550004003d000003fd006b
:100770008103fd008502ea008b854200840f720030
:1007800002003b0060001000e08018006011b8001b
:100790000005eb007a28e1000a0039000600780025
:1007a000c75ddd00f707b200878075002d003700b8
:1007b000828171000a017800610560008180d100aa
:1007c0000080d3008502e900f9ff3b0006044000e9
:1007d0008784480002003b0060041400e0841c0091
:1007e0000988a300070032008a81710082817100ac
:1007f000610164008904d1000884d3008b05e800fe
:10080000170037000978a30013003a000b00e0003e
:10081000130034008b05e9000804440089844c006f
:100820000a4474000978a3000d003a000b00e000b0
:10083000070034008b05e9000804440089844c005b
:1008400001003a000b0020000978a300f7ff3200f6
:100850000001eb0002003700828171000a0178007c
:100860003b0007000cf0a70001f0a0006f0037006c
:100870006420e10002003a00838f6c006f003300b7
:100880000801be000200be00680037000001be0083
:100890006d0007000470a70003f0a1006509b10016
:1008a000160032000d0035006828e1000600350012
:1008b000f0ff2f00f1ff27000300e00013003b00d2
:1008c0000100280000000500000040008180480071
:1008d0008502e900fcff3a0008003700f88f42006b
:1008e00002003c008000eb00000005008100d10008
:1008f0000080d3008502e800fcff3a000300e0001e
:1009000002003b0060001000e080180000000600bc
:100910006022b800060220000000d0008180d200d2
:100920000482d2008582d2000000a00002025200a0
:1009300083825a00030031000202420083824a008f
:100940000000a1000603e900f3ff3a0000000600e2
:1009500081002000618055000b003d000b0020004d
:1009600061fe2f000100e1001d0034008281710052
:10097000610164008904d1000884d3000000e8000c
:10098000faff3a007100200061006400030070006b
:10099000020060000900320061044400e0844c0061
:1009a0000988a500050032008b05e8006808e10011
:1009b00002003a008904d1000884d300f20f20001d
:1009c0000258e10005003d00c75ddd00f907b200f7
:1009d0008980750008007800000006000bf82700e9
:1009e0008b007800000005000004be001600070020
:1009f0000003be000405be000200be001200070096
:100a0000844f7500000006000200be006450e10043
:100a1000050036006420e100020036000968a300ea
:100a200001003a000800be000160a0004f067800f7
:100a30004f05be004f04be0000000600f0ff2f006f
:100a4000f1ff2700f9ff3700c70ade00f107b20007
:100a5000f50fb20008003200e1cf42000200320080
:100a60000170a00024000500810f70000100320019
:100a70000408050044000500810f700002003a00e0
:100a8000140005008502e9000000400081c0480014
:100a9000fcff3b000170a00024000500881f7800c7
:100aa000000478005001be004000be000400400079
:100ab000858048000601490087814900009cbe00ee
:100ac0000294be000400e1000588e1000690e10008
:100ad0000798e10002003100680044001008e800b7
:100ae0004f04780000000600f4874700889fbe008e
:100af0008a9fbe008c9fbe008e1f78000205be003c
:100b00000004be00d4b79f00e5b79f00f6b79f0072
:100b100087bf9f000000eb00c0b79f00b0b79f00e9
:100b2000a0b79f0090b79f0080b79f000d042000e2
:100b3000bfb097004fb09700000140000000e000f8
:100b40000f003d004f08de0000007100c0b79f009d
:100b50009e00070001003d0012002000a1000700d8
:100b600001003d0012002000a6000700b1000700b0
:100b7000b60007000f004000c8ff07002200370042
:100b80004f08de0000067100ccb79f008f00070001
:100b900001003d00120020009200070001003d000e
:100ba0001200200097000700a20007000fb2970074
:100bb0009fb297002fb39700bfb39700a90007001b
:100bc0000000520081805a0002015b0083815b00bb
:100bd00080b79f0091b79f00a2b79f00b3b79f0057
:100be0000007eb009f0007000020e10001a8e100e2
:100bf00002b0e10003b8e100010031001e00200056
:100c00000e005600c0b79f004fb297000400e000ee
:100c10000700350010002000010020006011b8001e
:100c200008047000898470000a0571008b857100ca
:100c30008d06e900beff3a000400e00003003d001d
:100c4000820007000f00400094ff07004fa89700a4
:100c50000000e00004003a000fb497009fb4970032
:100c60002fb59700bfb59700940007004f07780095
:100c70004f06be004f05be004f04be004f01b1003d
:100c800000000600881f780018002000881f7800e8
:100c900095ff07008f87e9004f04780000000600e9
:100ca000801feb0090ff07008f87e900000006001f
:100cb000889fbe008a9fbe008c1f78006e000700d0
:100cc00007003d0073000700e00f5b00e08f5b0052
:100cd00007003d00320007000006eb00040037006b
:100ce0003400070002003d002a0007001c0020001d
:100cf00072000700e3ff07000203be000002be000f
:100d00000c00e00001003200220007000400be00d9
:100d10000601be004f0678004f05be004f04be001e
:100d200000000600889fbe008a9fbe008c1f7800ce
:100d30005100070005003d0056000700e00f5b0072
:100d4000e08f5b0006003d0004003700190007003b
:100d500003003d006000b8006011b80010000700fb
:100d600056000700ceff07000203be000002be00cf
:100d70000c00e00001003200060007000400be0085
:100d80000601be004f0678004f05be004f04be00ae
:100d9000000006006000b8006011b80000003700d5
:100da00004025000858258000603590087835900c9
:100db000000006000006eb00e00f5200e08f5a0032
:100dc000e00f5b00e08f5b00000006000180400048
:100dd00090b79f000001eb008fb097000100e0008a
:100de000000006000200700090b79f0001804000e4
:100df00080b79f000001eb00ffa897000100e00012
:100e0000000006000200700080b79f0001804000d3
:100e10006faa9700cf20de0001007000f0af9f00a6
:100e200004024200250007004f18de000002720095
:100e300000000600e4af9f000804440089844c00d1
:100e40000a054d008b854d00000006003fb297005b
:100e5000cfb297005fb39700efb3970000fe2f006b
:100e6000000006003fb09700cfb097005fb1970039
:100e7000efb19700000006000205be000004be00ae
:100e8000e00f5000e08f5800e00f5900e08f59004c
:100e9000000006006000b8006011b80008045000af
:100ea000898458000a0559008b8559001c002000d0
:100eb000e00f5200e08f5a00000006000800be005c
:100ec0000a01be00000006000c00fa00889fbe0068
:100ed00000047800cfb09700f0ff2700d0bf9f003c
:100ee0008004eb0099bf9f0088bf9f00a8bf9f00b0
:100ef000200c2000b0bf9f00788157007080570001
:100f0000ed0007000fb89700094878000fb8970068
:100f100008045000080078004f04be000080fa006a
:100f200000000600889fbe008a9fbe008c9fbe0006
:100f300000017800814522001100e0000b003a001a
:100f4000c0452200c0228900a0228900e122890038
:100f5000b1228900214090000004a000a040980028
:100f6000614090000004a000e0409800e7004100cc
:100f7000c208de00c20cdd00b32281002d47220032
:100f8000206722000d05500022002000811f7800fc
:100f9000110009000205d80000067800cf00780093
:100fa000c308dd00e4854000a52281008000eb003d
:100fb0002747220086452200010037008001780083
:100fc000234090000008a300020032000a0037000e
:100fd0009409780013027800244090000008a300d0
:100fe000fbff320009814100820f520002003900ec
:100ff000830f51004300310013007800830f50002d
:10100000eeff3e00870f500002003900860f5000af
:10101000eaff3900858f51004b003a00860f5000df
:1010200049003a008100e800e18f5000e3ff3600fc
:101030008c8f5400040036008a8f54000200310067
:101040000b04780012003700614ab8006151b90002
:10105000b0ff2f00010020000200500083805800e4
:10106000800f5200818f5a00020035000904780079
:10107000070037000d805400526722000200400034
:10108000110009000a80d8000a80b9000004780025
:1010900008007800a8fc070080017800e10f4000fc
:1010a00029003200a222810000097800640041007a
:1010b000a2409000808f5100020032000104a00085
:1010c000010037000104a1002141980088804100ff
:1010d000e480500081097800a12289008245220025
:1010e00082087800214090000004a000a0409800f1
:1010f000234090000004a100a041980082017800e4
:10110000a9ff3700b2228900820f52000800360082
:101110001200780021452200a24290008548780004
:1011200080228900040978000040eb0020419800eb
:1011300082097800234090000004a000a04198009c
:1011400064804100010037000000eb004f06be0044
:101150004f05be004f04be000000060064005000b2
:10116000b0228900a04090000104a1002140980015
:1011700000000600889fbe008a9fbe000005780020
:10118000e401500013001000c285de0023409000ef
:101190000008a30004003200b3228900234090001d
:1011a0000004a100a0419800010078005dff070045
:1011b000000478000000e000170032008a0f5000a1
:1011c0001500320060b8970008005000c284de00ad
:1011d000898f550001003600890578004259dd00ed
:1011e0008a007800080078002f0307008a0f540057
:1011f000090031004248dd00000044008a0f500021
:10120000050036000a0050000000440082228100e0
:10121000932281000288be00080078004f05be00be
:101220004f04be00000006000004780025030700fc
:101230000800780056fc07000100200010238900f8
:101240002123890011c0b300004622000148780024
:1012500000000600024622001204e00006003a00e8
:1012600010002000010020001023890021238900a4
:1012700010c0b30000497800d2e62400631c2400ab
:101280001023810021238100aefc07000001be0075
:1012900090032300010020000200400083804800ea
:1012a00010238900212389004088de00cf80de00e2
:1012b00000f0a10000000600fe874700889fbe00e6
:1012c0008a9fbe008c9fbe008e1f7800f0b79f00e3
:1012d0000107780082bf9f000000eb00b0b79f00bd
:1012e000e60237008006eb0050c2b30080cf50000a
:1012f000090032000100fb00ffb09700ff02070069
:10130000e10f4000dd023200bfb097008100e8002d
:10131000b1b79f00d90237009e407800b0c2b30039
:1013200080cf50001300320007003c006b4050009b
:1013300080cf50000d0032006340400080cf50004d
:1013400013003a000d003700d0c2b30080cf500028
:10135000040032006340400080cf50000c003a008f
:10136000080037000d30a000070037000d00a00076
:10137000050037000d10a000030037000db0a000dd
:10138000010037000d20a0000e07e800e2ff370043
:101390000d18a300010032000d00a1000d38a300bc
:1013a000010032000d20a1000100fb0002fd2f0012
:1013b00002004000e90f50000e003e000002eb006a
:1013c000d4af9f00820178005fae97006a60b900d9
:1013d0001e01fb000001410003014100d2af9f004c
:1013e0005e00fb0003004000e90f50000b003e00d0
:1013f000f5ff37000000eb00d0af9f00a0c2b300a4
:1014000080cf500005003a008fb897004101780066
:1014100081bf9f00d2af9f000e07e8000002eb00e3
:10142000c4b79f00e0c2b3009e4f100018003a00fe
:101430000de0a0008e00e80064405000914f1000c5
:1014400002003200010778000c0037000fbe970041
:101450004c0078008cbf9f00c0b79f000e87e8004b
:101460000b0037004fb297006a20b900000041001e
:1014700003004000c0b79f000e07e8001e01fb00fc
:1014800003fd2f0003004100e90f5000f5ff360077
:10149000be407800e1d79f00c0c6b30080cf5000a7
:1014a000220032000f003c006940500080cf500005
:1014b0007700320004003c000104e00073023200b7
:1014c0006b4050000f00370040c6b30080cf500083
:1014d000930032006540400080cf50008b003a00fe
:1014e0008f00370030c7b30080cf50001a003200a1
:1014f00007003c006440500080cf500011003200d3
:101500000040e80080cf500080003a000f00370014
:1015100050c7b30080cf50008000320063404000cd
:1015200080cf500079003a00090037000000280001
:101530000d48a30001003a000001200080867600db
:10154000d3ff37000d60a000750037000d50a000dc
:101550000d70a000720037000fbe97004c0078009d
:101560008cbf9f00000478000000e00001003a00fa
:10157000684222008004eb00010037008104e8008b
:1015800089007800088044001004e000fbff3a0066
:101590004fb097000000e00003003200890f5000b8
:1015a00001003100800478008000eb00e1af9f0073
:1015b0005fa99700890f5100020036000900510011
:1015c000e0af9f004368de00e10660001b003a00c8
:1015d0000d06780009003700ffb0970000022000d8
:1015e00046020700e10f4000030032003fb29700bf
:1015f0000402e800b4b79f000c06e8006fa897004b
:10160000800f5600f4ff3a008080eb00e1af9f00ae
:101610000a003700880078003100fb0001047800e0
:10162000ffb0970035020700e10f400003003200d1
:101630003fb197000201e800b2b79f000900e9003e
:1016400080047800e10f4000f2ff3a000006eb0052
:101650000d00e0000a003a0008023700ffb09700d2
:101660000002200025020700e10f400003003200c5
:101670003fb297000402e800b4b79f000c06e800f0
:101680006fa89700800f5600f4ff3a00fb01370067
:101690008fb897004100780081bf9f00cf80de00a7
:1016a00001017800820178000205be000004be003e
:1016b0000203be000002be004822de00482edd000c
:1016c00004027600e4d79f000d48a3000a00320010
:1016d0000404e00008003200e14f4200060032003e
:1016e00071fd2f000f8040000448780018409800da
:1016f0002900200002003700f0d79f0019002000c9
:1017000072fd2f000f044100a1ff370064fd2f0080
:101710000f044200190020009dff37000d0cb3009c
:101720000d007800000cb20028003a000d00e00027
:1017300005003d000fbe97004c05be004c04be00e6
:101740008cbf9f00140037000d48a3000b0032002f
:101750000fb997004200be0082bf9f004f89de0094
:10176000cf91de000002be00020378008203780001
:101770000605be000404be00070037000fba97003c
:101780004400780084bf9f0000047800cfc4de00ce
:10179000090578008a057800e00f5400e08f5c00ae
:1017a000e00f5d00e08f5d001f003d003d00b300d5
:1017b0006000b8006011b800080450008984580027
:1017c0000a0559008b855900170037000d00e0000d
:1017d00005003d000fbe97004c05be004c04be0046
:1017e0008cbf9f00100037000d48a3000700320097
:1017f0000fba97004400be0084bf9f006011b8007c
:101800000205be000004be00070037000fbe9700af
:101810004c0078008cbf9f00000478000900200075
:101820000a0020000b0020004fb097000000e000ed
:1018300007003a00e00f5400e08f5c00e00f5d000d
:10184000e08f5d0002003a0011002000c1b79f0048
:101850000d017800020cb200e2b79f0000042000e6
:10186000800f51002d00320003003c000200e00018
:10187000080032003a003700000820006fb29700dd
:10188000800f520014003200000c2000800f520024
:1018900033003a0014c0b300453222000b00370079
:1018a0000400fb004300dd00050040005001be00c5
:1018b0004000be000040e10001c8e10002d0e100ac
:1018c00003d8e100250039000442e800f44f52003b
:1018d000f3ff3a002100370014c0b300452a22006c
:1018e0000b0037000400fb004300dd000500400052
:1018f0005001be004000be000040e10001c8e10010
:1019000002d0e10003d8e100140039000442e800ed
:10191000f04f5200f3ff3a001000370014c0b3003c
:10192000451f22000b0037000400fb004300dd00d0
:10193000050040005001be004000be000040e10034
:1019400001c8e10002d0e10003d8e1000300390042
:101950000442e800f64f5200f3ff3a00e4d79f003c
:101960006fd697000c00fb00cfb09700810f50009e
:1019700002003d00e1d79f00040037004fb19700ff
:10198000800f510001003d00c0b79f005faa970083
:101990000400e000040032006380660002003200b0
:1019a0000402e900d4af9f000de8a3000b00320051
:1019b0005fae97004fb09700800f560003003c00c9
:1019c0008000eb00d1af9f00040037005fa99700b3
:1019d0004fb2970004015100d2af9f00408c20000d
:1019e0000080660001842000810f500006003a004c
:1019f0005fae97000c00e000110032000c06e90019
:101a0000dcaf9f000e003700008c200000806600d5
:101a100001882000810f500009003a005fa897005c
:101a2000e20f500003003c008000eb00d1af9f00ac
:101a3000030037005fa997000281e900d2af9f0041
:101a40006fd297000400fb000006eb00dcb79f009c
:101a5000dfa89700808f5000020034000080500003
:101a6000d0b79f000d28a30053003200e18066002c
:101a70000d18a3000c003200d00220000100e0008d
:101a800001003a000080e900ffb097001b01070049
:101a9000e10f4000270032003fb197000201e8004b
:101aa000b2b79f00230037000100e00009003200b8
:101ab000ffb097000002200010010700e10f400076
:101ac0001c0032003fb297000402e800b4b79f0048
:101ad00018003700008c200000806600018820007c
:101ae000810f500013003a00ffb097000003200060
:101af00002010700e10f4000030032003fb69700eb
:101b00000c06e800bcb79f00800520000d58a3001c
:101b100001003a0080072000ffb09700f70007009f
:101b2000e10f4000030032003fb097000000e800e2
:101b3000b0b79f00dfb097000100e0000f00320057
:101b40000006eb00ffb0970000032000eb00070049
:101b5000e10f4000030032003fb197000201e800ae
:101b6000b2b79f000c06e8005fb29700840f5600e2
:101b7000f4ff3a000006eb00dcb79f004fb097007f
:101b80008000e900c308dd004032220000804000f0
:101b900090b79f00402a22000080400080b79f003d
:101ba000401f220080804000f1af9f008000eb00ca
:101bb000a1b79f009b0037005fb197000200e000d3
:101bc00011003200688066000f003a0000067800bd
:101bd000ffb0970000022000c8000700e10f40009e
:101be000030032003fb297000402e800b4b79f0040
:101bf0000c06e8005fb09700800f5600f4ff3a0033
:101c00008000eb00d1b79f00e18066000d18a300b3
:101c10000c003200d00220000100e00001003a0078
:101c20000080e900ffb09700b4000700e10f40001a
:101c30000e0032003fb197000201e800b2b79f00ea
:101c40000a0037000100e00008003200ffb09700f2
:101c500000022000a9000700e10f4000030032004d
:101c60003fb297000402e800b4b79f00008c200048
:101c70008080660000842000808f500009003a00b8
:101c8000ffb09700000320009c000700e10f400018
:101c9000baff32003fb697000c06e800bcb79f00c1
:101ca000b6ff370000882000808f5000b3ff3a0055
:101cb000ffb097000003200090000700e10f4000f4
:101cc000030032003fb097000000e800b0b79f006b
:101cd000800520000d58a30001003a008007200075
:101ce000ffb0970085000700e10f4000a3ff32001e
:101cf000bfb097008100e800b1b79f009fff370099
:101d0000000420006fb19700800f510027003200bf
:101d100003003c000200e000080032002c00370005
:101d2000000820006fb29700800f520011003200af
:101d3000000c2000800f520025003a001fb69700cb
:101d40003c02be002c03be000800be000a01be001b
:101d5000ccfb0700a4002000050020006033b80081
:101d6000cffb070004c3b30004424000e4d79f0048
:101d700017003700dc4222000d58a30001003a0092
:101d8000ec4322000fb097003002be002003be00db
:101d90000800be000a01be00bafb07006f00600029
:101da0006c467800ecd79f0009003700ffa8970029
:101db0003102be002103be000800be000a01be00c1
:101dc000b0fb0700674060000043b000e0d79f0011
:101dd0006fd197000200fb00ffb09700470007009b
:101de000e10f4000030032003fb297000402e80018
:101df000b4b79f002fb697000c06e800acb79f0061
:101e00001fb097006800500090b79f008fb09700f8
:101e1000e880500081b79f007fa9970068015100ba
:101e2000f2af9f002fb297004fb697008c0f520071
:101e3000b3ff3a000d38a300100032005fb09700e6
:101e40000000e0000d0034000006eb00ffb097003a
:101e50000002200029000700e10f400003003200cb
:101e6000bfb097008100e800b1b79f000c06e80002
:101e70005fb19700820f5600f4ff3a00be40780031
:101e8000e1d79f000104e00016fd3a003fb0970043
:101e90004f0778004f06be004f05be004f04be003e
:101ea000ef01b100000006008001eb0002003700e6
:101eb00061f079008301e800828f5100fcff3a0055
:101ec00000000600881f7800900f81000000e000ed
:101ed0000100320000000100683c22000800780088
:101ee0004f0007006c04440060422200800f540041
:101ef000faff3a004f04780000000600889fbe00f9
:101f00000001780001047800b10090000118a300de
:101f10003d0032000198a30003003a001800900031
:101f20000000e00038003a000190a0003104980061
:101f300082047800f90fb200180090000000e00061
:101f400002003a0028009000000c78003800900051
:101f500000b8a3000600320000a8a300040032006d
:101f6000210020006011b8000800780081000700ff
:101f7000b80090000100780000b0a1003004980083
:101f8000ea8f540005003a000178a30003003a00ec
:101f900088007800d0002000d8ff0700980090004b
:101fa00058009000808f50000b0032000100e800c4
:101fb000100498001800780009587800000c780088
:101fc00011c0b3006046220001487800ea8f540037
:101fd000060032000f0037008800780009407800c2
:101fe000fe000700800478000a00370038009000e7
:101ff0000088a3000600320008007800cd0007002a
:10200000e10f400002003a008084eb00010037003d
:10201000a9002000090078004f04be00000006005f
:10202000889fbe008a1f780000047800300090006e
:10203000630060002400320008007800bd00070043
:102040003805900080ef2f000000650030049800f4
:10205000280090000000e00004003200e804650061
:1020600002003a003001070029049800480090005f
:10207000cff80700e10f400013003200b8009000d5
:102080000102b20010003a000ac8a3001800320092
:10209000502381000000e0001500320000017800ac
:1020a00081047800012a200012289000880f500037
:1020b000070032004205b0004905b000818f54008e
:1020c0000b003200f8ff37000080eb0009003700fa
:1020d00002007800bff8070050238100090040008b
:1020e0008000eb0011289800010078000100370003
:1020f0000000eb004f0578004f04be000000060012
:10210000881f780000047800400090001100200033
:102110006011b800b8f807000001be001800900078
:102120000000e00002003d000000eb0010049800f9
:10213000280090000000e000080032003800900005
:102140000098a3000500320018009000cf80de0048
:10215000020040008380480004003700180090000f
:10216000cf80de0000005100818059004f047800cc
:10217000000006000400fa00889fbe008a9fbe008f
:102180008c1f78000006780092bf9f00a3bf9f00bd
:1021900001047800300090000040a1003006980053
:1021a0002c0090000000e00006003a004c00900077
:1021b00091f80700e10f4000e08f480057003a0017
:1021c00054003700e18f500005003200e28f5000cc
:1021d0000c0032000100e000200032004d0037000a
:1021e0000c007800c6ff07001fb99700afb9970031
:1021f000020140008381480092bf9f00a3bf9f005f
:10220000160037000c0078004a0007004c009000d0
:10221000110020006011b80077f807000005be002b
:102220004c009000880078006011b80072f8070038
:102230000004be004c0090008000eb000a01be00cc
:102240006df807001fba9700afba97000402440068
:1022500085824c0094bf9f00a5bf9f000c007800b2
:10226000a7ff07001fba9700afba970000015200fe
:1022700081815a00030032003c00900000b0a000b1
:10228000300698003c0290000408a3000f003200c2
:10229000620362000d003a00e00f5100e08f590028
:1022a0000a0035009c0290006128b900800f51009f
:1022b000818f590005003c000280520010069800f2
:1022c0001c0e410006007800150037000498a3009a
:1022d000050032001c0090000000e0000200320007
:1022e0000c007800130007008000eb001106980036
:1022f000ac029000050e78004c0090001fb99700ca
:10230000afb997003cf80700e00f5000e08f58008d
:1023100002003d000080eb00010037000000eb00f0
:102320004f0678004f05be004f04be000080fa0043
:1023300000000600881f780000047800300090003c
:102340000008a30007003200800078000120b200de
:1023500004003a0011049800a8009000010c7800d5
:10236000170037000018a300190032000098a300de
:1023700017003200a80090000100e00014003200b5
:10238000180190000200e0001100320048009000a7
:1023900026f8070098009000810f500003003200db
:1023a000380090000003b300300498000000eb00f8
:1023b0001004980028009000000c7800380090006d
:1023c0000058a300020032000080eb00010037003b
:1023d0000000eb004f047800000006000200fa0045
:1023e000889fbe00a0ff9f0001047800310090008c
:1023f000e200600004003a000003b30030049800db
:102400001104980018003700d80490000900e0007b
:102410001a003a006c00600004003a003300070024
:1024200020049800e10f400011003a0029049800b0
:1024300059049800380090000020a0003004980053
:10244000190498004800900012002000e680570010
:10245000f6f70700e10f50001f003200380090002f
:102460000003b300300498000080eb001c0037002c
:1024700000202000500498000a0037001801900046
:10248000a800900048009000e8f70700980090002e
:10249000810f500003003200380090000003b300a9
:1024a00030049800100020001004980028009000cc
:1024b000aff897000148780028009000000ce80071
:1024c000b80090000080eb000158a30004003a001f
:1024d0000190a00031049800aff897000180fb0044
:1024e0004f04be000080fa00000006004123810076
:1024f0000100e00003003200110078004023890051
:1025000003003700002020008bf7070080007800d0
:10251000e18f400002003a00906e2600602389009f
:1025200001007800000006004123810001087800c6
:082530004023890000000600b1
:020000040000fa
:0200000401f009
:04000000e6ff000017
:020000040000fa
:0200000401f009
:04000400ff7f00007a
:020000040000fa
:0200000401f009
:040008007fff000076
:020000040000fa
:0200000401f009
:04001400ffff0000ea
:020000040000fa
:1000080082430000824300008243000082430000d4
:1000180082430000824300008243000082430000c4
:10002800824300008243000082430000ea37000058
:100038008243000082430000b03d0000824300007c
:10004800824300007642000016420000824300000e
:1000580082430000824300008c2500008243000098
:100068008243000082430000824300008243000074
:1000780082430000ee4200001a3e00008243000066
:10008800b2420000b64100008243000082430000f3
:100098008243000082430000824300008243000044
:1000a8008243000082430000824300008243000034
:1000b8008243000082430000824300008243000024
:1000c8008243000082430000824300008243000014
:1000d8008243000082430000824300008243000004
:1000e80082430000824300008243000082430000f4
:0800f800824300008243000076
:020000040000fa
:1001080082430000824300008243000082430000d3
:1001180082430000824300008243000082430000c3
:10012800824300008243000082430000ea37000057
:100138008243000082430000b03d0000824300007b
:10014800824300007642000016420000824300000d
:1001580082430000824300008c2500008243000097
:100168008243000082430000824300008243000073
:1001780082430000ee4200001a3e00008243000065
:10018800b2420000b64100008243000082430000f2
:100198008243000082430000824300008243000043
:1001a8008243000082430000824300008243000033
:1001b8008243000082430000824300008243000023
:1001c8008243000082430000824300008243000013
:1001d8008243000082430000824300008243000003
:1001e80082430000824300008243000082430000f3
:0801f800824300008243000075
:020000040000fa
:10253800fcff0000fdff0000feff0000ffff0000a1
:10254800000000000100000002000000030000007d
:1025580004000000050000006669000072650000c4
:10256800666c00007900000025640000002d000062
:082578002564000000000000d2
:020000040000fa
:102580000200fa00af1607000000eb00000f780011
:102590000d0037009e00e8004095200000804000bc
:1025a00010407800004178009e007800409520009f
:1025b000008040001040780080407800c0cdb3001b
:1025c000cc1607001e8fe8009e007800700d2000da
:1025d000808f5000efff36009e1607000080fa0043
:1025e000000006000200fa00881f78009516070018
:1025f0000000eb00000f78000d0037001e04e8001b
:102600009e00780040952000008040001040780037
:1026100080407800c0cdb30092160700804078005b
:102620004095200000004400014878001e8fe8001b
:102630009e007800700d2000808f5000efff360064
:10264000841607004f0478000080fa00000006009e
:102650000600fa00000f78001e007800200798009e
:102660002e009000e10f50000a0032002e00900072
:10267000e20f50000a0032002e0090000000e0003f
:102680000100320009003700c0c0b30097e9b7006d
:102690000900370080c0b30097e9b7000600370093
:1026a00020c0b30097e9b700030037000080eb00bb
:1026b00010079800020037000000eb001007980098
:1026c0001e0090000080fa00000006000400fa00de
:1026d000000f7800400420009e0f1000060032001a
:1026e000100120009e0f1000030032003003200074
:1026f0009e0f100005003a001e00780087e9b70021
:102700000000eb0010079800020037000080eb008b
:10271000100798001e0090000080fa0000000600dc
:102720000400fa00000f78001e00e00015003200df
:10273000000220009e0f1000120032000003200053
:102740009e0f10000f003200000420009e0f1000aa
:102750000c003200000520009e0f1000090032001e
:10276000000620009e0f1000060032000006200028
:102770009e0f100003003200000120009e0f100089
:1027800005003a001e00780081e9b7000000eb0068
:1027900010079800020037000080eb001007980037
:1027a0001e0090000080fa00000006000a00fa00f7
:1027b0002007980031079800ae0090003e0090007e
:1027c000808f5000030039000080eb004007980024
:1027d0001e003700be00900030382000808f50006f
:1027e000030036000080eb00400798001700370018
:1027f0002e0090000000e900200798002e009000b5
:10280000204798002e0090004800de0030479800d6
:102810003e009000004f78003e0090004800de002f
:10282000104798003e4090005de9b7002e409000b0
:102830005fe9b7001e40900065e9b7001e407800d0
:1028400067e9b7000000eb00400798004e009000d9
:102850000080fa00000006000a00fa002007980035
:1028600031079800ae0090003e009000808f50002d
:10287000030039000080eb00400798001b00370080
:10288000be009000301f2000808f500003003600f3
:102890000080eb0040079800140037002e009000e5
:1028a000204798002e0090004800de003047980036
:1028b0003e009000004f78003e0090004800de008f
:1028c000104798003e40900061e9b7002e4090000c
:1028d00063e9b7001e40900069e9b7001e40780028
:1028e0006be9b7000000eb00400798004e00900035
:1028f0000080fa00000006000e00fa003007980081
:102900004107980052079800be0090004e009000ca
:10291000808f5000030039000080eb0060079800b2
:102920002b003700ce009000301f2000808f500019
:10293000030036000080eb00600798002400370099
:10294000de00900030382000808f500003003600f9
:102950000080eb00600798001d0037003e009000eb
:10296000404798003e0090004800de005047980025
:102970004e009000204798004e0090004800de0076
:10298000304798005e009000104798005e0090006d
:102990004800de00004f78005e409000e5e9b70097
:1029a0004e409000e7e9b7003e409000e9e9b700eb
:1029b0002e409000ebe9b7001e407800ede9b7002b
:1029c0001e409000efe9b7000000eb0060079800a0
:1029d0006e0090000080fa00000006000600fa0079
:1029e00010079800210798001e0090000000e000ea
:1029f000060032002e0090000000e00003003200cc
:102a0000a0ccb300004f78000e0037001e009000ed
:102a10000000e00003003200a0c4b300004f7800c3
:102a2000080037002e0090000000e0000300320094
:102a3000a0c8b300004f780002003700a0c0b30068
:102a4000004f78001e40780083e9b7000080fa004c
:102a5000000006000600fa00204798003147980061
:102a60000000eb00000f7800100037009e00780097
:102a70004095200000804000904078002e4090005b
:102a800080cf500008003a001e00e8004195200069
:102a900001004000be409000014878000000eb00bb
:102aa00020079800070037001e8fe8009e0078007e
:102ab000700d2000808f5000ecff36008080eb000e
:102ac000210798002e0090000080fa000000060008
:102ad0000800fa0020479800210798000000eb004a
:102ae000000f7800110037009e007800409520000c
:102af00000804000904078002e40900080cf500031
:102b000009003a009e00e800409520000080400047
:102b1000904078002e009000014878000000eb0003
:102b200030079800070037001e8fe8009e007800ed
:102b3000700d2000808f5000ebff36000080eb000e
:102b4000300798003e0090000080fa000000060068
:102b50000200fa00004f7800114798001e409000d4
:102b60006de9b7001e4078006fe9b7000080fa00f9
:102b7000000006000800fa00004f78001147980096
:102b8000224798003347980044479800f0c4b300a8
:102b90009e4f1000030036000080eb0030079800c5
:102ba0000c0037001e40780071e9b7001e4090000d
:102bb00073e9b7002e40900075e9b7004e409000d1
:102bc00077e9b7003e40900079e9b7000000eb00dc
:102bd000300798003e0090000080fa0000000600d8
:102be0000400fa00008fbe001e00be004a09dd008e
:102bf0004600de0000007100c608de007de9b70077
:102c00001e00be004209dd004e00de000000710023
:102c1000ce08de007be9b7000040eb007fe9b7009b
:102c20000080fa00000006000200fa00004f780061
:102c30001e40780089e9b7000080fa000000060015
:102c40000200fa00000f78001e00e00005003200cc
:102c500099c9bf0001c8b3000140700099e9b700ed
:102c60000300370099c9bf000074a10099e9b700bb
:102c70000080fa00000006000400fa00004f78000f
:102c800011479800224798001e4078009de9b70040
:102c90001e4090009fe9b7002e409000a1e9b700c8
:102ca0000080fa00000006000200fa00004f7800e1
:102cb000114798001e4078007f4060000045b0003a
:102cc000a3e9b7001e409000a5e9b7000080fa0014
:102cd000000006000600fa0010079800414798001f
:102ce0004e4090000000fb00630060004500dd00e6
:102cf0008040780000c8b30000c040002beab70055
:102d00000000eb00000f78000d0037001e00780077
:102d10000000400032052000000141001e00780044
:102d2000800078001e0090000080400090407800f5
:102d30004095200000004100014878001e0fe80087
:102d40001e007800e10f5000f0ff36000080fa000e
:102d5000000006000000fa00ba1407002bcabf00ea
:102d6000004178002acabf0080407800c0cdb3007f
:102d7000e0140700b7140700c19b200091407800c1
:102d8000a6c9bf00020007000080fa00000006008c
:102d90000600fa0040479800514798000000eb00f9
:102da000000f7800a71407000000eb001007980040
:102db0001f0037009e0090004095200000804000da
:102dc000904078004e40900080cf500015003900b0
:102dd0009e009000409520000080400090407800c8
:102de0005e40900080cf50000e003e001e0090001c
:102df0008000e800409520000080400010407800ee
:102e0000004178009e009000409520000080400026
:102e10001040780080407800c0cdb300b5140700a2
:102e20001e0fe8001e0090000080e80010079800c8
:102e30009e009000700d2000808f5000ddff360056
:102e4000841407001e0078000080fa0000000600cd
:102e50000400fa00100798000000eb00000f780053
:102e60000d0037001e00780000004000b206200070
:102e7000000141001e007800800078001e009000d4
:102e80000080400090407800409520000000410004
:102e9000014878001e0fe8001e007800e10f500086
:102ea000f0ff36000080fa00000006000200fa0081
:102eb000004f7800114798001e407800d1e9b70014
:102ec0001e409000d3e9b7000080fa000000060021
:102ed0000200fa00004f7800114798001e40780069
:102ee000d5e9b7001e409000d7e9b7000080fa008e
:102ef000000006000200fa00004f78001147980019
:102f00001e407800d9e9b7001e409000dbe9b70009
:102f10000080fa00000006000200fa00004f78006e
:102f20001e80fb004400dd006f404000f1e9b70067
:102f30000080fa00000006000200fa00004f78004e
:102f4000114798001e80fb004400dd00804078009f
:102f50001e4090006f40600000c04000f3e9b700e1
:102f60000080fa00000006000200fa00004f78001e
:102f7000114798001e4090000080fb004400dd00d7
:102f8000804078001e4078006f40600000c0400024
:102f9000f5e9b7000080fa00000006000400fa001e
:102fa000008fbe001e00be004088de00cf80de0025
:102fb000f7e9b7001e00be004809dd004800de004a
:102fc00000007100c888de00f9e9b7001e00780033
:102fd000fbe9b7000080fa00000006000200fa00da
:102fe000004f78001e407800fde9b7000080fa002d
:102ff000000006000400fa00000f78001107980096
:103000001e0078004800de0003eab7001e007800ca
:1030100005eab7001e0090004800de0007eab7008e
:103020001e00900009eab7000080fa0000000600c8
:103030000600fa00004f78001147980022479800d8
:103040003347980044479800554798002e40900019
:103050000beab7003e4090000deab7001e40780032
:103060000feab7001e40900011eab7004e409000f2
:1030700013eab7005e40900015eab7000080fa003e
:10308000000006000a00fa00000f780011079800ff
:103090002207980033079800200d20001e0f4000e3
:1030a0001e009000200db000100798002e00900028
:1030b00067004000200798003e0090006700400035
:1030c000300798009e00900020352000808f50002f
:1030d000030036000080eb004007980039003700fd
:1030e000be009000701e2000808f5000030036004c
:1030f0000080eb0040079800320037001e0090006f
:103100009e0f100004003100ae0090003e009000c1
:10311000808f5000030039000080eb0040079800ca
:1031200028003700501a20009e0f10000c003600b7
:103130009e00900090272000808f500008003e00e5
:10314000ae009000700a2000808f5000040036000e
:10315000be00900060142000808f500003003600f5
:103160000080eb0040079800160037001e00780032
:103170004800de0017eab7001e00780019eab70021
:103180001e0090004800de001beab7001e00900001
:103190001deab7002e0090004800de001feab700cd
:1031a0002e00900021eab7003e0090004800de00ab
:1031b00023eab7003e00900025eab7000000eb00cc
:1031c000400798004e0090000080fa0000000600c2
:1031d0000600fa0010079800210798001e009000d2
:1031e0000000e000060032002e0090000000e00029
:1031f00003003200c0c3b300004f78000e00370058
:103200001e0090000000e00003003200c0c2b300c6
:10321000004f7800080037002e0090000000e0000a
:1032200003003200c0c1b300004f78000200370035
:10323000c0c0b300004f78001e40780027eab700f6
:103240000080fa00000006000200fa00000f78007b
:103250001e00e000050032008bc9bf00f1c7b300bb
:10326000014060008be9b700040037008bc9bf0044
:1032700001c8b300014070008be9b7000080fa007c
:10328000000006000400fa00000f78001107980003
:103290001e00e000050032008bc9bf00f1cbb30077
:1032a000014060008be9b700040037008bc9bf0004
:1032b00001c4b300014070008be9b7001e0090000c
:1032c0000000e000050032008bc9bf00f1cdb30063
:1032d000014060008be9b700040037008bc9bf00d4
:1032e00001c2b300014070008be9b7000080fa0012
:1032f000000006000a00fa0081c9bf000080fb0040
:103300004007980000032000ce009000808f5000fe
:103310003100320000032000ce009000808f50006a
:103320000b003c004e009000f00f500022003200d5
:1033300000022000ce009000808f5000220032005a
:103340004e0090000000e000170032003600370009
:1033500000052000ce009000808f50002600320033
:1033600000052000ce009000808f500005003c003a
:1033700000042000ce009000808f50001a00320020
:103380002900370000062000ce009000808f5000fa
:103390001d00320000072000ce009000808f5000fa
:1033a0001d00320020003700000028000107200027
:1033b000008fbe00200037000000200061092000bf
:1033c000008fbe001c003700000024008103200095
:1033d000008fbe001800370000002200c10120004d
:1033e000008fbe001400370000002100e100200023
:1033f000008fbe0010003700008020007100200008
:10340000008fbe000c003700004028003100200073
:10341000008fbe000800370000202c0011002000a3
:10342000008fbe00040037006000b800200798003d
:10343000310798000a00370097c9bf00ec4f5000d1
:1034400004003a001e00be000000400081804800d9
:10345000008fbe001e00be002007980031079800b4
:103460002e009000be0090000080fa0000000600d0
:103470001000fa00200798003107980042079800d2
:1034800053079800640798005e0090000000e00079
:10349000030035005e009000e30f5000030034008d
:1034a0000080eb00700798004e0037006e0090001f
:1034b0000000e000030035006e009000e30f5000b4
:1034c000030034000080eb007007980045003700cf
:1034d00088ff07000002be0084007800606a2000b8
:1034e000000bb8006020b90007017800000141001e
:1034f000606a200000a8b900000141008203780042
:103500002e0090006101b9000600be0013f4070010
:103510001007980077ff07000002be0084007800c3
:10352000606a2000000bb8006020b9000701780035
:1035300000014100606a200000a8b90000014100bc
:10354000820378003e0090006101b9000600be00d1
:1035500002f40700000f78001e0090004800de0013
:103560008fe9b7001e00900091e9b7001e007800b7
:103570004800de0093e9b7001e00780095e9b70027
:103580004e0090000000e000040032008bc9bf0034
:103590000044a0008be9b700040037008bc9bf00ce
:1035a000f1ceb300014060008be9b7006e009000df
:1035b000e34060005e009000630060004200dd00b8
:1035c00000c140008bc9bf008040780000cfb3002d
:1035d00000c06000004041008be9b7000000eb0034
:1035e000700798007e0090000080fa00000006003e
:1035f0000600fa00000f7800110798001e007800fe
:10360000200798002e009000e30f50006700320062
:103610002e009000e30f500007003e002e009000a7
:10362000e10f50002e0032002e009000e10f5000fc
:1036300041003e000d0037002e009000e50f5000c5
:10364000940032002e009000e50f50007400390005
:103650002e009000e60f5000ab0032002e009000cc
:10366000e70f5000c5003200da0037001e0090005e
:10367000e10f50000f003600c4c2bf000080fb0005
:103680004600de00614060000004a200614060006e
:10369000614060004601dd00412c2000914078002f
:1036a000f0cbb30000c0600002407000c4e2b7007d
:1036b0001e0137001e009000614060006140600004
:1036c0004601dd00412c200091407800f0cbb30092
:1036d00000c0600002407000c4e2b7001301370070
:1036e0001e009000e10f50000b003600c4c2bf0066
:1036f0000080fb004700de000004a2006140600083
:10370000c700dd00c4c2bf000074a100014070000a
:10371000c4e2b700050137001e0090006140600060
:10372000c700dd00c4c2bf000074a10001407000ea
:10373000c4e2b700fd0037001e009000e10f50000a
:103740000f003600c5c2bf000080fb000000d100a2
:10375000614060000004a2006140600061406000c0
:1037600000414000512c200091407800d0cfb300a0
:1037700000c0600002407000c5e2b700eb003700f7
:103780001e00900061406000614060000041400008
:10379000512c200091407800d0cfb30000c06000d1
:1037a00002407000c5e2b700e00037001e00900044
:1037b000e10f50000f003600c5c2bf000080fb00c3
:1037c0004400de00614060000004a200614060002f
:1037d000614060004401dd00512c200091407800e0
:1037e000f0ceb30000c0600002407000c5e2b70038
:1037f000ce0037001e009000614060006140600014
:103800004401dd00512c200091407800f0ceb3003f
:1038100000c0600002407000c5e2b700c30037007e
:103820001e009000e10f50000f003600c5c2bf001f
:103830000080fb004200de00614060000004a20046
:1038400061406000614060004201dd00512c2000b9
:1038500091407800b0cfb30000c06000024070001b
:10386000c5e2b700b10037001e0090006140600063
:10387000614060004201dd00512c20009140780041
:10388000b0cfb30000c0600002407000c5e2b700d6
:10389000a60037001e009000e10f50000f00360018
:1038a000c5c2bf000080fb004500de006140600033
:1038b0000004a20061406000614060004501dd003d
:1038c000512c200091407800f0cdb30000c0600082
:1038d00002407000c5e2b700940037001e0090005f
:1038e00061406000614060004501dd00512c200016
:1038f00091407800f0cdb30000c06000024070003d
:10390000c5e2b700890037001e009000e10f5000ab
:103910000f003600c5c2bf000080fb004600de007d
:10392000614060000004a2006140600061406000ee
:103930004601dd00512c200091407800f0cbb3000f
:1039400000c0600002407000c5e2b7007700370099
:103950001e00900061406000614060004601dd0093
:10396000512c200091407800f0cbb30000c06000e3
:1039700002407000c5e2b7006c0037001e009000e6
:10398000e10f50000b003600c5c2bf000080fb00f5
:103990004700de000004a20061406000c700dd00b7
:1039a000c5c2bf000074a10001407000c5e2b700ad
:1039b0005e0037001e00900061406000c700dd001f
:1039c000c5c2bf000074a10001407000c5e2b7008d
:1039d000560037001e00900061406000c700dd0007
:1039e000c5c2bf000074a10001407000c5e2b7006d
:1039f000c5c2bf000080fb004700de0061406000e0
:103a00004601dd00512c200091407800f0cbb3003e
:103a100000c0600002407000c5e2b700c5c2bf0030
:103a20000080fb004600de006140600061406000f5
:103a30004501dd00512c200091407800f0cdb3000d
:103a400000c0600002407000c5e2b700c5c2bf0000
:103a50000080fb004500de006140600061406000c6
:103a60004201dd00512c200091407800b0cfb3001e
:103a700000c0600002407000c5e2b700c5c2bf00d0
:103a80000080fb004200de00614060006140600099
:103a90004401dd00512c200091407800f0ceb300ad
:103aa00000c0600002407000c5e2b700c5c2bf00a0
:103ab0000080fb004400de00614060006140600067
:103ac00000414000512c200091407800d0cfb3003d
:103ad00000c0600002407000c5e2b700c5c2bf0070
:103ae0000080fb000000d10061406000c700dd00e5
:103af000c4c2bf000074a10001407000c4e2b7005e
:103b0000c4c2bf000080fb004700de0061406000cf
:103b10004601dd00412c200091407800f0cbb3003d
:103b200000c0600002407000c4e2b7000080fa00ec
:103b3000000006000000fa00c4c2a900c4e2a90007
:103b4000c522a900c582a900c542a900c5a2a90035
:103b5000c5c2a900c5e2a9000080fa000000060065
:103b60000200fa00000f7800100020009e0f1000e5
:103b70000f003600d0c2bf000080fb004200de0014
:103b8000614060000004a20061406000614060008c
:103b90004201dd00012d200091407800b0cfb3003c
:103ba00000c0600002407000d0e2b7000a00370099
:103bb0001e00780061406000614060004201dd004d
:103bc000012d200091407800b0cfb30000c060000c
:103bd00002407000d0e2b7000080fa00000006004a
:103be0000200fa00000f7800100020009e0f100065
:103bf0000f003600d0c2bf000080fb000000d100e3
:103c0000614060000004a20061406000614060000b
:103c100000414000012d200091407800d0cfb3003a
:103c200000c0600002407000d0e2b7000a00370018
:103c30001e0078006140600061406000004140006b
:103c4000012d200091407800d0cfb30000c060006b
:103c500002407000d0e2b7000080fa0000000600c9
:103c60000000fa00c4c2bf000080fb004600de0076
:103c70006140600000c0ea00614060006140600097
:103c80004601dd00412c200091407800f0cbb300cc
:103c900000c0600002407000c4e2b700c4c2bf00b0
:103ca0000080fb004700de0000c0ea0061406000c9
:103cb000c700dd00c4c2bf000074a1000140700055
:103cc000c4e2b700c5c2bf000080fb000000d10005
:103cd0006140600000c0ea00614060006140600037
:103ce00000414000512c200091407800d0cfb3001b
:103cf00000c0600002407000c5e2b700c5c2bf004e
:103d00000080fb004400de006140600000c0ea006b
:103d100061406000614060004401dd00512c2000e2
:103d200091407800f0ceb30000c060000240700007
:103d3000c5e2b700c5c2bf000080fb004200de0044
:103d40006140600000c0ea006140600061406000c6
:103d50004201dd00512c200091407800b0cfb3002b
:103d600000c0600002407000c5e2b700c5c2bf00dd
:103d70000080fb004500de006140600000c0ea00fa
:103d800061406000614060004501dd00512c200071
:103d900091407800f0cdb30000c060000240700098
:103da000c5e2b700c5c2bf000080fb004600de00d0
:103db0006140600000c0ea00614060006140600056
:103dc0004601dd00512c200091407800f0cbb3007b
:103dd00000c0600002407000c5e2b700c5c2bf006d
:103de0000080fb004700de0000c0ea006140600088
:103df000c700dd00c5c2bf000074a1000140700013
:103e0000c5e2b7000080fa00000006000000fa00da
:103e1000c4c2bf000080fb004600de0061406000bd
:103e200000c0ea0061406000614060004601dd00c2
:103e3000412c200091407800f0cbb30000c060001e
:103e400002407000c4e2b7000080fa0000000600e3
:103e50000000fa00c4c2bf000080fb004700de0083
:103e600000c0ea0061406000c700dd00c4c2bf00be
:103e70000074a10001407000c4e2b7000080fa00a5
:103e8000000006000000fa00c5c2bf000080fb0071
:103e90000000d1006140600000c0ea0061406000a5
:103ea0006140600000414000512c200091407800aa
:103eb000d0cfb30000c0600002407000c5e2b70080
:103ec0000080fa00000006000000fa00c5c2bf0032
:103ed0000080fb004400de006140600000c0ea009a
:103ee00061406000614060004401dd00512c200011
:103ef00091407800f0ceb30000c060000240700036
:103f0000c5e2b7000080fa00000006000000fa00d9
:103f1000c5c2bf000080fb004200de0061406000bf
:103f200000c0ea0061406000614060004201dd00c5
:103f3000512c200091407800b0cfb30000c0600049
:103f400002407000c5e2b7000080fa0000000600e1
:103f50000000fa00c5c2bf000080fb004500de0083
:103f60006140600000c0ea006140600061406000a4
:103f70004501dd00512c200091407800f0cdb300c8
:103f800000c0600002407000c5e2b7000080fa0087
:103f9000000006000000fa00c5c2bf000080fb0060
:103fa0004600de006140600000c0ea006140600041
:103fb000614060004601dd00512c200091407800f6
:103fc000f0cbb30000c0600002407000c5e2b70053
:103fd0000080fa00000006000000fa00c5c2bf0021
:103fe0000080fb004700de0000c0ea006140600086
:103ff000c700dd00c5c2bf000074a1000140700011
:10400000c5e2b7000080fa00000006000200fa00d6
:10401000000f78009e00780000e321000f0e0700db
:104020000080fa00000006000000fa0000e3210012
:104030003a0e07000080fa00000006000200fa00b5
:10404000000f78001e00e000030035009e0078009d
:1040500000e32100590e07000080fa00000006006e
:104060000000fa0022cbbf000004e0000b003a0081
:104070008000eb00700020005dfd070022cbbf0038
:104080000080fb001100200059fd070022cbbf007b
:104090000040e80022ebb7001b00370022cbbf0036
:1040a000e74f50000c003a0022cbbf000080fb001d
:1040b0000000e9008000eb004dfd070022cbbf00af
:1040c0000080fb001100200049fd07000040eb00cc
:1040d00022ebb7000c00370022cbbf000080fb00b2
:1040e0000000e9008000eb0041fd070022cbbf008b
:1040f0000080fb00110020003dfd070022cbbf0027
:104100000040e80022ebb7000080fa000000060043
:104110000200fa0023cbbf000080fb00000f7800f4
:104120001e007800e20f50001c0032001e007800d4
:10413000e20f500007003c001e0078000000e00085
:104140000b0032001e007800e10f50000c0032001e
:10415000230037001e007800e30f500016003200e5
:104160001e007800e40f50001a0032001c003700d7
:10417000210020000000eb001dfd070018003700a3
:10418000210020001000200019fd07002100200060
:104190007000200016fd07001100370021002000ec
:1041a0002000200012fd07002100200060002000f8
:1041b0000ffd07000a00370021002000300020001a
:1041c0000bfd0700210020005000200008fd070023
:1041d00003003700210020004000200004fd0700fc
:1041e00023cbbf00e34f500004003e0023cbbf00b1
:1041f0000040e80023ebb700020037000040eb006e
:1042000023ebb7000080fa00000006000000fa006f
:1042100024cbbf000004e0000f003a002ecbbf000b
:104220000004e0000c00320010c0b30024ebb70023
:104230008000eb000000eb00edfc070024cbbf008a
:104240000080fb0011002000e9fc07000040eb00ab
:104250002eebb7002b00370024cbbf000004e0009a
:104260000f003a002ecbbf000004e0000c003a0023
:1042700070c0b30024ebb7008000eb000000eb003f
:10428000dbfc070024cbbf000080fb0011002000f6
:10429000d7fc070010c0b3002eebb70019003700a1
:1042a00024cbbf00e74f50000a003a000040eb006b
:1042b00024ebb7008000eb0070002000ccfc07006e
:1042c00024cbbf000080fb0011002000c8fc0700c9
:1042d0000c00370024cbbf00e14f500009003a002a
:1042e0000040eb0024ebb7008000eb001000200042
:1042f000bffc070024cbbf000080fb0011002000a2
:10430000bbfc07000080fa00000006000200fa0073
:1043100025cbbf000080fb00000f78001e00780056
:10432000e10f5000150032001e007800e10f500030
:1043300004003c001e0078000000e000080032008d
:104340001a0037001e007800e20f50001200320001
:104350001e007800e30f50001300320013003700f6
:10436000210020000000eb00a1fc0700210020003c
:10437000400020009efc07000c00370021002000b8
:10438000100020009afc07002100200030002000cf
:1043900097fc0700050037002100200020002000c6
:1043a00093fc070001003700e2fd070025cbbf00aa
:1043b000e24f500004003e0025cbbf000040e80063
:1043c00025ebb700020037000040eb0025ebb700fb
:1043d0000080fa00000006000200fa0026cbbf00b1
:1043e0000080fb00000f78001e007800e10f5000f5
:1043f000150032001e007800e10f500004003c0060
:104400001e0078000000e000080032001a003700ab
:104410001e007800e20f5000120032001e007800eb
:10442000e30f50001300320013003700210020007a
:104430000000eb006efc070021002000400020007f
:104440006bfc07000c0037002100200070002000ea
:1044500067fc0700210020005000200064fc0700da
:1044600005003700210020006000200060fc0700ec
:1044700001003700affd070026cbbf00e24f500020
:1044800004003e0026cbbf000040e80026ebb7004a
:10449000020037000040eb0026ebb7000080fa0076
:1044a000000006000000fa000000370006c2bf004e
:1044b000614060000004e000fcff3a0006c2bf005b
:1044c000644060000004e000f8ff3a0006c2bf004c
:1044d000684060000004e000f4ff3a0006c2bf003c
:1044e000704060000004e000f0ff3a0009c2bf0025
:1044f0000044b2000004e000ecff3a000080fa0043
:10450000000006000400fa00600920002010880066
:1045100007e2a90007e2a80085c0a90085a0a900bc
:10452000b10920009140780080cfb30000c0600046
:104530005040b3009be0b7008da0a900007122009d
:1045400001002000008fbe00040037000080eb0057
:104550008080eb001e0f40005e9748001e00be00ea
:10456000e00f5000e08f5800f8ff3a0010002000e4
:104570000080fa00000006000400fa006000b800a5
:10458000008fbe0007e2a90085c0a90085a0a90090
:104590008da0a9000071220001002000008fbe0044
:1045a000040037000080eb008080eb001e0f40000d
:1045b0005e9748001e00be00e00f5000e08f5800dc
:1045c000f8ff3a00cfff07000f000700007122003c
:1045d00001002000008fbe00040037000080eb00c7
:1045e0008080eb001e0f40005e9748001e00be005a
:1045f000e00f5000e08f5800f8ff3a001000200054
:104600000080fa00000006000000fa0085c0a90042
:104610008dc0a800100020000080fa0000000600f5
:104620000000fa0085c0a9008dc0a900100020007c
:104630000080fa00000006000600fa0010c0b30077
:104640000eebb70008c2bf00704060000004e0003d
:10465000160032000602a8000071220001002000ae
:10466000008fbe000a0037000ecbbf000004e00040
:1046700003003a0010002000200798000d003700ca
:104680000080eb008080eb001e0f40005e9748002a
:104690001e00be00e00f5000e08f5800f2ff3a000d
:1046a0008000eb0021079800020037000000eb00bb
:1046b000200798002e0090000080fa0000000600fd
:1046c0000600fa0060c0b3000eebb70008c2bf00de
:1046d000684060000004e000160032000622a800d6
:1046e0000071220001002000008fbe000a00370088
:1046f0000ecbbf000004e00003003a0010002000d1
:10470000200798000d0037000080eb008080eb0050
:104710001e0f40005e9748001e00be00e00f5000d4
:10472000e08f5800f2ff3a008000eb00210798006c
:10473000020037000000eb00200798002e009000d8
:104740000080fa00000006000600fa0050c0b30026
:104750000eebb7000642a800007122000100200005
:10476000008fbe000a0037000ecbbf000004e0003f
:1047700003003a0010002000200798000a003700cc
:104780000080eb008080eb001e0f40005e97480029
:104790001e00be00e00f5000e08f5800f2ff3a000c
:1047a0008000eb00210798002e0090000080fa00a6
:1047b000000006000600fa0030c0b3000eebb700a0
:1047c00006c2bf00614060000004e00010003a0033
:1047d00006c2bf00644060000004e0000c003a0024
:1047e00006c2bf00684060000004e00008003a0014
:1047f00006c2bf00704060000004e00004003a0000
:1048000006c2bf00624060000004e0000300320006
:104810000000eb00200798001600370006a2a90050
:104820000682a8000071220001002000008fbe0057
:104830000a0037000ecbbf000004e00003003a007e
:1048400011002000210798000a0037000080eb00cb
:104850008080eb001e0f40005e9748001e00be00e7
:10486000e00f5000e08f5800f2ff3a008000eb00ac
:10487000210798002e0090000080fa00000006003a
:104880000600fa0030c0b3000eebb70006c2bf004e
:10489000614060000004e00010003a0006c2bf0062
:1048a000644060000004e0000c003a0006c2bf0053
:1048b000684060000004e00008003a0006c2bf0043
:1048c000704060000004e00004003a0006c2bf002f
:1048d000624060000004e000030032000000eb00d2
:1048e000200798001600370006a2a8000682a8003c
:1048f0000071220001002000008fbe000a00370076
:104900000ecbbf000004e00003003a0011002000bd
:10491000210798000a0037000080eb008080eb0040
:104920001e0f40005e9748001e00be00e00f5000c2
:10493000e08f5800f2ff3a008000eb00210798005a
:104940002e0090000080fa00000006000a00fa0025
:104950003007980000712200010020001007980025
:10496000210798000040eb00004f780040c0b300e2
:104970000eebb70000712200010020001007980024
:10498000210798001d00370006c2bf00614060008b
:104990000004e00013003a0006c2bf00644060005b
:1049a0000004e0000f003a0006c2bf00684060004b
:1049b0000004e0000b003a0006c2bf007040600037
:1049c0000004e00007003a0009c2bf000044b20042
:1049d0000004e00003003a0010c0b300004f78006c
:1049e0000b0037001e009000ae00900061005000e8
:1049f000e080580010079800210798001e009000e2
:104a0000ae009000e00f5000e08f5800deff3a004b
:104a10001e04e00003003a000000eb00400798008d
:104a20001d0037000662a800006a2800110020005f
:104a30001007980021079800100037000ecbbf0028
:104a40000004e00007003a0000c2bf008040780088
:104a50003e009000014878001000200040079800b8
:104a60000d0037001e009000ae0090006100500065
:104a7000e080580010079800210798001e00900061
:104a8000ae009000e00f5000e08f5800ebff3a00be
:104a90000000eb00400798004e0090000080fa00f4
:104aa000000006000800fa004047980020c0b3004c
:104ab0000eebb7004e40900002e2b70000712200fa
:104ac00001002000008fbe000a0037000ecbbf009f
:104ad0000004e00003003a001000200030079800b6
:104ae0000a0037000080eb008080eb001e0f4000c2
:104af0005e9748001e00be00e00f5000e08f580097
:104b0000f2ff3a008000eb00310798003e00900071
:104b10000080fa0000000600801f78003400f800d2
:104b200000002000a00188000000fa0085c0a90054
:104b30000040eb000eebb7000080fa003400f900f3
:104b40004f007800004006000000fa00090d070041
:104b5000160020000501200044002000032820004a
:104b6000020f2000010f20000000eb00b50c070031
:104b70001100200010002000de0c0700f40c0700dc
:104b80000080fa00000006000000fa0020b32000b8
:104b90004d0c0700a70c07000000e000fdff3200ed
:104ba0000080fa00000006000200fa000000eb009e
:104bb000000f7800060037009e00780020b3200028
:104bc0000080400010407800470a07001e0fe800f0
:104bd000f02b21009e0f1000f7ff34000080fa0038
:104be000000006000400fa000000eb001007980027
:104bf0000f0037001e009000000040008000780089
:104c000020b32000008040009040780080cfb300a7
:104c100000cf60009e00900020b320000080400084
:104c20001e4878001e0090000000e8001007980061
:104c30009e009000f0952000808f5000edff340022
:104c40000080fa00000006001400fa00000f98002f
:104c5000110f98001e089000e50f50009d003a00cb
:104c6000110020004000200061fa0700001e200013
:104c700020079800e60047000000eb00800878005d
:104c8000e60047000000eb0090009800e6004700b7
:104c90000000eb00a0009800e60047000000eb00d9
:104ca000b0009800e60047000000eb00c00098004c
:104cb000b5ff0700cbff07000000eb0010079800ce
:104cc0003c0037000000eb00000f780012003700b6
:104cd0009e0190001e009000e6004700000040008a
:104ce000608178009e0090002e0090000088b9003e
:104cf0009e00400020b3200000804000104078005b
:104d00000000fb0000014100e60047000380410075
:104d100002b078001e0fe8002e0090009e0f1000d9
:104d2000ebff35009e0190001e00900080004000c7
:104d300020af200000804000900078005059800093
:104d40000088b900000178001e009000e6004700ce
:104d50000000400060807800000141008380410035
:104d600020af200000804000020878009e019000e3
:104d70001e0090008000400020af20000080400016
:104d800090007800505980000001e80011000900ef
:104d90008200d800000178008380410020af20000d
:104da00000804000020878001e0090000000e8002b
:104db000100798001e009000e40f5000c1ff34005f
:104dc000505980000000e800505988000000eb00b6
:104dd00010079800390037001e009000e6004700d9
:104de00000004000608178001e00900080004000bc
:104df00020af20000080400010007800800f51009c
:104e0000130034001e0090008000400080ae20009f
:104e10000080400010007800e10f500006003a00ca
:104e20001e00900066014700800040000000eb007b
:104e3000803079000b0037001e00900066014700ab
:104e4000800040001000200080307900050037000d
:104e50001e00900066014700800040000000eb004b
:104e6000803079001e0190001e009000e60047008f
:104e700000004000e08178008200410080ae200008
:104e800000804000030878001e00900000004000f1
:104e9000800078000e089000008140001e00900005
:104ea000e6004700000040006080780000097800bc
:104eb0001e0090000000e800100798001e009000ff
:104ec000e40f5000c4ff34008000eb0040002000dd
:104ed000c7f907000080fa00000006000800fa0089
:104ee000889fbe0020079800310798000000eb0063
:104ef00015090700cf80de00a7ed0700323323003d
:104f000033f32300cfed07000004be0010002000a3
:104f10000d090700cf80de009fed07000001be00f5
:104f20000800be00fced070058ee070010079800cf
:104f30000000eb0004090700cf80de0096ed0700bb
:104f40003233230033f32300beed07000004be001c
:104f500010002000fc080700cf80de008eed070067
:104f60000001be000800be00ebed070047ee0700a1
:104f7000000f78009e009000803e2000808f50003f
:104f80000900340010c0b30028ebb700ae00900059
:104f9000401f200080087800be0090000000eb0059
:104fa000800878000b003700803e20009e0f100024
:104fb0000800340010c0b30028ebb700ae0090002a
:104fc0000000eb0080087800be009000401f200029
:104fd000800878004f04be000080fa000000060040
:104fe0000800fa00200798003107980050002000c0
:104ff0001007980030002000000f7800e057800074
:105000000000e800e057880028cbbf000004e00063
:105010000e003200e05780009e0f50000b0036005b
:10502000ae0090000019200080087800be009000bb
:1050300000192000800878000040eb0028ebb70042
:105040000000eb00e05788002700370028cbbf00a6
:105050000004e00024003a00e15780001e009000a8
:10506000808f5000200036007af00700a200200058
:10507000110009000200d8008000fd0080004000ff
:10508000c0292900008040009000780040062000e0
:105090000088b900800078002e0090000108780098
:1050a0006cf00700a2002000110009000200d800e7
:1050b0008000fd0080004000c029290000804000e1
:1050c00090007800400620000088b9008000780039
:1050d0003e0090000108780010c0b30028ebb70034
:1050e0000000eb00e05788000080fa000000060096
:1050f0001800fa0000092d00310020003007980048
:1051000041079800190c070040c7bf0061406000cc
:105110000004e000020032004007a9000000fe0089
:10512000b909070052040700620807005e0d070076
:1051300085fe070071002000002b2900dd0c070010
:1051400080252000500798008025200060079800e7
:1051500079090700ec0047006a004700a0ff07003c
:10516000ec0047006a0047005cff07006e00470044
:1051700051002000b4fe070053090700000f78001b
:105180001e00e00005003a005e00900041040700a8
:105190006e0090007c040700010037003f09070003
:1051a0006000b8001007980021079800060037003b
:1051b0001e009000ae00900061004000e0804800ba
:1051c00010079800210798001e019000ae01900082
:1051d0003e009000ce009000800f5100818f59005a
:1051e000f3ff3500dbff37000200fa00004f7800c4
:1051f000940b07001e41780031c0b300c0cdb3004e
:10520000bc0b0700930b07000080fa0000000600ab
:105210000400fa00004f78001147980022479800d8
:105220001e407800f0ff0700860b07002e4190001b
:105230009e409000c0cdb300ae0b0700850b070069
:105240000080fa00000006000400fa0020479800e1
:10525000314798002e409000e3ff0700790b0700cc
:10526000be409000c0cdb3007e0b0700004f780019
:10527000780b07001e80fb000080fa00000006008b
:105280000200fa00004f78001e41780011c9b300f7
:105290000040eb00deff07000080fa00000006007f
:1052a0000200fa00004f78001e41780081c6b3006a
:1052b00010c0b300d6ff07000080fa00000006000f
:1052c0000600fa00004f78001e80fb0020079800bf
:1052d00000042000ae009000808f50001a003200c1
:1052e00000082000ae009000808f500027003200a0
:1052f00000022000ae009000808f500001003200bc
:105300003300370010c0b300e5ff07001e417800ee
:1053100001c8b30010c0b300bdff07001e417800f4
:1053200011c8b30010c0b300b9ff070012c0b3002a
:1053300021c8b30010c0b300b5ff07000000eb00a8
:10534000100798002400370030c0b300d4ff0700d6
:105350001e41780001c8b30010c0b300acff0700c5
:105360001e41780011c8b30010c0b300a8ff0700a9
:1053700012c0b30021c8b30010c0b300a4ff0700df
:105380008000eb00110798001300370070c0b300d5
:10539000c3ff07001e41780001c8b30010c0b3006e
:1053a0009bff07001e41780011c8b30010c0b30076
:1053b00097ff070012c0b30021c8b30010c0b300ac
:1053c00093ff07000000eb00100798000200370071
:1053d0008080eb00110798001e0090000080fa000a
:1053e000000006000600fa00004f78001e80fb0057
:1053f0002007980000042000ae009000808f50002d
:105400001a00320000082000ae009000808f50008b
:105410002700320000022000ae009000808f500074
:1054200001003200330037000040eb009cff070012
:105430001e41780001c8b30010c0b30074ff07001c
:105440001e41780011c8b30010c0b30070ff070000
:1054500012c0b30021c8b30010c0b3006cff070036
:105460000000eb00100798002400370010c0b300c4
:105470008bff07001e41780001c8b30010c0b300c5
:1054800063ff07001e41780011c8b30010c0b300cd
:105490005fff070012c0b30021c8b30010c0b30003
:1054a0005bff07008000eb00110798001300370036
:1054b00030c0b3007aff07001e41780001c8b30076
:1054c00010c0b30052ff07001e41780011c8b3009e
:1054d00010c0b3004eff070012c0b30021c8b300d4
:1054e00010c0b3004aff07000000eb00100798004f
:1054f000020037008080eb00110798001e0090002a
:105500000080fa00000006000600fa00004f780054
:10551000114798001e80fb00200798002e00900085
:10552000e10f50000f0032002e009000e20f5000fb
:10553000140032002e0090000000e0000100320054
:1055400018003700d2c0b30081c3b30010c0b3004d
:105550002fff07001e40900059ff0700100798001a
:105560001200370082c0b30081c3b30010c0b30083
:1055700027ff07001e4090009aff070010079800c1
:105580000a00370022c0b30081c3b30010c0b300cb
:105590001fff07001e40900092ff070010079800b1
:1055a000020037000080eb00100798001e009000fa
:1055b0000080fa00000006000a00fa0020079800a8
:1055c00031079800ae0090003e009000808f5000a0
:1055d000030039000080eb00400798001e003700f0
:1055e000be009000f0312000808f50000300360094
:1055f0000080eb0040079800170037002e00900055
:105600000000e900200798002e0090002047980035
:105610002e0090004800de00304798003e009000c9
:10562000004f78003e0090004800de0010479800d0
:105630002e41900011c5b30010c0b300f4fe070066
:105640003e41900001c5b30010c0b300f0fe07005a
:105650000000eb00400798004e0090000080fa0028
:10566000000006000800fa002007980031079800a3
:105670000000eb000080fa00000006000a00fa00bb
:105680002007980031079800ae0090003e0090007f
:10569000808f5000030039000080eb004007980025
:1056a00023003700be009000301f2000808f500084
:1056b000030036000080eb00400798001c00370014
:1056c0002e009000204798002e0090004800de0039
:1056d000304798003e009000004f78003e00900058
:1056e0004800de00104798003e41900001c6b3001c
:1056f00010c0b300c6fe07002e41900011c6b300d3
:1057000010c0b300c2fe07001e41900021c6b300c6
:1057100010c0b300befe07001e41780031c6b300c2
:1057200010c0b300bafe07000000eb00400798006d
:105730004e0090000080fa00000006000200fa000f
:10574000000f780012c0b300a1c5b30020c0b300a1
:10575000affe070012c4b30021c3b30010c0b300f2
:10576000abfe07001e00e00011003a0000c1eb0094
:1057700081c8b30010c0b300a5fe070000c1eb0054
:1057800091c8b30010c0b300a1fe070082c0b300ef
:10579000a1c8b30010c0b3009dfe070000c1eb001c
:1057a000b1c8b30010c0b30099fe07001000370065
:1057b00002c2b30081c8b30010c0b30094fe07005a
:1057c00002c8b30091c8b30010c0b30090fe070038
:1057d00082c0b300a1c8b30010c0b3008cfe0700a4
:1057e00000c1eb00b1c8b30010c0b30088fe0700d1
:1057f0000080fa00000006000600fa00100798007a
:105800002107980001c9b3000040eb008efe07009d
:10581000004f78001e0090000000e00003003200fe
:1058200000c8b3001e4f700002003700f0c7b3007d
:105830001e4f60002e0090000000e00003003200c8
:1058400000c4b3001e4f700002003700f0cbb3005d
:105850001e4f60001e41780001c9b3000040eb00fc
:0c5860006bfe07000080fa00000006004c
:020000040000fa
:10586c00160b000006000000020000000000000003
:10587c00000000001c0b00000600000002000000ed
:10588c0000000000000000002c0a00004400000092
:10589c0002000000000000000000000000000000fa
:1058ac0000000000000000000000000000000000ec
:1058bc0000000000000000000000000000000000dc
:1058cc0000000000000000000000000000000000cc
:1058dc0000000000000000000000000000000000bc
:1058ec0000000000000000000000000000000000ac
:1058fc00700a0000440000000200000000000000dc
:10590c00000000000000000000000000000000008b
:10591c00000000000000000000000000000000007b
:10592c00000000000000000000000000000000006b
:10593c00000000000000000000000000000000005b
:10594c00000000000000000000000000000000004b
:10595c0000000000000000002c0b00000200000002
:10596c000000000054090000d800000002000000f4
:10597c000403050053060300075308000009d10077
:10598c000a000b00070c03000d510e00010fe7007d
:10599c0012021300021510001640170040184000a8
:1059ac0019401a00031be6001c001d00701e0a00a3
:1059bc001f1b2000443b00004680480060499600b5
:1059cc004a004b007d4c00004e084f000a507000fe
:1059dc0059005a00005b00005cac5d0002760000d0
:1059ec00771a78002a7937007a427b00567c680057
:1059fc007d877e00a37fbc0080d48100ea8e3800b6
:105a0c008fa590000d919300922d93000694830026
:105a1c0095aa96004d97250098259b00009c960012
:105a2c009f80a00080a1b600a29da300aba4800023
:105a3c00a500a60007a70100a8e7a90000aa01007d
:105a4c00ad9fae0022af8c00b007b100ccb200000d
:105a5c00b370b90003bae600bb07bc00ccbd0000b4
