:020000040000fa
:080000000001040000000000f3
:020000040000fa
:10020000afa4200000792200000188000000000057
:100210000c000700602d20000100200011000700e5
:10022000000020000000e000020032000000020098
:10023000000000008c020200000000000040da0014
:100240000000fe004440a900200120000000e00062
:100250000300320000002000a00188004440a800f4
:100260000000060091018800800078000000eb008b
:1002700015003700e280400032a0b4009101ba00be
:10028000e280400032a0b4009102ba00e280400057
:1002900032a0b4000002eb00472bde00f507b200ed
:1002a000602ce10004003a000059eb008301e900f2
:1002b000fdff3e00040037006128e100010032002c
:1002c0000082eb00040007001101ba000200e00008
:1002d000e8ff3a00000006003159ba008301e90046
:1002e0000c0032002159ba008301e90008003200f5
:1002f0000400e00003003a00e280400032a0b400b5
:10030000f5ff370011d9ba008301e900faff3a007e
:100310008100e800e180400032a0b4000000060047
:020000040000fa
:0200000401f009
:04000000e6ff000017
:020000040000fa
:0200000401f009
:04000400ff7f00007a
:020000040000fa
:0200000401f009
:040008007fff000076
:020000040000fa
:0200000401f009
:04001400ffff0000ea
:020000040000fa
:1000080080030000800300008003000080030000dc
:1000180080030000800300008003000080030000cc
:1000280080030000800300008003000080030000bc
:1000380080030000800300008003000080030000ac
:1000480080030000160300002c020000800300005b
:10005800800300008003000080030000800300008c
:10006800800300008003000080030000800300007c
:10007800800300008003000080030000800300006c
:10008800800300008003000080030000800300005c
:10009800800300008003000080030000800300004c
:1000a800800300008003000080030000800300003c
:1000b800800300008003000080030000800300002c
:1000c800800300008003000080030000800300001c
:1000d800800300008003000080030000800300000c
:1000e80080030000800300008003000080030000fc
:0800f8008003000080030000fa
:020000040000fa
:1001080080030000800300008003000080030000db
:1001180080030000800300008003000080030000cb
:1001280080030000800300008003000080030000bb
:1001380080030000800300008003000080030000ab
:1001480080030000160300002c020000800300005a
:10015800800300008003000080030000800300008b
:10016800800300008003000080030000800300007b
:10017800800300008003000080030000800300006b
:10018800800300008003000080030000800300005b
:10019800800300008003000080030000800300004b
:1001a800800300008003000080030000800300003b
:1001b800800300008003000080030000800300002b
:1001c800800300008003000080030000800300001b
:1001d800800300008003000080030000800300000b
:1001e80080030000800300008003000080030000fb
:0801f8008003000080030000f9
:020000040000fa
:100320000c070000007900006f75000020770000c6
:10033000726f0000746500003a2000000020000089
:0403400000000000b9
:020000040000fa
:100344000000fa00c4c2a900c4e2a900c522a900a1
:10035400c582a900c542a900c5a2a900c5c2a900b9
:10036400c5e2a900c0c2a900c0e2a900c122a90037
:10037400c182a900c142a900c1a2a900c1c2a900a9
:10038400c1e2a900d022a900cc22a900d042a90030
:10039400cc42a900e2e2a900e302a900e802a90014
:1003a400e822a900dee2a900df02a900e402a90014
:1003b400e422a900e202a900de02a900d602a900f3
:1003c400d622a900d642a900d662a900d682a900e5
:1003d400d6a2a900d6c2a900d6e2a900d202a900d9
:1003e400d222a900d242a900d262a900d282a900d5
:1003f400d2a2a900d2c2a900d2e2a900d1a2a90026
:10040400cda2a900e842a900e862a900e442a9003b
:10041400e462a900de22a800dec2a800e4c2a800ab
:10042400e4e2a800e502a800e522a800d302a8009f
:10043400d322a800d342a800d362a800d382a80084
:10044400d3a2a800d3c2a800d3e2a8000080fa0077
:10045400000006008540a900809fbe00821f78002e
:100464004808e200150032004408e2001600320099
:100474004608e200140032002142800042002000bd
:100484000f22af00feff3700304280000000e00082
:10049400070032000000e90046a8b70031407800a8
:1004a40010e2b7000201e900f5ff3a00020037004c
:1004b4004428ef0001003700214288004f017800f2
:1004c4004f00be00004006000000200040428800ab
:1004d4004f0178004f00be00004006004808e200cb
:1004e400feff3a008d40a9008100e90031428800f6
:1004f400b04078008110880020428800110020005c
:10050400414288008d40a80000000600404280005f
:10051400000006000600fa0089ff070060000700db
:100524002100200000192800ecff0700000037001c
:10053400490007000000e000fdff3200b100200088
:1005440030192800e5ff0700430007001007980052
:100554000000eb00000f780009003700640047003a
:10056400410007006400470011002000dbff070082
:10057400e6ff07000000e000fdff3a001e0fe80060
:100584001e0090009e0f1000f4ff350011002000a3
:10059400f0192800d1ff0700dcff07000000e0008d
:0805a400fdff3a00e2ff370001
:020000040000fa
:1005ac0044080000060000000200000000000000eb
:1005bc0000000000000800004400000002000000e1
:1005cc00000000000000000000000000000000001f
:1005dc00000000000000000000000000000000000f
:1005ec0000000000000000000000000000000000ff
:1005fc0000000000000000000000000000000000ef
:10060c0000000000000000000000000000000000de
:10061c0000000000000000000000000000000000ce
:020000040000fa
:10062c00809fbe008520a90000428000f003b2002c
:10063c0001802000810040000000eb0012c2bf00ce
:10064c00804878004028ec004f00be0000400600b7
:10065c0000428000114280000100500000000600a2
:10066c0001428000124280000208e10008003200c2
:10067c00f203b20001802000028140009240780019
:10068c00014878004228ec00100020000000060011
:10069c000000eb00000006000c22ef000e22ef0021
:1006ac000ee2a9000ec2a9008520a9008d20a80089
:1006bc000de2a80070002000a01088008540a90061
:1006cc008d40a80081e0a900c0048000f1002f003b
:1006dc00008060000155200000804000c0048800ac
:1006ec000fe2a8000f42a8004028ef004228ef00bc
:0406fc0000000600f4
:020000040000fa
:040700000000fe00f7
:00000001FF
