:020000040000fa
:080000000001040000000000f3
:020000040000fa
:100200006f29210000792200000188000000000011
:100210000c000700e0272200010020001100070069
:10022000000020000000e000020032000000020098
:100230000000000030200200000000000040da0052
:100240000000fe004440a900400020000000e00043
:100250000300320000002000a00188004440a800f4
:100260000000060091018800800078000000eb008b
:1002700015003700e280400032a0b4009101ba00be
:10028000e280400032a0b4009102ba00e280400057
:1002900032a0b4000002eb00472bde00f507b200ed
:1002a000602ce10004003a000059eb008301e900f2
:1002b000fdff3e00040037006128e100010032002c
:1002c0000082eb00040007001101ba000200e00008
:1002d000e8ff3a00000006003159ba008301e90046
:1002e0000c0032002159ba008301e90008003200f5
:1002f0000400e00003003a00e280400032a0b400b5
:10030000f5ff370011d9ba008301e900faff3a007e
:100310008100e800e180400032a0b4000000060047
:100320004c18040000000000301904000000000018
:10033000d810040000000000889fbe0080047800f0
:10034000908480000000e00003003a006100070094
:100350000000e0000a003500908480000900e00001
:1003600002003a000004780006003700000478001c
:1003700009004000570007000000e00001003d00b8
:100380000084eb00080078004f04be000000060067
:100390000c02e20004003d000f42ab0002003200fc
:1003a0000f02ab00feff32000040da00feff370014
:1003b0000a00fa0011002000b1bf9f00c0bf9f00db
:1003c0006a80570000c0da004fb897000080fa003a
:1003d000000006000a00fa0051002000b1bf9f0093
:1003e000c0bf9f006a80570000c0da005fb8970066
:1003f0000080fa00000006000a00fa008001780080
:10040000e20f500028003e00a0848000e10f500061
:1004100008003200e02120000000e000050032006a
:100420006421200085212000a62120008001780081
:1004300004003700c4202000e52020000621200011
:1004400043212000144090000004e0000400350027
:100450008009eb00144090000074a0001042980046
:10046000154090000028a30003003a0015409000ba
:100470000024a000904298008001eb0007003700a4
:10048000154090000008a300fdff320063c0780013
:100490000000fb00000b78008301e800828f510010
:1004a000f7ff3a000800370030002000b0bf9f007f
:1004b000c3bf9f00d1bf9f00e2bf9f006a8057006b
:1004c00000c0da006fb99700020078000080fa00df
:1004d00000000600800078000000e00004003a0000
:1004e000600921009084880001017800060037002f
:1004f0000081eb0060292100808f500002003e0047
:10050000918488000001eb000200780000000600e2
:10051000839f68000100e00002003d0060001000c1
:10052000e08018000300e00002003d0060011100bf
:10053000e0811900050007004f00e00002003b00c9
:1005400060001000e0801800000006006022b80083
:10055000060220000000d0008180d2000482d20078
:100560008582d2000000a0000202520083825a005d
:10057000030031000202420083824a000000a10011
:100580000603e900f3ff3a0000000600889fbe0062
:100590008a9fbe008c9fbe000001780021082100c8
:1005a0001100e0000b003a00600821001084880070
:1005b000f083880031848800018488002140900005
:1005c0000004a000a0409800614090000004a0003a
:1005d000e0409800e7004100c208de00c20cdd00e8
:1005e000038480006d092100602921000d05500061
:1005f00022002000811f7800110009000205d800a8
:1006000000067800cf007800c308dd00e4854000d4
:10061000f58380008000eb00670921002608210097
:100620000100370080017800234090000008a300fb
:10063000020032000a0037009409780013027800a3
:10064000244090000008a300fbff32000981410014
:10065000820f520002003900830f51004300310025
:1006600013007800830f5000eeff3e00870f50000c
:1006700002003900860f5000eaff3900858f5100d3
:100680004b003a00860f500049003a008100e80014
:10069000e18f5000e3ff36008c8f540004003600d9
:1006a0008a8f5400020031000b04780012003700da
:1006b000614ab8006151b900b0ff2f00010020006d
:1006c0000200500083805800800f5200818f5a0032
:1006d0000200350009047800070037000d8054003f
:1006e0009229210002004000110009000a80d80070
:1006f0000a80b90000047800080078000eff0700a7
:1007000080017800e10f400029003200f283800070
:100710000009780064004100a2409000808f5100e1
:10072000020032000104a000010037000104a10012
:100730002141980088804100e480500081097800c0
:10074000f18388002208210082087800214090006f
:100750000004a000a0409800234090000004a100e5
:10076000a041980082017800a9ff37000284880028
:10077000820f52000800360012007800c1072100e5
:10078000a242900085487800d08388000409780050
:100790000040eb002041980082097800234090003f
:1007a0000004a000a04198006480410001003700cf
:1007b0000000eb004f06be004f05be004f04be0018
:1007c000000006006400500000848800a0409000f3
:1007d0000104a1002140980000000600889fbe008f
:1007e0008a9fbe0000057800e4015000130010004d
:1007f000c285de00234090000008a3000400320000
:1008000003848800234090000004a100a0419800c8
:10081000010078005dff0700000478000000e000a0
:10082000170032008a0f50001500320060b89700a0
:1008300008005000c284de00898f55000100360098
:10084000890578004259dd008a00780008007800a8
:10085000130007008a0f5400090031004248dd00f0
:10086000000044008a0f5000050036000a005000c6
:1008700000004400d2838000e38380000288be0031
:10088000080078004f05be004f04be0000000600bf
:10089000000478000900070008007800bcfe07008b
:1008a0008001eb000200370061f079008301e8006d
:1008b000828f5100fcff3a0000000600881f78007c
:1008c000307980000000e0000100320000000100eb
:1008d000a801210008007800060007006c0444000d
:1008e000a0072100800f5400faff3a004f0478005f
:1008f00000000600889fbe008a1f78000004780070
:10090000300090006300600024003200080078008e
:10091000300007003805900080ef2f0000006500d0
:1009200030049800280090000000e000040032002d
:10093000e804650002003a005f00070029049800ff
:10094000480090009afe0700e10f400013003200bb
:10095000b80090000102b20010003a000ac8a300db
:1009600018003200708480000000e00015003200a2
:100970000001780081047800012a200012289000ec
:10098000880f5000070032004205b0004905b00052
:10099000818f54000b003200f8ff37000080eb001d
:1009a00009003700020078008afe0700708480008a
:1009b000090040008000eb00112898000100780039
:1009c000010037000000eb004f0578004f04be0027
:1009d00000000600881f78000004780030009000b6
:1009e0000008a30007003200800078000120b20058
:1009f00004003a0011049800a8009000010c78004f
:100a0000170037000018a300190032000098a30057
:100a100017003200a80090000100e000140032002e
:100a2000180190000200e000110032004800900020
:100a300071fe070098009000810f50000300320003
:100a4000380090000003b300300498000000eb0071
:100a50001004980028009000000c780038009000e6
:100a60000058a300020032000080eb0001003700b4
:100a70000000eb004f047800000006006184800055
:100a80000100e0000300320011007800608488005b
:100a9000030037000020200027fe070080007800b8
:100aa000e18f400002003a00906e260080848800aa
:100ab00001007800000006006184800001087800d1
:080ac0006084880000000600bc
:020000040000fa
:0200000401f009
:04000000e6ff000017
:020000040000fa
:0200000401f009
:04000400ff7f00007a
:020000040000fa
:0200000401f009
:040008007fff000076
:020000040000fa
:0200000401f009
:04001400ffff0000ea
:020000040000fa
:100008008e2800008e2800008e2800008e28000010
:100018008e2800008e2800008e2800008e28000000
:100028008e2800008e2800008e2800008e280000f0
:100038008e2800008e280000142200008e28000060
:100048008e280000ec2700008c2700008e28000076
:100058008e2800008e280000341800008e2800002a
:100068008e2800008e2800008e2800008e280000b0
:100078008e280000282800005e2500008e28000039
:100088008e2800008e2800008e2800008e28000090
:100098008e2800008e2800008e2800008e28000080
:1000a8008e2800008e2800008e2800008e28000070
:1000b8008e2800008e2800008e2800008e28000060
:1000c8008e2800008e2800008e2800008e28000050
:1000d8008e2800008e2800008e2800008e28000040
:1000e8008e2800008e2800008e2800008e28000030
:0800f8008e2800008e28000094
:020000040000fa
:100108008e2800008e2800008e2800008e2800000f
:100118008e2800008e2800008e2800008e280000ff
:100128008e2800008e2800008e2800008e280000ef
:100138008e2800008e280000142200008e2800005f
:100148008e280000ec2700008c2700008e28000075
:100158008e2800008e280000341800008e28000029
:100168008e2800008e2800008e2800008e280000af
:100178008e280000282800005e2500008e28000038
:100188008e2800008e2800008e2800008e2800008f
:100198008e2800008e2800008e2800008e2800007f
:1001a8008e2800008e2800008e2800008e2800006f
:1001b8008e2800008e2800008e2800008e2800005f
:1001c8008e2800008e2800008e2800008e2800004f
:1001d8008e2800008e2800008e2800008e2800003f
:1001e8008e2800008e2800008e2800008e2800002f
:0801f8008e2800008e28000093
:020000040000fa
:080ac8000c0700000000000013
:020000040000fa
:100ad0000200fa00811007000000eb00000f780010
:100ae0000d0037009e00e800409520000080400087
:100af00010407800004178009e007800409520006a
:100b0000008040001040780080407800c0cdb300e5
:100b10009e1007001e8fe8009e007800700d2000d8
:100b2000808f5000efff3600701007000080fa0041
:100b3000000006000200fa00881f78006710070016
:100b40000000eb00000f78000d0037001e04e800e5
:100b50009e00780040952000008040001040780002
:100b600080407800c0cdb30064100700804078005a
:100b70004095200000004400014878001e8fe800e6
:100b80009e007800700d2000808f5000efff36002f
:100b9000561007004f0478000080fa00000006009d
:100ba0000600fa00000f78001e0078002007980069
:100bb0002e009000e10f50000a0032002e0090003d
:100bc000e20f50000a0032002e0090000000e0000a
:100bd0000100320009003700c0c0b30097e9b70038
:100be0000900370080c0b30097e9b700060037005e
:100bf00020c0b30097e9b700030037000080eb0086
:100c000010079800020037000000eb001007980062
:100c10001e0090000080fa00000006000400fa00a8
:100c2000000f7800400420009e0f100006003200e4
:100c3000100120009e0f100003003200300320003e
:100c40009e0f100005003a001e00780087e9b700eb
:100c50000000eb0010079800020037000080eb0056
:100c6000100798001e0090000080fa0000000600a7
:100c70000400fa00000f78001e00e00015003200aa
:100c8000000220009e0f100012003200000320001e
:100c90009e0f10000f003200000420009e0f100075
:100ca0000c003200000520009e0f100009003200e9
:100cb000000620009e0f10000600320000062000f3
:100cc0009e0f100003003200000120009e0f100054
:100cd00005003a001e00780081e9b7000000eb0033
:100ce00010079800020037000080eb001007980002
:100cf0001e0090000080fa00000006000a00fa00c2
:100d00002007980031079800ae0090003e00900048
:100d1000808f5000030039000080eb0040079800ee
:100d20001e003700be00900030382000808f500039
:100d3000030036000080eb004007980017003700e2
:100d40002e0090000000e900200798002e0090007f
:100d5000204798002e0090004800de0030479800a1
:100d60003e009000004f78003e0090004800de00fa
:100d7000104798003e4090005de9b7002e4090007b
:100d80005fe9b7001e40900065e9b7001e4078009b
:100d900067e9b7000000eb00400798004e009000a4
:100da0000080fa00000006000a00fa002007980000
:100db00031079800ae0090003e009000808f5000f8
:100dc000030039000080eb00400798001b0037004b
:100dd000be009000301f2000808f500003003600be
:100de0000080eb0040079800140037002e009000b0
:100df000204798002e0090004800de003047980001
:100e00003e009000004f78003e0090004800de0059
:100e1000104798003e40900061e9b7002e409000d6
:100e200063e9b7001e40900069e9b7001e407800f2
:100e30006be9b7000000eb00400798004e009000ff
:100e40000080fa00000006000e00fa00300798004b
:100e50004107980052079800be0090004e00900095
:100e6000808f5000030039000080eb00600798007d
:100e70002b003700ce009000301f2000808f5000e4
:100e8000030036000080eb00600798002400370064
:100e9000de00900030382000808f500003003600c4
:100ea0000080eb00600798001d0037003e009000b6
:100eb000404798003e0090004800de0050479800f0
:100ec0004e009000204798004e0090004800de0041
:100ed000304798005e009000104798005e00900038
:100ee0004800de00004f78005e409000e5e9b70062
:100ef0004e409000e7e9b7003e409000e9e9b700b6
:100f00002e409000ebe9b7001e407800ede9b700f5
:100f10001e409000efe9b7000000eb00600798006a
:100f20006e0090000080fa00000006000600fa0043
:100f300010079800210798001e0090000000e000b4
:100f4000060032002e0090000000e0000300320096
:100f5000a0ccb300004f78000e0037001e009000b8
:100f60000000e00003003200a0c4b300004f78008e
:100f7000080037002e0090000000e000030032005f
:100f8000a0c8b300004f780002003700a0c0b30033
:100f9000004f78001e40780083e9b7000080fa0017
:100fa000000006000600fa0020479800314798002c
:100fb0000000eb00000f7800100037009e00780062
:100fc0004095200000804000904078002e40900026
:100fd00080cf500008003a001e00e8004195200034
:100fe00001004000be409000014878000000eb0086
:100ff00020079800070037001e8fe8009e00780049
:10100000700d2000808f5000ecff36008080eb00d8
:10101000210798002e0090000080fa0000000600d2
:101020000800fa0020479800210798000000eb0014
:10103000000f7800110037009e00780040952000d6
:1010400000804000904078002e40900080cf5000fb
:1010500009003a009e00e800409520000080400012
:10106000904078002e009000014878000000eb00ce
:1010700030079800070037001e8fe8009e007800b8
:10108000700d2000808f5000ebff36000080eb00d9
:10109000300798003e0090000080fa000000060033
:1010a0000200fa00004f7800114798001e4090009f
:1010b0006de9b7001e4078006fe9b7000080fa00c4
:1010c000000006000800fa00004f78001147980061
:1010d000224798003347980044479800f0c4b30073
:1010e0009e4f1000030036000080eb003007980090
:1010f0000c0037001e40780071e9b7001e409000d8
:1011000073e9b7002e40900075e9b7004e4090009b
:1011100077e9b7003e40900079e9b7000000eb00a6
:10112000300798003e0090000080fa0000000600a2
:101130000400fa00008fbe001e00be004a09dd0058
:101140004600de0000007100c608de007de9b70041
:101150001e00be004209dd004e00de0000007100ee
:10116000ce08de007be9b7000040eb007fe9b70066
:101170000080fa00000006000200fa00004f78002c
:101180001e40780089e9b7000080fa0000000600e0
:101190000200fa00000f78001e00e0000500320097
:1011a00099c9bf0001c8b3000140700099e9b700b8
:1011b0000300370099c9bf000074a10099e9b70086
:1011c0000080fa00000006000400fa00004f7800da
:1011d00011479800224798001e4078009de9b7000b
:1011e0001e4090009fe9b7002e409000a1e9b70093
:1011f0000080fa00000006000200fa00004f7800ac
:10120000114798001e4078007f4060000045b00004
:10121000a3e9b7001e409000a5e9b7000080fa00de
:10122000000006000600fa001007980041479800e9
:101230004e4090000000fb00630060004500dd00b0
:101240008040780000c8b30000c040002beab7001f
:101250000000eb00000f78000d0037001e00780042
:101260000000400032052000000141001e0078000f
:10127000800078001e0090000080400090407800c0
:101280004095200000004100014878001e0fe80052
:101290001e007800e10f5000f0ff36000080fa00d9
:1012a000000006000000fa008c0e07002bcabf00e9
:1012b000004178002acabf0080407800c0cdb3004a
:1012c000b20e0700890e0700c19b200091407800f4
:1012d000a6c9bf00020007000080fa000000060057
:1012e0000600fa0040479800514798000000eb00c4
:1012f000000f7800790e07000000eb00100798003f
:101300001f0037009e0090004095200000804000a4
:10131000904078004e40900080cf5000150039007a
:101320009e00900040952000008040009040780092
:101330005e40900080cf50000e003e001e009000e6
:101340008000e800409520000080400010407800b8
:10135000004178009e0090004095200000804000f1
:101360001040780080407800c0cdb300870e0700a1
:101370001e0fe8001e0090000080e8001007980093
:101380009e009000700d2000808f5000ddff360021
:10139000560e07001e0078000080fa0000000600cc
:1013a0000400fa00100798000000eb00000f78001e
:1013b0000d0037001e00780000004000b20620003b
:1013c000000141001e007800800078001e0090009f
:1013d00000804000904078004095200000004100cf
:1013e000014878001e0fe8001e007800e10f500051
:1013f000f0ff36000080fa00000006000200fa004c
:10140000004f7800114798001e407800d1e9b700de
:101410001e409000d3e9b7000080fa0000000600eb
:101420000200fa00004f7800114798001e40780033
:10143000d5e9b7001e409000d7e9b7000080fa0058
:10144000000006000200fa00004f780011479800e3
:101450001e407800d9e9b7001e409000dbe9b700d4
:101460000080fa00000006000200fa00004f780039
:101470001e80fb004400dd006f404000f1e9b70032
:101480000080fa00000006000200fa00004f780019
:10149000114798001e80fb004400dd00804078006a
:1014a0001e4090006f40600000c04000f3e9b700ac
:1014b0000080fa00000006000200fa00004f7800e9
:1014c000114798001e4090000080fb004400dd00a2
:1014d000804078001e4078006f40600000c04000ef
:1014e000f5e9b7000080fa00000006000400fa00e9
:1014f000008fbe001e00be004088de00cf80de00f0
:10150000f7e9b7001e00be004809dd004800de0014
:1015100000007100c888de00f9e9b7001e007800fd
:10152000fbe9b7000080fa00000006000200fa00a4
:10153000004f78001e407800fde9b7000080fa00f7
:10154000000006000400fa00000f78001107980060
:101550001e0078004800de0003eab7001e00780095
:1015600005eab7001e0090004800de0007eab70059
:101570001e00900009eab7000080fa000000060093
:101580000600fa00004f78001147980022479800a3
:101590003347980044479800554798002e409000e4
:1015a0000beab7003e4090000deab7001e407800fd
:1015b0000feab7001e40900011eab7004e409000bd
:1015c00013eab7005e40900015eab7000080fa0009
:1015d000000006000a00fa00000f780011079800ca
:1015e0002207980033079800200d20001e0f4000ae
:1015f0001e009000200db000100798002e009000f3
:1016000067004000200798003e00900067004000ff
:10161000300798009e00900020352000808f5000f9
:10162000030036000080eb004007980039003700c7
:10163000be009000701e2000808f50000300360016
:101640000080eb0040079800320037001e00900039
:101650009e0f100004003100ae0090003e0090008c
:10166000808f5000030039000080eb004007980095
:1016700028003700501a20009e0f10000c00360082
:101680009e00900090272000808f500008003e00b0
:10169000ae009000700a2000808f500004003600d9
:1016a000be00900060142000808f500003003600c0
:1016b0000080eb0040079800160037001e007800fd
:1016c0004800de0017eab7001e00780019eab700ec
:1016d0001e0090004800de001beab7001e009000cc
:1016e0001deab7002e0090004800de001feab70098
:1016f0002e00900021eab7003e0090004800de0076
:1017000023eab7003e00900025eab7000000eb0096
:10171000400798004e0090000080fa00000006008c
:101720000600fa0010079800210798001e0090009c
:101730000000e000060032002e0090000000e000f3
:1017400003003200c0c3b300004f78000e00370022
:101750001e0090000000e00003003200c0c2b30091
:10176000004f7800080037002e0090000000e000d5
:1017700003003200c0c1b300004f78000200370000
:10178000c0c0b300004f78001e40780027eab700c1
:101790000080fa00000006000200fa00000f780046
:1017a0001e00e000050032008bc9bf00f1c7b30086
:1017b000014060008be9b700040037008bc9bf000f
:1017c00001c8b300014070008be9b7000080fa0047
:1017d000000006000400fa00000f780011079800ce
:1017e0001e00e000050032008bc9bf00f1cbb30042
:1017f000014060008be9b700040037008bc9bf00cf
:1018000001c4b300014070008be9b7001e009000d6
:101810000000e000050032008bc9bf00f1cdb3002d
:10182000014060008be9b700040037008bc9bf009e
:1018300001c2b300014070008be9b7000080fa00dc
:10184000000006000a00fa0081c9bf000080fb000a
:101850004007980000032000ce009000808f5000c9
:101860003100320000032000ce009000808f500035
:101870000b003c004e009000f00f500022003200a0
:1018800000022000ce009000808f50002200320025
:101890004e0090000000e0001700320036003700d4
:1018a00000052000ce009000808f500026003200fe
:1018b00000052000ce009000808f500005003c0005
:1018c00000042000ce009000808f50001a003200eb
:1018d0002900370000062000ce009000808f5000c5
:1018e0001d00320000072000ce009000808f5000c5
:1018f0001d003200200037000000280001072000f2
:10190000008fbe0020003700000020006109200089
:10191000008fbe001c00370000002400810320005f
:10192000008fbe001800370000002200c101200017
:10193000008fbe001400370000002100e1002000ed
:10194000008fbe00100037000080200071002000d2
:10195000008fbe000c00370000402800310020003e
:10196000008fbe000800370000202c00110020006e
:10197000008fbe00040037006000b8002007980008
:10198000310798000a00370097c9bf00ec4f50009c
:1019900004003a001e00be000000400081804800a4
:1019a000008fbe001e00be0020079800310798007f
:1019b0002e009000be0090000080fa00000006009b
:1019c0001000fa002007980031079800420798009d
:1019d00053079800640798005e0090000000e00044
:1019e000030035005e009000e30f50000300340058
:1019f0000080eb00700798004e0037006e009000ea
:101a00000000e000030035006e009000e30f50007e
:101a1000030034000080eb00700798004500370099
:101a200088ff07000002be0084007800606a200082
:101a3000000bb8006020b9000701780000014100e8
:101a4000606a200000a8b90000014100820378000c
:101a50002e0090006101b9000600be00acfa07003c
:101a60001007980077ff07000002be00840078008e
:101a7000606a2000000bb8006020b9000701780000
:101a800000014100606a200000a8b9000001410087
:101a9000820378003e0090006101b9000600be009c
:101aa0009bfa0700000f78001e0090004800de003f
:101ab0008fe9b7001e00900091e9b7001e00780082
:101ac0004800de0093e9b7001e00780095e9b700f2
:101ad0004e0090000000e000040032008bc9bf00ff
:101ae0000044a0008be9b700040037008bc9bf0099
:101af000f1ceb300014060008be9b7006e009000aa
:101b0000e34060005e009000630060004200dd0082
:101b100000c140008bc9bf008040780000cfb300f7
:101b200000c06000004041008be9b7000000eb00fe
:101b3000700798007e0090000080fa000000060008
:101b40000600fa00000f7800110798001e007800c8
:101b5000200798002e009000e30f5000670032002d
:101b60002e009000e30f500007003e002e00900072
:101b7000e10f50002e0032002e009000e10f5000c7
:101b800041003e000d0037002e009000e50f500090
:101b9000940032002e009000e50f500074003900d0
:101ba0002e009000e60f5000ab0032002e00900097
:101bb000e70f5000c5003200da0037001e00900029
:101bc000e10f50000f003600c4c2bf000080fb00d0
:101bd0004600de00614060000004a2006140600039
:101be000614060004601dd00412c200091407800fa
:101bf000f0cbb30000c0600002407000c4e2b70048
:101c00001e0137001e0090006140600061406000ce
:101c10004601dd00412c200091407800f0cbb3005c
:101c200000c0600002407000c4e2b700130137003a
:101c30001e009000e10f50000b003600c4c2bf0030
:101c40000080fb004700de000004a200614060004d
:101c5000c700dd00c4c2bf000074a10001407000d5
:101c6000c4e2b700050137001e009000614060002b
:101c7000c700dd00c4c2bf000074a10001407000b5
:101c8000c4e2b700fd0037001e009000e10f5000d5
:101c90000f003600c5c2bf000080fb000000d1006d
:101ca000614060000004a20061406000614060008b
:101cb00000414000512c200091407800d0cfb3006b
:101cc00000c0600002407000c5e2b700eb003700c2
:101cd0001e009000614060006140600000414000d3
:101ce000512c200091407800d0cfb30000c060009c
:101cf00002407000c5e2b700e00037001e0090000f
:101d0000e10f50000f003600c5c2bf000080fb008d
:101d10004400de00614060000004a20061406000f9
:101d2000614060004401dd00512c200091407800aa
:101d3000f0ceb30000c0600002407000c5e2b70002
:101d4000ce0037001e0090006140600061406000de
:101d50004401dd00512c200091407800f0ceb3000a
:101d600000c0600002407000c5e2b700c300370049
:101d70001e009000e10f50000f003600c5c2bf00ea
:101d80000080fb004200de00614060000004a20011
:101d900061406000614060004201dd00512c200084
:101da00091407800b0cfb30000c0600002407000e6
:101db000c5e2b700b10037001e009000614060002e
:101dc000614060004201dd00512c2000914078000c
:101dd000b0cfb30000c0600002407000c5e2b700a1
:101de000a60037001e009000e10f50000f003600e3
:101df000c5c2bf000080fb004500de0061406000fe
:101e00000004a20061406000614060004501dd0007
:101e1000512c200091407800f0cdb30000c060004c
:101e200002407000c5e2b700940037001e00900029
:101e300061406000614060004501dd00512c2000e0
:101e400091407800f0cdb30000c060000240700007
:101e5000c5e2b700890037001e009000e10f500076
:101e60000f003600c5c2bf000080fb004600de0048
:101e7000614060000004a2006140600061406000b9
:101e80004601dd00512c200091407800f0cbb300da
:101e900000c0600002407000c5e2b7007700370064
:101ea0001e00900061406000614060004601dd005e
:101eb000512c200091407800f0cbb30000c06000ae
:101ec00002407000c5e2b7006c0037001e009000b1
:101ed000e10f50000b003600c5c2bf000080fb00c0
:101ee0004700de000004a20061406000c700dd0082
:101ef000c5c2bf000074a10001407000c5e2b70078
:101f00005e0037001e00900061406000c700dd00e9
:101f1000c5c2bf000074a10001407000c5e2b70057
:101f2000560037001e00900061406000c700dd00d1
:101f3000c5c2bf000074a10001407000c5e2b70037
:101f4000c5c2bf000080fb004700de0061406000aa
:101f50004601dd00512c200091407800f0cbb30009
:101f600000c0600002407000c5e2b700c5c2bf00fb
:101f70000080fb004600de006140600061406000c0
:101f80004501dd00512c200091407800f0cdb300d8
:101f900000c0600002407000c5e2b700c5c2bf00cb
:101fa0000080fb004500de00614060006140600091
:101fb0004201dd00512c200091407800b0cfb300e9
:101fc00000c0600002407000c5e2b700c5c2bf009b
:101fd0000080fb004200de00614060006140600064
:101fe0004401dd00512c200091407800f0ceb30078
:101ff00000c0600002407000c5e2b700c5c2bf006b
:102000000080fb004400de00614060006140600031
:1020100000414000512c200091407800d0cfb30007
:1020200000c0600002407000c5e2b700c5c2bf003a
:102030000080fb000000d10061406000c700dd00af
:10204000c4c2bf000074a10001407000c4e2b70028
:10205000c4c2bf000080fb004700de00614060009a
:102060004601dd00412c200091407800f0cbb30008
:1020700000c0600002407000c4e2b7000080fa00b7
:10208000000006000000fa00c4c2a900c4e2a900d2
:10209000c522a900c582a900c542a900c5a2a90000
:1020a000c5c2a900c5e2a9000080fa000000060030
:1020b0000200fa00000f7800100020009e0f1000b0
:1020c0000f003600d0c2bf000080fb004200de00df
:1020d000614060000004a200614060006140600057
:1020e0004201dd00012d200091407800b0cfb30007
:1020f00000c0600002407000d0e2b7000a00370064
:102100001e00780061406000614060004201dd0017
:10211000012d200091407800b0cfb30000c06000d6
:1021200002407000d0e2b7000080fa000000060014
:102130000200fa00000f7800100020009e0f10002f
:102140000f003600d0c2bf000080fb000000d100ad
:10215000614060000004a2006140600061406000d6
:1021600000414000012d200091407800d0cfb30005
:1021700000c0600002407000d0e2b7000a003700e3
:102180001e00780061406000614060000041400036
:10219000012d200091407800d0cfb30000c0600036
:1021a00002407000d0e2b7000080fa000000060094
:1021b0000000fa00c4c2bf000080fb004600de0041
:1021c0006140600000c0ea00614060006140600062
:1021d0004601dd00412c200091407800f0cbb30097
:1021e00000c0600002407000c4e2b700c4c2bf007b
:1021f0000080fb004700de0000c0ea006140600094
:10220000c700dd00c4c2bf000074a100014070001f
:10221000c4e2b700c5c2bf000080fb000000d100cf
:102220006140600000c0ea00614060006140600001
:1022300000414000512c200091407800d0cfb300e5
:1022400000c0600002407000c5e2b700c5c2bf0018
:102250000080fb004400de006140600000c0ea0036
:1022600061406000614060004401dd00512c2000ad
:1022700091407800f0ceb30000c0600002407000d2
:10228000c5e2b700c5c2bf000080fb004200de000f
:102290006140600000c0ea00614060006140600091
:1022a0004201dd00512c200091407800b0cfb300f6
:1022b00000c0600002407000c5e2b700c5c2bf00a8
:1022c0000080fb004500de006140600000c0ea00c5
:1022d00061406000614060004501dd00512c20003c
:1022e00091407800f0cdb30000c060000240700063
:1022f000c5e2b700c5c2bf000080fb004600de009b
:102300006140600000c0ea00614060006140600020
:102310004601dd00512c200091407800f0cbb30045
:1023200000c0600002407000c5e2b700c5c2bf0037
:102330000080fb004700de0000c0ea006140600052
:10234000c700dd00c5c2bf000074a10001407000dd
:10235000c5e2b7000080fa00000006000000fa00a5
:10236000c4c2bf000080fb004600de006140600088
:1023700000c0ea0061406000614060004601dd008d
:10238000412c200091407800f0cbb30000c06000e9
:1023900002407000c4e2b7000080fa0000000600ae
:1023a0000000fa00c4c2bf000080fb004700de004e
:1023b00000c0ea0061406000c700dd00c4c2bf0089
:1023c0000074a10001407000c4e2b7000080fa0070
:1023d000000006000000fa00c5c2bf000080fb003c
:1023e0000000d1006140600000c0ea006140600070
:1023f0006140600000414000512c20009140780075
:10240000d0cfb30000c0600002407000c5e2b7004a
:102410000080fa00000006000000fa00c5c2bf00fc
:102420000080fb004400de006140600000c0ea0064
:1024300061406000614060004401dd00512c2000db
:1024400091407800f0ceb30000c060000240700000
:10245000c5e2b7000080fa00000006000000fa00a4
:10246000c5c2bf000080fb004200de00614060008a
:1024700000c0ea0061406000614060004201dd0090
:10248000512c200091407800b0cfb30000c0600014
:1024900002407000c5e2b7000080fa0000000600ac
:1024a0000000fa00c5c2bf000080fb004500de004e
:1024b0006140600000c0ea0061406000614060006f
:1024c0004501dd00512c200091407800f0cdb30093
:1024d00000c0600002407000c5e2b7000080fa0052
:1024e000000006000000fa00c5c2bf000080fb002b
:1024f0004600de006140600000c0ea00614060000c
:10250000614060004601dd00512c200091407800c0
:10251000f0cbb30000c0600002407000c5e2b7001d
:102520000080fa00000006000000fa00c5c2bf00eb
:102530000080fb004700de0000c0ea006140600050
:10254000c700dd00c5c2bf000074a10001407000db
:10255000c5e2b7000080fa00000006000200fa00a1
:10256000000f78009e007800800d2100ed06070026
:102570000080fa00000006000000fa00800d210033
:10258000180707000080fa00000006000200fa00a9
:10259000000f78001e00e000030035009e00780068
:1025a000800d2100370707000080fa0000000600b8
:1025b0000000fa0014cbbf000004e0000b003a005a
:1025c0008000eb00700020005dfd070014cbbf0011
:1025d0000080fb001100200059fd070014cbbf0054
:1025e0000040e80014ebb7001b00370014cbbf001d
:1025f000e74f50000c003a0014cbbf000080fb00f6
:102600000000e9008000eb004dfd070014cbbf0087
:102610000080fb001100200049fd07000040eb0096
:1026200014ebb7000c00370014cbbf000080fb0098
:102630000000e9008000eb0041fd070014cbbf0063
:102640000080fb00110020003dfd070014cbbf00ff
:102650000040e80014ebb7000080fa00000006001c
:102660000200fa0015cbbf000080fb00000f7800cd
:102670001e007800e20f50001c0032001e0078009f
:10268000e20f500007003c001e0078000000e00050
:102690000b0032001e007800e10f50000c003200e9
:1026a000230037001e007800e30f500016003200b0
:1026b0001e007800e40f50001a0032001c003700a2
:1026c000210020000000eb001dfd0700180037006e
:1026d000210020001000200019fd0700210020002b
:1026e0007000200016fd07001100370021002000b7
:1026f0002000200012fd07002100200060002000c3
:102700000ffd07000a0037002100200030002000e4
:102710000bfd0700210020005000200008fd0700ed
:1027200003003700210020004000200004fd0700c6
:1027300015cbbf00e34f500004003e0015cbbf0097
:102740000040e80015ebb700020037000040eb0046
:1027500015ebb7000080fa00000006000000fa0048
:1027600016cbbf000004e0000f003a0024cbbf00ee
:102770000004e0000c00320010c0b30016ebb700fc
:102780008000eb000000eb00edfc070016cbbf0063
:102790000080fb0011002000e9fc07000040eb0076
:1027a00024ebb7002b00370016cbbf000004e0007d
:1027b0000f003a0024cbbf000004e0000c003a00f8
:1027c00070c0b30016ebb7008000eb000000eb0018
:1027d000dbfc070016cbbf000080fb0011002000cf
:1027e000d7fc070010c0b30024ebb7001900370076
:1027f00016cbbf00e74f50000a003a000040eb0044
:1028000016ebb7008000eb0070002000ccfc070046
:1028100016cbbf000080fb0011002000c8fc0700a1
:102820000c00370016cbbf00e14f500009003a0002
:102830000040eb0016ebb7008000eb00100020001a
:10284000bffc070016cbbf000080fb00110020007a
:10285000bbfc07000080fa00000006000200fa003e
:1028600017cbbf000080fb00000f78001e0078002f
:10287000e10f5000150032001e007800e10f5000fb
:1028800004003c001e0078000000e0000800320058
:102890001a0037001e007800e20f500012003200cc
:1028a0001e007800e30f50001300320013003700c1
:1028b000210020000000eb00a1fc07002100200007
:1028c000400020009efc07000c0037002100200083
:1028d000100020009afc070021002000300020009a
:1028e00097fc070005003700210020002000200091
:1028f00093fc070001003700e2fd070017cbbf0083
:10290000e24f500004003e0017cbbf000040e8003b
:1029100017ebb700020037000040eb0017ebb700e1
:102920000080fa00000006000200fa0018cbbf0089
:102930000080fb00000f78001e007800e10f5000bf
:10294000150032001e007800e10f500004003c002a
:102950001e0078000000e000080032001a00370076
:102960001e007800e20f5000120032001e007800b6
:10297000e30f500013003200130037002100200045
:102980000000eb006efc070021002000400020004a
:102990006bfc07000c0037002100200070002000b5
:1029a00067fc0700210020005000200064fc0700a5
:1029b00005003700210020006000200060fc0700b7
:1029c00001003700affd070018cbbf00e24f5000f9
:1029d00004003e0018cbbf000040e80018ebb70031
:1029e000020037000040eb0018ebb7000080fa004f
:1029f000000006000000fa000000370006c2bf0019
:102a0000614060000004e000fcff3a0006c2bf0025
:102a1000644060000004e000f8ff3a0006c2bf0016
:102a2000684060000004e000f4ff3a0006c2bf0006
:102a3000704060000004e000f0ff3a0009c2bf00ef
:102a40000044b2000004e000ecff3a000080fa000d
:102a5000000006000400fa00600920002010880031
:102a600007e2a90007e2a80085c0a90085a0a90087
:102a7000b10920009140780080cfb30000c0600011
:102a80005040b3009be0b7008da0a9000071220068
:102a900001002000008fbe00040037000080eb0022
:102aa0008080eb001e0f40005e9748001e00be00b5
:102ab000e00f5000e08f5800f8ff3a0010002000af
:102ac0000080fa00000006000400fa006000b80070
:102ad000008fbe0007e2a90085c0a90085a0a9005b
:102ae0008da0a9000071220001002000008fbe000f
:102af000040037000080eb008080eb001e0f4000d8
:102b00005e9748001e00be00e00f5000e08f5800a6
:102b1000f8ff3a00cfff07000f0007000071220006
:102b200001002000008fbe00040037000080eb0091
:102b30008080eb001e0f40005e9748001e00be0024
:102b4000e00f5000e08f5800f8ff3a00100020001e
:102b50000080fa00000006000000fa0085c0a9000d
:102b60008dc0a800100020000080fa0000000600c0
:102b70000000fa0085c0a9008dc0a9001000200047
:102b80000080fa00000006000600fa0010c0b30042
:102b90000cebb70008c2bf00704060000004e0000a
:102ba000160032000602a800007122000100200079
:102bb000008fbe000a0037000ccbbf000004e0000d
:102bc00003003a0010002000200798000d00370095
:102bd0000080eb008080eb001e0f40005e974800f5
:102be0001e00be00e00f5000e08f5800f2ff3a00d8
:102bf0008000eb0021079800020037000000eb0086
:102c0000200798002e0090000080fa0000000600c7
:102c10000600fa0060c0b3000cebb70008c2bf00aa
:102c2000684060000004e000160032000622a800a0
:102c30000071220001002000008fbe000a00370052
:102c40000ccbbf000004e00003003a00100020009d
:102c5000200798000d0037000080eb008080eb001b
:102c60001e0f40005e9748001e00be00e00f50009f
:102c7000e08f5800f2ff3a008000eb002107980037
:102c8000020037000000eb00200798002e009000a3
:102c90000080fa00000006000600fa0050c0b300f1
:102ca0000cebb7000642a8000071220001002000d2
:102cb000008fbe000a0037000ccbbf000004e0000c
:102cc00003003a0010002000200798000a00370097
:102cd0000080eb008080eb001e0f40005e974800f4
:102ce0001e00be00e00f5000e08f5800f2ff3a00d7
:102cf0008000eb00210798002e0090000080fa0071
:102d0000000006000600fa0030c0b3000cebb7006c
:102d100006c2bf00614060000004e00010003a00fd
:102d200006c2bf00644060000004e0000c003a00ee
:102d300006c2bf00684060000004e00008003a00de
:102d400006c2bf00704060000004e00004003a00ca
:102d500006c2bf00624060000004e00003003200d1
:102d60000000eb00200798001600370006a2a9001b
:102d70000682a8000071220001002000008fbe0022
:102d80000a0037000ccbbf000004e00003003a004b
:102d900011002000210798000a0037000080eb0096
:102da0008080eb001e0f40005e9748001e00be00b2
:102db000e00f5000e08f5800f2ff3a008000eb0077
:102dc000210798002e0090000080fa000000060005
:102dd0000600fa0030c0b3000cebb70006c2bf001b
:102de000614060000004e00010003a0006c2bf002d
:102df000644060000004e0000c003a0006c2bf001e
:102e0000684060000004e00008003a0006c2bf000d
:102e1000704060000004e00004003a0006c2bf00f9
:102e2000624060000004e000030032000000eb009c
:102e3000200798001600370006a2a8000682a80006
:102e40000071220001002000008fbe000a00370040
:102e50000ccbbf000004e00003003a00110020008a
:102e6000210798000a0037000080eb008080eb000b
:102e70001e0f40005e9748001e00be00e00f50008d
:102e8000e08f5800f2ff3a008000eb002107980025
:102e90002e0090000080fa00000006000a00fa00f0
:102ea00030079800007122000100200010079800f0
:102eb000210798000040eb00004f780040c0b300ad
:102ec0000cebb700007122000100200010079800f1
:102ed000210798001d00370006c2bf006140600056
:102ee0000004e00013003a0006c2bf006440600026
:102ef0000004e0000f003a0006c2bf006840600016
:102f00000004e0000b003a0006c2bf007040600001
:102f10000004e00007003a0009c2bf000044b2000c
:102f20000004e00003003a0010c0b300004f780036
:102f30000b0037001e009000ae00900061005000b2
:102f4000e080580010079800210798001e009000ac
:102f5000ae009000e00f5000e08f5800deff3a0016
:102f60001e04e00003003a000000eb004007980058
:102f70001d0037000662a800006a2800110020002a
:102f80001007980021079800100037000ccbbf00f5
:102f90000004e00007003a0000c2bf008040780053
:102fa0003e00900001487800100020004007980083
:102fb0000d0037001e009000ae0090006100500030
:102fc000e080580010079800210798001e0090002c
:102fd000ae009000e00f5000e08f5800ebff3a0089
:102fe0000000eb00400798004e0090000080fa00bf
:102ff000000006000800fa004047980020c0b30017
:103000000cebb7004e40900002e2b70000712200c6
:1030100001002000008fbe000a0037000ccbbf006b
:103020000004e00003003a00100020003007980080
:103030000a0037000080eb008080eb001e0f40008c
:103040005e9748001e00be00e00f5000e08f580061
:10305000f2ff3a008000eb00310798003e0090003c
:103060000080fa0000000600801f78003400f8009d
:1030700000002000a00188000000fa0085c0a9001f
:103080000040eb000cebb7000080fa003400f900c0
:103090004f007800004006000400fa00405880000d
:1030a0000000e0001f003200e157800080da2f00ae
:1030b000808f50001b003500e157800080252000e4
:1030c000808f500017003c00d602a900d622a9002c
:1030d000d642a900d662a9000000eb004058880043
:1030e000e057800000017800120798001e01900050
:1030f0000200e00003003d001e0190000201ea0012
:1031000012079800007122001e01900011000900b2
:103110000200d800ef005000c084210059040700cd
:103120004d003700e05780000000e0000c00340044
:10313000205880000000e8002058880000588000d7
:103140000000e90000588800005880000000e000fe
:103150000e003d0030002000005888000b003700b2
:10316000205880000000e9002058880000588000a6
:103170000000e8000058880000588000e30f50006d
:10318000020034000000eb00005888000058800066
:10319000000f78001e017800e10f5100130032008b
:1031a0001e007800e10f500004003c001e01780072
:1031b0000200e000080032001a0037001e0078000c
:1031c000e20f50000e0032001e017800e30f5100a4
:1031d0001000320013003700d602a900d622a80042
:1031e000d642a900d662a8000e003700d602a90078
:1031f000d622a800d642a800d662a900090037004e
:10320000d602a800d622a900d642a800d662a900fc
:1032100004003700d602a800d622a900d642a90091
:10322000d662a800e157800080da2f00808f50001e
:1032300009003500e157800080252000808f500074
:1032400005003c001000200040588800f1002000dc
:10325000c08421000b0407000080fa000000060073
:103260000400fa00505880000000e0001f00320007
:10327000f157800080da2f00808f50001b0035004e
:10328000f157800080252000808f500017003c00ff
:10329000d682a900d6a2a900d6c2a900d6e2a9006a
:1032a0000000eb0050588800f057800000017800c3
:1032b000120798001e0190000200e00003003d008c
:1032c0001e0190000201ea0012079800007122001e
:1032d0001e019000110009000200d800ef0050000c
:1032e00000932100e70307004d003700f0578000ee
:1032f0000000e0000c003d00305880000000e900b4
:1033000030588800105880000000e90010588800ec
:10331000105880000000e0000e003d00300020004a
:10332000105888000b003700305880000000e8007b
:1033300030588800105880000000e80010588800bd
:1033400010588000e30f5000020034000000eb0032
:103350001058880010588000000f78001e01780077
:10336000e10f5100130032001e007800e10f500001
:1033700004003c001e0178000200e000080032005a
:103380001a0037001e007800e20f50000e003200d5
:103390001e017800e30f51001000320013003700c7
:1033a000d682a900d6a2a800d6c2a900d6e2a8005b
:1033b0000e003700d682a900d6a2a800d6c2a80067
:1033c000d6e2a90009003700d682a800d6a2a9003b
:1033d000d6c2a800d6e2a90004003700d682a80011
:1033e000d6a2a900d6c2a900d6e2a800f157800053
:1033f00080da2f00808f500009003500f1578000df
:1034000080252000808f500005003c001000200027
:1034100050588800f1002000009321009903070014
:103420000080fa00000006000000fa008000eb00b7
:10343000c08421003b0307008000eb0000932100c3
:10344000380307000080fa00000006000200fa00be
:10345000000f78001e00e0000a003a000000eb00b8
:10346000e05788008000eb00c0842100850307003e
:10347000d602a900d622a900d642a900d662a90088
:103480002d00370080c12f009e0f10000a003d0064
:1034900080c12f00e0578800e2578000008f2d0088
:1034a000110009000200d80080007800c0842100cb
:1034b0007403070020003700803e20009e0f10009c
:1034c0000a003400803e2000e0578800e257800068
:1034d00000712200110009000200d800800078006d
:1034e000c084210067030700130037001e00780026
:1034f000e05788001e00e00008003d00008f2d000e
:103500001e017800110009000200d8008000780038
:10351000c08421005b030700070037000071220010
:103520001e017800110009000200d8008000780018
:10353000c0842100530307000080fa000000060049
:103540000200fa00000f78001e00e0000a003a00b6
:103550000000eb00f05788008000eb000093210092
:1035600048030700d682a900d6a2a900d6c2a900a6
:10357000d6e2a9002d00370080c12f009e0f100059
:103580000a003d0080c12f00f0578800f2578000ec
:10359000008f2d00110009000200d8008000780083
:1035a000009321003703070020003700803e2000f1
:1035b0009e0f10000a003400803e2000f057880063
:1035c000f257800000712200110009000200d800ab
:1035d00080007800009321002a03070013003700c1
:1035e0001e007800f05788001e00e00008003d0033
:1035f000008f2d001e017800110009000200d80084
:1036000080007800009321001e03070007003700a8
:10361000007122001e017800110009000200d8008c
:103620008000780000932100160307000080fa0054
:10363000000006000800fa00000f7800110798004b
:103640001e007800300798003e0190000200e00064
:1036500003003d003e0090000000ea0030079800a3
:103660001e019000220798002e0090000000e0004c
:1036700003003d002e0190000201ea00220798009d
:103680003e0090002e01900082004000803e20000d
:10369000808f500006003c001e0090001e001000ad
:1036a0006aff07001e0090001e004000a4ff0700f4
:1036b0000080fa00000006000000fa002058800098
:1036c0000080fa00000006000200fa00000f7800f7
:1036d0001e007800205888000080fa0000000600d4
:1036e0000000fa00305880000080fa000000060058
:1036f0000200fa00000f78001e00780030588800a1
:103700000080fa00000006002200fa00700798000e
:10371000010f9800120f9800230f9800340f9800a3
:10372000450f9800560f98007e009000200db000c5
:10373000700798000e08900067004000000f980086
:103740004e0890000000e000030032003e089000a8
:103750000000e00003003a000080eb00600f9800da
:1037600004013700fe0090001e0890008080400099
:1037700020352000808f5000030036008080eb0051
:10378000610f9800fb0037008e0890002e08900013
:1037900080804000701e2000808f500003003600a3
:1037a0000080eb00600f9800f20037001e089000c8
:1037b0003e099000110009000280d8008000fd0041
:1037c0000000e000030032008080eb00610f9800f1
:1037d000e80037002e0890004e0990001100090003
:1037e0000280d8008000fd000000e00003003200ed
:1037f0000080eb00600f9800de0037004e0890005c
:10380000630060000000e00033003a003e089000d2
:10381000630060000000e0000f003a003003200069
:10382000000f78004e0890004200de00200798004c
:103830003e0890004200de00100798000e0890003d
:1038400064005000000f98007e009000640050005b
:1038500070079800500037003e089000610060003b
:103860000000e0000f003a0010012000000f780077
:103870004e0890000000d100200798003e089000fc
:103880000000d100100798000e0890000080e900a9
:10389000000f98007e0090000080e90070079800fb
:1038a0003d00370040042000000f7800ce08900053
:1038b000210798003e089000100798000e0890001d
:1038c0000000e900000f98007e0090000000e90071
:1038d00070079800300037004e08900061006000cb
:1038e0000000e00020003a003e0890006100600007
:1038f0000000e0000f003a0010012000000f7800e7
:103900004e0890000000d100200798003e0890006b
:103910000000d100100798000e0890000080e90018
:10392000000f98007e0090000080e900700798006a
:103930001900370040042000000f7800ce089000e6
:10394000210798003e089000100798000e0890008c
:103950000000e900000f98007e0090000000e900e0
:10396000700798000c00370040042000000f78001a
:10397000be089000110798004e089000200798009c
:103980000e0890000000e900000f98007e009000f3
:103990000000e900700798001e0090000000e90098
:1039a000500798002e0090000000e9006007980082
:1039b0001e0890003e099000110009000280d80006
:1039c000400798002e0890004e0990001100090051
:1039d0000280d800300798005e08900070f407005d
:1039e0000000e000030032008080eb00610f9800cf
:1039f000600037001e00780088f407000000e00037
:103a0000030032000080eb00600f9800590037007f
:103a10005e0890000000e00017003a009e00780069
:103a2000710f980030032000fe089000808f500036
:103a30000e00320040042000fe089000808f5000ed
:103a4000040032007e089000f10f500004003200a4
:103a50001f0037000003200085f407001c0037001a
:103a60000002200082f40700190037000000eb007c
:103a70007ff40700160037009e00780001179800b9
:103a8000300320008e109000808f50000e00320016
:103a9000400420008e109000808f500004003200ff
:103aa0000e109000f10f50000400320008003700a3
:103ab000000420006ef4070005003700000320001a
:103ac0006bf40700020037000002200068f40700d2
:103ad000313520007e00900088f407000000e000ef
:103ae000030032008080eb00610f98002100370056
:103af000811e20000e089000abf407000000e000db
:103b0000030032000080eb00600f980019003700be
:103b10007e0090000001e800711e20000e08900059
:103b2000c9f407000000e000030032008080eb00d1
:103b3000610f98000f0037005e089000100007002a
:103b4000000178006e029000de019000ce0090002f
:103b50003e0090000a0407000000e000030032006d
:103b60000080eb00600f9800020037008000eb003f
:103b7000610f98006e0890000080fa0000000600b7
:103b80000600fa00000f78001e0078002007980059
:103b90002e009000e10f50000a0032002e0090002d
:103ba000e20f50000a0032002e0090000000e000fa
:103bb00001003200090037001000200010079800b3
:103bc000080037002000200010079800050037008b
:103bd000200020001007980002003700100020008d
:103be000100798001e0090000080fa0000000600f8
:103bf0000200fa008304070034040700d1a2a900e0
:103c000040062000000f780002003700000000008e
:103c10001e0fe9001e00e000fcff3a00d1a2a80040
:103c200040062000000f780002003700000000006e
:103c30001e0fe9001e00e000fcff3a0081e0a90031
:103c4000f1048000f0002f008080600000662000fa
:103c500000804000f00488000080fa0000000600a8
:103c60000000fa00e2ff07001600200045002000d7
:103c7000440020004300200002282000810720008b
:103c80000000eb00a0fe070091f307000080fa009f
:103c9000000006000000fa0080f22000ac030700dc
:103ca000060407000000e000fdff32000080fa007b
:103cb000000006000600fa000000eb002007980054
:103cc000360037002e009000000040008000780091
:103cd00080f2200000804000104078008040780092
:103ce00080cfb30000c06000204798002e009000f5
:103cf000000040008000e80080f2200000804000ca
:103d0000104078000080fb007f0060004300dd0071
:103d1000004f78002e0090000000400080007800e6
:103d200080f2200000804000104078000080fb00fe
:103d3000670060004500dd00004178002e00900023
:103d4000000040008000e80080f220000080400079
:103d5000104078008080fb00000e20000080600092
:103d60004380de0000407100104798002e01900053
:103d7000ae4090001e40900000c050001e40500019
:103d80008040780000a42000000041000148780035
:103d90002e0090000000e80020079800ae00900080
:103da00070072000808f5000c6ff34000080fa00aa
:103db000000006001400fa00000f9800110f980090
:103dc0001e089000e50f5000a3003a008007200075
:103dd00020079800e60047000000eb00800878000c
:103de000e60047000000eb0090009800e600470066
:103df0000000eb00a0009800e60047000000eb0088
:103e0000b0009800e60047000000eb00c0009800fa
:103e1000a0ff0700a7ff07000000eb0010079800b5
:103e2000470037000000eb00000f78001500370056
:103e30009e0190001e009000e60047000000400038
:103e4000608278009e0090002e0090000088b900eb
:103e500052002000110009000200d8009e0040001e
:103e600000a4200000804000104078000080fb008b
:103e700000014200e60047000380410002b07800e4
:103e80001e0fe8002e0090005200200011000900d3
:103e90000200d8009e0f5000e5ff3c001e0090007d
:103ea000e6004700000040006080780084020700c0
:103eb0009e0190001e0090008000400060a3200042
:103ec0000080400090007800005980000088b90010
:103ed000000178001e009000e6004700000040004e
:103ee00060807800000141008380410060a32000d1
:103ef00000804000020878009e0190001e009000a3
:103f00008000400060a32000008040009000780006
:103f1000005980000001e800110009008200d8006b
:103f2000000178008380410060a3200000804000f1
:103f3000020878001e0090000000e80010079800ba
:103f40001e009000e40f5000b6ff340000598000be
:103f50000000e800005988000000eb0010079800fe
:103f6000390037001e009000e600470000004000c6
:103f7000608178001e0090008000400060a3200057
:103f80000080400010007800800f510013003400c2
:103f90001e00900080004000c0a220000080400071
:103fa00010007800e10f500006003a001e0090005b
:103fb00066014700800040000000eb00803079007f
:103fc0000b0037001e009000660147008000400093
:103fd0001000200080307900050037001e0090009e
:103fe00066014700800040000000eb00803079004f
:103ff0001e0190001e009000e600470000004000f7
:10400000e081780082004100c0a2200000804000d2
:10401000030878001e009000000040008000780037
:104020000e089000008140001e009000e60047004e
:104030000000400060807800000978001e009000b9
:104040000000e800100798001e009000e40f5000e8
:10405000c4ff3400650207000080fa00000006007b
:104060001400fa0000242400f1002000200798002a
:10407000310798006303070011040700eafc0700fa
:10408000f7fe07002100200040562800c403070067
:104090006a0047005100200046ff07006000b8009a
:1040a000008fbe0004003700100020000100200037
:1040b0001e0f40005e9748002e009000be0090004a
:1040c000be0f1000ae8f1800f7ff3500f0ff37006d
:1040d0000000fa000000eb008008880001112000b9
:1040e00091407800f0ccb30000c0600010e1b70050
:1040f0000000eb0030088800205c20006008880089
:1041000084c0a9008cc0a80011e1a8000080fa00ba
:10411000000006000000fa0011e1a9000080fa008a
:10412000000006000800fa00100798002107980018
:1041300010598000000f78000b0037001e00780037
:10414000b00090001e009000808f500003003a00e5
:1041500011002000310798001f0037001e00780072
:10416000c0009000010f78001e00e000f3ff3a004d
:10417000a000200005f10700000f78001e00e000fd
:1041800002003a0010002000c1f10700ae009000cc
:104190001e007800010878009e0078000000eb0007
:1041a000900098009e00780010c0b300c0409800b6
:1041b0001e0078009e009000310098001159800088
:1041c0001e007800410098001e00780010598800f9
:1041d00011002000310798003e0090000080fa0096
:1041e000000006000800fa00200798000000eb001d
:1041f0001007980010598000000f78001a0037004f
:104200001e007800b00090002e009000808f5000bb
:1042100010003a001e0090000000e000050032008f
:104220001e007800c00090001e0090004100980021
:10423000030037001e0078004000900010598800ed
:104240001e0078005ff10700110020003107980080
:10425000090037001e007800100798001e00780043
:10426000c0009000010f78001e00e000e4ff3a005b
:1042700020002000300798003e0090000080fa00e7
:10428000000006000800fa001007980021079800b7
:1042900010598000000f78000e0037001e007800d3
:1042a000b00090001e009000808f500006003a0081
:1042b000ae0090001e007800010878001100200078
:1042c00031079800070037001e007800c0009000fa
:1042d000010f78001e00e000f0ff3a0020002000ef
:1042e000300798003e0090000080fa0000000600b1
:1042f0000600fa001007980010598000000f78009f
:104300000e0037001e007800b00090001e009000e4
:10431000808f500006003a009e0078000000eb00fd
:104320009000980011002000210798000700370036
:104330001e007800c0009000010f78001e00e00011
:10434000f0ff3a0020002000200798002e00900087
:104350000080fa00000006000600fa00100798002e
:1043600010598000000f78000e0037001e00780002
:10437000b00090001e009000808f500006003a00b0
:104380009e0078000040eb00c04098001100200023
:1043900021079800070037001e007800c000900039
:1043a000010f78001e00e000f0ff3a00200020001e
:1043b000200798002e0090000080fa000000060000
:1043c0000600fa001007980010598000000f7800ce
:1043d0000e0037001e007800b00090001e00900014
:1043e000808f500006003a009e00780010c0b30095
:1043f000c0409800110020002107980007003700f6
:104400001e007800c0009000010f78001e00e00040
:10441000f0ff3a0020002000200798002e009000b6
:104420000080fa00000006003600f800809fbe0001
:10443000829fbe00849fbe00869fbe003400f800ad
:1044400000002000a00188000200fa00105980003e
:10445000000f780084c0a9001e0037001e007800fd
:1044600040409000e14f500017003a001e007800d5
:10447000100078000000e000130032001e007800f9
:10448000100090008000e8001e00780011009800e5
:104490001e00780010009000800078001e00780058
:1044a000100078000000e900808f50000600360000
:1044b0001e00780030009000000001009e0078008f
:1044c0000000eb00900098001e007800c0009000f3
:1044d000010f78001e00e000e0ff3a000080fa00c3
:1044e0003400f9004f03be004f02be004f01be0072
:0c44f0004f00be003600f900004006003e
:020000040000fa
:1044fc00280f0000f0000000000000002c0a000053
:10450c008c00000000000000200b000002000000e6
:10451c00020000000100000000080000540100002f
:10452c000000000054090000d80000000200000048
:10453c000403050053060300075308000009d100cb
:10454c000a000b00070c03000d510e00010fe700d1
:10455c0012021300021510001640170040184000fc
:10456c0019401a00031be6001c001d00701e0a00f7
:10457c001f1b2000443b0000468048006049960009
:10458c004a004b007d4c00004e084f000a50700052
:10459c0059005a00005b00005cac5d000276000024
:1045ac00771a78002a7937007a427b00567c6800ab
:1045bc007d877e00a37fbc0080d48100ea8e38000a
:1045cc008fa590000d919300922d9300069483007b
:1045dc0095aa96004d97250098259b00009c960067
:1045ec009f80a00080a1b600a29da300aba4800078
:1045fc00a500a60007a70100a8e7a90000aa0100d2
:10460c00ad9fae0022af8c00b007b100ccb2000061
:10461c00b370b90003bae600bb07bc00ccbd000008
:10462c00be0cc10010c2e000c310c400e0c5800085
:10463c00c680c70001c8a500c902ca007acb000019
:10464c00cca7cd0001ce4700d43cd50001d88000ca
:10465c000c0b00000800000000000000220b000002
:10466c000200000000000000fc0a00001000000026
:10467c0000000000140b0000060000000000000009
:10468c00240b0000020000000200000001000000ea
:10469c001a0b0000060000000200000000000000e1
:1046ac0000000000b80a00004400000002000000f6
:1046bc0000000000000000000000000000000000ee
:1046cc0000000000000000000000000000000000de
:1046dc0000000000000000000000000000000000ce
:1046ec0000000000000000000000000000000000be
:1046fc0000000000000000000000000000000000ae
:10470c000000000000000000000000007a10000013
:10471c0010000000000000001810000062000000f3
:10472c00020000001a1026000d000000260d0900e2
:10473c0000000000000226000b000000260b0a00ff
:10474c000301000000020000000000000000060051
:10475c000202000000000000000000000000000049
:10476c00000000000000000000000000000000003d
:10477c00000000000000000000000000000000002d
:10478c00000000000000000000000000000000001d
:10479c00000000000000000000000000000000000d
:1047ac000000000000000000260b000002040000c6
:1047bc00000000008a100000020000000000000051
:1047cc008c10000002000000000000008e100000a1
:1047dc000200000000000000901000000200000029
:1047ec000000000092100000020000000000000019
:1047fc009410000002000000020000000100000004
:04480c0000000000a8
:020000040000fa
:104810000200fa00fc0107000000e000fdff32008a
:104820000e007800fc0107000000e000fcff3200f1
:104830001e4078000000fb000080fa000000060027
:104840000600fa00f00107000000e000fdff320062
:1048500064004700f00107000000e000fcff3200a8
:10486000e90107000000e000fdff3200640047009e
:104870000000e800e80107000000e000fbff320054
:1048800064004700104078000000fb00100798000b
:1048900064004700104090000000fb00000f78000b
:1048a0001e0078004801dd009e009000f00f2000ff
:1048b00000806000000071000080fa000000060027
:1048c0000400fa00100798001e0090008040780055
:1048d00000c0eb0000c06000004f78009e00900018
:1048e00000f02f00008060004800de0010479800b4
:1048f000110020000e007800a9010700b401070094
:104900000000e000fdff3a000e00e800110020006a
:10491000a3010700ae0107000000e000fdff3a0020
:104920000080fa00000006000200fa00004f780044
:10493000110020000e00780099010700a401070073
:104940000000e000fdff3a000080fa0000000600d1
:104950000000fa000000eb00f9fa07000000eb008d
:10496000bafa07000000eb0061fb07000000eb0053
:1049700055fb07000080fa00000006000000fa0066
:10498000e6c2bf000080fb004600de006140600020
:104990000081fb00e7c2bf000080fb000000d100e7
:1049a000614060000080fb00000040008000780053
:1049b000e7c2bf00614060000080fb000080400053
:1049c0000000400080007800e6c2bf000080fb00cd
:1049d0004700de000080fb00008040000000400037
:1049e000000041000080fa00000006000800fa0004
:1049f00000122a0071002000008fbe000000eb00b2
:104a000030079800110037003e0090001100200090
:104a10004bf407000000eb0020079800030037006c
:104a20002e0090000000e800200798002e00900063
:104a3000cf80de00be0f5000ae8f5800f8ff390067
:104a40003e0090000000e800300798003e00900013
:104a5000e70f5000ecff34000000eb003007980037
:104a6000110037003e0090008000eb0034f4070096
:104a70000000eb0020079800030037002e00900094
:104a80000000e800200798002e009000cf80de0094
:104a9000be0f5000ae8f5800f8ff39003e00900066
:104aa0000000e800300798003e009000e70f50003b
:104ab000ecff34000080fa00000006003400f8002b
:104ac000881f780008002000a80188004f047800a3
:104ad0000000fa0086c0a9001fe1a80021e1a9009a
:104ae0000080fa003400f900004006000000fa00df
:104af00020002000000988000000eb00c0088800aa
:104b000010002000e008880086c0a9008ec0a80020
:104b100021e1a8000080fa00000006000000fa0071
:104b200020002000f008880000408000a0088800d5
:104b3000004080000000e800d008880086a0a9009e
:104b40001fe1a9008ea0a8000080fa000000060066
:104b50000200fa00000f78000000eb0030408800ef
:104b60001e007800104088000000eb002040880004
:104b7000eaff0700ddff07000080fa0000000600e2
:104b80001200fa0030079800410798005207980079
:104b900063079800740798000000eb001007980066
:104ba000ce0090005e0090000088b9008000780080
:104bb0006e0090000000e8000088b9000000e800e6
:104bc00080007800a0142000808f50000300360081
:104bd0000080eb00000f9800350037000000eb006c
:104be00020079800230037000000eb00000f78003a
:104bf000090037009e009000a080200080804000c7
:104c000010c0b300804878001e0090000000e8004b
:104c1000100798001e0fe8005e0090009e0f100025
:104c2000f4ff35000000eb00000f780009003700aa
:104c30009e009000a0802000808040000040eb009b
:104c4000804878001e0090000000e80010079800df
:104c50001e0fe800ee0090005e0090000088b90092
:104c60009e0f5000f2ff3c002e0090000000e80074
:104c700020079800ae0090004e009000808f5000fa
:104c8000d9ff35009e009000a08020008080400069
:104c900020c0b300804878007e009000004088006b
:104ca0003e009000404088000000eb00000f98009c
:104cb0000e0890000080fa00000006000000fa00d4
:104cc000204080000080fa00000006000000fa008a
:104cd00060f707000080fa00000006000000fa00fc
:104ce0009df707000080fa00000006000000fa00af
:104cf0009ff707000080fa00000006000400fa0099
:104d000020479800314798000040eb00004f7800a2
:104d10001800370010c0b300004f78009af7070062
:104d20001e4f60002e409000b2f807001e4f60003a
:104d30003e409000aff807001e4f6000b4f7070038
:104d40001e4f60002e4090000040e800a9f80700c8
:104d50001e4f60000e00e80050f807001e4f600074
:104d60001bf80700ccf707001e04e00003003a0020
:104d700055f707001e04e000e6ff32001e409000d9
:104d80000000fb000080fa00000006000600fa00a8
:104d90002047980031479800424798000040eb00b8
:104da000004f78001200370010c0b300004f7800a9
:104db00075f707001e4f60002e4090008df8070029
:104dc0001e4f60003e4090008af807001e4f6000b2
:104dd0004e40900087f807001e4f6000aef70700b6
:104de0001e4f60001e04e00003003a0036f7070083
:104df0001e04e000ecff32001e00fb000080fa0001
:104e0000000006000000fa00c4c2a900c4e2a90024
:104e1000c522a900c582a900c542a900c5a2a90052
:104e2000c5c2a900c5e2a900c0c2a900c0e2a9008c
:104e3000c122a900c182a900c142a900c1a2a90042
:104e4000c1c2a900c1e2a900d022a900cc22a900b8
:104e5000d042a900cc42a900e2e2a900e302a900e5
:104e6000e802a900e822a900dee2a900df02a90009
:104e7000e402a900e422a900e202a900de02a900de
:104e8000d602a900d622a900d642a900d662a9005e
:104e9000d682a900d6a2a900d6c2a900d6e2a9004e
:104ea000d202a900d222a900d242a900d262a9004e
:104eb000d282a900d2a2a900d2c2a900d2e2a9003e
:104ec000d1a2a900cda2a900e842a900e862a900e8
:104ed000e442a900e462a900de22a800dec2a80024
:104ee000e4c2a800e4e2a800e502a800e522a800c8
:104ef000d302a800d322a800d342a800d362a800fe
:104f0000d382a800d3a2a800d3c2a800d3e2a800ed
:104f10000080fa00000006008540a900809fbe00c6
:104f2000821f78001e0be200150032001a0be2000f
:104f3000160032001c0be20014003200d158800031
:104f4000420020000f22af00feff3700e058800033
:104f50000000e000070032000000e9001cabb700d1
:104f60003140780010e2b7000201e900f5ff3a0095
:104f7000020037001a2bef0001003700d1588800db
:104f80004f0178004f00be000040060000002000e6
:104f9000f05888004f0178004f00be000040060026
:104fa0001e0be200feff3a008d40a9008100e900df
:104fb000e1588800b040780081108800d0588800ff
:104fc00011002000f15888008d40a8000000060064
:104fd000f058800000000600809fbe008520a900d8
:104fe000c0578000f003b20081ab20008100400078
:104ff0000000eb0012c2bf0080487800f82aec00e5
:105000004f00be0000400600c0578000d15780000e
:105010000100500000000600c1578000d2578000f8
:105020000208e10008003200f203b20081ab200068
:10503000028140009240780001487800fa2aec0092
:1050400010002000000006000000eb000000060039
:1050500000a0fe0086a0a9001421ef0000000000bf
:1050600011408000a280200013002000321ce100cb
:1050700005003200080035000000000000000000bc
:1050800000000000f9ff3700a01680004800de0095
:1050900080587800f5ff3700114088000628ec00a2
:1050a000304080000808e30003003a0010002000b0
:1050b000204088001fe1a9000080fe00004006009b
:1050c0000c22ef000e22ef000ee2a9000ec2a90092
:1050d0008520a9008d20a8000de2a8007000200006
:1050e000a01088008540a9008d40a80081e0a9009b
:1050f000c0048000f1002f000080600001552000f6
:1051000000804000c00488000fe2a8000f42a80001
:0c511000f82aef00fa2aef000000060069
:020000040000fa
:04511c000000fe0091
:00000001FF
