:020000040000fa
:080000000001040000000000f3
:020000040000fa
:10020000effd2100007922000001880000000000bd
:100210000c000700e09522000100200011000700fb
:10022000000020000000e000020032000000020098
:100230000000000094360200000000000040da00d8
:100240000000fe004440a900200120000000e00062
:100250000300320000002000a00188004440a800f4
:100260000000060091018800800078000000eb008b
:1002700015003700e280400032a0b4009101ba00be
:10028000e280400032a0b4009102ba00e280400057
:1002900032a0b4000002eb00472bde00f507b200ed
:1002a000602ce10004003a000059eb008301e900f2
:1002b000fdff3e00040037006128e100010032002c
:1002c0000082eb00040007001101ba000200e00008
:1002d000e8ff3a00000006003159ba008301e90046
:1002e0000c0032002159ba008301e90008003200f5
:1002f0000400e00003003a00e280400032a0b400b5
:10030000f5ff370011d9ba008301e900faff3a007e
:100310008100e800e180400032a0b4000000060047
:1003200026260400000000000a2704000000000048
:10033000701b040000000000889fbe00800478004d
:10034000d0ee80000000e00003003a006e000700dd
:100350000000e0000a003500d0ee80000900e00057
:1003600002003a000004780006003700000478001c
:1003700009004000640007000000e00001003d00ab
:100380000084eb00080078004f04be000000060067
:100390000c02e20004003d000f42ab0002003200fc
:1003a0000f02ab00feff32000040da00feff370014
:1003b0000a00fa0011002000b1bf9f00c0bf9f00db
:1003c0006a80570000c0da004fb897000080fa003a
:1003d000000006000a00fa0051002000b1bf9f0093
:1003e000c0bf9f006a80570000c0da005fb8970066
:1003f0000080fa00000006000a00fa004400200015
:10040000b4bf9f00c0bf9f00d2bf9f00e3bf9f004b
:10041000f1bf9f006a80570000c0da005fb8970004
:10042000efb897000080fa00000006000a00fa000a
:1004300080017800e20f500028003e00e0ee8000ce
:10044000e10f500008003200e02120000000e00031
:10045000050032006421200085212000a621200013
:100460008001780004003700c4202000e52020002f
:100470000621200043212000144090000004e000e9
:10048000040035008009eb00144090000074a000c7
:1004900010429800154090000028a30003003a0085
:1004a000154090000024a000904298008001eb00cd
:1004b00007003700154090000008a300fdff320040
:1004c00063c078000000fb00000b78008301e800a7
:1004d000828f5100f7ff3a000800370030002000fb
:1004e000b0bf9f00c3bf9f00d1bf9f00e2bf9f006e
:1004f0006a80570000c0da006fb9970002007800e8
:100500000080fa0000000600800078000000e00093
:1005100004003a00e0dd2100d0ee880001017800ff
:10052000060037000081eb00e0fd2100808f5000c5
:1005300002003e00d1ee88000001eb0002007800ce
:1005400000000600839f68000100e00002003d00fb
:1005500060001000e08018000300e00002003d0091
:1005600060011100e0811900050007004f00e00064
:1005700002003b0060001000e08018000000060050
:100580006022b800060220000000d0008180d20066
:100590000482d2008582d2000000a0000202520034
:1005a00083825a00030031000202420083824a0023
:1005b0000000a1000603e900f3ff3a000000060076
:1005c000881f7800000478005001be004000be0083
:1005d00004004000858048000601490087814900e9
:1005e000009cbe000294be000400e1000588e1000a
:1005f0000690e1000798e100020031006800440025
:100600001008e8004f04780000000600f487470057
:10061000889fbe008a9fbe008c9fbe008e1f780000
:100620000205be000004be00d4b79f00e5b79f00de
:10063000f6b79f0087bf9f000000eb00c0b79f0088
:10064000b0b79f00a0b79f0090b79f0080b79f00f2
:100650000d042000bfb097004fb09700000140008c
:100660000000e0000f003d004f08de0000007100b8
:10067000c0b79f009e00070001003d00120020004f
:10068000a100070001003d0012002000a6000700a5
:10069000b1000700b60007000f004000c8ff0700c8
:1006a000220037004f08de0000067100ccb79f0023
:1006b0008f00070001003d0012002000920007009b
:1006c00001003d001200200097000700a200070073
:1006d0000fb297009fb297002fb39700bfb3970058
:1006e000a90007000000520081805a0002015b004f
:1006f00083815b0080b79f0091b79f00a2b79f00e6
:10070000b3b79f000007eb009f0007000020e10047
:1007100001a8e10002b0e10003b8e10001003100ee
:100720001e0020000e005600c0b79f004fb2970079
:100730000400e00007003500100020000100200048
:100740006011b80008047000898470000a05710007
:100750008b8571008d06e900beff3a000400e000c1
:1007600003003d00820007000f00400094ff0700d7
:100770004fa897000000e00004003a000fb4970073
:100780009fb497002fb59700bfb59700940007005e
:100790004f0778004f06be004f05be004f04be0055
:1007a0004f01b10000000600881f780018002000eb
:1007b000881f780095ff07008f87e9004f047800b5
:1007c00000000600801feb0090ff07008f87e90004
:1007d00000000600889fbe008a9fbe008c1f780024
:1007e0006e00070007003d0073000700e00f5b008c
:1007f000e08f5b0007003d00320007000006eb00c1
:10080000040037003400070002003d002a00070002
:100810001c00200072000700e3ff07000203be0077
:100820000002be000c00e0000100320022000700c0
:100830000400be000601be004f0678004f05be0052
:100840004f04be0000000600889fbe008a9fbe00c5
:100850008c1f78005100070005003d00560007007e
:10086000e00f5b00e08f5b0006003d0004003700f6
:100870001900070003003d006000b8006011b800d7
:100880001000070056000700ceff07000203be005d
:100890000002be000c00e00001003200060007006c
:1008a0000400be000601be004f0678004f05be00e2
:1008b0004f04be00000006006000b8006011b800e0
:1008c00000003700040250008582580006035900da
:1008d00087835900000006000006eb00e00f52007d
:1008e000e08f5a00e00f5b00e08f5b000000060025
:1008f0000180400090b79f000001eb008fb097008f
:100900000100e000000006000200700090b79f00a8
:100910000180400080b79f000001eb00ffa8970016
:100920000100e000000006000200700080b79f0098
:10093000018040006faa9700cf20de000100700008
:10094000f0af9f0004024200250007004f18de00b0
:100950000002720000000600e4af9f00080444009b
:1009600089844c000a054d008b854d00000006006f
:100970003fb29700cfb297005fb39700efb39700f5
:1009800000fe2f00000006003fb09700cfb0970098
:100990005fb19700efb19700000006000205be00ae
:1009a0000004be00e00f5000e08f5800e00f590037
:1009b000e08f5900000006006000b8006011b80028
:1009c00008045000898458000a0559008b85590095
:1009d0001c002000e00f5200e08f5a0000000600cb
:1009e0000800be000a01be00000006000c00fa006c
:1009f000889fbe0000047800cfb09700f0ff27006a
:100a0000d0bf9f008004eb0099bf9f0088bf9f006c
:100a1000a8bf9f00200c2000b0bf9f007881570026
:100a200070805700cd0007000fb897000948780084
:100a30000fb8970008045000080078004f04be006b
:100a40000080fa0000000600889fbe008a9fbe005a
:100a50008c9fbe0000017800a1dc21001100e000a5
:100a60000b003a00e0dc210050ee880030ee8800f8
:100a700071ee880041ee8800214090000004a00043
:100a8000a0409800614090000004a000e040980061
:100a9000e7004100c208de00c20cdd0043ee80002a
:100aa000eddd2100e0fd21000d05500022002000b9
:100ab000811f7800110009000205d80000067800a7
:100ac000cf007800c308dd00e485400035ee8000eb
:100ad0008000eb00e7dd2100a6dc210001003700eb
:100ae00080017800234090000008a300020032003b
:100af0000a0037009409780013027800244090001f
:100b00000008a300fbff320009814100820f520060
:100b100002003900830f51004300310013007800b8
:100b2000830f5000eeff3e00870f50000200390097
:100b3000860f5000eaff3900858f51004b003a00c4
:100b4000860f500049003a008100e800e18f500014
:100b5000e3ff36008c8f5400040036008a8f540067
:100b6000020031000b04780012003700614ab8001f
:100b70006151b900b0ff2f000100200002005000b9
:100b800083805800800f5200818f5a000200350088
:100b900009047800070037000d80540012fe210080
:100ba00002004000110009000a80d8000a80b90044
:100bb0000004780008007800dffd0700800178005d
:100bc000e10f40002900320032ee80000009780079
:100bd00064004100a2409000808f5100020032006a
:100be0000104a000010037000104a1002141980088
:100bf00088804100e48050008109780031ee88004f
:100c0000a2dc210082087800214090000004a000ae
:100c1000a0409800234090000004a100a04198004b
:100c200082017800a9ff370042ee8800820f52004f
:100c3000080036001200780041dc2100a24290003a
:100c40008548780010ee8800040978000040eb0029
:100c50002041980082097800234090000004a00001
:100c6000a041980064804100010037000000eb00c3
:100c70004f06be004f05be004f04be000000060038
:100c80006400500040ee8800a04090000104a100e4
:100c90002140980000000600889fbe008a9fbe0089
:100ca00000057800e401500013001000c285de004a
:100cb000234090000008a3000400320043ee8800a7
:100cc000234090000004a100a0419800010078009a
:100cd0005dff0700000478000000e000170032000c
:100ce0008a0f50001500320060b8970008005000cd
:100cf000c284de00898f5500010036008905780026
:100d00004259dd008a007800080078000f030700d0
:100d10008a0f5400090031004248dd000000440001
:100d20008a0f5000050036000a0050000000440001
:100d300012ee800023ee80000288be0008007800da
:100d40004f05be004f04be000000060000047800fe
:100d500005030700080078008dfd0700fe874700a7
:100d6000889fbe008a9fbe008c9fbe008e1f7800a9
:100d7000f0b79f000107780082bf9f000000eb00e2
:100d8000b0b79f00e60237008006eb0050c2b30008
:100d900080cf5000090032000100fb00ffb0970037
:100da000ff020700e10f4000dd023200bfb09700f4
:100db0008100e800b1b79f00d90237009e4078005b
:100dc000b0c2b30080cf50001300320007003c00d7
:100dd0006b40500080cf50000d0032006340400057
:100de00080cf500013003a000d003700d0c2b3008e
:100df00080cf5000040032006340400080cf50009c
:100e00000c003a00080037000d30a0000700370042
:100e10000d00a000050037000d10a00003003700f2
:100e20000db0a000010037000d20a0000e07e80063
:100e3000e2ff37000d18a300010032000d00a100f1
:100e40000d38a300010032000d20a1000100fb00bd
:100e500002fd2f0002004000e90f50000e003e008e
:100e60000002eb00d4af9f00820178005fae9700d4
:100e70006a60b9001e01fb0000014100030141004e
:100e8000d2af9f005e00fb0003004000e90f50005e
:100e90000b003e00f5ff37000000eb00d0af9f00d5
:100ea000a0c2b30080cf500005003a008fb8970071
:100eb0004101780081bf9f00d2af9f000e07e8007c
:100ec0000002eb00c4b79f00e0c2b3009e4f1000c9
:100ed00018003a000de0a0008e00e80064405000c9
:100ee000914f100002003200010778000c0037001b
:100ef0000fbe97004c0078008cbf9f00c0b79f00ca
:100f00000e87e8000b0037004fb297006a20b90047
:100f10000000410003004000c0b79f000e07e8003a
:100f20001e01fb0003fd2f0003004100e90f5000ec
:100f3000f5ff3600be407800e1d79f00c0c6b30081
:100f400080cf5000220032000f003c00694050006a
:100f500080cf50007700320004003c000104e00024
:100f6000730232006b4050000f00370040c6b300e0
:100f700080cf5000930032006540400080cf500089
:100f80008b003a008f00370030c7b30080cf50008d
:100f90001a00320007003c006440500080cf50002f
:100fa000110032000040e80080cf500080003a007d
:100fb0000f00370050c7b30080cf500080003200d0
:100fc0006340400080cf500079003a0009003700ac
:100fd000000028000d48a30001003a000001200095
:100fe00080867600d3ff37000d60a00075003700c3
:100ff0000d50a0000d70a000720037000fbe9700ca
:101000004c0078008cbf9f00000478000000e000d6
:1010100001003a0088d921008004eb00010037006c
:101020008104e80089007800088044001004e00092
:10103000fbff3a004fb097000000e00003003200d1
:10104000890f500001003100800478008000eb001f
:10105000e1af9f005fa99700890f510002003600a1
:1010600009005100e0af9f004368de00e106600028
:101070001b003a000d06780009003700ffb097000a
:101080000002200046020700e10f4000030032008a
:101090003fb297000402e800b4b79f000c06e800d6
:1010a0006fa89700800f5600f4ff3a008080eb0095
:1010b000e1af9f000a003700880078003100fb0094
:1010c00001047800ffb0970035020700e10f4000ef
:1010d000030032003fb197000201e800b2b79f0061
:1010e0000900e90080047800e10f4000f2ff3a00b7
:1010f0000006eb000d00e0000a003a00080237008d
:10110000ffb097000002200025020700e10f400019
:10111000030032003fb297000402e800b4b79f001a
:101120000c06e8006fa89700800f5600f4ff3a0005
:10113000fb0137008fb897004100780081bf9f0006
:10114000cf80de0001017800820178000205be0038
:101150000004be000203be000002be004822de0002
:10116000482edd0004027600e4d79f000d48a3005e
:101170000a0032000404e00008003200e14f42009f
:101180000600320071fd2f000f80400004487800f7
:10119000184098002900200002003700f0d79f0077
:1011a0001900200072fd2f000f044100a1ff37003d
:1011b00064fd2f000f044200190020009dff37003e
:1011c0000d0cb3000d007800000cb20028003a00ae
:1011d0000d00e00005003d000fbe97004c05be006d
:1011e0004c04be008cbf9f00140037000d48a300c4
:1011f0000b0032000fb997004200be0082bf9f0073
:101200004f89de00cf91de000002be0002037800ad
:10121000820378000605be000404be000700370004
:101220000fba97004400780084bf9f000004780044
:10123000cfc4de00090578008a057800e00f54006d
:10124000e08f5c00e00f5d00e08f5d001f003d005f
:101250003d00b3006000b8006011b8000804500001
:10126000898458000a0559008b85590017003700fa
:101270000d00e00005003d000fbe97004c05be00cc
:101280004c04be008cbf9f00100037000d48a30027
:10129000070032000fba97004400be0084bf9f00d1
:1012a0006011b8000205be000004be000700370050
:1012b0000fbe97004c0078008cbf9f0000047800a0
:1012c000090020000a0020000b0020004fb097000a
:1012d0000000e00007003a00e00f5400e08f5c00df
:1012e000e00f5d00e08f5d0002003a001100200079
:1012f000c1b79f000d017800020cb200e2b79f0059
:1013000000042000800f51002d00320003003c003b
:101310000200e000080032003a0037000008200018
:101320006fb29700800f520014003200000c2000b2
:10133000800f520033003a0014c0b30065c9210089
:101340000b0037000400fb004300dd0005004000f7
:101350005001be004000be000040e10001c8e100b5
:1013600002d0e10003d8e100250039000442e80082
:10137000f44f5200f3ff3a002100370014c0b300cd
:1013800065c121000b0037000400fb004300dd00b5
:10139000050040005001be004000be000040e100da
:1013a00001c8e10002d0e10003d8e10014003900d7
:1013b0000442e800f04f5200f3ff3a0010003700fb
:1013c00014c0b30065b621000b0037000400fb0019
:1013d0004300dd00050040005001be004000be009b
:1013e0000040e10001c8e10002d0e10003d8e100c3
:1013f000030039000442e800f64f5200f3ff3a00c0
:10140000e4d79f006fd697000c00fb00cfb0970089
:10141000810f500002003d00e1d79f00040037001b
:101420004fb19700800f510001003d00c0b79f00f1
:101430005faa97000400e0000400320063806600a9
:10144000020032000402e900d4af9f000de8a300bf
:101450000b0032005fae97004fb09700800f560030
:1014600003003c008000eb00d1af9f000400370078
:101470005fa997004fb2970004015100d2af9f00bf
:10148000408c20000080660001842000810f500005
:1014900006003a005fae97000c00e0001100320039
:1014a0000c06e900dcaf9f000e003700008c200026
:1014b0000080660001882000810f500009003a007a
:1014c0005fa89700e20f500003003c008000eb0093
:1014d000d1af9f00030037005fa997000281e900a8
:1014e000d2af9f006fd297000400fb000006eb0014
:1014f000dcb79f00dfa89700808f50000200340007
:1015000000805000d0b79f000d28a3005300320088
:10151000e18066000d18a3000c003200d00220000c
:101520000100e00001003a000080e900ffb09700f0
:101530001b010700e10f4000270032003fb1970078
:101540000201e800b2b79f00230037000100e0006d
:1015500009003200ffb097000002200010010700d0
:10156000e10f40001c0032003fb297000402e80087
:10157000b4b79f0018003700008c20000080660080
:1015800001882000810f500013003a00ffb097003f
:101590000003200002010700e10f400003003200b9
:1015a0003fb697000c06e800bcb79f0080052000fe
:1015b0000d58a30001003a0080072000ffb09700fb
:1015c000f7000700e10f4000030032003fb0970032
:1015d0000000e800b0b79f00dfb097000100e00016
:1015e0000f0032000006eb00ffb097000003200060
:1015f000eb000700e10f4000030032003fb197000d
:101600000201e800b2b79f000c06e8005fb2970045
:10161000840f5600f4ff3a000006eb00dcb79f0091
:101620004fb097008000e900c308dd0060c92100c9
:101630000080400090b79f0060c121000080400002
:1016400080b79f0060b6210080804000f1af9f000e
:101650008000eb00a1b79f009b0037005fb19700af
:101660000200e00011003200688066000f003a00be
:1016700000067800ffb0970000022000c8000700b5
:10168000e10f4000030032003fb297000402e8007f
:10169000b4b79f000c06e8005fb09700800f5600bb
:1016a000f4ff3a008000eb00d1b79f00e1806600b4
:1016b0000d18a3000c003200d00220000100e00051
:1016c00001003a000080e900ffb09700b400070075
:1016d000e10f40000e0032003fb197000201e80028
:1016e000b2b79f000a0037000100e0000800320096
:1016f000ffb0970000022000a9000700e10f4000a2
:10170000030032003fb297000402e800b4b79f0024
:10171000008c20008080660000842000808f5000b4
:1017200009003a00ffb09700000320009c0007006a
:10173000e10f4000baff32003fb697000c06e80008
:10174000bcb79f00b6ff370000882000808f500094
:10175000b3ff3a00ffb0970000032000900007009d
:10176000e10f4000030032003fb097000000e800a6
:10177000b0b79f00800520000d58a30001003a007b
:1017800080072000ffb0970085000700e10f4000b0
:10179000a3ff3200bfb097008100e800b1b79f00ff
:1017a0009fff3700000420006fb19700800f5100a9
:1017b0002700320003003c000200e0000800320075
:1017c0002c003700000820006fb29700800f5200f5
:1017d00011003200000c2000800f520025003a005a
:1017e0001fb697003c02be002c03be000800be00de
:1017f0000a01be00ecfb0700a40020000500200049
:101800006033b800effb070004c3b300044240009c
:10181000e4d79f0017003700fcd921000d58a30022
:1018200001003a000cdb21000fb097003002be002f
:101830002003be000800be000a01be00dafb07005c
:101840006f0060006c467800ecd79f0009003700fd
:10185000ffa897003102be002103be000800be00b1
:101860000a01be00d0fb0700674060000043b000e3
:10187000e0d79f006fd197000200fb00ffb09700f8
:1018800047000700e10f4000030032003fb297001d
:101890000402e800b4b79f002fb697000c06e800da
:1018a000acb79f001fb097006800500090b79f0032
:1018b0008fb09700e880500081b79f007fa9970004
:1018c00068015100f2af9f002fb297004fb697000a
:1018d0008c0f5200b3ff3a000d38a3001000320005
:1018e0005fb097000000e0000d0034000006eb0040
:1018f000ffb097000002200029000700e10f400020
:1019000003003200bfb097008100e800b1b79f002c
:101910000c06e8005fb19700820f5600f4ff3a0012
:10192000be407800e1d79f000104e00016fd3a00b8
:101930003fb097004f0778004f06be004f05be002e
:101940004f04be00ef01b100000006008001eb0073
:101950000200370061f079008301e800828f5100b6
:10196000fcff3a0000000600881f780020db8000a2
:101970000000e000010032000000010088d32100d7
:10198000080078004f0007006c04440080d9210053
:10199000800f5400faff3a004f0478000000060060
:1019a000889fbe000001780001047800b10090001b
:1019b0000118a3003d0032000198a30003003a0083
:1019c000180090000000e00038003a000190a000ec
:1019d0003104980082047800f90fb20018009000da
:1019e0000000e00002003a0028009000000c78009f
:1019f0003800900000b8a3000600320000a8a30041
:101a000004003200210020006011b80008007800b6
:101a100081000700b80090000100780000b0a1002c
:101a200030049800ea8f540005003a000178a300c2
:101a300003003a0088007800d0002000d8ff07009b
:101a40009800900058009000808f50000b003200ea
:101a50000100e80010049800180078000958780088
:101a6000000c780011c0b30020dd2100014878008f
:101a7000ea8f5400060032000f003700880078001b
:101a800009407800fe000700800478000a00370053
:101a9000380090000088a30006003200080078009b
:101aa000cd000700e10f400002003a008084eb0007
:101ab00001003700a9002000090078004f04be0093
:101ac00000000600889fbe008a1f7800000478008e
:101ad00030009000630060002400320008007800ad
:101ae000bd0007003805900080ef2f000000650062
:101af00030049800280090000000e000040032004c
:101b0000e804650002003a0030010700290498004b
:101b10004800900026fa0700e10f40001300320051
:101b2000b80090000102b20010003a000ac8a300f9
:101b300018003200b0ee80000000e0001500320016
:101b40000001780081047800012a2000122890000a
:101b5000880f5000070032004205b0004905b00070
:101b6000818f54000b003200f8ff37000080eb003b
:101b7000090037000200780016fa0700b0ee800076
:101b8000090040008000eb00112898000100780057
:101b9000010037000000eb004f0578004f04be0045
:101ba00000000600881f78000004780040009000c4
:101bb000110020006011b8000ffa07000001be00fc
:101bc000180090000000e00002003d000000eb0063
:101bd00010049800280090000000e0000800320087
:101be000380090000098a300050032001800900013
:101bf000cf80de00020040008380480004003700f0
:101c000018009000cf80de00000051008180590054
:101c10004f047800000006000400fa00889fbe0010
:101c20008a9fbe008c1f78000006780092bf9f003c
:101c3000a3bf9f0001047800300090000040a10085
:101c4000300698002c0090000000e00006003a00ea
:101c50004c009000e8f90700e10f4000e08f4800d9
:101c600057003a0054003700e18f50000500320061
:101c7000e28f50000c0032000100e0002000320032
:101c80004d0037000c007800c6ff07001fb9970011
:101c9000afb99700020140008381480092bf9f00c6
:101ca000a3bf9f00160037000c0078004a00070011
:101cb0004c009000110020006011b800cef9070020
:101cc0000005be004c009000880078006011b8004c
:101cd000c9f907000004be004c0090008000eb0032
:101ce0000a01be00c4f907001fba9700afba9700f7
:101cf0000402440085824c0094bf9f00a5bf9f0052
:101d00000c007800a7ff07001fba9700afba970032
:101d10000001520081815a00030032003c00900013
:101d200000b0a000300698003c0290000408a30018
:101d30000f003200620362000d003a00e00f510014
:101d4000e08f59000a0035009c0290006128b9001c
:101d5000800f5100818f590005003c000280520025
:101d6000100698001c0e4100060078001500370090
:101d70000498a300050032001c0090000000e00061
:101d8000020032000c007800130007008000eb0016
:101d900011069800ac029000050e78004c009000ef
:101da0001fb99700afb9970093f90700e00f5000f3
:101db000e08f580002003d000080eb00010037007a
:101dc0000000eb004f0678004f05be004f04be0038
:101dd0000080fa0000000600881f780000047800e8
:101de000300090000008a300070032008000780057
:101df0000120b20004003a0011049800a8009000ed
:101e0000010c7800170037000018a30019003200f9
:101e10000098a30017003200a80090000100e00025
:101e200014003200180190000200e000110032009e
:101e3000480090007df9070098009000810f500045
:101e400003003200380090000003b3003004980013
:101e50000000eb001004980028009000000c7800af
:101e6000380090000058a300020032000080eb0010
:101e7000010037000000eb004f047800000006006e
:101e80000200fa00889fbe00a0ff9f0001047800b6
:101e900031009000e200600004003a000003b3004b
:101ea000300498001104980018003700d8049000fe
:101eb0000900e0001a003a006c00600004003a00db
:101ec0003300070020049800e10f400011003a00a1
:101ed0002904980059049800380090000020a000c0
:101ee0003004980019049800480090001200200067
:101ef000e68057004df90700e10f50001f00320047
:101f0000380090000003b300300498000080eb001c
:101f10001c00370000202000500498000a00370001
:101f200018019000a8009000480090003ff90700b9
:101f300098009000810f500003003200380090009c
:101f40000003b30030049800100020001004980033
:101f500028009000aff89700014878002800900012
:101f6000000ce800b80090000080eb000158a300ce
:101f700004003a000190a00031049800aff89700e7
:101f80000180fb004f04be000080fa000000060044
:101f9000a1ee80000100e000030032001100780093
:101fa000a0ee88000300370000202000e2f80700c0
:101fb00080007800e18f400002003a00906e260019
:101fc000c0ee88000100780000000600a1ee80004d
:0c1fd00001087800a0ee88000000060068
:020000040000fa
:0200000401f009
:04000000e6ff000017
:020000040000fa
:0200000401f009
:04000400ff7f00007a
:020000040000fa
:0200000401f009
:040008007fff000076
:020000040000fa
:0200000401f009
:04001400ffff0000ea
:020000040000fa
:10000800f63b0000f63b0000f63b0000f63b000024
:10001800f63b0000f63b0000f63b0000f63b000014
:10002800f63b0000f63b0000f63b0000f63b000004
:10003800f63b0000f63b000062350000f63b00008e
:10004800f63b0000ea3a00008a3a0000f63b00005e
:10005800f63b0000f63b0000cc220000f63b000017
:10006800f63b0000f63b0000f63b0000f63b0000c4
:10007800f63b0000623b000004370000f63b00003e
:10008800263b00002a3a0000f63b0000f63b000041
:10009800f63b0000f63b0000f63b0000f63b000094
:1000a800f63b0000f63b0000f63b0000f63b000084
:1000b800f63b0000f63b0000f63b0000f63b000074
:1000c800f63b0000f63b0000f63b0000f63b000064
:1000d800f63b0000f63b0000f63b0000f63b000054
:1000e800f63b0000f63b0000f63b0000f63b000044
:0800f800f63b0000f63b00009e
:020000040000fa
:10010800f63b0000f63b0000f63b0000f63b000023
:10011800f63b0000f63b0000f63b0000f63b000013
:10012800f63b0000f63b0000f63b0000f63b000003
:10013800f63b0000f63b000062350000f63b00008d
:10014800f63b0000ea3a00008a3a0000f63b00005d
:10015800f63b0000f63b0000cc220000f63b000016
:10016800f63b0000f63b0000f63b0000f63b0000c3
:10017800f63b0000623b000004370000f63b00003d
:10018800263b00002a3a0000f63b0000f63b000040
:10019800f63b0000f63b0000f63b0000f63b000093
:1001a800f63b0000f63b0000f63b0000f63b000083
:1001b800f63b0000f63b0000f63b0000f63b000073
:1001c800f63b0000f63b0000f63b0000f63b000063
:1001d800f63b0000f63b0000f63b0000f63b000053
:1001e800f63b0000f63b0000f63b0000f63b000043
:0801f800f63b0000f63b00009d
:020000040000fa
:101fdc0063680000656300006b72000065640000bc
:101fec002000000025640000002d00002564000086
:041ffc0000000000e1
:020000040000fa
:102000000200fa00841407000000eb00000f7800c3
:102010000d0037009e00e800405d21000080400078
:1020200010407800004178009e007800405d21005b
:10203000008040001040780080407800c0cdb300a0
:10204000a11407001e8fe8009e007800700d20008c
:10205000808f5000efff3600731407000080fa00f5
:10206000000006000200fa00881f78006a140700ca
:102070000000eb00000f78000d0037001e04e800a0
:102080009e007800405d21000080400010407800f4
:1020900080407800c0cdb30067140700804078000e
:1020a000405d210000004400014878001e8fe800d8
:1020b0009e007800700d2000808f5000efff3600ea
:1020c000591407004f0478000080fa000000060051
:1020d0000600fa00000f78001e0078002007980024
:1020e0002e009000e10f50000a0032002e009000f8
:1020f000e20f50000a0032002e0090000000e000c5
:102100000100320009003700c0c0b30017f6b70065
:102110000900370080c0b30017f6b700060037008b
:1021200020c0b30017f6b700030037000080eb00b3
:1021300010079800020037000000eb00100798001d
:102140001e0090000080fa00000006000400fa0063
:10215000000f7800400420009e0f1000060032009f
:10216000100120009e0f10000300320030032000f9
:102170009e0f100005003a001e00780007f6b70019
:102180000000eb0010079800020037000080eb0011
:10219000100798001e0090000080fa000000060062
:1021a0000400fa00000f78001e00e0001500320065
:1021b000000220009e0f10001200320000032000d9
:1021c0009e0f10000f003200000420009e0f100030
:1021d0000c003200000520009e0f100009003200a4
:1021e000000620009e0f10000600320000062000ae
:1021f0009e0f100003003200000120009e0f10000f
:1022000005003a001e00780001f6b7000000eb0060
:1022100010079800020037000080eb0010079800bc
:102220001e0090000080fa00000006000a00fa007c
:102230002007980031079800ae0090003e00900003
:10224000808f5000030039000080eb0040079800a9
:102250001e003700be00900030382000808f5000f4
:10226000030036000080eb0040079800170037009d
:102270002e0090000000e900200798002e0090003a
:10228000204798002e0090004800de00304798005c
:102290003e009000004f78003e0090004800de00b5
:1022a000104798003e409000ddf5b7002e409000aa
:1022b000dff5b7001e409000e5f5b7001e4078003e
:1022c000e7f5b7000000eb00400798004e009000d3
:1022d0000080fa00000006000a00fa0020079800bb
:1022e00031079800ae0090003e009000808f5000b3
:1022f000030039000080eb00400798001b00370006
:10230000be009000301f2000808f50000300360078
:102310000080eb0040079800140037002e0090006a
:10232000204798002e0090004800de0030479800bb
:102330003e009000004f78003e0090004800de0014
:10234000104798003e409000e1f5b7002e40900005
:10235000e3f5b7001e409000e9f5b7001e40780095
:10236000ebf5b7000000eb00400798004e0090002e
:102370000080fa00000006000e00fa003007980006
:102380004107980052079800be0090004e00900050
:10239000808f5000030039000080eb006007980038
:1023a0002b003700ce009000301f2000808f50009f
:1023b000030036000080eb0060079800240037001f
:1023c000de00900030382000808f5000030036007f
:1023d0000080eb00600798001d0037003e00900071
:1023e000404798003e0090004800de0050479800ab
:1023f0004e009000204798004e0090004800de00fc
:10240000304798005e009000104798005e009000f2
:102410004800de00004f78005e40900065f6b7008f
:102420004e40900067f6b7003e40900069f6b70056
:102430002e4090006bf6b7001e4078006df6b70096
:102440001e4090006ff6b7000000eb006007980098
:102450006e0090000080fa00000006000600fa00fe
:1024600010079800210798001e0090000000e0006f
:10247000060032002e0090000000e0000300320051
:10248000a0ccb300004f78000e0037001e00900073
:102490000000e00003003200a0c4b300004f780049
:1024a000080037002e0090000000e000030032001a
:1024b000a0c8b300004f780002003700a0c0b300ee
:1024c000004f78001e40780003f6b7000080fa0045
:1024d000000006000600fa002047980031479800e7
:1024e0000000eb00000f7800100037009e0078001d
:1024f000405d210000804000904078002e40900018
:1025000080cf500008003a001e00e800415d210025
:1025100001004000be409000014878000000eb0040
:1025200020079800070037001e8fe8009e00780003
:10253000700d2000808f5000ecff36008080eb0093
:10254000210798002e0090000080fa00000006008d
:102550000800fa0020479800210798000000eb00cf
:10256000000f7800110037009e007800405d2100c8
:1025700000804000904078002e40900080cf5000b6
:1025800009003a009e00e800405d21000080400004
:10259000904078002e009000014878000000eb0089
:1025a00030079800070037001e8fe8009e00780073
:1025b000700d2000808f5000ebff36000080eb0094
:1025c000300798003e0090000080fa0000000600ee
:1025d0000200fa00004f7800114798001e4090005a
:1025e000edf5b7001e407800eff5b7000080fa0067
:1025f000000006000800fa00004f7800114798001c
:10260000224798003347980044479800f0c4b3002d
:102610009e4f1000030036000080eb00300798004a
:102620000c0037001e407800f1f5b7001e40900006
:10263000f3f5b7002e409000f5f5b7004e4090003e
:10264000f7f5b7003e409000f9f5b7000000eb0049
:10265000300798003e0090000080fa00000006005d
:102660000400fa00008fbe001e00be004a09dd0013
:102670004600de0000007100c608de00fdf5b70070
:102680001e00be004209dd004e00de0000007100a9
:10269000ce08de00fbf5b7000040eb00fff5b70009
:1026a0000080fa00000006000200fa00004f7800e7
:1026b0001e40780009f6b7000080fa00000006000e
:1026c0000200fa00000f78001e00e0000500320052
:1026d00019d6bf0001c8b3000140700019f6b70059
:1026e0000300370019d6bf000074a10019f6b70027
:1026f0000080fa00000006000400fa00004f780095
:1027000011479800224798001e4078001df6b70038
:102710001e4090001ff6b7002e40900021f6b70033
:102720000080fa00000006000200fa00004f780066
:10273000114798001e4078007f4060000045b000bf
:1027400023f6b7001e40900025f6b7000080fa007f
:10275000000006000600fa001007980041479800a4
:102760004e4090000000fb00630060004500dd006b
:102770008040780000c8b30000c04000abf6b7004e
:102780000000eb00000f78000d0037001e007800fd
:102790000000400032052000000141001e007800ca
:1027a000800078001e00900000804000904078007b
:1027b000405d210000004100014878001e0fe80044
:1027c0001e007800e10f5000f0ff36000080fa0094
:1027d000000006000000fa008f120700abd6bf0011
:1027e00000417800aad6bf0080407800c0cdb30079
:1027f000b51207008c120700c163210091407800d8
:1028000026d6bf00020007000080fa000000060084
:102810000600fa0040479800514798000000eb007e
:10282000000f78007c1207000000eb0010079800f2
:102830001f0037009e009000405d21000080400096
:10284000904078004e40900080cf50001500390035
:102850009e009000405d2100008040009040780084
:102860005e40900080cf50000e003e001e009000a1
:102870008000e800405d21000080400010407800aa
:10288000004178009e009000405d210000804000e3
:102890001040780080407800c0cdb3008a12070055
:1028a0001e0fe8001e0090000080e800100798004e
:1028b0009e009000700d2000808f5000ddff3600dc
:1028c000591207001e0078000080fa000000060080
:1028d0000400fa00100798000000eb00000f7800d9
:1028e0000d0037001e00780000004000b2062000f6
:1028f000000141001e007800800078001e0090005a
:102900000080400090407800405d210000004100c0
:10291000014878001e0fe8001e007800e10f50000b
:10292000f0ff36000080fa00000006000200fa0006
:10293000004f7800114798001e40780051f6b7000c
:102940001e40900053f6b7000080fa000000060019
:102950000200fa00004f7800114798001e407800ee
:1029600055f6b7001e40900057f6b7000080fa00f9
:10297000000006000200fa00004f7800114798009e
:102980001e40780059f6b7001e4090005bf6b70075
:102990000080fa00000006000200fa00004f7800f4
:1029a0001e80fb004400dd006f40400071f6b70060
:1029b0000080fa00000006000200fa00004f7800d4
:1029c000114798001e80fb004400dd008040780025
:1029d0001e4090006f40600000c0400073f6b700da
:1029e0000080fa00000006000200fa00004f7800a4
:1029f000114798001e4090000080fb004400dd005d
:102a0000804078001e4078006f40600000c04000a9
:102a100075f6b7000080fa00000006000400fa0016
:102a2000008fbe001e00be004088de00cf80de00aa
:102a300077f6b7001e00be004809dd004800de0042
:102a400000007100c888de0079f6b7001e0078002b
:102a50007bf6b7000080fa00000006000200fa00d2
:102a6000004f78001e4078007df6b7000080fa0025
:102a7000000006000400fa00000f7800110798001b
:102a80001e0078004800de0083f6b7001e007800c4
:102a900085f6b7001e0090004800de0087f6b700fc
:102aa0001e00900089f6b7000080fa0000000600c2
:102ab0000600fa00004f780011479800224798005e
:102ac0003347980044479800554798002e4090009f
:102ad0008bf6b7003e4090008df6b7001e407800a0
:102ae0008ff6b7001e40900091f6b7004e40900060
:102af00093f6b7005e40900095f6b7000080fa00ac
:102b0000000006000a00fa00000f78001107980084
:102b10002207980033079800200d20001e0f400068
:102b20001e009000200db000100798002e009000ad
:102b300067004000200798003e00900067004000ba
:102b4000300798009e00900020352000808f5000b4
:102b5000030036000080eb00400798003900370082
:102b6000be009000701e2000808f500003003600d1
:102b70000080eb0040079800320037001e009000f4
:102b80009e0f100004003100ae0090003e00900047
:102b9000808f5000030039000080eb004007980050
:102ba00028003700501a20009e0f10000c0036003d
:102bb0009e00900090272000808f500008003e006b
:102bc000ae009000700a2000808f50000400360094
:102bd000be00900060142000808f5000030036007b
:102be0000080eb0040079800160037001e007800b8
:102bf0004800de0097f6b7001e00780099f6b7008f
:102c00001e0090004800de009bf6b7001e009000fa
:102c10009df6b7002e0090004800de009ff6b7003a
:102c20002e009000a1f6b7003e0090004800de00a4
:102c3000a3f6b7003e009000a5f6b7000000eb0039
:102c4000400798004e0090000080fa000000060047
:102c50000600fa0010079800210798001e00900057
:102c60000000e000060032002e0090000000e000ae
:102c700003003200c0c3b300004f78000e003700dd
:102c80001e0090000000e00003003200c0c2b3004c
:102c9000004f7800080037002e0090000000e00090
:102ca00003003200c0c1b300004f780002003700bb
:102cb000c0c0b300004f78001e407800a7f6b700f0
:102cc0000080fa00000006000200fa00000f780001
:102cd0001e00e000050032000bd6bf00f1c7b300b4
:102ce000014060000bf6b700040037000bd6bf00b0
:102cf00001c8b300014070000bf6b7000080fa0075
:102d0000000006000400fa00000f78001107980088
:102d10001e00e000050032000bd6bf00f1cbb3006f
:102d2000014060000bf6b700040037000bd6bf006f
:102d300001c4b300014070000bf6b7001e00900004
:102d40000000e000050032000bd6bf00f1cdb3005b
:102d5000014060000bf6b700040037000bd6bf003f
:102d600001c2b300014070000bf6b7000080fa000a
:102d7000000006000a00fa0001d6bf000080fb0038
:102d80004007980000032000ce009000808f500084
:102d90003100320000032000ce009000808f5000f0
:102da0000b003c004e009000f00f5000220032005b
:102db00000022000ce009000808f500022003200e0
:102dc0004e0090000000e00017003200360037008f
:102dd00000052000ce009000808f500026003200b9
:102de00000052000ce009000808f500005003c00c0
:102df00000042000ce009000808f50001a003200a6
:102e00002900370000062000ce009000808f50007f
:102e10001d00320000072000ce009000808f50007f
:102e20001d003200200037000000280001072000ac
:102e3000008fbe0020003700000020006109200044
:102e4000008fbe001c00370000002400810320001a
:102e5000008fbe001800370000002200c1012000d2
:102e6000008fbe001400370000002100e1002000a8
:102e7000008fbe001000370000802000710020008d
:102e8000008fbe000c0037000040280031002000f9
:102e9000008fbe000800370000202c001100200029
:102ea000008fbe00040037006000b80020079800c3
:102eb000310798000a00370017d6bf00ec4f5000ca
:102ec00004003a001e00be0000004000818048005f
:102ed000008fbe001e00be0020079800310798003a
:102ee0002e009000be0090000080fa000000060056
:102ef0001000fa0020079800310798004207980058
:102f000053079800640798005e0090000000e000fe
:102f1000030035005e009000e30f50000300340012
:102f20000080eb00700798004e0037006e009000a4
:102f30000000e000030035006e009000e30f500039
:102f4000030034000080eb00700798004500370054
:102f500088ff07000002be0084007800606a20003d
:102f6000000bb8006020b9000701780000014100a3
:102f7000606a200000a8b9000001410082037800c7
:102f80002e0090006101b9000600be006df507003b
:102f90001007980077ff07000002be008400780049
:102fa000606a2000000bb8006020b90007017800bb
:102fb00000014100606a200000a8b9000001410042
:102fc000820378003e0090006101b9000600be0057
:102fd0005cf50700000f78001e0090004800de003e
:102fe0000ff6b7001e00900011f6b7001e00780023
:102ff0004800de0013f6b7001e00780015f6b70093
:103000004e0090000000e000040032000bd6bf002c
:103010000044a0000bf6b700040037000bd6bf0039
:10302000f1ceb300014060000bf6b7006e009000d7
:10303000e34060005e009000630060004200dd003d
:1030400000c140000bd6bf008040780000cfb30025
:1030500000c06000004041000bf6b7000000eb002c
:10306000700798007e0090000080fa0000000600c3
:103070000600fa00000f7800110798001e00780083
:10308000200798002e009000e30f500067003200e8
:103090002e009000e30f500007003e002e0090002d
:1030a000e10f50002e0032002e009000e10f500082
:1030b00041003e000d0037002e009000e50f50004b
:1030c000940032002e009000e50f5000740039008b
:1030d0002e009000e60f5000ab0032002e00900052
:1030e000e70f5000c5003200da0037001e009000e4
:1030f000e10f50000f003600c4c2bf000080fb008b
:103100004600de00614060000004a20061406000f3
:10311000614060004601dd00412c200091407800b4
:10312000f0cbb30000c0600002407000c4e2b70002
:103130001e0137001e009000614060006140600089
:103140004601dd00412c200091407800f0cbb30017
:1031500000c0600002407000c4e2b70013013700f5
:103160001e009000e10f50000b003600c4c2bf00eb
:103170000080fb004700de000004a2006140600008
:10318000c700dd00c4c2bf000074a1000140700090
:10319000c4e2b700050137001e00900061406000e6
:1031a000c700dd00c4c2bf000074a1000140700070
:1031b000c4e2b700fd0037001e009000e10f500090
:1031c0000f003600c5c2bf000080fb000000d10028
:1031d000614060000004a200614060006140600046
:1031e00000414000512c200091407800d0cfb30026
:1031f00000c0600002407000c5e2b700eb0037007d
:103200001e0090006140600061406000004140008d
:10321000512c200091407800d0cfb30000c0600056
:1032200002407000c5e2b700e00037001e009000c9
:10323000e10f50000f003600c5c2bf000080fb0048
:103240004400de00614060000004a20061406000b4
:10325000614060004401dd00512c20009140780065
:10326000f0ceb30000c0600002407000c5e2b700bd
:10327000ce0037001e009000614060006140600099
:103280004401dd00512c200091407800f0ceb300c5
:1032900000c0600002407000c5e2b700c300370004
:1032a0001e009000e10f50000f003600c5c2bf00a5
:1032b0000080fb004200de00614060000004a200cc
:1032c00061406000614060004201dd00512c20003f
:1032d00091407800b0cfb30000c0600002407000a1
:1032e000c5e2b700b10037001e00900061406000e9
:1032f000614060004201dd00512c200091407800c7
:10330000b0cfb30000c0600002407000c5e2b7005b
:10331000a60037001e009000e10f50000f0036009d
:10332000c5c2bf000080fb004500de0061406000b8
:103330000004a20061406000614060004501dd00c2
:10334000512c200091407800f0cdb30000c0600007
:1033500002407000c5e2b700940037001e009000e4
:1033600061406000614060004501dd00512c20009b
:1033700091407800f0cdb30000c0600002407000c2
:10338000c5e2b700890037001e009000e10f500031
:103390000f003600c5c2bf000080fb004600de0003
:1033a000614060000004a200614060006140600074
:1033b0004601dd00512c200091407800f0cbb30095
:1033c00000c0600002407000c5e2b700770037001f
:1033d0001e00900061406000614060004601dd0019
:1033e000512c200091407800f0cbb30000c0600069
:1033f00002407000c5e2b7006c0037001e0090006c
:10340000e10f50000b003600c5c2bf000080fb007a
:103410004700de000004a20061406000c700dd003c
:10342000c5c2bf000074a10001407000c5e2b70032
:103430005e0037001e00900061406000c700dd00a4
:10344000c5c2bf000074a10001407000c5e2b70012
:10345000560037001e00900061406000c700dd008c
:10346000c5c2bf000074a10001407000c5e2b700f2
:10347000c5c2bf000080fb004700de006140600065
:103480004601dd00512c200091407800f0cbb300c4
:1034900000c0600002407000c5e2b700c5c2bf00b6
:1034a0000080fb004600de0061406000614060007b
:1034b0004501dd00512c200091407800f0cdb30093
:1034c00000c0600002407000c5e2b700c5c2bf0086
:1034d0000080fb004500de0061406000614060004c
:1034e0004201dd00512c200091407800b0cfb300a4
:1034f00000c0600002407000c5e2b700c5c2bf0056
:103500000080fb004200de0061406000614060001e
:103510004401dd00512c200091407800f0ceb30032
:1035200000c0600002407000c5e2b700c5c2bf0025
:103530000080fb004400de006140600061406000ec
:1035400000414000512c200091407800d0cfb300c2
:1035500000c0600002407000c5e2b700c5c2bf00f5
:103560000080fb000000d10061406000c700dd006a
:10357000c4c2bf000074a10001407000c4e2b700e3
:10358000c4c2bf000080fb004700de006140600055
:103590004601dd00412c200091407800f0cbb300c3
:1035a00000c0600002407000c4e2b7000080fa0072
:1035b000000006000000fa00c4c2a900c4e2a9008d
:1035c000c522a900c582a900c542a900c5a2a900bb
:1035d000c5c2a900c5e2a9000080fa0000000600eb
:1035e0000200fa00000f7800100020009e0f10006b
:1035f0000f003600d0c2bf000080fb004200de009a
:10360000614060000004a200614060006140600011
:103610004201dd00012d200091407800b0cfb300c1
:1036200000c0600002407000d0e2b7000a0037001e
:103630001e00780061406000614060004201dd00d2
:10364000012d200091407800b0cfb30000c0600091
:1036500002407000d0e2b7000080fa0000000600cf
:103660000200fa00000f7800100020009e0f1000ea
:103670000f003600d0c2bf000080fb000000d10068
:10368000614060000004a200614060006140600091
:1036900000414000012d200091407800d0cfb300c0
:1036a00000c0600002407000d0e2b7000a0037009e
:1036b0001e007800614060006140600000414000f1
:1036c000012d200091407800d0cfb30000c06000f1
:1036d00002407000d0e2b7000080fa00000006004f
:1036e0000000fa00c4c2bf000080fb004600de00fc
:1036f0006140600000c0ea0061406000614060001d
:103700004601dd00412c200091407800f0cbb30051
:1037100000c0600002407000c4e2b700c4c2bf0035
:103720000080fb004700de0000c0ea00614060004e
:10373000c700dd00c4c2bf000074a10001407000da
:10374000c4e2b700c5c2bf000080fb000000d1008a
:103750006140600000c0ea006140600061406000bc
:1037600000414000512c200091407800d0cfb300a0
:1037700000c0600002407000c5e2b700c5c2bf00d3
:103780000080fb004400de006140600000c0ea00f1
:1037900061406000614060004401dd00512c200068
:1037a00091407800f0ceb30000c06000024070008d
:1037b000c5e2b700c5c2bf000080fb004200de00ca
:1037c0006140600000c0ea0061406000614060004c
:1037d0004201dd00512c200091407800b0cfb300b1
:1037e00000c0600002407000c5e2b700c5c2bf0063
:1037f0000080fb004500de006140600000c0ea0080
:1038000061406000614060004501dd00512c2000f6
:1038100091407800f0cdb30000c06000024070001d
:10382000c5e2b700c5c2bf000080fb004600de0055
:103830006140600000c0ea006140600061406000db
:103840004601dd00512c200091407800f0cbb30000
:1038500000c0600002407000c5e2b700c5c2bf00f2
:103860000080fb004700de0000c0ea00614060000d
:10387000c700dd00c5c2bf000074a1000140700098
:10388000c5e2b7000080fa00000006000000fa0060
:10389000c4c2bf000080fb004600de006140600043
:1038a00000c0ea0061406000614060004601dd0048
:1038b000412c200091407800f0cbb30000c06000a4
:1038c00002407000c4e2b7000080fa000000060069
:1038d0000000fa00c4c2bf000080fb004700de0009
:1038e00000c0ea0061406000c700dd00c4c2bf0044
:1038f0000074a10001407000c4e2b7000080fa002b
:10390000000006000000fa00c5c2bf000080fb00f6
:103910000000d1006140600000c0ea00614060002a
:103920006140600000414000512c2000914078002f
:10393000d0cfb30000c0600002407000c5e2b70005
:103940000080fa00000006000000fa00c5c2bf00b7
:103950000080fb004400de006140600000c0ea001f
:1039600061406000614060004401dd00512c200096
:1039700091407800f0ceb30000c0600002407000bb
:10398000c5e2b7000080fa00000006000000fa005f
:10399000c5c2bf000080fb004200de006140600045
:1039a00000c0ea0061406000614060004201dd004b
:1039b000512c200091407800b0cfb30000c06000cf
:1039c00002407000c5e2b7000080fa000000060067
:1039d0000000fa00c5c2bf000080fb004500de0009
:1039e0006140600000c0ea0061406000614060002a
:1039f0004501dd00512c200091407800f0cdb3004e
:103a000000c0600002407000c5e2b7000080fa000c
:103a1000000006000000fa00c5c2bf000080fb00e5
:103a20004600de006140600000c0ea0061406000c6
:103a3000614060004601dd00512c2000914078007b
:103a4000f0cbb30000c0600002407000c5e2b700d8
:103a50000080fa00000006000000fa00c5c2bf00a6
:103a60000080fb004700de0000c0ea00614060000b
:103a7000c700dd00c5c2bf000074a1000140700096
:103a8000c5e2b7000080fa00000006000200fa005c
:103a9000000f78009e00780000b72100480b070057
:103aa0000080fa00000006000000fa0000b72100c4
:103ab000730b07000080fa00000006000200fa0005
:103ac000000f78001e00e000030035009e00780023
:103ad00000b72100920b07000080fa0000000600ea
:103ae0000000fa0058d7bf000004e0000b003a00c5
:103af0008000eb00700020005dfd070058d7bf007c
:103b00000080fb001100200059fd070058d7bf00be
:103b10000040e80058f7b7001b00370058d7bf0037
:103b2000e74f50000c003a0058d7bf000080fb0060
:103b30000000e9008000eb004dfd070058d7bf00f2
:103b40000080fb001100200049fd07000040eb0051
:103b500058f7b7000c00370058d7bf000080fb00b3
:103b60000000e9008000eb0041fd070058d7bf00ce
:103b70000080fb00110020003dfd070058d7bf006a
:103b80000040e80058f7b7000080fa000000060087
:103b90000200fa0059d7bf000080fb00000f780038
:103ba0001e007800e20f50001c0032001e0078005a
:103bb000e20f500007003c001e0078000000e0000b
:103bc0000b0032001e007800e10f50000c003200a4
:103bd000230037001e007800e30f5000160032006b
:103be0001e007800e40f50001a0032001c0037005d
:103bf000210020000000eb001dfd07001800370029
:103c0000210020001000200019fd070021002000e5
:103c10007000200016fd0700110037002100200071
:103c20002000200012fd070021002000600020007d
:103c30000ffd07000a00370021002000300020009f
:103c40000bfd0700210020005000200008fd0700a8
:103c500003003700210020004000200004fd070081
:103c600059d7bf00e34f500004003e0059d7bf00b2
:103c70000040e80059f7b700020037000040eb00b1
:103c800059f7b7000080fa00000006000000fa00b3
:103c90005ad7bf000004e0000f003a0060d7bf0011
:103ca0000004e0000c00320010c0b3005af7b70067
:103cb0008000eb000000eb00edfc07005ad7bf00ce
:103cc0000080fb0011002000e9fc07000040eb0031
:103cd00060f7b7002b0037005ad7bf000004e000a0
:103ce0000f003a0060d7bf000004e0000c003a006b
:103cf00070c0b3005af7b7008000eb000000eb0083
:103d0000dbfc07005ad7bf000080fb001100200039
:103d1000d7fc070010c0b30060f7b70019003700e8
:103d20005ad7bf00e74f50000a003a000040eb00ae
:103d30005af7b7008000eb0070002000ccfc0700b1
:103d40005ad7bf000080fb0011002000c8fc07000c
:103d50000c0037005ad7bf00e14f500009003a006d
:103d60000040eb005af7b7008000eb001000200085
:103d7000bffc07005ad7bf000080fb0011002000e5
:103d8000bbfc07000080fa00000006000200fa00f9
:103d90005bd7bf000080fb00000f78001e0078009a
:103da000e10f5000150032001e007800e10f5000b6
:103db00004003c001e0078000000e0000800320013
:103dc0001a0037001e007800e20f50001200320087
:103dd0001e007800e30f500013003200130037007c
:103de000210020000000eb00a1fc070021002000c2
:103df000400020009efc07000c003700210020003e
:103e0000100020009afc0700210020003000200054
:103e100097fc07000500370021002000200020004b
:103e200093fc070001003700e2fd07005bd7bf00ed
:103e3000e24f500004003e005bd7bf000040e800a6
:103e40005bf7b700020037000040eb005bf7b700fc
:103e50000080fa00000006000200fa005cd7bf00f4
:103e60000080fb00000f78001e007800e10f50007a
:103e7000150032001e007800e10f500004003c00e5
:103e80001e0078000000e000080032001a00370031
:103e90001e007800e20f5000120032001e00780071
:103ea000e30f500013003200130037002100200000
:103eb0000000eb006efc0700210020004000200005
:103ec0006bfc07000c003700210020007000200070
:103ed00067fc0700210020005000200064fc070060
:103ee00005003700210020006000200060fc070072
:103ef00001003700affd07005cd7bf00e24f500064
:103f000004003e005cd7bf000040e8005cf7b7004b
:103f1000020037000040eb005cf7b7000080fa00b9
:103f2000000006000000fa000000370006c2bf00d3
:103f3000614060000004e000fcff3a0006c2bf00e0
:103f4000644060000004e000f8ff3a0006c2bf00d1
:103f5000684060000004e000f4ff3a0006c2bf00c1
:103f6000704060000004e000f0ff3a0009c2bf00aa
:103f70000044b2000004e000ecff3a000080fa00c8
:103f8000000006000400fa006009200020108800ec
:103f900007e2a90007e2a80085c0a90085a0a90042
:103fa000b10920009140780080cfb30000c06000cc
:103fb0005040b3009be0b7008da0a9000071220023
:103fc00001002000008fbe00040037000080eb00dd
:103fd0008080eb001e0f40005e9748001e00be0070
:103fe000e00f5000e08f5800f8ff3a00100020006a
:103ff0000080fa00000006000400fa006000b8002b
:10400000008fbe0007e2a90085c0a90085a0a90015
:104010008da0a9000071220001002000008fbe00c9
:10402000040037000080eb008080eb001e0f400092
:104030005e9748001e00be00e00f5000e08f580061
:10404000f8ff3a00cfff07000f00070000712200c1
:1040500001002000008fbe00040037000080eb004c
:104060008080eb001e0f40005e9748001e00be00df
:10407000e00f5000e08f5800f8ff3a0010002000d9
:104080000080fa00000006000000fa0085c0a900c8
:104090008dc0a800100020000080fa00000006007b
:1040a0000000fa0085c0a9008dc0a9001000200002
:1040b0000080fa00000006000600fa0010c0b300fd
:1040c00044f7b70008c2bf00704060000004e00081
:1040d000160032000602a800007122000100200034
:1040e000008fbe000a00370044d7bf000004e00084
:1040f00003003a0010002000200798000d00370050
:104100000080eb008080eb001e0f40005e974800af
:104110001e00be00e00f5000e08f5800f2ff3a0092
:104120008000eb0021079800020037000000eb0040
:10413000200798002e0090000080fa000000060082
:104140000600fa0060c0b30044f7b70008c2bf0021
:10415000684060000004e000160032000622a8005b
:104160000071220001002000008fbe000a0037000d
:1041700044d7bf000004e00003003a001000200014
:10418000200798000d0037000080eb008080eb00d6
:104190001e0f40005e9748001e00be00e00f50005a
:1041a000e08f5800f2ff3a008000eb0021079800f2
:1041b000020037000000eb00200798002e0090005e
:1041c0000080fa00000006000600fa0050c0b300ac
:1041d00044f7b7000642a800007122000100200049
:1041e000008fbe000a00370044d7bf000004e00083
:1041f00003003a0010002000200798000a00370052
:104200000080eb008080eb001e0f40005e974800ae
:104210001e00be00e00f5000e08f5800f2ff3a0091
:104220008000eb00210798002e0090000080fa002b
:10423000000006000600fa0030c0b30044f7b700e3
:1042400006c2bf00614060000004e00010003a00b8
:1042500006c2bf00644060000004e0000c003a00a9
:1042600006c2bf00684060000004e00008003a0099
:1042700006c2bf00704060000004e00004003a0085
:1042800006c2bf00624060000004e000030032008c
:104290000000eb00200798001600370006a2a900d6
:1042a0000682a8000071220001002000008fbe00dd
:1042b0000a00370044d7bf000004e00003003a00c2
:1042c00011002000210798000a0037000080eb0051
:1042d0008080eb001e0f40005e9748001e00be006d
:1042e000e00f5000e08f5800f2ff3a008000eb0032
:1042f000210798002e0090000080fa0000000600c0
:104300000600fa0030c0b30044f7b70006c2bf0091
:10431000614060000004e00010003a0006c2bf00e7
:10432000644060000004e0000c003a0006c2bf00d8
:10433000684060000004e00008003a0006c2bf00c8
:10434000704060000004e00004003a0006c2bf00b4
:10435000624060000004e000030032000000eb0057
:10436000200798001600370006a2a8000682a800c1
:104370000071220001002000008fbe000a003700fb
:1043800044d7bf000004e00003003a001100200001
:10439000210798000a0037000080eb008080eb00c6
:1043a0001e0f40005e9748001e00be00e00f500048
:1043b000e08f5800f2ff3a008000eb0021079800e0
:1043c0002e0090000080fa00000006000a00fa00ab
:1043d00030079800007122000100200010079800ab
:1043e000210798000040eb00004f780040c0b30068
:1043f00044f7b70000712200010020001007980068
:10440000210798001d00370006c2bf006140600010
:104410000004e00013003a0006c2bf0064406000e0
:104420000004e0000f003a0006c2bf0068406000d0
:104430000004e0000b003a0006c2bf0070406000bc
:104440000004e00007003a0009c2bf000044b200c7
:104450000004e00003003a0010c0b300004f7800f1
:104460000b0037001e009000ae009000610050006d
:10447000e080580010079800210798001e00900067
:10448000ae009000e00f5000e08f5800deff3a00d1
:104490001e04e00003003a000000eb004007980013
:1044a0001d0037000662a800006a280011002000e5
:1044b00010079800210798001000370044d7bf006c
:1044c0000004e00007003a0000c2bf00804078000e
:1044d0003e0090000148780010002000400798003e
:1044e0000d0037001e009000ae00900061005000eb
:1044f000e080580010079800210798001e009000e7
:10450000ae009000e00f5000e08f5800ebff3a0043
:104510000000eb00400798004e0090000080fa0079
:10452000000006000800fa004047980020c0b300d1
:1045300044f7b7004e40900002e2b700007122003d
:1045400001002000008fbe000a00370044d7bf00e2
:104550000004e00003003a0010002000300798003b
:104560000a0037000080eb008080eb001e0f400047
:104570005e9748001e00be00e00f5000e08f58001c
:10458000f2ff3a008000eb00310798003e009000f7
:104590000080fa0000000600801f78003400f80058
:1045a00000002000a00188000000fa0085c0a900da
:1045b0000040eb0044f7b7000080fa003400f90037
:1045c0004f007800004006000200fa00004f78001b
:1045d000110b07001e41780031c0b300c0cdb300fd
:1045e000390b0700100b07000080fa0000000600de
:1045f0000400fa00004f7800114798002247980005
:104600001e407800f0ff0700030b07002e419000ca
:104610009e409000c0cdb3002b0b0700020b07009b
:104620000080fa00000006000400fa00204798000d
:10463000314798002e409000e3ff0700f60a07007c
:10464000be409000c0cdb300fb0a0700004f7800c9
:10465000f50a07001e80fb000080fa00000006003b
:104660000200fa00004f78001e41780011c9b30023
:104670000040eb00deff07000080fa0000000600ab
:104680000200fa00004f78001e41780081c6b30096
:1046900010c0b300d6ff07000080fa00000006003b
:1046a0000600fa00004f78001e80fb0020079800eb
:1046b00000042000ae009000808f50001a003200ed
:1046c00000082000ae009000808f500027003200cc
:1046d00000022000ae009000808f500001003200e8
:1046e0003300370010c0b300e5ff07001e4178001b
:1046f00001c8b30010c0b300bdff07001e41780021
:1047000011c8b30010c0b300b9ff070012c0b30056
:1047100021c8b30010c0b300b5ff07000000eb00d4
:10472000100798002400370030c0b300d4ff070002
:104730001e41780001c8b30010c0b300acff0700f1
:104740001e41780011c8b30010c0b300a8ff0700d5
:1047500012c0b30021c8b30010c0b300a4ff07000b
:104760008000eb00110798001300370070c0b30001
:10477000c3ff07001e41780001c8b30010c0b3009a
:104780009bff07001e41780011c8b30010c0b300a2
:1047900097ff070012c0b30021c8b30010c0b300d8
:1047a00093ff07000000eb0010079800020037009d
:1047b0008080eb00110798001e0090000080fa0036
:1047c000000006000600fa00004f78001e80fb0083
:1047d0002007980000042000ae009000808f500059
:1047e0001a00320000082000ae009000808f5000b8
:1047f0002700320000022000ae009000808f5000a1
:1048000001003200330037000040eb009cff07003e
:104810001e41780001c8b30010c0b30074ff070048
:104820001e41780011c8b30010c0b30070ff07002c
:1048300012c0b30021c8b30010c0b3006cff070062
:104840000000eb00100798002400370010c0b300f0
:104850008bff07001e41780001c8b30010c0b300f1
:1048600063ff07001e41780011c8b30010c0b300f9
:104870005fff070012c0b30021c8b30010c0b3002f
:104880005bff07008000eb00110798001300370062
:1048900030c0b3007aff07001e41780001c8b300a2
:1048a00010c0b30052ff07001e41780011c8b300ca
:1048b00010c0b3004eff070012c0b30021c8b30000
:1048c00010c0b3004aff07000000eb00100798007b
:1048d000020037008080eb00110798001e00900056
:1048e0000080fa00000006000600fa00004f780081
:1048f000114798001e80fb00200798002e009000b2
:10490000e10f50000f0032002e009000e20f500027
:10491000140032002e0090000000e0000100320080
:1049200018003700d2c0b30081c3b30010c0b30079
:104930002fff07001e40900059ff07001007980046
:104940001200370082c0b30081c3b30010c0b300af
:1049500027ff07001e4090009aff070010079800ed
:104960000a00370022c0b30081c3b30010c0b300f7
:104970001fff07001e40900092ff070010079800dd
:10498000020037000080eb00100798001e00900026
:104990000080fa00000006000a00fa0020079800d4
:1049a00031079800ae0090003e009000808f5000cc
:1049b000030039000080eb00400798001e0037001c
:1049c000be009000f0312000808f500003003600c0
:1049d0000080eb0040079800170037002e00900081
:1049e0000000e900200798002e0090002047980062
:1049f0002e0090004800de00304798003e009000f6
:104a0000004f78003e0090004800de0010479800fc
:104a10002e41900011c5b30010c0b300f4fe070092
:104a20003e41900001c5b30010c0b300f0fe070086
:104a30000000eb00400798004e0090000080fa0054
:104a4000000006000800fa002007980031079800cf
:104a50000000eb000080fa00000006000a00fa00e7
:104a60002007980031079800ae0090003e009000ab
:104a7000808f5000030039000080eb004007980051
:104a800023003700be009000301f2000808f5000b0
:104a9000030036000080eb00400798001c00370040
:104aa0002e009000204798002e0090004800de0065
:104ab000304798003e009000004f78003e00900084
:104ac0004800de00104798003e41900001c6b30048
:104ad00010c0b300c6fe07002e41900011c6b300ff
:104ae00010c0b300c2fe07001e41900021c6b300f3
:104af00010c0b300befe07001e41780031c6b300ef
:104b000010c0b300bafe07000000eb004007980099
:104b10004e0090000080fa00000006000200fa003b
:104b2000000f780012c0b300a1c5b30020c0b300cd
:104b3000affe070012c4b30021c3b30010c0b3001e
:104b4000abfe07001e00e00011003a0000c1eb00c0
:104b500081c8b30010c0b300a5fe070000c1eb0080
:104b600091c8b30010c0b300a1fe070082c0b3001b
:104b7000a1c8b30010c0b3009dfe070000c1eb0048
:104b8000b1c8b30010c0b30099fe07001000370091
:104b900002c2b30081c8b30010c0b30094fe070086
:104ba00002c8b30091c8b30010c0b30090fe070064
:104bb00082c0b300a1c8b30010c0b3008cfe0700d0
:104bc00000c1eb00b1c8b30010c0b30088fe0700fd
:104bd0000080fa00000006000600fa0010079800a6
:104be0002107980001c9b3000040eb008efe0700ca
:104bf000004f78001e0090000000e000030032002b
:104c000000c8b3001e4f700002003700f0c7b300a9
:104c10001e4f60002e0090000000e00003003200f4
:104c200000c4b3001e4f700002003700f0cbb30089
:104c30001e4f60001e41780001c9b3000040eb0028
:104c40006bfe07000080fa00000006000400fa0076
:104c500000ba80000000e0001f003200a1b980000f
:104c600080da2f00808f50001b003500a1b9800032
:104c700080252000808f500017003c00d602a9003c
:104c8000d622a900d642a900d662a9000000eb00f6
:104c900000ba8800a0b980000001780012079800cf
:104ca0001e0190000200e00003003d001e01900084
:104cb0000201ea0012079800007122001e01900014
:104cc000110009000200d800ef00500060622200cd
:104cd000130707004d003700a0b980000000e00076
:104ce0000c003400e0b980000000e800e0b9880062
:104cf000c0b980000000e900c0b98800c0b98000d8
:104d00000000e0000e003d0030002000c0b9880027
:104d10000b003700e0b980000000e900e0b988002e
:104d2000c0b980000000e800c0b98800c0b98000a8
:104d3000e30f5000020034000000eb00c0b988000f
:104d4000c0b98000000f78001e017800e10f51000b
:104d5000130032001e007800e10f500004003c00f8
:104d60001e0178000200e000080032001a0037003f
:104d70001e007800e20f50000e0032001e01780085
:104d8000e30f51001000320013003700d602a900d3
:104d9000d622a800d642a900d662a8000e0037008d
:104da000d602a900d622a800d642a800d662a90041
:104db00009003700d602a800d622a900d642a800d2
:104dc000d662a90004003700d602a800d622a900a6
:104dd000d642a900d662a800a1b9800080da2f00cf
:104de000808f500009003500a1b980008025200087
:104df000808f500005003c001000200000ba8800a1
:104e0000f100200060622200c50607000080fa0061
:104e1000000006000400fa0010ba80000000e00064
:104e20001f003200b1b9800080da2f00808f50005f
:104e30001b003500b1b9800080252000808f500014
:104e400017003c00d682a900d6a2a900d6c2a900ac
:104e5000d6e2a9000000eb0010ba8800b0b98000cb
:104e600000017800120798001e0190000200e00087
:104e700003003d001e0190000201ea0012079800a5
:104e8000007122001e019000110009000200d800ec
:104e9000ef005000a0702200a10607004d0037006f
:104ea000b0b980000000e0000c003d00f0b98000c7
:104eb0000000e900f0b98800d0b980000000e900e6
:104ec000d0b98800d0b980000000e0000e003d009d
:104ed00030002000d0b988000b003700f0b9800006
:104ee0000000e800f0b98800d0b980000000e800b8
:104ef000d0b98800d0b98000e30f50000200340020
:104f00000000eb00d0b98800d0b98000000f780015
:104f10001e017800e10f5100130032001e007800de
:104f2000e10f500004003c001e0178000200e00088
:104f3000080032001a0037001e007800e20f50000f
:104f40000e0032001e017800e30f51001000320005
:104f500013003700d682a900d6a2a800d6c2a900a5
:104f6000d6e2a8000e003700d682a900d6a2a8007b
:104f7000d6c2a800d6e2a90009003700d682a80050
:104f8000d6a2a900d6c2a800d6e2a9000400370024
:104f9000d682a800d6a2a900d6c2a900d6e2a8004f
:104fa000b1b9800080da2f00808f500009003500f1
:104fb000b1b9800080252000808f500005003c00a2
:104fc0001000200010ba8800f1002000a07022001c
:104fd000530607000080fa00000006000000fa00f7
:104fe0008000eb0060622200f50507008000eb0006
:104ff000a0702200f20507000080fa000000060001
:105000000200fa00000f78001e00e0000a003a00db
:105010000000eb00a0b988008000eb006062220075
:105020003f060700d602a900d622a900d642a90051
:10503000d662a9002d00370080c12f009e0f1000fe
:105040000a003d0080c12f00a0b98800a2b98000ed
:10505000008f2d00110009000200d80080007800a8
:10506000606222002e06070020003700803e2000ec
:105070009e0f10000a003400803e2000a0b9880076
:10508000a2b9800000712200110009000200d800be
:1050900080007800606222002106070013003700bc
:1050a0001e007800a0b988001e00e00008003d0046
:1050b000008f2d001e017800110009000200d800a9
:1050c00080007800606222001506070007003700a4
:1050d000007122001e017800110009000200d800b2
:1050e00080007800606222000d0607000080fa0050
:1050f000000006000200fa00000f78001e00e00029
:105100000a003a000000eb00b0b988008000eb0014
:10511000a070220002060700d682a900d6a2a9002c
:10512000d6c2a900d6e2a9002d00370080c12f0009
:105130009e0f10000a003d0080c12f00b0b988000a
:10514000b2b98000008f2d00110009000200d800c4
:1051500080007800a0702200f105070020003700d1
:10516000803e20009e0f10000a003400803e200088
:10517000b0b98800b2b980000071220011000900a6
:105180000200d80080007800a0702200e40507002b
:10519000130037001e007800b0b988001e00e00040
:1051a00008003d00008f2d001e017800110009004d
:1051b0000200d80080007800a0702200d805070007
:1051c00007003700007122001e017800110009005d
:1051d0000200d80080007800a0702200d0050700ef
:1051e0000080fa00000006000800fa00000f7800b6
:1051f000110798001e007800300798003e019000cb
:105200000200e00003003d003e0090000000ea00c4
:10521000300798001e019000220798002e00900091
:105220000000e00003003d002e0190000201ea00b2
:10523000220798003e0090002e019000820040005e
:10524000803e2000808f500006003c001e00900031
:105250001e0010006aff07001e0090001e004000a4
:10526000a4ff07000080fa00000006000000fa001a
:10527000e0b980000080fa00000006000200fa0099
:10528000000f78001e007800e0b988000080fa0066
:10529000000006000000fa00f0b980000080fa006b
:1052a000000006000200fa00000f78001e007800df
:0c52b000f0b988000080fa000000060041
:020000040000fa
:1052bc0000080000800c0000000000004c170000eb
:1052cc0006000000020000000000000000000000ca
:1052dc005217000006000000020000000000000051
:1052ec0000000000ac1600004400000002000000aa
:1052fc0000000000000000000000000000000000a2
:10530c000000000000000000000000000000000091
:10531c000000000000000000000000000000000081
:10532c000000000000000000000000000000000071
:10533c000000000000000000000000000000000061
:10534c00000000000000000000000000f01600004b
:10535c0044000000020000000000000000000000fb
:10536c000000000000000000000000000000000031
:10537c000000000000000000000000000000000021
:10538c000000000000000000000000000000000011
:10539c000000000000000000000000000000000001
:1053ac0000000000000000000000000000000000f1
:1053bc00000000005e17000002000000000000006a
:1053cc00d4150000d8000000020000000403050002
:1053dc0053060300075308000009d1000a000b0014
:1053ec00070c03000d510e00010fe7001202130011
:1053fc0002151000164017004018400019401a0002
:10540c00031be6001c001d00701e0a001f1b200061
:10541c00443b000046804800604996004a004b001f
:10542c007d4c00004e084f000a50700059005a0085
:10543c00005b00005cac5d0002760000771a78001f
:10544c002a7937007a427b00567c68007d877e0083
:10545c00a37fbc0080d48100ea8e38008fa5900019
:10546c000d919300922d93000694830095aa9600bb
:10547c004d97250098259b00009c96009f80a000ce
:10548c0080a1b600a29da300aba48000a500a6003d
:10549c0007a70100a8e7a90000aa0100ad9fae0074
:1054ac0022af8c00b007b100ccb20000b370b900d1
:1054bc0003bae600bb07bc00ccbd0000be0cc100ab
:1054cc0010c2e000c310c400e0c58000c680c70055
:1054dc0001c8a500c902ca007acb0000cca7cd0038
:1054ec0001ce4700d43cd50001d8800080140000c8
:1054fc0054010000000000003417000010000000f0
:10550c00000000005817000006000000000000001a
:10551c006017000002000000020000000100000003
:10552c006217000002000000000000004417000099
:10553c000800000000000000c21d00001000000068
:10554c0000000000661b0000d001000002000000fb
:10555c000100000000000000000008000000000036
:10556c0000000000004000000000000000000000ef
:10557c00000200000000000000000000100000000d
:10558c00000000000000800000000000000000008f
:10559c0000000400000000000000000000200000db
:1055ac0000000000000000000001000000000000ee
:1055bc000000000008000000000000000000400097
:1055cc0000000000000000000000020000000000cd
:1055dc0000000000001000000000000000000000af
:1055ec00800000000000000000000000040000002b
:1055fc00000000000000200000000000000000007f
:10560c000000010000000000000000000008000085
:10561c00000000000000000040000000000000003e
:10562c00000000000200000000000000000010005c
:10563c0000000000000000000080010000000000dd
:10564c00000000000010000000000000000000003e
:10565c00000100000000000000000000100000002d
:10566c00000000000000000001000000000000002d
:10567c00000010000000000000000000000001000d
:10568c0000000000000000000010000000000000fe
:10569c0000000000000100000000000000000000fd
:1056ac0010000000000000000000000001000000dd
:1056bc0000000000000010000000000000000000ce
:1056cc0000000100000000000000000000100000bd
:1056dc0000000000000000000001000000000000bd
:1056ec00000000001001000000000000000000009d
:1056fc000a00000000000000000064000000000030
:10570c000000000000e803000000000000000000a2
:10571c0010270000000000000000a000860100001f
:10572c0000000000004042000f00000000000000dc
:10573c00809698000000000000000000e1f50500d4
:10574c00000000000000ca009a3b000000000000ae
:10575c0000e40b005402000000000000e876480052
:10576c001700000000001000a5d4e80000000000a5
:10577c0000a072004e18090000000000407a1000d2
:10578c00f35a000000008000c6a47e008d030000c8
:10579c000000c1006ff2860023000000008a5d004b
:1057ac00784563000100000064a7b300b6e00d006b
:1057bc000000e80089042300c78a0000981d00003f
:1057cc002a00000002000000286e75006c6c290095
:1057dc00003031003233340035363700383941006f
:1057ec00424344004546000030313200333435002a
:1057fc00363738003961620063646500660000006a
:10580c00361d00006200000002000000381d64001c
:10581c001900000064190900000000000002640077
:10582c001700000064170a000301000000020000ca
:10583c000000000000000600020200000000000052
:10584c00000000000000000000000000000000004c
:10585c00000000000000000000000000000000003c
:10586c00000000000000000000000000000000002c
:10587c00000000000000000000000000000000001c
:10588c00000000000000000000000000000000000c
:10589c00641700000204000000000000d21d00008c
:1058ac000200000000000000d41d000002000000f7
:1058bc0000000000d61d00000200000000000000e7
:1058cc00d81d00000200000000000000da1d0000de
:1058dc000200000000000000dc1d000002000000bf
:0c58ec00020000000100000000000000ad
:020000040000fa
:1058f8002400fa00000f9800110f9800220f98005a
:10590800330f9800440f9800550f9800660f9800c1
:105918000e08900070004000000f98001e089000cc
:1059280068004000100f98005e0890000000e0003a
:10593800030032004e0890000000e00003003a0027
:105948000080eb00700f98001f0137008e08900050
:105958002e08900080804000002d2000808f50008d
:10596800030036008080eb00710f980016013700a5
:105978009e0890003e08900080804000801e200015
:10598800808f5000030036000080eb00700f9800f5
:105998000d0137002e0890004e09900011000900f3
:1059a8000280d8008000fd000000e0000300320003
:1059b8008080eb00710f9800030137003e089000cb
:1059c8005e099000110009000280d8008000fd00e7
:1059d8000000e000030032000080eb00700f980028
:1059e800f90037005e089000630060000000e000e6
:1059f80039003a004e089000630060000000e000a3
:105a080011003a0000082000000f78004000200034
:105a1800100798005e0890004200de0030079800ea
:105a28004e0890004200de00200798001e089000f3
:105a380064005000100f98000e0890006400500099
:105a4800000f98005a0037004e089000610060006f
:105a58000000e00011003a0000042000000f780068
